{
	"RPS.sol": {
		"RPS": {
			"abi": [
				{
					"inputs": [],
					"name": "addPlayer",
					"outputs": [],
					"stateMutability": "payable",
					"type": "function"
				},
				{
					"inputs": [
						{
							"internalType": "address",
							"name": "",
							"type": "address"
						},
						{
							"internalType": "address",
							"name": "",
							"type": "address"
						}
					],
					"name": "allowance",
					"outputs": [
						{
							"internalType": "uint256",
							"name": "",
							"type": "uint256"
						}
					],
					"stateMutability": "view",
					"type": "function"
				},
				{
					"inputs": [],
					"name": "commitReveal0",
					"outputs": [
						{
							"internalType": "contract CommitReveal",
							"name": "",
							"type": "address"
						}
					],
					"stateMutability": "view",
					"type": "function"
				},
				{
					"inputs": [],
					"name": "commitReveal1",
					"outputs": [
						{
							"internalType": "contract CommitReveal",
							"name": "",
							"type": "address"
						}
					],
					"stateMutability": "view",
					"type": "function"
				},
				{
					"inputs": [
						{
							"internalType": "uint256",
							"name": "dataHash",
							"type": "uint256"
						}
					],
					"name": "input",
					"outputs": [],
					"stateMutability": "nonpayable",
					"type": "function"
				},
				{
					"inputs": [
						{
							"internalType": "uint256",
							"name": "revealHash",
							"type": "uint256"
						}
					],
					"name": "inputReveal",
					"outputs": [],
					"stateMutability": "nonpayable",
					"type": "function"
				},
				{
					"inputs": [],
					"name": "minutesElapsed",
					"outputs": [
						{
							"internalType": "uint256",
							"name": "",
							"type": "uint256"
						}
					],
					"stateMutability": "view",
					"type": "function"
				},
				{
					"inputs": [],
					"name": "numInput",
					"outputs": [
						{
							"internalType": "uint256",
							"name": "",
							"type": "uint256"
						}
					],
					"stateMutability": "view",
					"type": "function"
				},
				{
					"inputs": [],
					"name": "numPlayer",
					"outputs": [
						{
							"internalType": "uint256",
							"name": "",
							"type": "uint256"
						}
					],
					"stateMutability": "view",
					"type": "function"
				},
				{
					"inputs": [],
					"name": "numReveal",
					"outputs": [
						{
							"internalType": "uint256",
							"name": "",
							"type": "uint256"
						}
					],
					"stateMutability": "view",
					"type": "function"
				},
				{
					"inputs": [
						{
							"internalType": "address",
							"name": "",
							"type": "address"
						}
					],
					"name": "player_choice",
					"outputs": [
						{
							"internalType": "uint256",
							"name": "",
							"type": "uint256"
						}
					],
					"stateMutability": "view",
					"type": "function"
				},
				{
					"inputs": [
						{
							"internalType": "address",
							"name": "",
							"type": "address"
						}
					],
					"name": "player_not_played",
					"outputs": [
						{
							"internalType": "bool",
							"name": "",
							"type": "bool"
						}
					],
					"stateMutability": "view",
					"type": "function"
				},
				{
					"inputs": [
						{
							"internalType": "address",
							"name": "",
							"type": "address"
						}
					],
					"name": "player_not_revealed",
					"outputs": [
						{
							"internalType": "bool",
							"name": "",
							"type": "bool"
						}
					],
					"stateMutability": "view",
					"type": "function"
				},
				{
					"inputs": [
						{
							"internalType": "uint256",
							"name": "",
							"type": "uint256"
						}
					],
					"name": "players",
					"outputs": [
						{
							"internalType": "address",
							"name": "",
							"type": "address"
						}
					],
					"stateMutability": "view",
					"type": "function"
				},
				{
					"inputs": [],
					"name": "reward",
					"outputs": [
						{
							"internalType": "uint256",
							"name": "",
							"type": "uint256"
						}
					],
					"stateMutability": "view",
					"type": "function"
				},
				{
					"inputs": [],
					"name": "timeUnit",
					"outputs": [
						{
							"internalType": "contract TimeUnit",
							"name": "",
							"type": "address"
						}
					],
					"stateMutability": "view",
					"type": "function"
				},
				{
					"inputs": [],
					"name": "withdrawEarly",
					"outputs": [],
					"stateMutability": "nonpayable",
					"type": "function"
				}
			],
			"devdoc": {
				"kind": "dev",
				"methods": {},
				"version": 1
			},
			"evm": {
				"assembly": "    /* \"RPS.sol\":130:5095  contract RPS {... */\n  mstore(0x40, 0x80)\n    /* \"RPS.sol\":174:175  0 */\n  0x00\n    /* \"RPS.sol\":150:175  uint public numPlayer = 0 */\n  dup1\n  sstore\n    /* \"RPS.sol\":203:204  0 */\n  0x00\n    /* \"RPS.sol\":182:204  uint public reward = 0 */\n  0x01\n  sstore\n    /* \"RPS.sol\":491:492  0 */\n  0x00\n    /* \"RPS.sol\":468:492  uint public numInput = 0 */\n  0x06\n  sstore\n    /* \"RPS.sol\":523:524  0 */\n  0x00\n    /* \"RPS.sol\":499:524  uint public numReveal = 0 */\n  0x07\n  sstore\n    /* \"RPS.sol\":558:572  new TimeUnit() */\n  mload(0x40)\n  tag_1\n  swap1\n  tag_2\n  jump\t// in\ntag_1:\n  mload(0x40)\n  dup1\n  swap2\n  sub\n  swap1\n  0x00\n  create\n  dup1\n  iszero\n  dup1\n  iszero\n  tag_3\n  jumpi\n  returndatasize\n  0x00\n  dup1\n  returndatacopy\n  revert(0x00, returndatasize)\ntag_3:\n  pop\n    /* \"RPS.sol\":531:572  TimeUnit public timeUnit = new TimeUnit() */\n  0x08\n  exp(0x0100, 0x00)\n  dup2\n  sload\n  dup2\n  0xffffffffffffffffffffffffffffffffffffffff\n  mul\n  not\n  and\n  swap1\n  dup4\n  0xffffffffffffffffffffffffffffffffffffffff\n  and\n  mul\n  or\n  swap1\n  sstore\n  pop\n    /* \"RPS.sol\":615:633  new CommitReveal() */\n  mload(0x40)\n  tag_4\n  swap1\n  tag_5\n  jump\t// in\ntag_4:\n  mload(0x40)\n  dup1\n  swap2\n  sub\n  swap1\n  0x00\n  create\n  dup1\n  iszero\n  dup1\n  iszero\n  tag_6\n  jumpi\n  returndatasize\n  0x00\n  dup1\n  returndatacopy\n  revert(0x00, returndatasize)\ntag_6:\n  pop\n    /* \"RPS.sol\":579:633  CommitReveal public commitReveal0 = new CommitReveal() */\n  0x09\n  exp(0x0100, 0x00)\n  dup2\n  sload\n  dup2\n  0xffffffffffffffffffffffffffffffffffffffff\n  mul\n  not\n  and\n  swap1\n  dup4\n  0xffffffffffffffffffffffffffffffffffffffff\n  and\n  mul\n  or\n  swap1\n  sstore\n  pop\n    /* \"RPS.sol\":676:694  new CommitReveal() */\n  mload(0x40)\n  tag_7\n  swap1\n  tag_5\n  jump\t// in\ntag_7:\n  mload(0x40)\n  dup1\n  swap2\n  sub\n  swap1\n  0x00\n  create\n  dup1\n  iszero\n  dup1\n  iszero\n  tag_8\n  jumpi\n  returndatasize\n  0x00\n  dup1\n  returndatacopy\n  revert(0x00, returndatasize)\ntag_8:\n  pop\n    /* \"RPS.sol\":640:694  CommitReveal public commitReveal1 = new CommitReveal() */\n  0x0a\n  exp(0x0100, 0x00)\n  dup2\n  sload\n  dup2\n  0xffffffffffffffffffffffffffffffffffffffff\n  mul\n  not\n  and\n  swap1\n  dup4\n  0xffffffffffffffffffffffffffffffffffffffff\n  and\n  mul\n  or\n  swap1\n  sstore\n  pop\n    /* \"RPS.sol\":730:731  0 */\n  0x00\n    /* \"RPS.sol\":701:731  uint public minutesElapsed = 0 */\n  0x0b\n  sstore\n    /* \"RPS.sol\":130:5095  contract RPS {... */\n  callvalue\n  dup1\n  iszero\n  tag_9\n  jumpi\n  0x00\n  dup1\n  revert\ntag_9:\n  pop\n  jump(tag_10)\ntag_2:\n  dataSize(sub_1)\n  dup1\n  dataOffset(sub_1)\n  dup4\n  codecopy\n  add\n  swap1\n  jump\t// out\ntag_5:\n  dataSize(sub_2)\n  dup1\n  dataOffset(sub_2)\n  dup4\n  codecopy\n  add\n  swap1\n  jump\t// out\ntag_10:\n  dataSize(sub_0)\n  dup1\n  dataOffset(sub_0)\n  0x00\n  codecopy\n  0x00\n  return\nstop\n\nsub_0: assembly {\n        /* \"RPS.sol\":130:5095  contract RPS {... */\n      mstore(0x40, 0x80)\n      jumpi(tag_1, lt(calldatasize, 0x04))\n      shr(0xe0, calldataload(0x00))\n      dup1\n      0x8ffbc767\n      gt\n      tag_19\n      jumpi\n      dup1\n      0xce6e1c4e\n      gt\n      tag_20\n      jumpi\n      dup1\n      0xce6e1c4e\n      eq\n      tag_14\n      jumpi\n      dup1\n      0xdd62ed3e\n      eq\n      tag_15\n      jumpi\n      dup1\n      0xdea29c54\n      eq\n      tag_16\n      jumpi\n      dup1\n      0xdf870a62\n      eq\n      tag_17\n      jumpi\n      dup1\n      0xf71d96cb\n      eq\n      tag_18\n      jumpi\n      jump(tag_1)\n    tag_20:\n      dup1\n      0x8ffbc767\n      eq\n      tag_10\n      jumpi\n      dup1\n      0x90d5d0c3\n      eq\n      tag_11\n      jumpi\n      dup1\n      0xa040478d\n      eq\n      tag_12\n      jumpi\n      dup1\n      0xc876e615\n      eq\n      tag_13\n      jumpi\n      jump(tag_1)\n    tag_19:\n      dup1\n      0x2fc54f73\n      gt\n      tag_21\n      jumpi\n      dup1\n      0x2fc54f73\n      eq\n      tag_6\n      jumpi\n      dup1\n      0x3c6a7f9b\n      eq\n      tag_7\n      jumpi\n      dup1\n      0x728385fb\n      eq\n      tag_8\n      jumpi\n      dup1\n      0x77cfb378\n      eq\n      tag_9\n      jumpi\n      jump(tag_1)\n    tag_21:\n      dup1\n      0x086f7815\n      eq\n      tag_2\n      jumpi\n      dup1\n      0x190cf745\n      eq\n      tag_3\n      jumpi\n      dup1\n      0x228cb733\n      eq\n      tag_4\n      jumpi\n      dup1\n      0x27b5db8a\n      eq\n      tag_5\n      jumpi\n    tag_1:\n      0x00\n      dup1\n      revert\n        /* \"RPS.sol\":468:492  uint public numInput = 0 */\n    tag_2:\n      callvalue\n      dup1\n      iszero\n      tag_22\n      jumpi\n      0x00\n      dup1\n      revert\n    tag_22:\n      pop\n      tag_23\n      tag_24\n      jump\t// in\n    tag_23:\n      mload(0x40)\n      tag_25\n      swap2\n      swap1\n      tag_26\n      jump\t// in\n    tag_25:\n      mload(0x40)\n      dup1\n      swap2\n      sub\n      swap1\n      return\n        /* \"RPS.sol\":323:372  mapping(address => bool) public player_not_played */\n    tag_3:\n      callvalue\n      dup1\n      iszero\n      tag_27\n      jumpi\n      0x00\n      dup1\n      revert\n    tag_27:\n      pop\n      tag_28\n      0x04\n      dup1\n      calldatasize\n      sub\n      dup2\n      add\n      swap1\n      tag_29\n      swap2\n      swap1\n      tag_30\n      jump\t// in\n    tag_29:\n      tag_31\n      jump\t// in\n    tag_28:\n      mload(0x40)\n      tag_32\n      swap2\n      swap1\n      tag_33\n      jump\t// in\n    tag_32:\n      mload(0x40)\n      dup1\n      swap2\n      sub\n      swap1\n      return\n        /* \"RPS.sol\":182:204  uint public reward = 0 */\n    tag_4:\n      callvalue\n      dup1\n      iszero\n      tag_34\n      jumpi\n      0x00\n      dup1\n      revert\n    tag_34:\n      pop\n      tag_35\n      tag_36\n      jump\t// in\n    tag_35:\n      mload(0x40)\n      tag_37\n      swap2\n      swap1\n      tag_26\n      jump\t// in\n    tag_37:\n      mload(0x40)\n      dup1\n      swap2\n      sub\n      swap1\n      return\n        /* \"RPS.sol\":811:1307  function addPlayer() public payable  {... */\n    tag_5:\n      tag_38\n      tag_39\n      jump\t// in\n    tag_38:\n      stop\n        /* \"RPS.sol\":1316:2399  function withdrawEarly() public {... */\n    tag_6:\n      callvalue\n      dup1\n      iszero\n      tag_40\n      jumpi\n      0x00\n      dup1\n      revert\n    tag_40:\n      pop\n      tag_41\n      tag_42\n      jump\t// in\n    tag_41:\n      stop\n        /* \"RPS.sol\":531:572  TimeUnit public timeUnit = new TimeUnit() */\n    tag_7:\n      callvalue\n      dup1\n      iszero\n      tag_43\n      jumpi\n      0x00\n      dup1\n      revert\n    tag_43:\n      pop\n      tag_44\n      tag_45\n      jump\t// in\n    tag_44:\n      mload(0x40)\n      tag_46\n      swap2\n      swap1\n      tag_47\n      jump\t// in\n    tag_46:\n      mload(0x40)\n      dup1\n      swap2\n      sub\n      swap1\n      return\n        /* \"RPS.sol\":640:694  CommitReveal public commitReveal1 = new CommitReveal() */\n    tag_8:\n      callvalue\n      dup1\n      iszero\n      tag_48\n      jumpi\n      0x00\n      dup1\n      revert\n    tag_48:\n      pop\n      tag_49\n      tag_50\n      jump\t// in\n    tag_49:\n      mload(0x40)\n      tag_51\n      swap2\n      swap1\n      tag_52\n      jump\t// in\n    tag_51:\n      mload(0x40)\n      dup1\n      swap2\n      sub\n      swap1\n      return\n        /* \"RPS.sol\":701:731  uint public minutesElapsed = 0 */\n    tag_9:\n      callvalue\n      dup1\n      iszero\n      tag_53\n      jumpi\n      0x00\n      dup1\n      revert\n    tag_53:\n      pop\n      tag_54\n      tag_55\n      jump\t// in\n    tag_54:\n      mload(0x40)\n      tag_56\n      swap2\n      swap1\n      tag_26\n      jump\t// in\n    tag_56:\n      mload(0x40)\n      dup1\n      swap2\n      sub\n      swap1\n      return\n        /* \"RPS.sol\":379:430  mapping(address => bool) public player_not_revealed */\n    tag_10:\n      callvalue\n      dup1\n      iszero\n      tag_57\n      jumpi\n      0x00\n      dup1\n      revert\n    tag_57:\n      pop\n      tag_58\n      0x04\n      dup1\n      calldatasize\n      sub\n      dup2\n      add\n      swap1\n      tag_59\n      swap2\n      swap1\n      tag_30\n      jump\t// in\n    tag_59:\n      tag_60\n      jump\t// in\n    tag_58:\n      mload(0x40)\n      tag_61\n      swap2\n      swap1\n      tag_33\n      jump\t// in\n    tag_61:\n      mload(0x40)\n      dup1\n      swap2\n      sub\n      swap1\n      return\n        /* \"RPS.sol\":150:175  uint public numPlayer = 0 */\n    tag_11:\n      callvalue\n      dup1\n      iszero\n      tag_62\n      jumpi\n      0x00\n      dup1\n      revert\n    tag_62:\n      pop\n      tag_63\n      tag_64\n      jump\t// in\n    tag_63:\n      mload(0x40)\n      tag_65\n      swap2\n      swap1\n      tag_26\n      jump\t// in\n    tag_65:\n      mload(0x40)\n      dup1\n      swap2\n      sub\n      swap1\n      return\n        /* \"RPS.sol\":211:256  mapping(address => uint) public player_choice */\n    tag_12:\n      callvalue\n      dup1\n      iszero\n      tag_66\n      jumpi\n      0x00\n      dup1\n      revert\n    tag_66:\n      pop\n      tag_67\n      0x04\n      dup1\n      calldatasize\n      sub\n      dup2\n      add\n      swap1\n      tag_68\n      swap2\n      swap1\n      tag_30\n      jump\t// in\n    tag_68:\n      tag_69\n      jump\t// in\n    tag_67:\n      mload(0x40)\n      tag_70\n      swap2\n      swap1\n      tag_26\n      jump\t// in\n    tag_70:\n      mload(0x40)\n      dup1\n      swap2\n      sub\n      swap1\n      return\n        /* \"RPS.sol\":499:524  uint public numReveal = 0 */\n    tag_13:\n      callvalue\n      dup1\n      iszero\n      tag_71\n      jumpi\n      0x00\n      dup1\n      revert\n    tag_71:\n      pop\n      tag_72\n      tag_73\n      jump\t// in\n    tag_72:\n      mload(0x40)\n      tag_74\n      swap2\n      swap1\n      tag_26\n      jump\t// in\n    tag_74:\n      mload(0x40)\n      dup1\n      swap2\n      sub\n      swap1\n      return\n        /* \"RPS.sol\":2407:2856  function input(uint dataHash) public {... */\n    tag_14:\n      callvalue\n      dup1\n      iszero\n      tag_75\n      jumpi\n      0x00\n      dup1\n      revert\n    tag_75:\n      pop\n      tag_76\n      0x04\n      dup1\n      calldatasize\n      sub\n      dup2\n      add\n      swap1\n      tag_77\n      swap2\n      swap1\n      tag_78\n      jump\t// in\n    tag_77:\n      tag_79\n      jump\t// in\n    tag_76:\n      stop\n        /* \"RPS.sol\":738:802  mapping(address => mapping(address => uint256)) public allowance */\n    tag_15:\n      callvalue\n      dup1\n      iszero\n      tag_80\n      jumpi\n      0x00\n      dup1\n      revert\n    tag_80:\n      pop\n      tag_81\n      0x04\n      dup1\n      calldatasize\n      sub\n      dup2\n      add\n      swap1\n      tag_82\n      swap2\n      swap1\n      tag_83\n      jump\t// in\n    tag_82:\n      tag_84\n      jump\t// in\n    tag_81:\n      mload(0x40)\n      tag_85\n      swap2\n      swap1\n      tag_26\n      jump\t// in\n    tag_85:\n      mload(0x40)\n      dup1\n      swap2\n      sub\n      swap1\n      return\n        /* \"RPS.sol\":2864:3606  function inputReveal(uint revealHash) public {... */\n    tag_16:\n      callvalue\n      dup1\n      iszero\n      tag_86\n      jumpi\n      0x00\n      dup1\n      revert\n    tag_86:\n      pop\n      tag_87\n      0x04\n      dup1\n      calldatasize\n      sub\n      dup2\n      add\n      swap1\n      tag_88\n      swap2\n      swap1\n      tag_78\n      jump\t// in\n    tag_88:\n      tag_89\n      jump\t// in\n    tag_87:\n      stop\n        /* \"RPS.sol\":579:633  CommitReveal public commitReveal0 = new CommitReveal() */\n    tag_17:\n      callvalue\n      dup1\n      iszero\n      tag_90\n      jumpi\n      0x00\n      dup1\n      revert\n    tag_90:\n      pop\n      tag_91\n      tag_92\n      jump\t// in\n    tag_91:\n      mload(0x40)\n      tag_93\n      swap2\n      swap1\n      tag_52\n      jump\t// in\n    tag_93:\n      mload(0x40)\n      dup1\n      swap2\n      sub\n      swap1\n      return\n        /* \"RPS.sol\":437:461  address[] public players */\n    tag_18:\n      callvalue\n      dup1\n      iszero\n      tag_94\n      jumpi\n      0x00\n      dup1\n      revert\n    tag_94:\n      pop\n      tag_95\n      0x04\n      dup1\n      calldatasize\n      sub\n      dup2\n      add\n      swap1\n      tag_96\n      swap2\n      swap1\n      tag_78\n      jump\t// in\n    tag_96:\n      tag_97\n      jump\t// in\n    tag_95:\n      mload(0x40)\n      tag_98\n      swap2\n      swap1\n      tag_99\n      jump\t// in\n    tag_98:\n      mload(0x40)\n      dup1\n      swap2\n      sub\n      swap1\n      return\n        /* \"RPS.sol\":468:492  uint public numInput = 0 */\n    tag_24:\n      sload(0x06)\n      dup2\n      jump\t// out\n        /* \"RPS.sol\":323:372  mapping(address => bool) public player_not_played */\n    tag_31:\n      mstore(0x20, 0x03)\n      dup1\n      0x00\n      mstore\n      keccak256(0x00, 0x40)\n      0x00\n      swap2\n      pop\n      sload\n      swap1\n      0x0100\n      exp\n      swap1\n      div\n      0xff\n      and\n      dup2\n      jump\t// out\n        /* \"RPS.sol\":182:204  uint public reward = 0 */\n    tag_36:\n      sload(0x01)\n      dup2\n      jump\t// out\n        /* \"RPS.sol\":811:1307  function addPlayer() public payable  {... */\n    tag_39:\n        /* \"RPS.sol\":879:880  2 */\n      0x02\n        /* \"RPS.sol\":867:876  numPlayer */\n      sload(0x00)\n        /* \"RPS.sol\":867:880  numPlayer < 2 */\n      lt\n        /* \"RPS.sol\":859:913  require(numPlayer < 2, \"Game already has two players\") */\n      tag_101\n      jumpi\n      mload(0x40)\n      0x08c379a000000000000000000000000000000000000000000000000000000000\n      dup2\n      mstore\n      0x04\n      add\n      tag_102\n      swap1\n      tag_103\n      jump\t// in\n    tag_102:\n      mload(0x40)\n      dup1\n      swap2\n      sub\n      swap1\n      revert\n    tag_101:\n        /* \"RPS.sol\":940:941  0 */\n      0x00\n        /* \"RPS.sol\":928:937  numPlayer */\n      dup1\n      sload\n        /* \"RPS.sol\":928:941  numPlayer > 0 */\n      gt\n        /* \"RPS.sol\":924:1083  if (numPlayer > 0) {... */\n      iszero\n      tag_104\n      jumpi\n        /* \"RPS.sol\":980:987  players */\n      0x05\n        /* \"RPS.sol\":988:989  0 */\n      0x00\n        /* \"RPS.sol\":980:990  players[0] */\n      dup2\n      sload\n      dup2\n      lt\n      tag_105\n      jumpi\n      tag_106\n      tag_107\n      jump\t// in\n    tag_106:\n    tag_105:\n      swap1\n      0x00\n      mstore\n      keccak256(0x00, 0x20)\n      add\n      0x00\n      swap1\n      sload\n      swap1\n      0x0100\n      exp\n      swap1\n      div\n      0xffffffffffffffffffffffffffffffffffffffff\n      and\n        /* \"RPS.sol\":966:990  msg.sender != players[0] */\n      0xffffffffffffffffffffffffffffffffffffffff\n      and\n        /* \"RPS.sol\":966:976  msg.sender */\n      caller\n        /* \"RPS.sol\":966:990  msg.sender != players[0] */\n      0xffffffffffffffffffffffffffffffffffffffff\n      and\n      sub\n        /* \"RPS.sol\":958:1015  require(msg.sender != players[0], \"Player already added\") */\n      tag_109\n      jumpi\n      mload(0x40)\n      0x08c379a000000000000000000000000000000000000000000000000000000000\n      dup2\n      mstore\n      0x04\n      add\n      tag_110\n      swap1\n      tag_111\n      jump\t// in\n    tag_110:\n      mload(0x40)\n      dup1\n      swap2\n      sub\n      swap1\n      revert\n    tag_109:\n        /* \"RPS.sol\":924:1083  if (numPlayer > 0) {... */\n      jump(tag_112)\n    tag_104:\n        /* \"RPS.sol\":1048:1056  timeUnit */\n      0x08\n      0x00\n      swap1\n      sload\n      swap1\n      0x0100\n      exp\n      swap1\n      div\n      0xffffffffffffffffffffffffffffffffffffffff\n      and\n        /* \"RPS.sol\":1048:1069  timeUnit.setStartTime */\n      0xffffffffffffffffffffffffffffffffffffffff\n      and\n      0xa63f7c53\n        /* \"RPS.sol\":1048:1071  timeUnit.setStartTime() */\n      mload(0x40)\n      dup2\n      0xffffffff\n      and\n      0xe0\n      shl\n      dup2\n      mstore\n      0x04\n      add\n      0x00\n      mload(0x40)\n      dup1\n      dup4\n      sub\n      dup2\n      0x00\n      dup8\n      dup1\n      extcodesize\n      iszero\n      dup1\n      iszero\n      tag_113\n      jumpi\n      0x00\n      dup1\n      revert\n    tag_113:\n      pop\n      gas\n      call\n      iszero\n      dup1\n      iszero\n      tag_115\n      jumpi\n      returndatasize\n      0x00\n      dup1\n      returndatacopy\n      revert(0x00, returndatasize)\n    tag_115:\n      pop\n      pop\n      pop\n      pop\n        /* \"RPS.sol\":924:1083  if (numPlayer > 0) {... */\n    tag_112:\n        /* \"RPS.sol\":1114:1128  0.000001 ether */\n      0xe8d4a51000\n        /* \"RPS.sol\":1101:1110  msg.value */\n      callvalue\n        /* \"RPS.sol\":1101:1128  msg.value == 0.000001 ether */\n      eq\n        /* \"RPS.sol\":1093:1165  require(msg.value == 0.000001 ether, \"Must send exactly 0.000001 ether\") */\n      tag_116\n      jumpi\n      mload(0x40)\n      0x08c379a000000000000000000000000000000000000000000000000000000000\n      dup2\n      mstore\n      0x04\n      add\n      tag_117\n      swap1\n      tag_118\n      jump\t// in\n    tag_117:\n      mload(0x40)\n      dup1\n      swap2\n      sub\n      swap1\n      revert\n    tag_116:\n        /* \"RPS.sol\":1186:1195  msg.value */\n      callvalue\n        /* \"RPS.sol\":1176:1182  reward */\n      0x01\n      0x00\n        /* \"RPS.sol\":1176:1195  reward += msg.value */\n      dup3\n      dup3\n      sload\n      tag_119\n      swap2\n      swap1\n      tag_120\n      jump\t// in\n    tag_119:\n      swap3\n      pop\n      pop\n      dup2\n      swap1\n      sstore\n      pop\n        /* \"RPS.sol\":1238:1242  true */\n      0x01\n        /* \"RPS.sol\":1206:1223  player_not_played */\n      0x03\n        /* \"RPS.sol\":1206:1235  player_not_played[msg.sender] */\n      0x00\n        /* \"RPS.sol\":1224:1234  msg.sender */\n      caller\n        /* \"RPS.sol\":1206:1235  player_not_played[msg.sender] */\n      0xffffffffffffffffffffffffffffffffffffffff\n      and\n      0xffffffffffffffffffffffffffffffffffffffff\n      and\n      dup2\n      mstore\n      0x20\n      add\n      swap1\n      dup2\n      mstore\n      0x20\n      add\n      0x00\n      keccak256\n      0x00\n        /* \"RPS.sol\":1206:1242  player_not_played[msg.sender] = true */\n      0x0100\n      exp\n      dup2\n      sload\n      dup2\n      0xff\n      mul\n      not\n      and\n      swap1\n      dup4\n      iszero\n      iszero\n      mul\n      or\n      swap1\n      sstore\n      pop\n        /* \"RPS.sol\":1253:1260  players */\n      0x05\n        /* \"RPS.sol\":1266:1276  msg.sender */\n      caller\n        /* \"RPS.sol\":1253:1277  players.push(msg.sender) */\n      swap1\n      dup1\n      0x01\n      dup2\n      sload\n      add\n      dup1\n      dup3\n      sstore\n      dup1\n      swap2\n      pop\n      pop\n      0x01\n      swap1\n      sub\n      swap1\n      0x00\n      mstore\n      keccak256(0x00, 0x20)\n      add\n      0x00\n      swap1\n      swap2\n      swap1\n      swap2\n      swap1\n      swap2\n      0x0100\n      exp\n      dup2\n      sload\n      dup2\n      0xffffffffffffffffffffffffffffffffffffffff\n      mul\n      not\n      and\n      swap1\n      dup4\n      0xffffffffffffffffffffffffffffffffffffffff\n      and\n      mul\n      or\n      swap1\n      sstore\n      pop\n        /* \"RPS.sol\":1288:1297  numPlayer */\n      0x00\n      dup1\n        /* \"RPS.sol\":1288:1299  numPlayer++ */\n      dup2\n      sload\n      dup1\n      swap3\n      swap2\n      swap1\n      tag_122\n      swap1\n      tag_123\n      jump\t// in\n    tag_122:\n      swap2\n      swap1\n      pop\n      sstore\n      pop\n        /* \"RPS.sol\":811:1307  function addPlayer() public payable  {... */\n      jump\t// out\n        /* \"RPS.sol\":1316:2399  function withdrawEarly() public {... */\n    tag_42:\n        /* \"RPS.sol\":1379:1380  0 */\n      0x00\n        /* \"RPS.sol\":1367:1376  numPlayer */\n      dup1\n      sload\n        /* \"RPS.sol\":1367:1380  numPlayer > 0 */\n      gt\n        /* \"RPS.sol\":1359:1398  require(numPlayer > 0, \"Game is empty\") */\n      tag_125\n      jumpi\n      mload(0x40)\n      0x08c379a000000000000000000000000000000000000000000000000000000000\n      dup2\n      mstore\n      0x04\n      add\n      tag_126\n      swap1\n      tag_127\n      jump\t// in\n    tag_126:\n      mload(0x40)\n      dup1\n      swap2\n      sub\n      swap1\n      revert\n    tag_125:\n        /* \"RPS.sol\":1426:1434  timeUnit */\n      0x08\n      0x00\n      swap1\n      sload\n      swap1\n      0x0100\n      exp\n      swap1\n      div\n      0xffffffffffffffffffffffffffffffffffffffff\n      and\n        /* \"RPS.sol\":1426:1449  timeUnit.elapsedMinutes */\n      0xffffffffffffffffffffffffffffffffffffffff\n      and\n      0xd97c8416\n        /* \"RPS.sol\":1426:1451  timeUnit.elapsedMinutes() */\n      mload(0x40)\n      dup2\n      0xffffffff\n      and\n      0xe0\n      shl\n      dup2\n      mstore\n      0x04\n      add\n      0x20\n      mload(0x40)\n      dup1\n      dup4\n      sub\n      dup2\n      dup7\n      gas\n      staticcall\n      iszero\n      dup1\n      iszero\n      tag_129\n      jumpi\n      returndatasize\n      0x00\n      dup1\n      returndatacopy\n      revert(0x00, returndatasize)\n    tag_129:\n      pop\n      pop\n      pop\n      pop\n      mload(0x40)\n      returndatasize\n      not(0x1f)\n      0x1f\n      dup3\n      add\n      and\n      dup3\n      add\n      dup1\n      0x40\n      mstore\n      pop\n      dup2\n      add\n      swap1\n      tag_130\n      swap2\n      swap1\n      tag_131\n      jump\t// in\n    tag_130:\n        /* \"RPS.sol\":1409:1423  minutesElapsed */\n      0x0b\n        /* \"RPS.sol\":1409:1451  minutesElapsed = timeUnit.elapsedMinutes() */\n      dup2\n      swap1\n      sstore\n      pop\n        /* \"RPS.sol\":1488:1490  10 */\n      0x0a\n        /* \"RPS.sol\":1470:1484  minutesElapsed */\n      sload(0x0b)\n        /* \"RPS.sol\":1470:1490  minutesElapsed >= 10 */\n      lt\n      iszero\n        /* \"RPS.sol\":1462:1521  require(minutesElapsed >= 10, \"Timeout period not reached\") */\n      tag_132\n      jumpi\n      mload(0x40)\n      0x08c379a000000000000000000000000000000000000000000000000000000000\n      dup2\n      mstore\n      0x04\n      add\n      tag_133\n      swap1\n      tag_134\n      jump\t// in\n    tag_133:\n      mload(0x40)\n      dup1\n      swap2\n      sub\n      swap1\n      revert\n    tag_132:\n        /* \"RPS.sol\":1532:1556  address payable account0 */\n      0x00\n        /* \"RPS.sol\":1567:1574  players */\n      0x05\n        /* \"RPS.sol\":1575:1576  0 */\n      0x00\n        /* \"RPS.sol\":1567:1577  players[0] */\n      dup2\n      sload\n      dup2\n      lt\n      tag_135\n      jumpi\n      tag_136\n      tag_107\n      jump\t// in\n    tag_136:\n    tag_135:\n      swap1\n      0x00\n      mstore\n      keccak256(0x00, 0x20)\n      add\n      0x00\n      swap1\n      sload\n      swap1\n      0x0100\n      exp\n      swap1\n      div\n      0xffffffffffffffffffffffffffffffffffffffff\n      and\n        /* \"RPS.sol\":1532:1578  address payable account0 = payable(players[0]) */\n      swap1\n      pop\n        /* \"RPS.sol\":1606:1607  1 */\n      0x01\n        /* \"RPS.sol\":1593:1602  numPlayer */\n      sload(0x00)\n        /* \"RPS.sol\":1593:1607  numPlayer == 1 */\n      sub\n        /* \"RPS.sol\":1589:2359  if (numPlayer == 1) {... */\n      tag_138\n      jumpi\n        /* \"RPS.sol\":1646:1653  players */\n      0x05\n        /* \"RPS.sol\":1654:1655  0 */\n      0x00\n        /* \"RPS.sol\":1646:1656  players[0] */\n      dup2\n      sload\n      dup2\n      lt\n      tag_139\n      jumpi\n      tag_140\n      tag_107\n      jump\t// in\n    tag_140:\n    tag_139:\n      swap1\n      0x00\n      mstore\n      keccak256(0x00, 0x20)\n      add\n      0x00\n      swap1\n      sload\n      swap1\n      0x0100\n      exp\n      swap1\n      div\n      0xffffffffffffffffffffffffffffffffffffffff\n      and\n        /* \"RPS.sol\":1632:1656  msg.sender == players[0] */\n      0xffffffffffffffffffffffffffffffffffffffff\n      and\n        /* \"RPS.sol\":1632:1642  msg.sender */\n      caller\n        /* \"RPS.sol\":1632:1656  msg.sender == players[0] */\n      0xffffffffffffffffffffffffffffffffffffffff\n      and\n      eq\n        /* \"RPS.sol\":1624:1686  require(msg.sender == players[0], \"Only player0 can withdraw\") */\n      tag_142\n      jumpi\n      mload(0x40)\n      0x08c379a000000000000000000000000000000000000000000000000000000000\n      dup2\n      mstore\n      0x04\n      add\n      tag_143\n      swap1\n      tag_144\n      jump\t// in\n    tag_143:\n      mload(0x40)\n      dup1\n      swap2\n      sub\n      swap1\n      revert\n    tag_142:\n        /* \"RPS.sol\":1701:1709  account0 */\n      dup1\n        /* \"RPS.sol\":1701:1718  account0.transfer */\n      0xffffffffffffffffffffffffffffffffffffffff\n      and\n        /* \"RPS.sol\":1701:1726  account0.transfer(reward) */\n      0x08fc\n        /* \"RPS.sol\":1719:1725  reward */\n      sload(0x01)\n        /* \"RPS.sol\":1701:1726  account0.transfer(reward) */\n      swap1\n      dup2\n      iszero\n      mul\n      swap1\n      mload(0x40)\n      0x00\n      mload(0x40)\n      dup1\n      dup4\n      sub\n      dup2\n      dup6\n      dup9\n      dup9\n      call\n      swap4\n      pop\n      pop\n      pop\n      pop\n      iszero\n      dup1\n      iszero\n      tag_146\n      jumpi\n      returndatasize\n      0x00\n      dup1\n      returndatacopy\n      revert(0x00, returndatasize)\n    tag_146:\n      pop\n        /* \"RPS.sol\":1589:2359  if (numPlayer == 1) {... */\n      jump(tag_147)\n    tag_138:\n        /* \"RPS.sol\":1760:1761  2 */\n      0x02\n        /* \"RPS.sol\":1748:1756  numInput */\n      sload(0x06)\n        /* \"RPS.sol\":1748:1761  numInput == 2 */\n      sub\n        /* \"RPS.sol\":1744:2359  if (numInput == 2) {... */\n      tag_148\n      jumpi\n        /* \"RPS.sol\":1795:1796  1 */\n      0x01\n        /* \"RPS.sol\":1782:1791  numReveal */\n      sload(0x07)\n        /* \"RPS.sol\":1782:1796  numReveal == 1 */\n      sub\n        /* \"RPS.sol\":1778:2028  if (numReveal == 1){... */\n      tag_149\n      jumpi\n        /* \"RPS.sol\":1826:1845  player_not_revealed */\n      0x04\n        /* \"RPS.sol\":1826:1857  player_not_revealed[msg.sender] */\n      0x00\n        /* \"RPS.sol\":1846:1856  msg.sender */\n      caller\n        /* \"RPS.sol\":1826:1857  player_not_revealed[msg.sender] */\n      0xffffffffffffffffffffffffffffffffffffffff\n      and\n      0xffffffffffffffffffffffffffffffffffffffff\n      and\n      dup2\n      mstore\n      0x20\n      add\n      swap1\n      dup2\n      mstore\n      0x20\n      add\n      0x00\n      keccak256\n      0x00\n      swap1\n      sload\n      swap1\n      0x0100\n      exp\n      swap1\n      div\n      0xff\n      and\n        /* \"RPS.sol\":1825:1857  !player_not_revealed[msg.sender] */\n      iszero\n        /* \"RPS.sol\":1824:1916  (!player_not_revealed[msg.sender]) && (msg.sender == players[0] || msg.sender == players[1]) */\n      dup1\n      iszero\n      tag_150\n      jumpi\n      pop\n        /* \"RPS.sol\":1877:1884  players */\n      0x05\n        /* \"RPS.sol\":1885:1886  0 */\n      0x00\n        /* \"RPS.sol\":1877:1887  players[0] */\n      dup2\n      sload\n      dup2\n      lt\n      tag_151\n      jumpi\n      tag_152\n      tag_107\n      jump\t// in\n    tag_152:\n    tag_151:\n      swap1\n      0x00\n      mstore\n      keccak256(0x00, 0x20)\n      add\n      0x00\n      swap1\n      sload\n      swap1\n      0x0100\n      exp\n      swap1\n      div\n      0xffffffffffffffffffffffffffffffffffffffff\n      and\n        /* \"RPS.sol\":1863:1887  msg.sender == players[0] */\n      0xffffffffffffffffffffffffffffffffffffffff\n      and\n        /* \"RPS.sol\":1863:1873  msg.sender */\n      caller\n        /* \"RPS.sol\":1863:1887  msg.sender == players[0] */\n      0xffffffffffffffffffffffffffffffffffffffff\n      and\n      eq\n        /* \"RPS.sol\":1863:1915  msg.sender == players[0] || msg.sender == players[1] */\n      dup1\n      tag_154\n      jumpi\n      pop\n        /* \"RPS.sol\":1905:1912  players */\n      0x05\n        /* \"RPS.sol\":1913:1914  1 */\n      0x01\n        /* \"RPS.sol\":1905:1915  players[1] */\n      dup2\n      sload\n      dup2\n      lt\n      tag_155\n      jumpi\n      tag_156\n      tag_107\n      jump\t// in\n    tag_156:\n    tag_155:\n      swap1\n      0x00\n      mstore\n      keccak256(0x00, 0x20)\n      add\n      0x00\n      swap1\n      sload\n      swap1\n      0x0100\n      exp\n      swap1\n      div\n      0xffffffffffffffffffffffffffffffffffffffff\n      and\n        /* \"RPS.sol\":1891:1915  msg.sender == players[1] */\n      0xffffffffffffffffffffffffffffffffffffffff\n      and\n        /* \"RPS.sol\":1891:1901  msg.sender */\n      caller\n        /* \"RPS.sol\":1891:1915  msg.sender == players[1] */\n      0xffffffffffffffffffffffffffffffffffffffff\n      and\n      eq\n        /* \"RPS.sol\":1863:1915  msg.sender == players[0] || msg.sender == players[1] */\n    tag_154:\n        /* \"RPS.sol\":1824:1916  (!player_not_revealed[msg.sender]) && (msg.sender == players[0] || msg.sender == players[1]) */\n    tag_150:\n        /* \"RPS.sol\":1816:1945  require((!player_not_revealed[msg.sender]) && (msg.sender == players[0] || msg.sender == players[1]), \"Only player who revealed\") */\n      tag_158\n      jumpi\n      mload(0x40)\n      0x08c379a000000000000000000000000000000000000000000000000000000000\n      dup2\n      mstore\n      0x04\n      add\n      tag_159\n      swap1\n      tag_160\n      jump\t// in\n    tag_159:\n      mload(0x40)\n      dup1\n      swap2\n      sub\n      swap1\n      revert\n    tag_158:\n        /* \"RPS.sol\":1778:2028  if (numReveal == 1){... */\n      jump(tag_161)\n    tag_149:\n        /* \"RPS.sol\":1984:1985  2 */\n      0x02\n        /* \"RPS.sol\":1971:1980  numReveal */\n      sload(0x07)\n        /* \"RPS.sol\":1971:1985  numReveal == 2 */\n      sub\n        /* \"RPS.sol\":1967:2028  if (numReveal == 2) {... */\n      tag_162\n      jumpi\n        /* \"RPS.sol\":2006:2013  return; */\n      pop\n      jump(tag_124)\n        /* \"RPS.sol\":1967:2028  if (numReveal == 2) {... */\n    tag_162:\n        /* \"RPS.sol\":1778:2028  if (numReveal == 1){... */\n    tag_161:\n        /* \"RPS.sol\":2050:2060  msg.sender */\n      caller\n        /* \"RPS.sol\":2042:2070  payable(msg.sender).transfer */\n      0xffffffffffffffffffffffffffffffffffffffff\n      and\n        /* \"RPS.sol\":2042:2078  payable(msg.sender).transfer(reward) */\n      0x08fc\n        /* \"RPS.sol\":2071:2077  reward */\n      sload(0x01)\n        /* \"RPS.sol\":2042:2078  payable(msg.sender).transfer(reward) */\n      swap1\n      dup2\n      iszero\n      mul\n      swap1\n      mload(0x40)\n      0x00\n      mload(0x40)\n      dup1\n      dup4\n      sub\n      dup2\n      dup6\n      dup9\n      dup9\n      call\n      swap4\n      pop\n      pop\n      pop\n      pop\n      iszero\n      dup1\n      iszero\n      tag_164\n      jumpi\n      returndatasize\n      0x00\n      dup1\n      returndatacopy\n      revert(0x00, returndatasize)\n    tag_164:\n      pop\n        /* \"RPS.sol\":1744:2359  if (numInput == 2) {... */\n      jump(tag_165)\n    tag_148:\n        /* \"RPS.sol\":2111:2135  address payable account1 */\n      0x00\n        /* \"RPS.sol\":2146:2153  players */\n      0x05\n        /* \"RPS.sol\":2154:2155  1 */\n      0x01\n        /* \"RPS.sol\":2146:2156  players[1] */\n      dup2\n      sload\n      dup2\n      lt\n      tag_166\n      jumpi\n      tag_167\n      tag_107\n      jump\t// in\n    tag_167:\n    tag_166:\n      swap1\n      0x00\n      mstore\n      keccak256(0x00, 0x20)\n      add\n      0x00\n      swap1\n      sload\n      swap1\n      0x0100\n      exp\n      swap1\n      div\n      0xffffffffffffffffffffffffffffffffffffffff\n      and\n        /* \"RPS.sol\":2111:2157  address payable account1 = payable(players[1]) */\n      swap1\n      pop\n        /* \"RPS.sol\":2181:2198  player_not_played */\n      0x03\n        /* \"RPS.sol\":2181:2210  player_not_played[msg.sender] */\n      0x00\n        /* \"RPS.sol\":2199:2209  msg.sender */\n      caller\n        /* \"RPS.sol\":2181:2210  player_not_played[msg.sender] */\n      0xffffffffffffffffffffffffffffffffffffffff\n      and\n      0xffffffffffffffffffffffffffffffffffffffff\n      and\n      dup2\n      mstore\n      0x20\n      add\n      swap1\n      dup2\n      mstore\n      0x20\n      add\n      0x00\n      keccak256\n      0x00\n      swap1\n      sload\n      swap1\n      0x0100\n      exp\n      swap1\n      div\n      0xff\n      and\n        /* \"RPS.sol\":2180:2210  !player_not_played[msg.sender] */\n      iszero\n        /* \"RPS.sol\":2172:2259  require(!player_not_played[msg.sender], \"Only player who picked a choice can withdraw\") */\n      tag_169\n      jumpi\n      mload(0x40)\n      0x08c379a000000000000000000000000000000000000000000000000000000000\n      dup2\n      mstore\n      0x04\n      add\n      tag_170\n      swap1\n      tag_171\n      jump\t// in\n    tag_170:\n      mload(0x40)\n      dup1\n      swap2\n      sub\n      swap1\n      revert\n    tag_169:\n        /* \"RPS.sol\":2274:2282  account0 */\n      dup2\n        /* \"RPS.sol\":2274:2291  account0.transfer */\n      0xffffffffffffffffffffffffffffffffffffffff\n      and\n        /* \"RPS.sol\":2274:2303  account0.transfer(reward / 2) */\n      0x08fc\n        /* \"RPS.sol\":2301:2302  2 */\n      0x02\n        /* \"RPS.sol\":2292:2298  reward */\n      sload(0x01)\n        /* \"RPS.sol\":2292:2302  reward / 2 */\n      tag_172\n      swap2\n      swap1\n      tag_173\n      jump\t// in\n    tag_172:\n        /* \"RPS.sol\":2274:2303  account0.transfer(reward / 2) */\n      swap1\n      dup2\n      iszero\n      mul\n      swap1\n      mload(0x40)\n      0x00\n      mload(0x40)\n      dup1\n      dup4\n      sub\n      dup2\n      dup6\n      dup9\n      dup9\n      call\n      swap4\n      pop\n      pop\n      pop\n      pop\n      iszero\n      dup1\n      iszero\n      tag_175\n      jumpi\n      returndatasize\n      0x00\n      dup1\n      returndatacopy\n      revert(0x00, returndatasize)\n    tag_175:\n      pop\n        /* \"RPS.sol\":2318:2326  account1 */\n      dup1\n        /* \"RPS.sol\":2318:2335  account1.transfer */\n      0xffffffffffffffffffffffffffffffffffffffff\n      and\n        /* \"RPS.sol\":2318:2347  account1.transfer(reward / 2) */\n      0x08fc\n        /* \"RPS.sol\":2345:2346  2 */\n      0x02\n        /* \"RPS.sol\":2336:2342  reward */\n      sload(0x01)\n        /* \"RPS.sol\":2336:2346  reward / 2 */\n      tag_176\n      swap2\n      swap1\n      tag_173\n      jump\t// in\n    tag_176:\n        /* \"RPS.sol\":2318:2347  account1.transfer(reward / 2) */\n      swap1\n      dup2\n      iszero\n      mul\n      swap1\n      mload(0x40)\n      0x00\n      mload(0x40)\n      dup1\n      dup4\n      sub\n      dup2\n      dup6\n      dup9\n      dup9\n      call\n      swap4\n      pop\n      pop\n      pop\n      pop\n      iszero\n      dup1\n      iszero\n      tag_178\n      jumpi\n      returndatasize\n      0x00\n      dup1\n      returndatacopy\n      revert(0x00, returndatasize)\n    tag_178:\n      pop\n        /* \"RPS.sol\":2096:2359  {... */\n      pop\n        /* \"RPS.sol\":1744:2359  if (numInput == 2) {... */\n    tag_165:\n        /* \"RPS.sol\":1589:2359  if (numPlayer == 1) {... */\n    tag_147:\n        /* \"RPS.sol\":2379:2391  _resetGame() */\n      tag_179\n        /* \"RPS.sol\":2379:2389  _resetGame */\n      tag_180\n        /* \"RPS.sol\":2379:2391  _resetGame() */\n      jump\t// in\n    tag_179:\n        /* \"RPS.sol\":1348:2399  {... */\n      pop\n        /* \"RPS.sol\":1316:2399  function withdrawEarly() public {... */\n    tag_124:\n      jump\t// out\n        /* \"RPS.sol\":531:572  TimeUnit public timeUnit = new TimeUnit() */\n    tag_45:\n      0x08\n      0x00\n      swap1\n      sload\n      swap1\n      0x0100\n      exp\n      swap1\n      div\n      0xffffffffffffffffffffffffffffffffffffffff\n      and\n      dup2\n      jump\t// out\n        /* \"RPS.sol\":640:694  CommitReveal public commitReveal1 = new CommitReveal() */\n    tag_50:\n      0x0a\n      0x00\n      swap1\n      sload\n      swap1\n      0x0100\n      exp\n      swap1\n      div\n      0xffffffffffffffffffffffffffffffffffffffff\n      and\n      dup2\n      jump\t// out\n        /* \"RPS.sol\":701:731  uint public minutesElapsed = 0 */\n    tag_55:\n      sload(0x0b)\n      dup2\n      jump\t// out\n        /* \"RPS.sol\":379:430  mapping(address => bool) public player_not_revealed */\n    tag_60:\n      mstore(0x20, 0x04)\n      dup1\n      0x00\n      mstore\n      keccak256(0x00, 0x40)\n      0x00\n      swap2\n      pop\n      sload\n      swap1\n      0x0100\n      exp\n      swap1\n      div\n      0xff\n      and\n      dup2\n      jump\t// out\n        /* \"RPS.sol\":150:175  uint public numPlayer = 0 */\n    tag_64:\n      sload(0x00)\n      dup2\n      jump\t// out\n        /* \"RPS.sol\":211:256  mapping(address => uint) public player_choice */\n    tag_69:\n      mstore(0x20, 0x02)\n      dup1\n      0x00\n      mstore\n      keccak256(0x00, 0x40)\n      0x00\n      swap2\n      pop\n      swap1\n      pop\n      sload\n      dup2\n      jump\t// out\n        /* \"RPS.sol\":499:524  uint public numReveal = 0 */\n    tag_73:\n      sload(0x07)\n      dup2\n      jump\t// out\n        /* \"RPS.sol\":2407:2856  function input(uint dataHash) public {... */\n    tag_79:\n        /* \"RPS.sol\":2476:2477  2 */\n      0x02\n        /* \"RPS.sol\":2463:2472  numPlayer */\n      sload(0x00)\n        /* \"RPS.sol\":2463:2477  numPlayer == 2 */\n      eq\n        /* \"RPS.sol\":2455:2500  require(numPlayer == 2, \"Not enough players\") */\n      tag_182\n      jumpi\n      mload(0x40)\n      0x08c379a000000000000000000000000000000000000000000000000000000000\n      dup2\n      mstore\n      0x04\n      add\n      tag_183\n      swap1\n      tag_184\n      jump\t// in\n    tag_183:\n      mload(0x40)\n      dup1\n      swap2\n      sub\n      swap1\n      revert\n    tag_182:\n        /* \"RPS.sol\":2519:2536  player_not_played */\n      0x03\n        /* \"RPS.sol\":2519:2548  player_not_played[msg.sender] */\n      0x00\n        /* \"RPS.sol\":2537:2547  msg.sender */\n      caller\n        /* \"RPS.sol\":2519:2548  player_not_played[msg.sender] */\n      0xffffffffffffffffffffffffffffffffffffffff\n      and\n      0xffffffffffffffffffffffffffffffffffffffff\n      and\n      dup2\n      mstore\n      0x20\n      add\n      swap1\n      dup2\n      mstore\n      0x20\n      add\n      0x00\n      keccak256\n      0x00\n      swap1\n      sload\n      swap1\n      0x0100\n      exp\n      swap1\n      div\n      0xff\n      and\n        /* \"RPS.sol\":2511:2567  require(player_not_played[msg.sender], \"Already played\") */\n      tag_185\n      jumpi\n      mload(0x40)\n      0x08c379a000000000000000000000000000000000000000000000000000000000\n      dup2\n      mstore\n      0x04\n      add\n      tag_186\n      swap1\n      tag_187\n      jump\t// in\n    tag_186:\n      mload(0x40)\n      dup1\n      swap2\n      sub\n      swap1\n      revert\n    tag_185:\n        /* \"RPS.sol\":2598:2605  players */\n      0x05\n        /* \"RPS.sol\":2606:2607  0 */\n      0x00\n        /* \"RPS.sol\":2598:2608  players[0] */\n      dup2\n      sload\n      dup2\n      lt\n      tag_188\n      jumpi\n      tag_189\n      tag_107\n      jump\t// in\n    tag_189:\n    tag_188:\n      swap1\n      0x00\n      mstore\n      keccak256(0x00, 0x20)\n      add\n      0x00\n      swap1\n      sload\n      swap1\n      0x0100\n      exp\n      swap1\n      div\n      0xffffffffffffffffffffffffffffffffffffffff\n      and\n        /* \"RPS.sol\":2584:2608  msg.sender == players[0] */\n      0xffffffffffffffffffffffffffffffffffffffff\n      and\n        /* \"RPS.sol\":2584:2594  msg.sender */\n      caller\n        /* \"RPS.sol\":2584:2608  msg.sender == players[0] */\n      0xffffffffffffffffffffffffffffffffffffffff\n      and\n      sub\n        /* \"RPS.sol\":2580:2730  if (msg.sender == players[0])... */\n      tag_191\n      jumpi\n        /* \"RPS.sol\":2623:2636  commitReveal0 */\n      0x09\n      0x00\n      swap1\n      sload\n      swap1\n      0x0100\n      exp\n      swap1\n      div\n      0xffffffffffffffffffffffffffffffffffffffff\n      and\n        /* \"RPS.sol\":2623:2643  commitReveal0.commit */\n      0xffffffffffffffffffffffffffffffffffffffff\n      and\n      0xf14fcbc8\n        /* \"RPS.sol\":2652:2660  dataHash */\n      dup3\n        /* \"RPS.sol\":2644:2661  bytes32(dataHash) */\n      0x00\n      shl\n        /* \"RPS.sol\":2623:2662  commitReveal0.commit(bytes32(dataHash)) */\n      mload(0x40)\n      dup3\n      0xffffffff\n      and\n      0xe0\n      shl\n      dup2\n      mstore\n      0x04\n      add\n      tag_192\n      swap2\n      swap1\n      tag_193\n      jump\t// in\n    tag_192:\n      0x00\n      mload(0x40)\n      dup1\n      dup4\n      sub\n      dup2\n      0x00\n      dup8\n      dup1\n      extcodesize\n      iszero\n      dup1\n      iszero\n      tag_194\n      jumpi\n      0x00\n      dup1\n      revert\n    tag_194:\n      pop\n      gas\n      call\n      iszero\n      dup1\n      iszero\n      tag_196\n      jumpi\n      returndatasize\n      0x00\n      dup1\n      returndatacopy\n      revert(0x00, returndatasize)\n    tag_196:\n      pop\n      pop\n      pop\n      pop\n        /* \"RPS.sol\":2580:2730  if (msg.sender == players[0])... */\n      jump(tag_197)\n    tag_191:\n        /* \"RPS.sol\":2691:2704  commitReveal1 */\n      0x0a\n      0x00\n      swap1\n      sload\n      swap1\n      0x0100\n      exp\n      swap1\n      div\n      0xffffffffffffffffffffffffffffffffffffffff\n      and\n        /* \"RPS.sol\":2691:2711  commitReveal1.commit */\n      0xffffffffffffffffffffffffffffffffffffffff\n      and\n      0xf14fcbc8\n        /* \"RPS.sol\":2720:2728  dataHash */\n      dup3\n        /* \"RPS.sol\":2712:2729  bytes32(dataHash) */\n      0x00\n      shl\n        /* \"RPS.sol\":2691:2730  commitReveal1.commit(bytes32(dataHash)) */\n      mload(0x40)\n      dup3\n      0xffffffff\n      and\n      0xe0\n      shl\n      dup2\n      mstore\n      0x04\n      add\n      tag_198\n      swap2\n      swap1\n      tag_193\n      jump\t// in\n    tag_198:\n      0x00\n      mload(0x40)\n      dup1\n      dup4\n      sub\n      dup2\n      0x00\n      dup8\n      dup1\n      extcodesize\n      iszero\n      dup1\n      iszero\n      tag_199\n      jumpi\n      0x00\n      dup1\n      revert\n    tag_199:\n      pop\n      gas\n      call\n      iszero\n      dup1\n      iszero\n      tag_201\n      jumpi\n      returndatasize\n      0x00\n      dup1\n      returndatacopy\n      revert(0x00, returndatasize)\n    tag_201:\n      pop\n      pop\n      pop\n      pop\n        /* \"RPS.sol\":2580:2730  if (msg.sender == players[0])... */\n    tag_197:\n        /* \"RPS.sol\":2773:2778  false */\n      0x00\n        /* \"RPS.sol\":2741:2758  player_not_played */\n      0x03\n        /* \"RPS.sol\":2741:2770  player_not_played[msg.sender] */\n      0x00\n        /* \"RPS.sol\":2759:2769  msg.sender */\n      caller\n        /* \"RPS.sol\":2741:2770  player_not_played[msg.sender] */\n      0xffffffffffffffffffffffffffffffffffffffff\n      and\n      0xffffffffffffffffffffffffffffffffffffffff\n      and\n      dup2\n      mstore\n      0x20\n      add\n      swap1\n      dup2\n      mstore\n      0x20\n      add\n      0x00\n      keccak256\n      0x00\n        /* \"RPS.sol\":2741:2778  player_not_played[msg.sender] = false */\n      0x0100\n      exp\n      dup2\n      sload\n      dup2\n      0xff\n      mul\n      not\n      and\n      swap1\n      dup4\n      iszero\n      iszero\n      mul\n      or\n      swap1\n      sstore\n      pop\n        /* \"RPS.sol\":2823:2827  true */\n      0x01\n        /* \"RPS.sol\":2789:2808  player_not_revealed */\n      0x04\n        /* \"RPS.sol\":2789:2820  player_not_revealed[msg.sender] */\n      0x00\n        /* \"RPS.sol\":2809:2819  msg.sender */\n      caller\n        /* \"RPS.sol\":2789:2820  player_not_revealed[msg.sender] */\n      0xffffffffffffffffffffffffffffffffffffffff\n      and\n      0xffffffffffffffffffffffffffffffffffffffff\n      and\n      dup2\n      mstore\n      0x20\n      add\n      swap1\n      dup2\n      mstore\n      0x20\n      add\n      0x00\n      keccak256\n      0x00\n        /* \"RPS.sol\":2789:2827  player_not_revealed[msg.sender] = true */\n      0x0100\n      exp\n      dup2\n      sload\n      dup2\n      0xff\n      mul\n      not\n      and\n      swap1\n      dup4\n      iszero\n      iszero\n      mul\n      or\n      swap1\n      sstore\n      pop\n        /* \"RPS.sol\":2838:2846  numInput */\n      0x06\n      0x00\n        /* \"RPS.sol\":2838:2848  numInput++ */\n      dup2\n      sload\n      dup1\n      swap3\n      swap2\n      swap1\n      tag_202\n      swap1\n      tag_123\n      jump\t// in\n    tag_202:\n      swap2\n      swap1\n      pop\n      sstore\n      pop\n        /* \"RPS.sol\":2407:2856  function input(uint dataHash) public {... */\n      pop\n      jump\t// out\n        /* \"RPS.sol\":738:802  mapping(address => mapping(address => uint256)) public allowance */\n    tag_84:\n      mstore(0x20, 0x0c)\n      dup2\n      0x00\n      mstore\n      mstore(0x20, keccak256(0x00, 0x40))\n      dup1\n      0x00\n      mstore\n      keccak256(0x00, 0x40)\n      0x00\n      swap2\n      pop\n      swap2\n      pop\n      pop\n      sload\n      dup2\n      jump\t// out\n        /* \"RPS.sol\":2864:3606  function inputReveal(uint revealHash) public {... */\n    tag_89:\n        /* \"RPS.sol\":2940:2941  2 */\n      0x02\n        /* \"RPS.sol\":2928:2936  numInput */\n      sload(0x06)\n        /* \"RPS.sol\":2928:2941  numInput == 2 */\n      eq\n        /* \"RPS.sol\":2920:2988  require(numInput == 2, \"All players haven't committed a choice yet\") */\n      tag_204\n      jumpi\n      mload(0x40)\n      0x08c379a000000000000000000000000000000000000000000000000000000000\n      dup2\n      mstore\n      0x04\n      add\n      tag_205\n      swap1\n      tag_206\n      jump\t// in\n    tag_205:\n      mload(0x40)\n      dup1\n      swap2\n      sub\n      swap1\n      revert\n    tag_204:\n        /* \"RPS.sol\":3007:3026  player_not_revealed */\n      0x04\n        /* \"RPS.sol\":3007:3038  player_not_revealed[msg.sender] */\n      0x00\n        /* \"RPS.sol\":3027:3037  msg.sender */\n      caller\n        /* \"RPS.sol\":3007:3038  player_not_revealed[msg.sender] */\n      0xffffffffffffffffffffffffffffffffffffffff\n      and\n      0xffffffffffffffffffffffffffffffffffffffff\n      and\n      dup2\n      mstore\n      0x20\n      add\n      swap1\n      dup2\n      mstore\n      0x20\n      add\n      0x00\n      keccak256\n      0x00\n      swap1\n      sload\n      swap1\n      0x0100\n      exp\n      swap1\n      div\n      0xff\n      and\n        /* \"RPS.sol\":2999:3059  require(player_not_revealed[msg.sender], \"Already revealed\") */\n      tag_207\n      jumpi\n      mload(0x40)\n      0x08c379a000000000000000000000000000000000000000000000000000000000\n      dup2\n      mstore\n      0x04\n      add\n      tag_208\n      swap1\n      tag_209\n      jump\t// in\n    tag_208:\n      mload(0x40)\n      dup1\n      swap2\n      sub\n      swap1\n      revert\n    tag_207:\n        /* \"RPS.sol\":3088:3095  players */\n      0x05\n        /* \"RPS.sol\":3096:3097  0 */\n      0x00\n        /* \"RPS.sol\":3088:3098  players[0] */\n      dup2\n      sload\n      dup2\n      lt\n      tag_210\n      jumpi\n      tag_211\n      tag_107\n      jump\t// in\n    tag_211:\n    tag_210:\n      swap1\n      0x00\n      mstore\n      keccak256(0x00, 0x20)\n      add\n      0x00\n      swap1\n      sload\n      swap1\n      0x0100\n      exp\n      swap1\n      div\n      0xffffffffffffffffffffffffffffffffffffffff\n      and\n        /* \"RPS.sol\":3074:3098  msg.sender == players[0] */\n      0xffffffffffffffffffffffffffffffffffffffff\n      and\n        /* \"RPS.sol\":3074:3084  msg.sender */\n      caller\n        /* \"RPS.sol\":3074:3098  msg.sender == players[0] */\n      0xffffffffffffffffffffffffffffffffffffffff\n      and\n      sub\n        /* \"RPS.sol\":3070:3390  if (msg.sender == players[0]) {... */\n      tag_213\n      jumpi\n        /* \"RPS.sol\":3115:3128  commitReveal0 */\n      0x09\n      0x00\n      swap1\n      sload\n      swap1\n      0x0100\n      exp\n      swap1\n      div\n      0xffffffffffffffffffffffffffffffffffffffff\n      and\n        /* \"RPS.sol\":3115:3135  commitReveal0.reveal */\n      0xffffffffffffffffffffffffffffffffffffffff\n      and\n      0x701fd0f1\n        /* \"RPS.sol\":3144:3154  revealHash */\n      dup3\n        /* \"RPS.sol\":3136:3155  bytes32(revealHash) */\n      0x00\n      shl\n        /* \"RPS.sol\":3115:3156  commitReveal0.reveal(bytes32(revealHash)) */\n      mload(0x40)\n      dup3\n      0xffffffff\n      and\n      0xe0\n      shl\n      dup2\n      mstore\n      0x04\n      add\n      tag_214\n      swap2\n      swap1\n      tag_193\n      jump\t// in\n    tag_214:\n      0x00\n      mload(0x40)\n      dup1\n      dup4\n      sub\n      dup2\n      0x00\n      dup8\n      dup1\n      extcodesize\n      iszero\n      dup1\n      iszero\n      tag_215\n      jumpi\n      0x00\n      dup1\n      revert\n    tag_215:\n      pop\n      gas\n      call\n      iszero\n      dup1\n      iszero\n      tag_217\n      jumpi\n      returndatasize\n      0x00\n      dup1\n      returndatacopy\n      revert(0x00, returndatasize)\n    tag_217:\n      pop\n      pop\n      pop\n      pop\n        /* \"RPS.sol\":3179:3192  commitReveal0 */\n      0x09\n      0x00\n      swap1\n      sload\n      swap1\n      0x0100\n      exp\n      swap1\n      div\n      0xffffffffffffffffffffffffffffffffffffffff\n      and\n        /* \"RPS.sol\":3179:3203  commitReveal0.isRevealed */\n      0xffffffffffffffffffffffffffffffffffffffff\n      and\n      0x54214f69\n        /* \"RPS.sol\":3179:3205  commitReveal0.isRevealed() */\n      mload(0x40)\n      dup2\n      0xffffffff\n      and\n      0xe0\n      shl\n      dup2\n      mstore\n      0x04\n      add\n      0x20\n      mload(0x40)\n      dup1\n      dup4\n      sub\n      dup2\n      dup7\n      gas\n      staticcall\n      iszero\n      dup1\n      iszero\n      tag_219\n      jumpi\n      returndatasize\n      0x00\n      dup1\n      returndatacopy\n      revert(0x00, returndatasize)\n    tag_219:\n      pop\n      pop\n      pop\n      pop\n      mload(0x40)\n      returndatasize\n      not(0x1f)\n      0x1f\n      dup3\n      add\n      and\n      dup3\n      add\n      dup1\n      0x40\n      mstore\n      pop\n      dup2\n      add\n      swap1\n      tag_220\n      swap2\n      swap1\n      tag_221\n      jump\t// in\n    tag_220:\n        /* \"RPS.sol\":3171:3230  require(commitReveal0.isRevealed(), \"Revealed input error\") */\n      tag_222\n      jumpi\n      mload(0x40)\n      0x08c379a000000000000000000000000000000000000000000000000000000000\n      dup2\n      mstore\n      0x04\n      add\n      tag_223\n      swap1\n      tag_224\n      jump\t// in\n    tag_223:\n      mload(0x40)\n      dup1\n      swap2\n      sub\n      swap1\n      revert\n    tag_222:\n        /* \"RPS.sol\":3070:3390  if (msg.sender == players[0]) {... */\n      jump(tag_225)\n    tag_213:\n        /* \"RPS.sol\":3263:3276  commitReveal1 */\n      0x0a\n      0x00\n      swap1\n      sload\n      swap1\n      0x0100\n      exp\n      swap1\n      div\n      0xffffffffffffffffffffffffffffffffffffffff\n      and\n        /* \"RPS.sol\":3263:3283  commitReveal1.reveal */\n      0xffffffffffffffffffffffffffffffffffffffff\n      and\n      0x701fd0f1\n        /* \"RPS.sol\":3292:3302  revealHash */\n      dup3\n        /* \"RPS.sol\":3284:3303  bytes32(revealHash) */\n      0x00\n      shl\n        /* \"RPS.sol\":3263:3304  commitReveal1.reveal(bytes32(revealHash)) */\n      mload(0x40)\n      dup3\n      0xffffffff\n      and\n      0xe0\n      shl\n      dup2\n      mstore\n      0x04\n      add\n      tag_226\n      swap2\n      swap1\n      tag_193\n      jump\t// in\n    tag_226:\n      0x00\n      mload(0x40)\n      dup1\n      dup4\n      sub\n      dup2\n      0x00\n      dup8\n      dup1\n      extcodesize\n      iszero\n      dup1\n      iszero\n      tag_227\n      jumpi\n      0x00\n      dup1\n      revert\n    tag_227:\n      pop\n      gas\n      call\n      iszero\n      dup1\n      iszero\n      tag_229\n      jumpi\n      returndatasize\n      0x00\n      dup1\n      returndatacopy\n      revert(0x00, returndatasize)\n    tag_229:\n      pop\n      pop\n      pop\n      pop\n        /* \"RPS.sol\":3327:3340  commitReveal1 */\n      0x0a\n      0x00\n      swap1\n      sload\n      swap1\n      0x0100\n      exp\n      swap1\n      div\n      0xffffffffffffffffffffffffffffffffffffffff\n      and\n        /* \"RPS.sol\":3327:3351  commitReveal1.isRevealed */\n      0xffffffffffffffffffffffffffffffffffffffff\n      and\n      0x54214f69\n        /* \"RPS.sol\":3327:3353  commitReveal1.isRevealed() */\n      mload(0x40)\n      dup2\n      0xffffffff\n      and\n      0xe0\n      shl\n      dup2\n      mstore\n      0x04\n      add\n      0x20\n      mload(0x40)\n      dup1\n      dup4\n      sub\n      dup2\n      dup7\n      gas\n      staticcall\n      iszero\n      dup1\n      iszero\n      tag_231\n      jumpi\n      returndatasize\n      0x00\n      dup1\n      returndatacopy\n      revert(0x00, returndatasize)\n    tag_231:\n      pop\n      pop\n      pop\n      pop\n      mload(0x40)\n      returndatasize\n      not(0x1f)\n      0x1f\n      dup3\n      add\n      and\n      dup3\n      add\n      dup1\n      0x40\n      mstore\n      pop\n      dup2\n      add\n      swap1\n      tag_232\n      swap2\n      swap1\n      tag_221\n      jump\t// in\n    tag_232:\n        /* \"RPS.sol\":3319:3378  require(commitReveal1.isRevealed(), \"Revealed input error\") */\n      tag_233\n      jumpi\n      mload(0x40)\n      0x08c379a000000000000000000000000000000000000000000000000000000000\n      dup2\n      mstore\n      0x04\n      add\n      tag_234\n      swap1\n      tag_224\n      jump\t// in\n    tag_234:\n      mload(0x40)\n      dup1\n      swap2\n      sub\n      swap1\n      revert\n    tag_233:\n        /* \"RPS.sol\":3070:3390  if (msg.sender == players[0]) {... */\n    tag_225:\n        /* \"RPS.sol\":3443:3447  0xFF */\n      0xff\n        /* \"RPS.sol\":3430:3440  revealHash */\n      dup2\n        /* \"RPS.sol\":3430:3447  revealHash & 0xFF */\n      and\n        /* \"RPS.sol\":3402:3415  player_choice */\n      0x02\n        /* \"RPS.sol\":3402:3427  player_choice[msg.sender] */\n      0x00\n        /* \"RPS.sol\":3416:3426  msg.sender */\n      caller\n        /* \"RPS.sol\":3402:3427  player_choice[msg.sender] */\n      0xffffffffffffffffffffffffffffffffffffffff\n      and\n      0xffffffffffffffffffffffffffffffffffffffff\n      and\n      dup2\n      mstore\n      0x20\n      add\n      swap1\n      dup2\n      mstore\n      0x20\n      add\n      0x00\n      keccak256\n        /* \"RPS.sol\":3402:3447  player_choice[msg.sender] = revealHash & 0xFF */\n      dup2\n      swap1\n      sstore\n      pop\n        /* \"RPS.sol\":3492:3497  false */\n      0x00\n        /* \"RPS.sol\":3458:3477  player_not_revealed */\n      0x04\n        /* \"RPS.sol\":3458:3489  player_not_revealed[msg.sender] */\n      0x00\n        /* \"RPS.sol\":3478:3488  msg.sender */\n      caller\n        /* \"RPS.sol\":3458:3489  player_not_revealed[msg.sender] */\n      0xffffffffffffffffffffffffffffffffffffffff\n      and\n      0xffffffffffffffffffffffffffffffffffffffff\n      and\n      dup2\n      mstore\n      0x20\n      add\n      swap1\n      dup2\n      mstore\n      0x20\n      add\n      0x00\n      keccak256\n      0x00\n        /* \"RPS.sol\":3458:3497  player_not_revealed[msg.sender] = false */\n      0x0100\n      exp\n      dup2\n      sload\n      dup2\n      0xff\n      mul\n      not\n      and\n      swap1\n      dup4\n      iszero\n      iszero\n      mul\n      or\n      swap1\n      sstore\n      pop\n        /* \"RPS.sol\":3508:3517  numReveal */\n      0x07\n      0x00\n        /* \"RPS.sol\":3508:3519  numReveal++ */\n      dup2\n      sload\n      dup1\n      swap3\n      swap2\n      swap1\n      tag_235\n      swap1\n      tag_123\n      jump\t// in\n    tag_235:\n      swap2\n      swap1\n      pop\n      sstore\n      pop\n        /* \"RPS.sol\":3549:3550  2 */\n      0x02\n        /* \"RPS.sol\":3536:3545  numReveal */\n      sload(0x07)\n        /* \"RPS.sol\":3536:3550  numReveal == 2 */\n      sub\n        /* \"RPS.sol\":3532:3599  if (numReveal == 2) {... */\n      tag_236\n      jumpi\n        /* \"RPS.sol\":3567:3587  _checkWinnerAndPay() */\n      tag_237\n        /* \"RPS.sol\":3567:3585  _checkWinnerAndPay */\n      tag_238\n        /* \"RPS.sol\":3567:3587  _checkWinnerAndPay() */\n      jump\t// in\n    tag_237:\n        /* \"RPS.sol\":3532:3599  if (numReveal == 2) {... */\n    tag_236:\n        /* \"RPS.sol\":2864:3606  function inputReveal(uint revealHash) public {... */\n      pop\n      jump\t// out\n        /* \"RPS.sol\":579:633  CommitReveal public commitReveal0 = new CommitReveal() */\n    tag_92:\n      0x09\n      0x00\n      swap1\n      sload\n      swap1\n      0x0100\n      exp\n      swap1\n      div\n      0xffffffffffffffffffffffffffffffffffffffff\n      and\n      dup2\n      jump\t// out\n        /* \"RPS.sol\":437:461  address[] public players */\n    tag_97:\n      0x05\n      dup2\n      dup2\n      sload\n      dup2\n      lt\n      tag_239\n      jumpi\n      0x00\n      dup1\n      revert\n    tag_239:\n      swap1\n      0x00\n      mstore\n      keccak256(0x00, 0x20)\n      add\n      0x00\n      swap2\n      pop\n      sload\n      swap1\n      0x0100\n      exp\n      swap1\n      div\n      0xffffffffffffffffffffffffffffffffffffffff\n      and\n      dup2\n      jump\t// out\n        /* \"RPS.sol\":4799:5092  function _resetGame() private {... */\n    tag_180:\n        /* \"RPS.sol\":4864:4865  2 */\n      0x02\n        /* \"RPS.sol\":4850:4866  new address[](2) */\n      0xffffffffffffffff\n      dup2\n      gt\n      iszero\n      tag_242\n      jumpi\n      tag_243\n      tag_244\n      jump\t// in\n    tag_243:\n    tag_242:\n      mload(0x40)\n      swap1\n      dup1\n      dup3\n      mstore\n      dup1\n      0x20\n      mul\n      0x20\n      add\n      dup3\n      add\n      0x40\n      mstore\n      dup1\n      iszero\n      tag_245\n      jumpi\n      dup2\n      0x20\n      add\n      0x20\n      dup3\n      mul\n      dup1\n      calldatasize\n      dup4\n      calldatacopy\n      dup1\n      dup3\n      add\n      swap2\n      pop\n      pop\n      swap1\n      pop\n    tag_245:\n      pop\n        /* \"RPS.sol\":4840:4847  players */\n      0x05\n        /* \"RPS.sol\":4840:4866  players = new address[](2) */\n      swap1\n      dup1\n      mload\n      swap1\n      0x20\n      add\n      swap1\n      tag_246\n      swap3\n      swap2\n      swap1\n      tag_247\n      jump\t// in\n    tag_246:\n      pop\n        /* \"RPS.sol\":4888:4902  new TimeUnit() */\n      mload(0x40)\n      tag_248\n      swap1\n      tag_249\n      jump\t// in\n    tag_248:\n      mload(0x40)\n      dup1\n      swap2\n      sub\n      swap1\n      0x00\n      create\n      dup1\n      iszero\n      dup1\n      iszero\n      tag_250\n      jumpi\n      returndatasize\n      0x00\n      dup1\n      returndatacopy\n      revert(0x00, returndatasize)\n    tag_250:\n      pop\n        /* \"RPS.sol\":4877:4885  timeUnit */\n      0x08\n      0x00\n        /* \"RPS.sol\":4877:4902  timeUnit = new TimeUnit() */\n      0x0100\n      exp\n      dup2\n      sload\n      dup2\n      0xffffffffffffffffffffffffffffffffffffffff\n      mul\n      not\n      and\n      swap1\n      dup4\n      0xffffffffffffffffffffffffffffffffffffffff\n      and\n      mul\n      or\n      swap1\n      sstore\n      pop\n        /* \"RPS.sol\":4929:4947  new CommitReveal() */\n      mload(0x40)\n      tag_251\n      swap1\n      tag_252\n      jump\t// in\n    tag_251:\n      mload(0x40)\n      dup1\n      swap2\n      sub\n      swap1\n      0x00\n      create\n      dup1\n      iszero\n      dup1\n      iszero\n      tag_253\n      jumpi\n      returndatasize\n      0x00\n      dup1\n      returndatacopy\n      revert(0x00, returndatasize)\n    tag_253:\n      pop\n        /* \"RPS.sol\":4913:4926  commitReveal0 */\n      0x09\n      0x00\n        /* \"RPS.sol\":4913:4947  commitReveal0 = new CommitReveal() */\n      0x0100\n      exp\n      dup2\n      sload\n      dup2\n      0xffffffffffffffffffffffffffffffffffffffff\n      mul\n      not\n      and\n      swap1\n      dup4\n      0xffffffffffffffffffffffffffffffffffffffff\n      and\n      mul\n      or\n      swap1\n      sstore\n      pop\n        /* \"RPS.sol\":4974:4992  new CommitReveal() */\n      mload(0x40)\n      tag_254\n      swap1\n      tag_252\n      jump\t// in\n    tag_254:\n      mload(0x40)\n      dup1\n      swap2\n      sub\n      swap1\n      0x00\n      create\n      dup1\n      iszero\n      dup1\n      iszero\n      tag_255\n      jumpi\n      returndatasize\n      0x00\n      dup1\n      returndatacopy\n      revert(0x00, returndatasize)\n    tag_255:\n      pop\n        /* \"RPS.sol\":4958:4971  commitReveal1 */\n      0x0a\n      0x00\n        /* \"RPS.sol\":4958:4992  commitReveal1 = new CommitReveal() */\n      0x0100\n      exp\n      dup2\n      sload\n      dup2\n      0xffffffffffffffffffffffffffffffffffffffff\n      mul\n      not\n      and\n      swap1\n      dup4\n      0xffffffffffffffffffffffffffffffffffffffff\n      and\n      mul\n      or\n      swap1\n      sstore\n      pop\n        /* \"RPS.sol\":5015:5016  0 */\n      0x00\n        /* \"RPS.sol\":5003:5012  numPlayer */\n      dup1\n        /* \"RPS.sol\":5003:5016  numPlayer = 0 */\n      dup2\n      swap1\n      sstore\n      pop\n        /* \"RPS.sol\":5038:5039  0 */\n      0x00\n        /* \"RPS.sol\":5027:5035  numInput */\n      0x06\n        /* \"RPS.sol\":5027:5039  numInput = 0 */\n      dup2\n      swap1\n      sstore\n      pop\n        /* \"RPS.sol\":5062:5063  0 */\n      0x00\n        /* \"RPS.sol\":5050:5059  numReveal */\n      0x07\n        /* \"RPS.sol\":5050:5063  numReveal = 0 */\n      dup2\n      swap1\n      sstore\n      pop\n        /* \"RPS.sol\":5083:5084  0 */\n      0x00\n        /* \"RPS.sol\":5074:5080  reward */\n      0x01\n        /* \"RPS.sol\":5074:5084  reward = 0 */\n      dup2\n      swap1\n      sstore\n      pop\n        /* \"RPS.sol\":4799:5092  function _resetGame() private {... */\n      jump\t// out\n        /* \"RPS.sol\":3614:4201  function _checkWinnerAndPay() private {... */\n    tag_238:\n        /* \"RPS.sol\":3663:3676  uint p0Choice */\n      0x00\n        /* \"RPS.sol\":3679:3692  player_choice */\n      0x02\n        /* \"RPS.sol\":3679:3704  player_choice[players[0]] */\n      0x00\n        /* \"RPS.sol\":3693:3700  players */\n      0x05\n        /* \"RPS.sol\":3701:3702  0 */\n      0x00\n        /* \"RPS.sol\":3693:3703  players[0] */\n      dup2\n      sload\n      dup2\n      lt\n      tag_257\n      jumpi\n      tag_258\n      tag_107\n      jump\t// in\n    tag_258:\n    tag_257:\n      swap1\n      0x00\n      mstore\n      keccak256(0x00, 0x20)\n      add\n      0x00\n      swap1\n      sload\n      swap1\n      0x0100\n      exp\n      swap1\n      div\n      0xffffffffffffffffffffffffffffffffffffffff\n      and\n        /* \"RPS.sol\":3679:3704  player_choice[players[0]] */\n      0xffffffffffffffffffffffffffffffffffffffff\n      and\n      0xffffffffffffffffffffffffffffffffffffffff\n      and\n      dup2\n      mstore\n      0x20\n      add\n      swap1\n      dup2\n      mstore\n      0x20\n      add\n      0x00\n      keccak256\n      sload\n        /* \"RPS.sol\":3663:3704  uint p0Choice = player_choice[players[0]] */\n      swap1\n      pop\n        /* \"RPS.sol\":3715:3728  uint p1Choice */\n      0x00\n        /* \"RPS.sol\":3731:3744  player_choice */\n      0x02\n        /* \"RPS.sol\":3731:3756  player_choice[players[1]] */\n      0x00\n        /* \"RPS.sol\":3745:3752  players */\n      0x05\n        /* \"RPS.sol\":3753:3754  1 */\n      0x01\n        /* \"RPS.sol\":3745:3755  players[1] */\n      dup2\n      sload\n      dup2\n      lt\n      tag_260\n      jumpi\n      tag_261\n      tag_107\n      jump\t// in\n    tag_261:\n    tag_260:\n      swap1\n      0x00\n      mstore\n      keccak256(0x00, 0x20)\n      add\n      0x00\n      swap1\n      sload\n      swap1\n      0x0100\n      exp\n      swap1\n      div\n      0xffffffffffffffffffffffffffffffffffffffff\n      and\n        /* \"RPS.sol\":3731:3756  player_choice[players[1]] */\n      0xffffffffffffffffffffffffffffffffffffffff\n      and\n      0xffffffffffffffffffffffffffffffffffffffff\n      and\n      dup2\n      mstore\n      0x20\n      add\n      swap1\n      dup2\n      mstore\n      0x20\n      add\n      0x00\n      keccak256\n      sload\n        /* \"RPS.sol\":3715:3756  uint p1Choice = player_choice[players[1]] */\n      swap1\n      pop\n        /* \"RPS.sol\":3767:3791  address payable account0 */\n      0x00\n        /* \"RPS.sol\":3802:3809  players */\n      0x05\n        /* \"RPS.sol\":3810:3811  0 */\n      0x00\n        /* \"RPS.sol\":3802:3812  players[0] */\n      dup2\n      sload\n      dup2\n      lt\n      tag_263\n      jumpi\n      tag_264\n      tag_107\n      jump\t// in\n    tag_264:\n    tag_263:\n      swap1\n      0x00\n      mstore\n      keccak256(0x00, 0x20)\n      add\n      0x00\n      swap1\n      sload\n      swap1\n      0x0100\n      exp\n      swap1\n      div\n      0xffffffffffffffffffffffffffffffffffffffff\n      and\n        /* \"RPS.sol\":3767:3813  address payable account0 = payable(players[0]) */\n      swap1\n      pop\n        /* \"RPS.sol\":3824:3848  address payable account1 */\n      0x00\n        /* \"RPS.sol\":3859:3866  players */\n      0x05\n        /* \"RPS.sol\":3867:3868  1 */\n      0x01\n        /* \"RPS.sol\":3859:3869  players[1] */\n      dup2\n      sload\n      dup2\n      lt\n      tag_266\n      jumpi\n      tag_267\n      tag_107\n      jump\t// in\n    tag_267:\n    tag_266:\n      swap1\n      0x00\n      mstore\n      keccak256(0x00, 0x20)\n      add\n      0x00\n      swap1\n      sload\n      swap1\n      0x0100\n      exp\n      swap1\n      div\n      0xffffffffffffffffffffffffffffffffffffffff\n      and\n        /* \"RPS.sol\":3824:3870  address payable account1 = payable(players[1]) */\n      swap1\n      pop\n        /* \"RPS.sol\":3887:3916  _isWinner(p0Choice, p1Choice) */\n      tag_269\n        /* \"RPS.sol\":3897:3905  p0Choice */\n      dup5\n        /* \"RPS.sol\":3907:3915  p1Choice */\n      dup5\n        /* \"RPS.sol\":3887:3896  _isWinner */\n      tag_270\n        /* \"RPS.sol\":3887:3916  _isWinner(p0Choice, p1Choice) */\n      jump\t// in\n    tag_269:\n        /* \"RPS.sol\":3883:4169  if (_isWinner(p0Choice, p1Choice)) {... */\n      iszero\n      tag_271\n      jumpi\n        /* \"RPS.sol\":3933:3941  account0 */\n      dup2\n        /* \"RPS.sol\":3933:3950  account0.transfer */\n      0xffffffffffffffffffffffffffffffffffffffff\n      and\n        /* \"RPS.sol\":3933:3958  account0.transfer(reward) */\n      0x08fc\n        /* \"RPS.sol\":3951:3957  reward */\n      sload(0x01)\n        /* \"RPS.sol\":3933:3958  account0.transfer(reward) */\n      swap1\n      dup2\n      iszero\n      mul\n      swap1\n      mload(0x40)\n      0x00\n      mload(0x40)\n      dup1\n      dup4\n      sub\n      dup2\n      dup6\n      dup9\n      dup9\n      call\n      swap4\n      pop\n      pop\n      pop\n      pop\n      iszero\n      dup1\n      iszero\n      tag_273\n      jumpi\n      returndatasize\n      0x00\n      dup1\n      returndatacopy\n      revert(0x00, returndatasize)\n    tag_273:\n      pop\n        /* \"RPS.sol\":3883:4169  if (_isWinner(p0Choice, p1Choice)) {... */\n      jump(tag_274)\n    tag_271:\n        /* \"RPS.sol\":3980:4009  _isWinner(p1Choice, p0Choice) */\n      tag_275\n        /* \"RPS.sol\":3990:3998  p1Choice */\n      dup4\n        /* \"RPS.sol\":4000:4008  p0Choice */\n      dup6\n        /* \"RPS.sol\":3980:3989  _isWinner */\n      tag_270\n        /* \"RPS.sol\":3980:4009  _isWinner(p1Choice, p0Choice) */\n      jump\t// in\n    tag_275:\n        /* \"RPS.sol\":3976:4169  if (_isWinner(p1Choice, p0Choice)) {... */\n      iszero\n      tag_276\n      jumpi\n        /* \"RPS.sol\":4026:4034  account1 */\n      dup1\n        /* \"RPS.sol\":4026:4043  account1.transfer */\n      0xffffffffffffffffffffffffffffffffffffffff\n      and\n        /* \"RPS.sol\":4026:4051  account1.transfer(reward) */\n      0x08fc\n        /* \"RPS.sol\":4044:4050  reward */\n      sload(0x01)\n        /* \"RPS.sol\":4026:4051  account1.transfer(reward) */\n      swap1\n      dup2\n      iszero\n      mul\n      swap1\n      mload(0x40)\n      0x00\n      mload(0x40)\n      dup1\n      dup4\n      sub\n      dup2\n      dup6\n      dup9\n      dup9\n      call\n      swap4\n      pop\n      pop\n      pop\n      pop\n      iszero\n      dup1\n      iszero\n      tag_278\n      jumpi\n      returndatasize\n      0x00\n      dup1\n      returndatacopy\n      revert(0x00, returndatasize)\n    tag_278:\n      pop\n        /* \"RPS.sol\":3976:4169  if (_isWinner(p1Choice, p0Choice)) {... */\n      jump(tag_279)\n    tag_276:\n        /* \"RPS.sol\":4084:4092  account0 */\n      dup2\n        /* \"RPS.sol\":4084:4101  account0.transfer */\n      0xffffffffffffffffffffffffffffffffffffffff\n      and\n        /* \"RPS.sol\":4084:4113  account0.transfer(reward / 2) */\n      0x08fc\n        /* \"RPS.sol\":4111:4112  2 */\n      0x02\n        /* \"RPS.sol\":4102:4108  reward */\n      sload(0x01)\n        /* \"RPS.sol\":4102:4112  reward / 2 */\n      tag_280\n      swap2\n      swap1\n      tag_173\n      jump\t// in\n    tag_280:\n        /* \"RPS.sol\":4084:4113  account0.transfer(reward / 2) */\n      swap1\n      dup2\n      iszero\n      mul\n      swap1\n      mload(0x40)\n      0x00\n      mload(0x40)\n      dup1\n      dup4\n      sub\n      dup2\n      dup6\n      dup9\n      dup9\n      call\n      swap4\n      pop\n      pop\n      pop\n      pop\n      iszero\n      dup1\n      iszero\n      tag_282\n      jumpi\n      returndatasize\n      0x00\n      dup1\n      returndatacopy\n      revert(0x00, returndatasize)\n    tag_282:\n      pop\n        /* \"RPS.sol\":4128:4136  account1 */\n      dup1\n        /* \"RPS.sol\":4128:4145  account1.transfer */\n      0xffffffffffffffffffffffffffffffffffffffff\n      and\n        /* \"RPS.sol\":4128:4157  account1.transfer(reward / 2) */\n      0x08fc\n        /* \"RPS.sol\":4155:4156  2 */\n      0x02\n        /* \"RPS.sol\":4146:4152  reward */\n      sload(0x01)\n        /* \"RPS.sol\":4146:4156  reward / 2 */\n      tag_283\n      swap2\n      swap1\n      tag_173\n      jump\t// in\n    tag_283:\n        /* \"RPS.sol\":4128:4157  account1.transfer(reward / 2) */\n      swap1\n      dup2\n      iszero\n      mul\n      swap1\n      mload(0x40)\n      0x00\n      mload(0x40)\n      dup1\n      dup4\n      sub\n      dup2\n      dup6\n      dup9\n      dup9\n      call\n      swap4\n      pop\n      pop\n      pop\n      pop\n      iszero\n      dup1\n      iszero\n      tag_285\n      jumpi\n      returndatasize\n      0x00\n      dup1\n      returndatacopy\n      revert(0x00, returndatasize)\n    tag_285:\n      pop\n        /* \"RPS.sol\":3976:4169  if (_isWinner(p1Choice, p0Choice)) {... */\n    tag_279:\n        /* \"RPS.sol\":3883:4169  if (_isWinner(p0Choice, p1Choice)) {... */\n    tag_274:\n        /* \"RPS.sol\":4181:4193  _resetGame() */\n      tag_286\n        /* \"RPS.sol\":4181:4191  _resetGame */\n      tag_180\n        /* \"RPS.sol\":4181:4193  _resetGame() */\n      jump\t// in\n    tag_286:\n        /* \"RPS.sol\":3652:4201  {... */\n      pop\n      pop\n      pop\n      pop\n        /* \"RPS.sol\":3614:4201  function _checkWinnerAndPay() private {... */\n      jump\t// out\n        /* \"RPS.sol\":4209:4791  function _isWinner(uint choice0, uint choice1) private pure returns (bool) {... */\n    tag_270:\n        /* \"RPS.sol\":4278:4282  bool */\n      0x00\n        /* \"RPS.sol\":4314:4315  0 */\n      dup1\n        /* \"RPS.sol\":4303:4310  choice0 */\n      dup4\n        /* \"RPS.sol\":4303:4315  choice0 == 0 */\n      eq\n        /* \"RPS.sol\":4303:4349  choice0 == 0 && (choice1 == 2 || choice1 == 3) */\n      dup1\n      iszero\n      tag_288\n      jumpi\n      pop\n        /* \"RPS.sol\":4331:4332  2 */\n      0x02\n        /* \"RPS.sol\":4320:4327  choice1 */\n      dup3\n        /* \"RPS.sol\":4320:4332  choice1 == 2 */\n      eq\n        /* \"RPS.sol\":4320:4348  choice1 == 2 || choice1 == 3 */\n      dup1\n      tag_289\n      jumpi\n      pop\n        /* \"RPS.sol\":4347:4348  3 */\n      0x03\n        /* \"RPS.sol\":4336:4343  choice1 */\n      dup3\n        /* \"RPS.sol\":4336:4348  choice1 == 3 */\n      eq\n        /* \"RPS.sol\":4320:4348  choice1 == 2 || choice1 == 3 */\n    tag_289:\n        /* \"RPS.sol\":4303:4349  choice0 == 0 && (choice1 == 2 || choice1 == 3) */\n    tag_288:\n        /* \"RPS.sol\":4302:4451  (choice0 == 0 && (choice1 == 2 || choice1 == 3)) ||  // Rock beats Scissors & Lizard... */\n      dup1\n      tag_290\n      jumpi\n      pop\n        /* \"RPS.sol\":4415:4416  1 */\n      0x01\n        /* \"RPS.sol\":4404:4411  choice0 */\n      dup4\n        /* \"RPS.sol\":4404:4416  choice0 == 1 */\n      eq\n        /* \"RPS.sol\":4404:4450  choice0 == 1 && (choice1 == 0 || choice1 == 4) */\n      dup1\n      iszero\n      tag_291\n      jumpi\n      pop\n        /* \"RPS.sol\":4432:4433  0 */\n      0x00\n        /* \"RPS.sol\":4421:4428  choice1 */\n      dup3\n        /* \"RPS.sol\":4421:4433  choice1 == 0 */\n      eq\n        /* \"RPS.sol\":4421:4449  choice1 == 0 || choice1 == 4 */\n      dup1\n      tag_292\n      jumpi\n      pop\n        /* \"RPS.sol\":4448:4449  4 */\n      0x04\n        /* \"RPS.sol\":4437:4444  choice1 */\n      dup3\n        /* \"RPS.sol\":4437:4449  choice1 == 4 */\n      eq\n        /* \"RPS.sol\":4421:4449  choice1 == 0 || choice1 == 4 */\n    tag_292:\n        /* \"RPS.sol\":4404:4450  choice0 == 1 && (choice1 == 0 || choice1 == 4) */\n    tag_291:\n        /* \"RPS.sol\":4302:4451  (choice0 == 0 && (choice1 == 2 || choice1 == 3)) ||  // Rock beats Scissors & Lizard... */\n    tag_290:\n        /* \"RPS.sol\":4302:4548  (choice0 == 0 && (choice1 == 2 || choice1 == 3)) ||  // Rock beats Scissors & Lizard... */\n      dup1\n      tag_293\n      jumpi\n      pop\n        /* \"RPS.sol\":4512:4513  2 */\n      0x02\n        /* \"RPS.sol\":4501:4508  choice0 */\n      dup4\n        /* \"RPS.sol\":4501:4513  choice0 == 2 */\n      eq\n        /* \"RPS.sol\":4501:4547  choice0 == 2 && (choice1 == 1 || choice1 == 3) */\n      dup1\n      iszero\n      tag_294\n      jumpi\n      pop\n        /* \"RPS.sol\":4529:4530  1 */\n      0x01\n        /* \"RPS.sol\":4518:4525  choice1 */\n      dup3\n        /* \"RPS.sol\":4518:4530  choice1 == 1 */\n      eq\n        /* \"RPS.sol\":4518:4546  choice1 == 1 || choice1 == 3 */\n      dup1\n      tag_295\n      jumpi\n      pop\n        /* \"RPS.sol\":4545:4546  3 */\n      0x03\n        /* \"RPS.sol\":4534:4541  choice1 */\n      dup3\n        /* \"RPS.sol\":4534:4546  choice1 == 3 */\n      eq\n        /* \"RPS.sol\":4518:4546  choice1 == 1 || choice1 == 3 */\n    tag_295:\n        /* \"RPS.sol\":4501:4547  choice0 == 2 && (choice1 == 1 || choice1 == 3) */\n    tag_294:\n        /* \"RPS.sol\":4302:4548  (choice0 == 0 && (choice1 == 2 || choice1 == 3)) ||  // Rock beats Scissors & Lizard... */\n    tag_293:\n        /* \"RPS.sol\":4302:4650  (choice0 == 0 && (choice1 == 2 || choice1 == 3)) ||  // Rock beats Scissors & Lizard... */\n      dup1\n      tag_296\n      jumpi\n      pop\n        /* \"RPS.sol\":4614:4615  3 */\n      0x03\n        /* \"RPS.sol\":4603:4610  choice0 */\n      dup4\n        /* \"RPS.sol\":4603:4615  choice0 == 3 */\n      eq\n        /* \"RPS.sol\":4603:4649  choice0 == 3 && (choice1 == 1 || choice1 == 4) */\n      dup1\n      iszero\n      tag_297\n      jumpi\n      pop\n        /* \"RPS.sol\":4631:4632  1 */\n      0x01\n        /* \"RPS.sol\":4620:4627  choice1 */\n      dup3\n        /* \"RPS.sol\":4620:4632  choice1 == 1 */\n      eq\n        /* \"RPS.sol\":4620:4648  choice1 == 1 || choice1 == 4 */\n      dup1\n      tag_298\n      jumpi\n      pop\n        /* \"RPS.sol\":4647:4648  4 */\n      0x04\n        /* \"RPS.sol\":4636:4643  choice1 */\n      dup3\n        /* \"RPS.sol\":4636:4648  choice1 == 4 */\n      eq\n        /* \"RPS.sol\":4620:4648  choice1 == 1 || choice1 == 4 */\n    tag_298:\n        /* \"RPS.sol\":4603:4649  choice0 == 3 && (choice1 == 1 || choice1 == 4) */\n    tag_297:\n        /* \"RPS.sol\":4302:4650  (choice0 == 0 && (choice1 == 2 || choice1 == 3)) ||  // Rock beats Scissors & Lizard... */\n    tag_296:\n        /* \"RPS.sol\":4302:4749  (choice0 == 0 && (choice1 == 2 || choice1 == 3)) ||  // Rock beats Scissors & Lizard... */\n      dup1\n      tag_299\n      jumpi\n      pop\n        /* \"RPS.sol\":4713:4714  4 */\n      0x04\n        /* \"RPS.sol\":4702:4709  choice0 */\n      dup4\n        /* \"RPS.sol\":4702:4714  choice0 == 4 */\n      eq\n        /* \"RPS.sol\":4702:4748  choice0 == 4 && (choice1 == 0 || choice1 == 2) */\n      dup1\n      iszero\n      tag_300\n      jumpi\n      pop\n        /* \"RPS.sol\":4730:4731  0 */\n      0x00\n        /* \"RPS.sol\":4719:4726  choice1 */\n      dup3\n        /* \"RPS.sol\":4719:4731  choice1 == 0 */\n      eq\n        /* \"RPS.sol\":4719:4747  choice1 == 0 || choice1 == 2 */\n      dup1\n      tag_301\n      jumpi\n      pop\n        /* \"RPS.sol\":4746:4747  2 */\n      0x02\n        /* \"RPS.sol\":4735:4742  choice1 */\n      dup3\n        /* \"RPS.sol\":4735:4747  choice1 == 2 */\n      eq\n        /* \"RPS.sol\":4719:4747  choice1 == 0 || choice1 == 2 */\n    tag_301:\n        /* \"RPS.sol\":4702:4748  choice0 == 4 && (choice1 == 0 || choice1 == 2) */\n    tag_300:\n        /* \"RPS.sol\":4302:4749  (choice0 == 0 && (choice1 == 2 || choice1 == 3)) ||  // Rock beats Scissors & Lizard... */\n    tag_299:\n        /* \"RPS.sol\":4295:4749  return (choice0 == 0 && (choice1 == 2 || choice1 == 3)) ||  // Rock beats Scissors & Lizard... */\n      swap1\n      pop\n        /* \"RPS.sol\":4209:4791  function _isWinner(uint choice0, uint choice1) private pure returns (bool) {... */\n      swap3\n      swap2\n      pop\n      pop\n      jump\t// out\n    tag_247:\n      dup3\n      dup1\n      sload\n      dup3\n      dup3\n      sstore\n      swap1\n      0x00\n      mstore\n      keccak256(0x00, 0x20)\n      swap1\n      dup2\n      add\n      swap3\n      dup3\n      iszero\n      tag_302\n      jumpi\n      swap2\n      0x20\n      mul\n      dup3\n      add\n    tag_303:\n      dup3\n      dup2\n      gt\n      iszero\n      tag_304\n      jumpi\n      dup3\n      mload\n      dup3\n      exp(0x0100, 0x00)\n      dup2\n      sload\n      dup2\n      0xffffffffffffffffffffffffffffffffffffffff\n      mul\n      not\n      and\n      swap1\n      dup4\n      0xffffffffffffffffffffffffffffffffffffffff\n      and\n      mul\n      or\n      swap1\n      sstore\n      pop\n      swap2\n      0x20\n      add\n      swap2\n      swap1\n      0x01\n      add\n      swap1\n      jump(tag_303)\n    tag_304:\n    tag_302:\n      pop\n      swap1\n      pop\n      tag_305\n      swap2\n      swap1\n      tag_306\n      jump\t// in\n    tag_305:\n      pop\n      swap1\n      jump\t// out\n    tag_249:\n      dataSize(sub_0)\n      dup1\n      dataOffset(sub_0)\n      dup4\n      codecopy\n      add\n      swap1\n      jump\t// out\n    tag_252:\n      dataSize(sub_1)\n      dup1\n      dataOffset(sub_1)\n      dup4\n      codecopy\n      add\n      swap1\n      jump\t// out\n    tag_306:\n    tag_307:\n      dup1\n      dup3\n      gt\n      iszero\n      tag_308\n      jumpi\n      0x00\n      dup2\n      0x00\n      swap1\n      sstore\n      pop\n      0x01\n      add\n      jump(tag_307)\n    tag_308:\n      pop\n      swap1\n      jump\t// out\n        /* \"#utility.yul\":7:84   */\n    tag_309:\n        /* \"#utility.yul\":44:51   */\n      0x00\n        /* \"#utility.yul\":73:78   */\n      dup2\n        /* \"#utility.yul\":62:78   */\n      swap1\n      pop\n        /* \"#utility.yul\":7:84   */\n      swap2\n      swap1\n      pop\n      jump\t// out\n        /* \"#utility.yul\":90:208   */\n    tag_310:\n        /* \"#utility.yul\":177:201   */\n      tag_367\n        /* \"#utility.yul\":195:200   */\n      dup2\n        /* \"#utility.yul\":177:201   */\n      tag_309\n      jump\t// in\n    tag_367:\n        /* \"#utility.yul\":172:175   */\n      dup3\n        /* \"#utility.yul\":165:202   */\n      mstore\n        /* \"#utility.yul\":90:208   */\n      pop\n      pop\n      jump\t// out\n        /* \"#utility.yul\":214:436   */\n    tag_26:\n        /* \"#utility.yul\":307:311   */\n      0x00\n        /* \"#utility.yul\":345:347   */\n      0x20\n        /* \"#utility.yul\":334:343   */\n      dup3\n        /* \"#utility.yul\":330:348   */\n      add\n        /* \"#utility.yul\":322:348   */\n      swap1\n      pop\n        /* \"#utility.yul\":358:429   */\n      tag_369\n        /* \"#utility.yul\":426:427   */\n      0x00\n        /* \"#utility.yul\":415:424   */\n      dup4\n        /* \"#utility.yul\":411:428   */\n      add\n        /* \"#utility.yul\":402:408   */\n      dup5\n        /* \"#utility.yul\":358:429   */\n      tag_310\n      jump\t// in\n    tag_369:\n        /* \"#utility.yul\":214:436   */\n      swap3\n      swap2\n      pop\n      pop\n      jump\t// out\n        /* \"#utility.yul\":523:640   */\n    tag_312:\n        /* \"#utility.yul\":632:633   */\n      0x00\n        /* \"#utility.yul\":629:630   */\n      dup1\n        /* \"#utility.yul\":622:634   */\n      revert\n        /* \"#utility.yul\":769:895   */\n    tag_314:\n        /* \"#utility.yul\":806:813   */\n      0x00\n        /* \"#utility.yul\":846:888   */\n      0xffffffffffffffffffffffffffffffffffffffff\n        /* \"#utility.yul\":839:844   */\n      dup3\n        /* \"#utility.yul\":835:889   */\n      and\n        /* \"#utility.yul\":824:889   */\n      swap1\n      pop\n        /* \"#utility.yul\":769:895   */\n      swap2\n      swap1\n      pop\n      jump\t// out\n        /* \"#utility.yul\":901:997   */\n    tag_315:\n        /* \"#utility.yul\":938:945   */\n      0x00\n        /* \"#utility.yul\":967:991   */\n      tag_375\n        /* \"#utility.yul\":985:990   */\n      dup3\n        /* \"#utility.yul\":967:991   */\n      tag_314\n      jump\t// in\n    tag_375:\n        /* \"#utility.yul\":956:991   */\n      swap1\n      pop\n        /* \"#utility.yul\":901:997   */\n      swap2\n      swap1\n      pop\n      jump\t// out\n        /* \"#utility.yul\":1003:1125   */\n    tag_316:\n        /* \"#utility.yul\":1076:1100   */\n      tag_377\n        /* \"#utility.yul\":1094:1099   */\n      dup2\n        /* \"#utility.yul\":1076:1100   */\n      tag_315\n      jump\t// in\n    tag_377:\n        /* \"#utility.yul\":1069:1074   */\n      dup2\n        /* \"#utility.yul\":1066:1101   */\n      eq\n        /* \"#utility.yul\":1056:1119   */\n      tag_378\n      jumpi\n        /* \"#utility.yul\":1115:1116   */\n      0x00\n        /* \"#utility.yul\":1112:1113   */\n      dup1\n        /* \"#utility.yul\":1105:1117   */\n      revert\n        /* \"#utility.yul\":1056:1119   */\n    tag_378:\n        /* \"#utility.yul\":1003:1125   */\n      pop\n      jump\t// out\n        /* \"#utility.yul\":1131:1270   */\n    tag_317:\n        /* \"#utility.yul\":1177:1182   */\n      0x00\n        /* \"#utility.yul\":1215:1221   */\n      dup2\n        /* \"#utility.yul\":1202:1222   */\n      calldataload\n        /* \"#utility.yul\":1193:1222   */\n      swap1\n      pop\n        /* \"#utility.yul\":1231:1264   */\n      tag_380\n        /* \"#utility.yul\":1258:1263   */\n      dup2\n        /* \"#utility.yul\":1231:1264   */\n      tag_316\n      jump\t// in\n    tag_380:\n        /* \"#utility.yul\":1131:1270   */\n      swap3\n      swap2\n      pop\n      pop\n      jump\t// out\n        /* \"#utility.yul\":1276:1605   */\n    tag_30:\n        /* \"#utility.yul\":1335:1341   */\n      0x00\n        /* \"#utility.yul\":1384:1386   */\n      0x20\n        /* \"#utility.yul\":1372:1381   */\n      dup3\n        /* \"#utility.yul\":1363:1370   */\n      dup5\n        /* \"#utility.yul\":1359:1382   */\n      sub\n        /* \"#utility.yul\":1355:1387   */\n      slt\n        /* \"#utility.yul\":1352:1471   */\n      iszero\n      tag_382\n      jumpi\n        /* \"#utility.yul\":1390:1469   */\n      tag_383\n      tag_312\n      jump\t// in\n    tag_383:\n        /* \"#utility.yul\":1352:1471   */\n    tag_382:\n        /* \"#utility.yul\":1510:1511   */\n      0x00\n        /* \"#utility.yul\":1535:1588   */\n      tag_384\n        /* \"#utility.yul\":1580:1587   */\n      dup5\n        /* \"#utility.yul\":1571:1577   */\n      dup3\n        /* \"#utility.yul\":1560:1569   */\n      dup6\n        /* \"#utility.yul\":1556:1578   */\n      add\n        /* \"#utility.yul\":1535:1588   */\n      tag_317\n      jump\t// in\n    tag_384:\n        /* \"#utility.yul\":1525:1588   */\n      swap2\n      pop\n        /* \"#utility.yul\":1481:1598   */\n      pop\n        /* \"#utility.yul\":1276:1605   */\n      swap3\n      swap2\n      pop\n      pop\n      jump\t// out\n        /* \"#utility.yul\":1611:1701   */\n    tag_318:\n        /* \"#utility.yul\":1645:1652   */\n      0x00\n        /* \"#utility.yul\":1688:1693   */\n      dup2\n        /* \"#utility.yul\":1681:1694   */\n      iszero\n        /* \"#utility.yul\":1674:1695   */\n      iszero\n        /* \"#utility.yul\":1663:1695   */\n      swap1\n      pop\n        /* \"#utility.yul\":1611:1701   */\n      swap2\n      swap1\n      pop\n      jump\t// out\n        /* \"#utility.yul\":1707:1816   */\n    tag_319:\n        /* \"#utility.yul\":1788:1809   */\n      tag_387\n        /* \"#utility.yul\":1803:1808   */\n      dup2\n        /* \"#utility.yul\":1788:1809   */\n      tag_318\n      jump\t// in\n    tag_387:\n        /* \"#utility.yul\":1783:1786   */\n      dup3\n        /* \"#utility.yul\":1776:1810   */\n      mstore\n        /* \"#utility.yul\":1707:1816   */\n      pop\n      pop\n      jump\t// out\n        /* \"#utility.yul\":1822:2032   */\n    tag_33:\n        /* \"#utility.yul\":1909:1913   */\n      0x00\n        /* \"#utility.yul\":1947:1949   */\n      0x20\n        /* \"#utility.yul\":1936:1945   */\n      dup3\n        /* \"#utility.yul\":1932:1950   */\n      add\n        /* \"#utility.yul\":1924:1950   */\n      swap1\n      pop\n        /* \"#utility.yul\":1960:2025   */\n      tag_389\n        /* \"#utility.yul\":2022:2023   */\n      0x00\n        /* \"#utility.yul\":2011:2020   */\n      dup4\n        /* \"#utility.yul\":2007:2024   */\n      add\n        /* \"#utility.yul\":1998:2004   */\n      dup5\n        /* \"#utility.yul\":1960:2025   */\n      tag_319\n      jump\t// in\n    tag_389:\n        /* \"#utility.yul\":1822:2032   */\n      swap3\n      swap2\n      pop\n      pop\n      jump\t// out\n        /* \"#utility.yul\":2038:2098   */\n    tag_320:\n        /* \"#utility.yul\":2066:2069   */\n      0x00\n        /* \"#utility.yul\":2087:2092   */\n      dup2\n        /* \"#utility.yul\":2080:2092   */\n      swap1\n      pop\n        /* \"#utility.yul\":2038:2098   */\n      swap2\n      swap1\n      pop\n      jump\t// out\n        /* \"#utility.yul\":2104:2246   */\n    tag_321:\n        /* \"#utility.yul\":2154:2163   */\n      0x00\n        /* \"#utility.yul\":2187:2240   */\n      tag_392\n        /* \"#utility.yul\":2205:2239   */\n      tag_393\n        /* \"#utility.yul\":2214:2238   */\n      tag_394\n        /* \"#utility.yul\":2232:2237   */\n      dup5\n        /* \"#utility.yul\":2214:2238   */\n      tag_314\n      jump\t// in\n    tag_394:\n        /* \"#utility.yul\":2205:2239   */\n      tag_320\n      jump\t// in\n    tag_393:\n        /* \"#utility.yul\":2187:2240   */\n      tag_314\n      jump\t// in\n    tag_392:\n        /* \"#utility.yul\":2174:2240   */\n      swap1\n      pop\n        /* \"#utility.yul\":2104:2246   */\n      swap2\n      swap1\n      pop\n      jump\t// out\n        /* \"#utility.yul\":2252:2378   */\n    tag_322:\n        /* \"#utility.yul\":2302:2311   */\n      0x00\n        /* \"#utility.yul\":2335:2372   */\n      tag_396\n        /* \"#utility.yul\":2366:2371   */\n      dup3\n        /* \"#utility.yul\":2335:2372   */\n      tag_321\n      jump\t// in\n    tag_396:\n        /* \"#utility.yul\":2322:2372   */\n      swap1\n      pop\n        /* \"#utility.yul\":2252:2378   */\n      swap2\n      swap1\n      pop\n      jump\t// out\n        /* \"#utility.yul\":2384:2526   */\n    tag_323:\n        /* \"#utility.yul\":2450:2459   */\n      0x00\n        /* \"#utility.yul\":2483:2520   */\n      tag_398\n        /* \"#utility.yul\":2514:2519   */\n      dup3\n        /* \"#utility.yul\":2483:2520   */\n      tag_322\n      jump\t// in\n    tag_398:\n        /* \"#utility.yul\":2470:2520   */\n      swap1\n      pop\n        /* \"#utility.yul\":2384:2526   */\n      swap2\n      swap1\n      pop\n      jump\t// out\n        /* \"#utility.yul\":2532:2695   */\n    tag_324:\n        /* \"#utility.yul\":2635:2688   */\n      tag_400\n        /* \"#utility.yul\":2682:2687   */\n      dup2\n        /* \"#utility.yul\":2635:2688   */\n      tag_323\n      jump\t// in\n    tag_400:\n        /* \"#utility.yul\":2630:2633   */\n      dup3\n        /* \"#utility.yul\":2623:2689   */\n      mstore\n        /* \"#utility.yul\":2532:2695   */\n      pop\n      pop\n      jump\t// out\n        /* \"#utility.yul\":2701:2955   */\n    tag_47:\n        /* \"#utility.yul\":2810:2814   */\n      0x00\n        /* \"#utility.yul\":2848:2850   */\n      0x20\n        /* \"#utility.yul\":2837:2846   */\n      dup3\n        /* \"#utility.yul\":2833:2851   */\n      add\n        /* \"#utility.yul\":2825:2851   */\n      swap1\n      pop\n        /* \"#utility.yul\":2861:2948   */\n      tag_402\n        /* \"#utility.yul\":2945:2946   */\n      0x00\n        /* \"#utility.yul\":2934:2943   */\n      dup4\n        /* \"#utility.yul\":2930:2947   */\n      add\n        /* \"#utility.yul\":2921:2927   */\n      dup5\n        /* \"#utility.yul\":2861:2948   */\n      tag_324\n      jump\t// in\n    tag_402:\n        /* \"#utility.yul\":2701:2955   */\n      swap3\n      swap2\n      pop\n      pop\n      jump\t// out\n        /* \"#utility.yul\":2961:3107   */\n    tag_325:\n        /* \"#utility.yul\":3031:3040   */\n      0x00\n        /* \"#utility.yul\":3064:3101   */\n      tag_404\n        /* \"#utility.yul\":3095:3100   */\n      dup3\n        /* \"#utility.yul\":3064:3101   */\n      tag_322\n      jump\t// in\n    tag_404:\n        /* \"#utility.yul\":3051:3101   */\n      swap1\n      pop\n        /* \"#utility.yul\":2961:3107   */\n      swap2\n      swap1\n      pop\n      jump\t// out\n        /* \"#utility.yul\":3113:3284   */\n    tag_326:\n        /* \"#utility.yul\":3220:3277   */\n      tag_406\n        /* \"#utility.yul\":3271:3276   */\n      dup2\n        /* \"#utility.yul\":3220:3277   */\n      tag_325\n      jump\t// in\n    tag_406:\n        /* \"#utility.yul\":3215:3218   */\n      dup3\n        /* \"#utility.yul\":3208:3278   */\n      mstore\n        /* \"#utility.yul\":3113:3284   */\n      pop\n      pop\n      jump\t// out\n        /* \"#utility.yul\":3290:3552   */\n    tag_52:\n        /* \"#utility.yul\":3403:3407   */\n      0x00\n        /* \"#utility.yul\":3441:3443   */\n      0x20\n        /* \"#utility.yul\":3430:3439   */\n      dup3\n        /* \"#utility.yul\":3426:3444   */\n      add\n        /* \"#utility.yul\":3418:3444   */\n      swap1\n      pop\n        /* \"#utility.yul\":3454:3545   */\n      tag_408\n        /* \"#utility.yul\":3542:3543   */\n      0x00\n        /* \"#utility.yul\":3531:3540   */\n      dup4\n        /* \"#utility.yul\":3527:3544   */\n      add\n        /* \"#utility.yul\":3518:3524   */\n      dup5\n        /* \"#utility.yul\":3454:3545   */\n      tag_326\n      jump\t// in\n    tag_408:\n        /* \"#utility.yul\":3290:3552   */\n      swap3\n      swap2\n      pop\n      pop\n      jump\t// out\n        /* \"#utility.yul\":3558:3680   */\n    tag_327:\n        /* \"#utility.yul\":3631:3655   */\n      tag_410\n        /* \"#utility.yul\":3649:3654   */\n      dup2\n        /* \"#utility.yul\":3631:3655   */\n      tag_309\n      jump\t// in\n    tag_410:\n        /* \"#utility.yul\":3624:3629   */\n      dup2\n        /* \"#utility.yul\":3621:3656   */\n      eq\n        /* \"#utility.yul\":3611:3674   */\n      tag_411\n      jumpi\n        /* \"#utility.yul\":3670:3671   */\n      0x00\n        /* \"#utility.yul\":3667:3668   */\n      dup1\n        /* \"#utility.yul\":3660:3672   */\n      revert\n        /* \"#utility.yul\":3611:3674   */\n    tag_411:\n        /* \"#utility.yul\":3558:3680   */\n      pop\n      jump\t// out\n        /* \"#utility.yul\":3686:3825   */\n    tag_328:\n        /* \"#utility.yul\":3732:3737   */\n      0x00\n        /* \"#utility.yul\":3770:3776   */\n      dup2\n        /* \"#utility.yul\":3757:3777   */\n      calldataload\n        /* \"#utility.yul\":3748:3777   */\n      swap1\n      pop\n        /* \"#utility.yul\":3786:3819   */\n      tag_413\n        /* \"#utility.yul\":3813:3818   */\n      dup2\n        /* \"#utility.yul\":3786:3819   */\n      tag_327\n      jump\t// in\n    tag_413:\n        /* \"#utility.yul\":3686:3825   */\n      swap3\n      swap2\n      pop\n      pop\n      jump\t// out\n        /* \"#utility.yul\":3831:4160   */\n    tag_78:\n        /* \"#utility.yul\":3890:3896   */\n      0x00\n        /* \"#utility.yul\":3939:3941   */\n      0x20\n        /* \"#utility.yul\":3927:3936   */\n      dup3\n        /* \"#utility.yul\":3918:3925   */\n      dup5\n        /* \"#utility.yul\":3914:3937   */\n      sub\n        /* \"#utility.yul\":3910:3942   */\n      slt\n        /* \"#utility.yul\":3907:4026   */\n      iszero\n      tag_415\n      jumpi\n        /* \"#utility.yul\":3945:4024   */\n      tag_416\n      tag_312\n      jump\t// in\n    tag_416:\n        /* \"#utility.yul\":3907:4026   */\n    tag_415:\n        /* \"#utility.yul\":4065:4066   */\n      0x00\n        /* \"#utility.yul\":4090:4143   */\n      tag_417\n        /* \"#utility.yul\":4135:4142   */\n      dup5\n        /* \"#utility.yul\":4126:4132   */\n      dup3\n        /* \"#utility.yul\":4115:4124   */\n      dup6\n        /* \"#utility.yul\":4111:4133   */\n      add\n        /* \"#utility.yul\":4090:4143   */\n      tag_328\n      jump\t// in\n    tag_417:\n        /* \"#utility.yul\":4080:4143   */\n      swap2\n      pop\n        /* \"#utility.yul\":4036:4153   */\n      pop\n        /* \"#utility.yul\":3831:4160   */\n      swap3\n      swap2\n      pop\n      pop\n      jump\t// out\n        /* \"#utility.yul\":4166:4640   */\n    tag_83:\n        /* \"#utility.yul\":4234:4240   */\n      0x00\n        /* \"#utility.yul\":4242:4248   */\n      dup1\n        /* \"#utility.yul\":4291:4293   */\n      0x40\n        /* \"#utility.yul\":4279:4288   */\n      dup4\n        /* \"#utility.yul\":4270:4277   */\n      dup6\n        /* \"#utility.yul\":4266:4289   */\n      sub\n        /* \"#utility.yul\":4262:4294   */\n      slt\n        /* \"#utility.yul\":4259:4378   */\n      iszero\n      tag_419\n      jumpi\n        /* \"#utility.yul\":4297:4376   */\n      tag_420\n      tag_312\n      jump\t// in\n    tag_420:\n        /* \"#utility.yul\":4259:4378   */\n    tag_419:\n        /* \"#utility.yul\":4417:4418   */\n      0x00\n        /* \"#utility.yul\":4442:4495   */\n      tag_421\n        /* \"#utility.yul\":4487:4494   */\n      dup6\n        /* \"#utility.yul\":4478:4484   */\n      dup3\n        /* \"#utility.yul\":4467:4476   */\n      dup7\n        /* \"#utility.yul\":4463:4485   */\n      add\n        /* \"#utility.yul\":4442:4495   */\n      tag_317\n      jump\t// in\n    tag_421:\n        /* \"#utility.yul\":4432:4495   */\n      swap3\n      pop\n        /* \"#utility.yul\":4388:4505   */\n      pop\n        /* \"#utility.yul\":4544:4546   */\n      0x20\n        /* \"#utility.yul\":4570:4623   */\n      tag_422\n        /* \"#utility.yul\":4615:4622   */\n      dup6\n        /* \"#utility.yul\":4606:4612   */\n      dup3\n        /* \"#utility.yul\":4595:4604   */\n      dup7\n        /* \"#utility.yul\":4591:4613   */\n      add\n        /* \"#utility.yul\":4570:4623   */\n      tag_317\n      jump\t// in\n    tag_422:\n        /* \"#utility.yul\":4560:4623   */\n      swap2\n      pop\n        /* \"#utility.yul\":4515:4633   */\n      pop\n        /* \"#utility.yul\":4166:4640   */\n      swap3\n      pop\n      swap3\n      swap1\n      pop\n      jump\t// out\n        /* \"#utility.yul\":4646:4764   */\n    tag_329:\n        /* \"#utility.yul\":4733:4757   */\n      tag_424\n        /* \"#utility.yul\":4751:4756   */\n      dup2\n        /* \"#utility.yul\":4733:4757   */\n      tag_315\n      jump\t// in\n    tag_424:\n        /* \"#utility.yul\":4728:4731   */\n      dup3\n        /* \"#utility.yul\":4721:4758   */\n      mstore\n        /* \"#utility.yul\":4646:4764   */\n      pop\n      pop\n      jump\t// out\n        /* \"#utility.yul\":4770:4992   */\n    tag_99:\n        /* \"#utility.yul\":4863:4867   */\n      0x00\n        /* \"#utility.yul\":4901:4903   */\n      0x20\n        /* \"#utility.yul\":4890:4899   */\n      dup3\n        /* \"#utility.yul\":4886:4904   */\n      add\n        /* \"#utility.yul\":4878:4904   */\n      swap1\n      pop\n        /* \"#utility.yul\":4914:4985   */\n      tag_426\n        /* \"#utility.yul\":4982:4983   */\n      0x00\n        /* \"#utility.yul\":4971:4980   */\n      dup4\n        /* \"#utility.yul\":4967:4984   */\n      add\n        /* \"#utility.yul\":4958:4964   */\n      dup5\n        /* \"#utility.yul\":4914:4985   */\n      tag_329\n      jump\t// in\n    tag_426:\n        /* \"#utility.yul\":4770:4992   */\n      swap3\n      swap2\n      pop\n      pop\n      jump\t// out\n        /* \"#utility.yul\":4998:5167   */\n    tag_330:\n        /* \"#utility.yul\":5082:5093   */\n      0x00\n        /* \"#utility.yul\":5116:5122   */\n      dup3\n        /* \"#utility.yul\":5111:5114   */\n      dup3\n        /* \"#utility.yul\":5104:5123   */\n      mstore\n        /* \"#utility.yul\":5156:5160   */\n      0x20\n        /* \"#utility.yul\":5151:5154   */\n      dup3\n        /* \"#utility.yul\":5147:5161   */\n      add\n        /* \"#utility.yul\":5132:5161   */\n      swap1\n      pop\n        /* \"#utility.yul\":4998:5167   */\n      swap3\n      swap2\n      pop\n      pop\n      jump\t// out\n        /* \"#utility.yul\":5173:5351   */\n    tag_331:\n        /* \"#utility.yul\":5313:5343   */\n      0x47616d6520616c7265616479206861732074776f20706c617965727300000000\n        /* \"#utility.yul\":5309:5310   */\n      0x00\n        /* \"#utility.yul\":5301:5307   */\n      dup3\n        /* \"#utility.yul\":5297:5311   */\n      add\n        /* \"#utility.yul\":5290:5344   */\n      mstore\n        /* \"#utility.yul\":5173:5351   */\n      pop\n      jump\t// out\n        /* \"#utility.yul\":5357:5723   */\n    tag_332:\n        /* \"#utility.yul\":5499:5502   */\n      0x00\n        /* \"#utility.yul\":5520:5587   */\n      tag_430\n        /* \"#utility.yul\":5584:5586   */\n      0x1c\n        /* \"#utility.yul\":5579:5582   */\n      dup4\n        /* \"#utility.yul\":5520:5587   */\n      tag_330\n      jump\t// in\n    tag_430:\n        /* \"#utility.yul\":5513:5587   */\n      swap2\n      pop\n        /* \"#utility.yul\":5596:5689   */\n      tag_431\n        /* \"#utility.yul\":5685:5688   */\n      dup3\n        /* \"#utility.yul\":5596:5689   */\n      tag_331\n      jump\t// in\n    tag_431:\n        /* \"#utility.yul\":5714:5716   */\n      0x20\n        /* \"#utility.yul\":5709:5712   */\n      dup3\n        /* \"#utility.yul\":5705:5717   */\n      add\n        /* \"#utility.yul\":5698:5717   */\n      swap1\n      pop\n        /* \"#utility.yul\":5357:5723   */\n      swap2\n      swap1\n      pop\n      jump\t// out\n        /* \"#utility.yul\":5729:6148   */\n    tag_103:\n        /* \"#utility.yul\":5895:5899   */\n      0x00\n        /* \"#utility.yul\":5933:5935   */\n      0x20\n        /* \"#utility.yul\":5922:5931   */\n      dup3\n        /* \"#utility.yul\":5918:5936   */\n      add\n        /* \"#utility.yul\":5910:5936   */\n      swap1\n      pop\n        /* \"#utility.yul\":5982:5991   */\n      dup2\n        /* \"#utility.yul\":5976:5980   */\n      dup2\n        /* \"#utility.yul\":5972:5992   */\n      sub\n        /* \"#utility.yul\":5968:5969   */\n      0x00\n        /* \"#utility.yul\":5957:5966   */\n      dup4\n        /* \"#utility.yul\":5953:5970   */\n      add\n        /* \"#utility.yul\":5946:5993   */\n      mstore\n        /* \"#utility.yul\":6010:6141   */\n      tag_433\n        /* \"#utility.yul\":6136:6140   */\n      dup2\n        /* \"#utility.yul\":6010:6141   */\n      tag_332\n      jump\t// in\n    tag_433:\n        /* \"#utility.yul\":6002:6141   */\n      swap1\n      pop\n        /* \"#utility.yul\":5729:6148   */\n      swap2\n      swap1\n      pop\n      jump\t// out\n        /* \"#utility.yul\":6154:6334   */\n    tag_107:\n        /* \"#utility.yul\":6202:6279   */\n      0x4e487b7100000000000000000000000000000000000000000000000000000000\n        /* \"#utility.yul\":6199:6200   */\n      0x00\n        /* \"#utility.yul\":6192:6280   */\n      mstore\n        /* \"#utility.yul\":6299:6303   */\n      0x32\n        /* \"#utility.yul\":6296:6297   */\n      0x04\n        /* \"#utility.yul\":6289:6304   */\n      mstore\n        /* \"#utility.yul\":6323:6327   */\n      0x24\n        /* \"#utility.yul\":6320:6321   */\n      0x00\n        /* \"#utility.yul\":6313:6328   */\n      revert\n        /* \"#utility.yul\":6340:6510   */\n    tag_333:\n        /* \"#utility.yul\":6480:6502   */\n      0x506c6179657220616c7265616479206164646564000000000000000000000000\n        /* \"#utility.yul\":6476:6477   */\n      0x00\n        /* \"#utility.yul\":6468:6474   */\n      dup3\n        /* \"#utility.yul\":6464:6478   */\n      add\n        /* \"#utility.yul\":6457:6503   */\n      mstore\n        /* \"#utility.yul\":6340:6510   */\n      pop\n      jump\t// out\n        /* \"#utility.yul\":6516:6882   */\n    tag_334:\n        /* \"#utility.yul\":6658:6661   */\n      0x00\n        /* \"#utility.yul\":6679:6746   */\n      tag_437\n        /* \"#utility.yul\":6743:6745   */\n      0x14\n        /* \"#utility.yul\":6738:6741   */\n      dup4\n        /* \"#utility.yul\":6679:6746   */\n      tag_330\n      jump\t// in\n    tag_437:\n        /* \"#utility.yul\":6672:6746   */\n      swap2\n      pop\n        /* \"#utility.yul\":6755:6848   */\n      tag_438\n        /* \"#utility.yul\":6844:6847   */\n      dup3\n        /* \"#utility.yul\":6755:6848   */\n      tag_333\n      jump\t// in\n    tag_438:\n        /* \"#utility.yul\":6873:6875   */\n      0x20\n        /* \"#utility.yul\":6868:6871   */\n      dup3\n        /* \"#utility.yul\":6864:6876   */\n      add\n        /* \"#utility.yul\":6857:6876   */\n      swap1\n      pop\n        /* \"#utility.yul\":6516:6882   */\n      swap2\n      swap1\n      pop\n      jump\t// out\n        /* \"#utility.yul\":6888:7307   */\n    tag_111:\n        /* \"#utility.yul\":7054:7058   */\n      0x00\n        /* \"#utility.yul\":7092:7094   */\n      0x20\n        /* \"#utility.yul\":7081:7090   */\n      dup3\n        /* \"#utility.yul\":7077:7095   */\n      add\n        /* \"#utility.yul\":7069:7095   */\n      swap1\n      pop\n        /* \"#utility.yul\":7141:7150   */\n      dup2\n        /* \"#utility.yul\":7135:7139   */\n      dup2\n        /* \"#utility.yul\":7131:7151   */\n      sub\n        /* \"#utility.yul\":7127:7128   */\n      0x00\n        /* \"#utility.yul\":7116:7125   */\n      dup4\n        /* \"#utility.yul\":7112:7129   */\n      add\n        /* \"#utility.yul\":7105:7152   */\n      mstore\n        /* \"#utility.yul\":7169:7300   */\n      tag_440\n        /* \"#utility.yul\":7295:7299   */\n      dup2\n        /* \"#utility.yul\":7169:7300   */\n      tag_334\n      jump\t// in\n    tag_440:\n        /* \"#utility.yul\":7161:7300   */\n      swap1\n      pop\n        /* \"#utility.yul\":6888:7307   */\n      swap2\n      swap1\n      pop\n      jump\t// out\n        /* \"#utility.yul\":7313:7495   */\n    tag_335:\n        /* \"#utility.yul\":7453:7487   */\n      0x4d7573742073656e642065786163746c7920302e303030303031206574686572\n        /* \"#utility.yul\":7449:7450   */\n      0x00\n        /* \"#utility.yul\":7441:7447   */\n      dup3\n        /* \"#utility.yul\":7437:7451   */\n      add\n        /* \"#utility.yul\":7430:7488   */\n      mstore\n        /* \"#utility.yul\":7313:7495   */\n      pop\n      jump\t// out\n        /* \"#utility.yul\":7501:7867   */\n    tag_336:\n        /* \"#utility.yul\":7643:7646   */\n      0x00\n        /* \"#utility.yul\":7664:7731   */\n      tag_443\n        /* \"#utility.yul\":7728:7730   */\n      0x20\n        /* \"#utility.yul\":7723:7726   */\n      dup4\n        /* \"#utility.yul\":7664:7731   */\n      tag_330\n      jump\t// in\n    tag_443:\n        /* \"#utility.yul\":7657:7731   */\n      swap2\n      pop\n        /* \"#utility.yul\":7740:7833   */\n      tag_444\n        /* \"#utility.yul\":7829:7832   */\n      dup3\n        /* \"#utility.yul\":7740:7833   */\n      tag_335\n      jump\t// in\n    tag_444:\n        /* \"#utility.yul\":7858:7860   */\n      0x20\n        /* \"#utility.yul\":7853:7856   */\n      dup3\n        /* \"#utility.yul\":7849:7861   */\n      add\n        /* \"#utility.yul\":7842:7861   */\n      swap1\n      pop\n        /* \"#utility.yul\":7501:7867   */\n      swap2\n      swap1\n      pop\n      jump\t// out\n        /* \"#utility.yul\":7873:8292   */\n    tag_118:\n        /* \"#utility.yul\":8039:8043   */\n      0x00\n        /* \"#utility.yul\":8077:8079   */\n      0x20\n        /* \"#utility.yul\":8066:8075   */\n      dup3\n        /* \"#utility.yul\":8062:8080   */\n      add\n        /* \"#utility.yul\":8054:8080   */\n      swap1\n      pop\n        /* \"#utility.yul\":8126:8135   */\n      dup2\n        /* \"#utility.yul\":8120:8124   */\n      dup2\n        /* \"#utility.yul\":8116:8136   */\n      sub\n        /* \"#utility.yul\":8112:8113   */\n      0x00\n        /* \"#utility.yul\":8101:8110   */\n      dup4\n        /* \"#utility.yul\":8097:8114   */\n      add\n        /* \"#utility.yul\":8090:8137   */\n      mstore\n        /* \"#utility.yul\":8154:8285   */\n      tag_446\n        /* \"#utility.yul\":8280:8284   */\n      dup2\n        /* \"#utility.yul\":8154:8285   */\n      tag_336\n      jump\t// in\n    tag_446:\n        /* \"#utility.yul\":8146:8285   */\n      swap1\n      pop\n        /* \"#utility.yul\":7873:8292   */\n      swap2\n      swap1\n      pop\n      jump\t// out\n        /* \"#utility.yul\":8298:8478   */\n    tag_337:\n        /* \"#utility.yul\":8346:8423   */\n      0x4e487b7100000000000000000000000000000000000000000000000000000000\n        /* \"#utility.yul\":8343:8344   */\n      0x00\n        /* \"#utility.yul\":8336:8424   */\n      mstore\n        /* \"#utility.yul\":8443:8447   */\n      0x11\n        /* \"#utility.yul\":8440:8441   */\n      0x04\n        /* \"#utility.yul\":8433:8448   */\n      mstore\n        /* \"#utility.yul\":8467:8471   */\n      0x24\n        /* \"#utility.yul\":8464:8465   */\n      0x00\n        /* \"#utility.yul\":8457:8472   */\n      revert\n        /* \"#utility.yul\":8484:8675   */\n    tag_120:\n        /* \"#utility.yul\":8524:8527   */\n      0x00\n        /* \"#utility.yul\":8543:8563   */\n      tag_449\n        /* \"#utility.yul\":8561:8562   */\n      dup3\n        /* \"#utility.yul\":8543:8563   */\n      tag_309\n      jump\t// in\n    tag_449:\n        /* \"#utility.yul\":8538:8563   */\n      swap2\n      pop\n        /* \"#utility.yul\":8577:8597   */\n      tag_450\n        /* \"#utility.yul\":8595:8596   */\n      dup4\n        /* \"#utility.yul\":8577:8597   */\n      tag_309\n      jump\t// in\n    tag_450:\n        /* \"#utility.yul\":8572:8597   */\n      swap3\n      pop\n        /* \"#utility.yul\":8620:8621   */\n      dup3\n        /* \"#utility.yul\":8617:8618   */\n      dup3\n        /* \"#utility.yul\":8613:8622   */\n      add\n        /* \"#utility.yul\":8606:8622   */\n      swap1\n      pop\n        /* \"#utility.yul\":8641:8644   */\n      dup1\n        /* \"#utility.yul\":8638:8639   */\n      dup3\n        /* \"#utility.yul\":8635:8645   */\n      gt\n        /* \"#utility.yul\":8632:8668   */\n      iszero\n      tag_451\n      jumpi\n        /* \"#utility.yul\":8648:8666   */\n      tag_452\n      tag_337\n      jump\t// in\n    tag_452:\n        /* \"#utility.yul\":8632:8668   */\n    tag_451:\n        /* \"#utility.yul\":8484:8675   */\n      swap3\n      swap2\n      pop\n      pop\n      jump\t// out\n        /* \"#utility.yul\":8681:8914   */\n    tag_123:\n        /* \"#utility.yul\":8720:8723   */\n      0x00\n        /* \"#utility.yul\":8743:8767   */\n      tag_454\n        /* \"#utility.yul\":8761:8766   */\n      dup3\n        /* \"#utility.yul\":8743:8767   */\n      tag_309\n      jump\t// in\n    tag_454:\n        /* \"#utility.yul\":8734:8767   */\n      swap2\n      pop\n        /* \"#utility.yul\":8789:8855   */\n      0xffffffffffffffffffffffffffffffffffffffffffffffffffffffffffffffff\n        /* \"#utility.yul\":8782:8787   */\n      dup3\n        /* \"#utility.yul\":8779:8856   */\n      sub\n        /* \"#utility.yul\":8776:8879   */\n      tag_455\n      jumpi\n        /* \"#utility.yul\":8859:8877   */\n      tag_456\n      tag_337\n      jump\t// in\n    tag_456:\n        /* \"#utility.yul\":8776:8879   */\n    tag_455:\n        /* \"#utility.yul\":8906:8907   */\n      0x01\n        /* \"#utility.yul\":8899:8904   */\n      dup3\n        /* \"#utility.yul\":8895:8908   */\n      add\n        /* \"#utility.yul\":8888:8908   */\n      swap1\n      pop\n        /* \"#utility.yul\":8681:8914   */\n      swap2\n      swap1\n      pop\n      jump\t// out\n        /* \"#utility.yul\":8920:9083   */\n    tag_338:\n        /* \"#utility.yul\":9060:9075   */\n      0x47616d6520697320656d70747900000000000000000000000000000000000000\n        /* \"#utility.yul\":9056:9057   */\n      0x00\n        /* \"#utility.yul\":9048:9054   */\n      dup3\n        /* \"#utility.yul\":9044:9058   */\n      add\n        /* \"#utility.yul\":9037:9076   */\n      mstore\n        /* \"#utility.yul\":8920:9083   */\n      pop\n      jump\t// out\n        /* \"#utility.yul\":9089:9455   */\n    tag_339:\n        /* \"#utility.yul\":9231:9234   */\n      0x00\n        /* \"#utility.yul\":9252:9319   */\n      tag_459\n        /* \"#utility.yul\":9316:9318   */\n      0x0d\n        /* \"#utility.yul\":9311:9314   */\n      dup4\n        /* \"#utility.yul\":9252:9319   */\n      tag_330\n      jump\t// in\n    tag_459:\n        /* \"#utility.yul\":9245:9319   */\n      swap2\n      pop\n        /* \"#utility.yul\":9328:9421   */\n      tag_460\n        /* \"#utility.yul\":9417:9420   */\n      dup3\n        /* \"#utility.yul\":9328:9421   */\n      tag_338\n      jump\t// in\n    tag_460:\n        /* \"#utility.yul\":9446:9448   */\n      0x20\n        /* \"#utility.yul\":9441:9444   */\n      dup3\n        /* \"#utility.yul\":9437:9449   */\n      add\n        /* \"#utility.yul\":9430:9449   */\n      swap1\n      pop\n        /* \"#utility.yul\":9089:9455   */\n      swap2\n      swap1\n      pop\n      jump\t// out\n        /* \"#utility.yul\":9461:9880   */\n    tag_127:\n        /* \"#utility.yul\":9627:9631   */\n      0x00\n        /* \"#utility.yul\":9665:9667   */\n      0x20\n        /* \"#utility.yul\":9654:9663   */\n      dup3\n        /* \"#utility.yul\":9650:9668   */\n      add\n        /* \"#utility.yul\":9642:9668   */\n      swap1\n      pop\n        /* \"#utility.yul\":9714:9723   */\n      dup2\n        /* \"#utility.yul\":9708:9712   */\n      dup2\n        /* \"#utility.yul\":9704:9724   */\n      sub\n        /* \"#utility.yul\":9700:9701   */\n      0x00\n        /* \"#utility.yul\":9689:9698   */\n      dup4\n        /* \"#utility.yul\":9685:9702   */\n      add\n        /* \"#utility.yul\":9678:9725   */\n      mstore\n        /* \"#utility.yul\":9742:9873   */\n      tag_462\n        /* \"#utility.yul\":9868:9872   */\n      dup2\n        /* \"#utility.yul\":9742:9873   */\n      tag_339\n      jump\t// in\n    tag_462:\n        /* \"#utility.yul\":9734:9873   */\n      swap1\n      pop\n        /* \"#utility.yul\":9461:9880   */\n      swap2\n      swap1\n      pop\n      jump\t// out\n        /* \"#utility.yul\":9886:10029   */\n    tag_340:\n        /* \"#utility.yul\":9943:9948   */\n      0x00\n        /* \"#utility.yul\":9974:9980   */\n      dup2\n        /* \"#utility.yul\":9968:9981   */\n      mload\n        /* \"#utility.yul\":9959:9981   */\n      swap1\n      pop\n        /* \"#utility.yul\":9990:10023   */\n      tag_464\n        /* \"#utility.yul\":10017:10022   */\n      dup2\n        /* \"#utility.yul\":9990:10023   */\n      tag_327\n      jump\t// in\n    tag_464:\n        /* \"#utility.yul\":9886:10029   */\n      swap3\n      swap2\n      pop\n      pop\n      jump\t// out\n        /* \"#utility.yul\":10035:10386   */\n    tag_131:\n        /* \"#utility.yul\":10105:10111   */\n      0x00\n        /* \"#utility.yul\":10154:10156   */\n      0x20\n        /* \"#utility.yul\":10142:10151   */\n      dup3\n        /* \"#utility.yul\":10133:10140   */\n      dup5\n        /* \"#utility.yul\":10129:10152   */\n      sub\n        /* \"#utility.yul\":10125:10157   */\n      slt\n        /* \"#utility.yul\":10122:10241   */\n      iszero\n      tag_466\n      jumpi\n        /* \"#utility.yul\":10160:10239   */\n      tag_467\n      tag_312\n      jump\t// in\n    tag_467:\n        /* \"#utility.yul\":10122:10241   */\n    tag_466:\n        /* \"#utility.yul\":10280:10281   */\n      0x00\n        /* \"#utility.yul\":10305:10369   */\n      tag_468\n        /* \"#utility.yul\":10361:10368   */\n      dup5\n        /* \"#utility.yul\":10352:10358   */\n      dup3\n        /* \"#utility.yul\":10341:10350   */\n      dup6\n        /* \"#utility.yul\":10337:10359   */\n      add\n        /* \"#utility.yul\":10305:10369   */\n      tag_340\n      jump\t// in\n    tag_468:\n        /* \"#utility.yul\":10295:10369   */\n      swap2\n      pop\n        /* \"#utility.yul\":10251:10379   */\n      pop\n        /* \"#utility.yul\":10035:10386   */\n      swap3\n      swap2\n      pop\n      pop\n      jump\t// out\n        /* \"#utility.yul\":10392:10568   */\n    tag_341:\n        /* \"#utility.yul\":10532:10560   */\n      0x54696d656f757420706572696f64206e6f742072656163686564000000000000\n        /* \"#utility.yul\":10528:10529   */\n      0x00\n        /* \"#utility.yul\":10520:10526   */\n      dup3\n        /* \"#utility.yul\":10516:10530   */\n      add\n        /* \"#utility.yul\":10509:10561   */\n      mstore\n        /* \"#utility.yul\":10392:10568   */\n      pop\n      jump\t// out\n        /* \"#utility.yul\":10574:10940   */\n    tag_342:\n        /* \"#utility.yul\":10716:10719   */\n      0x00\n        /* \"#utility.yul\":10737:10804   */\n      tag_471\n        /* \"#utility.yul\":10801:10803   */\n      0x1a\n        /* \"#utility.yul\":10796:10799   */\n      dup4\n        /* \"#utility.yul\":10737:10804   */\n      tag_330\n      jump\t// in\n    tag_471:\n        /* \"#utility.yul\":10730:10804   */\n      swap2\n      pop\n        /* \"#utility.yul\":10813:10906   */\n      tag_472\n        /* \"#utility.yul\":10902:10905   */\n      dup3\n        /* \"#utility.yul\":10813:10906   */\n      tag_341\n      jump\t// in\n    tag_472:\n        /* \"#utility.yul\":10931:10933   */\n      0x20\n        /* \"#utility.yul\":10926:10929   */\n      dup3\n        /* \"#utility.yul\":10922:10934   */\n      add\n        /* \"#utility.yul\":10915:10934   */\n      swap1\n      pop\n        /* \"#utility.yul\":10574:10940   */\n      swap2\n      swap1\n      pop\n      jump\t// out\n        /* \"#utility.yul\":10946:11365   */\n    tag_134:\n        /* \"#utility.yul\":11112:11116   */\n      0x00\n        /* \"#utility.yul\":11150:11152   */\n      0x20\n        /* \"#utility.yul\":11139:11148   */\n      dup3\n        /* \"#utility.yul\":11135:11153   */\n      add\n        /* \"#utility.yul\":11127:11153   */\n      swap1\n      pop\n        /* \"#utility.yul\":11199:11208   */\n      dup2\n        /* \"#utility.yul\":11193:11197   */\n      dup2\n        /* \"#utility.yul\":11189:11209   */\n      sub\n        /* \"#utility.yul\":11185:11186   */\n      0x00\n        /* \"#utility.yul\":11174:11183   */\n      dup4\n        /* \"#utility.yul\":11170:11187   */\n      add\n        /* \"#utility.yul\":11163:11210   */\n      mstore\n        /* \"#utility.yul\":11227:11358   */\n      tag_474\n        /* \"#utility.yul\":11353:11357   */\n      dup2\n        /* \"#utility.yul\":11227:11358   */\n      tag_342\n      jump\t// in\n    tag_474:\n        /* \"#utility.yul\":11219:11358   */\n      swap1\n      pop\n        /* \"#utility.yul\":10946:11365   */\n      swap2\n      swap1\n      pop\n      jump\t// out\n        /* \"#utility.yul\":11371:11546   */\n    tag_343:\n        /* \"#utility.yul\":11511:11538   */\n      0x4f6e6c7920706c61796572302063616e20776974686472617700000000000000\n        /* \"#utility.yul\":11507:11508   */\n      0x00\n        /* \"#utility.yul\":11499:11505   */\n      dup3\n        /* \"#utility.yul\":11495:11509   */\n      add\n        /* \"#utility.yul\":11488:11539   */\n      mstore\n        /* \"#utility.yul\":11371:11546   */\n      pop\n      jump\t// out\n        /* \"#utility.yul\":11552:11918   */\n    tag_344:\n        /* \"#utility.yul\":11694:11697   */\n      0x00\n        /* \"#utility.yul\":11715:11782   */\n      tag_477\n        /* \"#utility.yul\":11779:11781   */\n      0x19\n        /* \"#utility.yul\":11774:11777   */\n      dup4\n        /* \"#utility.yul\":11715:11782   */\n      tag_330\n      jump\t// in\n    tag_477:\n        /* \"#utility.yul\":11708:11782   */\n      swap2\n      pop\n        /* \"#utility.yul\":11791:11884   */\n      tag_478\n        /* \"#utility.yul\":11880:11883   */\n      dup3\n        /* \"#utility.yul\":11791:11884   */\n      tag_343\n      jump\t// in\n    tag_478:\n        /* \"#utility.yul\":11909:11911   */\n      0x20\n        /* \"#utility.yul\":11904:11907   */\n      dup3\n        /* \"#utility.yul\":11900:11912   */\n      add\n        /* \"#utility.yul\":11893:11912   */\n      swap1\n      pop\n        /* \"#utility.yul\":11552:11918   */\n      swap2\n      swap1\n      pop\n      jump\t// out\n        /* \"#utility.yul\":11924:12343   */\n    tag_144:\n        /* \"#utility.yul\":12090:12094   */\n      0x00\n        /* \"#utility.yul\":12128:12130   */\n      0x20\n        /* \"#utility.yul\":12117:12126   */\n      dup3\n        /* \"#utility.yul\":12113:12131   */\n      add\n        /* \"#utility.yul\":12105:12131   */\n      swap1\n      pop\n        /* \"#utility.yul\":12177:12186   */\n      dup2\n        /* \"#utility.yul\":12171:12175   */\n      dup2\n        /* \"#utility.yul\":12167:12187   */\n      sub\n        /* \"#utility.yul\":12163:12164   */\n      0x00\n        /* \"#utility.yul\":12152:12161   */\n      dup4\n        /* \"#utility.yul\":12148:12165   */\n      add\n        /* \"#utility.yul\":12141:12188   */\n      mstore\n        /* \"#utility.yul\":12205:12336   */\n      tag_480\n        /* \"#utility.yul\":12331:12335   */\n      dup2\n        /* \"#utility.yul\":12205:12336   */\n      tag_344\n      jump\t// in\n    tag_480:\n        /* \"#utility.yul\":12197:12336   */\n      swap1\n      pop\n        /* \"#utility.yul\":11924:12343   */\n      swap2\n      swap1\n      pop\n      jump\t// out\n        /* \"#utility.yul\":12349:12523   */\n    tag_345:\n        /* \"#utility.yul\":12489:12515   */\n      0x4f6e6c7920706c617965722077686f2072657665616c65640000000000000000\n        /* \"#utility.yul\":12485:12486   */\n      0x00\n        /* \"#utility.yul\":12477:12483   */\n      dup3\n        /* \"#utility.yul\":12473:12487   */\n      add\n        /* \"#utility.yul\":12466:12516   */\n      mstore\n        /* \"#utility.yul\":12349:12523   */\n      pop\n      jump\t// out\n        /* \"#utility.yul\":12529:12895   */\n    tag_346:\n        /* \"#utility.yul\":12671:12674   */\n      0x00\n        /* \"#utility.yul\":12692:12759   */\n      tag_483\n        /* \"#utility.yul\":12756:12758   */\n      0x18\n        /* \"#utility.yul\":12751:12754   */\n      dup4\n        /* \"#utility.yul\":12692:12759   */\n      tag_330\n      jump\t// in\n    tag_483:\n        /* \"#utility.yul\":12685:12759   */\n      swap2\n      pop\n        /* \"#utility.yul\":12768:12861   */\n      tag_484\n        /* \"#utility.yul\":12857:12860   */\n      dup3\n        /* \"#utility.yul\":12768:12861   */\n      tag_345\n      jump\t// in\n    tag_484:\n        /* \"#utility.yul\":12886:12888   */\n      0x20\n        /* \"#utility.yul\":12881:12884   */\n      dup3\n        /* \"#utility.yul\":12877:12889   */\n      add\n        /* \"#utility.yul\":12870:12889   */\n      swap1\n      pop\n        /* \"#utility.yul\":12529:12895   */\n      swap2\n      swap1\n      pop\n      jump\t// out\n        /* \"#utility.yul\":12901:13320   */\n    tag_160:\n        /* \"#utility.yul\":13067:13071   */\n      0x00\n        /* \"#utility.yul\":13105:13107   */\n      0x20\n        /* \"#utility.yul\":13094:13103   */\n      dup3\n        /* \"#utility.yul\":13090:13108   */\n      add\n        /* \"#utility.yul\":13082:13108   */\n      swap1\n      pop\n        /* \"#utility.yul\":13154:13163   */\n      dup2\n        /* \"#utility.yul\":13148:13152   */\n      dup2\n        /* \"#utility.yul\":13144:13164   */\n      sub\n        /* \"#utility.yul\":13140:13141   */\n      0x00\n        /* \"#utility.yul\":13129:13138   */\n      dup4\n        /* \"#utility.yul\":13125:13142   */\n      add\n        /* \"#utility.yul\":13118:13165   */\n      mstore\n        /* \"#utility.yul\":13182:13313   */\n      tag_486\n        /* \"#utility.yul\":13308:13312   */\n      dup2\n        /* \"#utility.yul\":13182:13313   */\n      tag_346\n      jump\t// in\n    tag_486:\n        /* \"#utility.yul\":13174:13313   */\n      swap1\n      pop\n        /* \"#utility.yul\":12901:13320   */\n      swap2\n      swap1\n      pop\n      jump\t// out\n        /* \"#utility.yul\":13326:13557   */\n    tag_347:\n        /* \"#utility.yul\":13466:13500   */\n      0x4f6e6c7920706c617965722077686f207069636b656420612063686f69636520\n        /* \"#utility.yul\":13462:13463   */\n      0x00\n        /* \"#utility.yul\":13454:13460   */\n      dup3\n        /* \"#utility.yul\":13450:13464   */\n      add\n        /* \"#utility.yul\":13443:13501   */\n      mstore\n        /* \"#utility.yul\":13535:13549   */\n      0x63616e2077697468647261770000000000000000000000000000000000000000\n        /* \"#utility.yul\":13530:13532   */\n      0x20\n        /* \"#utility.yul\":13522:13528   */\n      dup3\n        /* \"#utility.yul\":13518:13533   */\n      add\n        /* \"#utility.yul\":13511:13550   */\n      mstore\n        /* \"#utility.yul\":13326:13557   */\n      pop\n      jump\t// out\n        /* \"#utility.yul\":13563:13929   */\n    tag_348:\n        /* \"#utility.yul\":13705:13708   */\n      0x00\n        /* \"#utility.yul\":13726:13793   */\n      tag_489\n        /* \"#utility.yul\":13790:13792   */\n      0x2c\n        /* \"#utility.yul\":13785:13788   */\n      dup4\n        /* \"#utility.yul\":13726:13793   */\n      tag_330\n      jump\t// in\n    tag_489:\n        /* \"#utility.yul\":13719:13793   */\n      swap2\n      pop\n        /* \"#utility.yul\":13802:13895   */\n      tag_490\n        /* \"#utility.yul\":13891:13894   */\n      dup3\n        /* \"#utility.yul\":13802:13895   */\n      tag_347\n      jump\t// in\n    tag_490:\n        /* \"#utility.yul\":13920:13922   */\n      0x40\n        /* \"#utility.yul\":13915:13918   */\n      dup3\n        /* \"#utility.yul\":13911:13923   */\n      add\n        /* \"#utility.yul\":13904:13923   */\n      swap1\n      pop\n        /* \"#utility.yul\":13563:13929   */\n      swap2\n      swap1\n      pop\n      jump\t// out\n        /* \"#utility.yul\":13935:14354   */\n    tag_171:\n        /* \"#utility.yul\":14101:14105   */\n      0x00\n        /* \"#utility.yul\":14139:14141   */\n      0x20\n        /* \"#utility.yul\":14128:14137   */\n      dup3\n        /* \"#utility.yul\":14124:14142   */\n      add\n        /* \"#utility.yul\":14116:14142   */\n      swap1\n      pop\n        /* \"#utility.yul\":14188:14197   */\n      dup2\n        /* \"#utility.yul\":14182:14186   */\n      dup2\n        /* \"#utility.yul\":14178:14198   */\n      sub\n        /* \"#utility.yul\":14174:14175   */\n      0x00\n        /* \"#utility.yul\":14163:14172   */\n      dup4\n        /* \"#utility.yul\":14159:14176   */\n      add\n        /* \"#utility.yul\":14152:14199   */\n      mstore\n        /* \"#utility.yul\":14216:14347   */\n      tag_492\n        /* \"#utility.yul\":14342:14346   */\n      dup2\n        /* \"#utility.yul\":14216:14347   */\n      tag_348\n      jump\t// in\n    tag_492:\n        /* \"#utility.yul\":14208:14347   */\n      swap1\n      pop\n        /* \"#utility.yul\":13935:14354   */\n      swap2\n      swap1\n      pop\n      jump\t// out\n        /* \"#utility.yul\":14360:14540   */\n    tag_349:\n        /* \"#utility.yul\":14408:14485   */\n      0x4e487b7100000000000000000000000000000000000000000000000000000000\n        /* \"#utility.yul\":14405:14406   */\n      0x00\n        /* \"#utility.yul\":14398:14486   */\n      mstore\n        /* \"#utility.yul\":14505:14509   */\n      0x12\n        /* \"#utility.yul\":14502:14503   */\n      0x04\n        /* \"#utility.yul\":14495:14510   */\n      mstore\n        /* \"#utility.yul\":14529:14533   */\n      0x24\n        /* \"#utility.yul\":14526:14527   */\n      0x00\n        /* \"#utility.yul\":14519:14534   */\n      revert\n        /* \"#utility.yul\":14546:14731   */\n    tag_173:\n        /* \"#utility.yul\":14586:14587   */\n      0x00\n        /* \"#utility.yul\":14603:14623   */\n      tag_495\n        /* \"#utility.yul\":14621:14622   */\n      dup3\n        /* \"#utility.yul\":14603:14623   */\n      tag_309\n      jump\t// in\n    tag_495:\n        /* \"#utility.yul\":14598:14623   */\n      swap2\n      pop\n        /* \"#utility.yul\":14637:14657   */\n      tag_496\n        /* \"#utility.yul\":14655:14656   */\n      dup4\n        /* \"#utility.yul\":14637:14657   */\n      tag_309\n      jump\t// in\n    tag_496:\n        /* \"#utility.yul\":14632:14657   */\n      swap3\n      pop\n        /* \"#utility.yul\":14676:14677   */\n      dup3\n        /* \"#utility.yul\":14666:14701   */\n      tag_497\n      jumpi\n        /* \"#utility.yul\":14681:14699   */\n      tag_498\n      tag_349\n      jump\t// in\n    tag_498:\n        /* \"#utility.yul\":14666:14701   */\n    tag_497:\n        /* \"#utility.yul\":14723:14724   */\n      dup3\n        /* \"#utility.yul\":14720:14721   */\n      dup3\n        /* \"#utility.yul\":14716:14725   */\n      div\n        /* \"#utility.yul\":14711:14725   */\n      swap1\n      pop\n        /* \"#utility.yul\":14546:14731   */\n      swap3\n      swap2\n      pop\n      pop\n      jump\t// out\n        /* \"#utility.yul\":14737:14905   */\n    tag_350:\n        /* \"#utility.yul\":14877:14897   */\n      0x4e6f7420656e6f75676820706c61796572730000000000000000000000000000\n        /* \"#utility.yul\":14873:14874   */\n      0x00\n        /* \"#utility.yul\":14865:14871   */\n      dup3\n        /* \"#utility.yul\":14861:14875   */\n      add\n        /* \"#utility.yul\":14854:14898   */\n      mstore\n        /* \"#utility.yul\":14737:14905   */\n      pop\n      jump\t// out\n        /* \"#utility.yul\":14911:15277   */\n    tag_351:\n        /* \"#utility.yul\":15053:15056   */\n      0x00\n        /* \"#utility.yul\":15074:15141   */\n      tag_501\n        /* \"#utility.yul\":15138:15140   */\n      0x12\n        /* \"#utility.yul\":15133:15136   */\n      dup4\n        /* \"#utility.yul\":15074:15141   */\n      tag_330\n      jump\t// in\n    tag_501:\n        /* \"#utility.yul\":15067:15141   */\n      swap2\n      pop\n        /* \"#utility.yul\":15150:15243   */\n      tag_502\n        /* \"#utility.yul\":15239:15242   */\n      dup3\n        /* \"#utility.yul\":15150:15243   */\n      tag_350\n      jump\t// in\n    tag_502:\n        /* \"#utility.yul\":15268:15270   */\n      0x20\n        /* \"#utility.yul\":15263:15266   */\n      dup3\n        /* \"#utility.yul\":15259:15271   */\n      add\n        /* \"#utility.yul\":15252:15271   */\n      swap1\n      pop\n        /* \"#utility.yul\":14911:15277   */\n      swap2\n      swap1\n      pop\n      jump\t// out\n        /* \"#utility.yul\":15283:15702   */\n    tag_184:\n        /* \"#utility.yul\":15449:15453   */\n      0x00\n        /* \"#utility.yul\":15487:15489   */\n      0x20\n        /* \"#utility.yul\":15476:15485   */\n      dup3\n        /* \"#utility.yul\":15472:15490   */\n      add\n        /* \"#utility.yul\":15464:15490   */\n      swap1\n      pop\n        /* \"#utility.yul\":15536:15545   */\n      dup2\n        /* \"#utility.yul\":15530:15534   */\n      dup2\n        /* \"#utility.yul\":15526:15546   */\n      sub\n        /* \"#utility.yul\":15522:15523   */\n      0x00\n        /* \"#utility.yul\":15511:15520   */\n      dup4\n        /* \"#utility.yul\":15507:15524   */\n      add\n        /* \"#utility.yul\":15500:15547   */\n      mstore\n        /* \"#utility.yul\":15564:15695   */\n      tag_504\n        /* \"#utility.yul\":15690:15694   */\n      dup2\n        /* \"#utility.yul\":15564:15695   */\n      tag_351\n      jump\t// in\n    tag_504:\n        /* \"#utility.yul\":15556:15695   */\n      swap1\n      pop\n        /* \"#utility.yul\":15283:15702   */\n      swap2\n      swap1\n      pop\n      jump\t// out\n        /* \"#utility.yul\":15708:15872   */\n    tag_352:\n        /* \"#utility.yul\":15848:15864   */\n      0x416c726561647920706c61796564000000000000000000000000000000000000\n        /* \"#utility.yul\":15844:15845   */\n      0x00\n        /* \"#utility.yul\":15836:15842   */\n      dup3\n        /* \"#utility.yul\":15832:15846   */\n      add\n        /* \"#utility.yul\":15825:15865   */\n      mstore\n        /* \"#utility.yul\":15708:15872   */\n      pop\n      jump\t// out\n        /* \"#utility.yul\":15878:16244   */\n    tag_353:\n        /* \"#utility.yul\":16020:16023   */\n      0x00\n        /* \"#utility.yul\":16041:16108   */\n      tag_507\n        /* \"#utility.yul\":16105:16107   */\n      0x0e\n        /* \"#utility.yul\":16100:16103   */\n      dup4\n        /* \"#utility.yul\":16041:16108   */\n      tag_330\n      jump\t// in\n    tag_507:\n        /* \"#utility.yul\":16034:16108   */\n      swap2\n      pop\n        /* \"#utility.yul\":16117:16210   */\n      tag_508\n        /* \"#utility.yul\":16206:16209   */\n      dup3\n        /* \"#utility.yul\":16117:16210   */\n      tag_352\n      jump\t// in\n    tag_508:\n        /* \"#utility.yul\":16235:16237   */\n      0x20\n        /* \"#utility.yul\":16230:16233   */\n      dup3\n        /* \"#utility.yul\":16226:16238   */\n      add\n        /* \"#utility.yul\":16219:16238   */\n      swap1\n      pop\n        /* \"#utility.yul\":15878:16244   */\n      swap2\n      swap1\n      pop\n      jump\t// out\n        /* \"#utility.yul\":16250:16669   */\n    tag_187:\n        /* \"#utility.yul\":16416:16420   */\n      0x00\n        /* \"#utility.yul\":16454:16456   */\n      0x20\n        /* \"#utility.yul\":16443:16452   */\n      dup3\n        /* \"#utility.yul\":16439:16457   */\n      add\n        /* \"#utility.yul\":16431:16457   */\n      swap1\n      pop\n        /* \"#utility.yul\":16503:16512   */\n      dup2\n        /* \"#utility.yul\":16497:16501   */\n      dup2\n        /* \"#utility.yul\":16493:16513   */\n      sub\n        /* \"#utility.yul\":16489:16490   */\n      0x00\n        /* \"#utility.yul\":16478:16487   */\n      dup4\n        /* \"#utility.yul\":16474:16491   */\n      add\n        /* \"#utility.yul\":16467:16514   */\n      mstore\n        /* \"#utility.yul\":16531:16662   */\n      tag_510\n        /* \"#utility.yul\":16657:16661   */\n      dup2\n        /* \"#utility.yul\":16531:16662   */\n      tag_353\n      jump\t// in\n    tag_510:\n        /* \"#utility.yul\":16523:16662   */\n      swap1\n      pop\n        /* \"#utility.yul\":16250:16669   */\n      swap2\n      swap1\n      pop\n      jump\t// out\n        /* \"#utility.yul\":16675:16752   */\n    tag_354:\n        /* \"#utility.yul\":16712:16719   */\n      0x00\n        /* \"#utility.yul\":16741:16746   */\n      dup2\n        /* \"#utility.yul\":16730:16746   */\n      swap1\n      pop\n        /* \"#utility.yul\":16675:16752   */\n      swap2\n      swap1\n      pop\n      jump\t// out\n        /* \"#utility.yul\":16758:16876   */\n    tag_355:\n        /* \"#utility.yul\":16845:16869   */\n      tag_513\n        /* \"#utility.yul\":16863:16868   */\n      dup2\n        /* \"#utility.yul\":16845:16869   */\n      tag_354\n      jump\t// in\n    tag_513:\n        /* \"#utility.yul\":16840:16843   */\n      dup3\n        /* \"#utility.yul\":16833:16870   */\n      mstore\n        /* \"#utility.yul\":16758:16876   */\n      pop\n      pop\n      jump\t// out\n        /* \"#utility.yul\":16882:17104   */\n    tag_193:\n        /* \"#utility.yul\":16975:16979   */\n      0x00\n        /* \"#utility.yul\":17013:17015   */\n      0x20\n        /* \"#utility.yul\":17002:17011   */\n      dup3\n        /* \"#utility.yul\":16998:17016   */\n      add\n        /* \"#utility.yul\":16990:17016   */\n      swap1\n      pop\n        /* \"#utility.yul\":17026:17097   */\n      tag_515\n        /* \"#utility.yul\":17094:17095   */\n      0x00\n        /* \"#utility.yul\":17083:17092   */\n      dup4\n        /* \"#utility.yul\":17079:17096   */\n      add\n        /* \"#utility.yul\":17070:17076   */\n      dup5\n        /* \"#utility.yul\":17026:17097   */\n      tag_355\n      jump\t// in\n    tag_515:\n        /* \"#utility.yul\":16882:17104   */\n      swap3\n      swap2\n      pop\n      pop\n      jump\t// out\n        /* \"#utility.yul\":17110:17339   */\n    tag_356:\n        /* \"#utility.yul\":17250:17284   */\n      0x416c6c20706c617965727320686176656e277420636f6d6d6974746564206120\n        /* \"#utility.yul\":17246:17247   */\n      0x00\n        /* \"#utility.yul\":17238:17244   */\n      dup3\n        /* \"#utility.yul\":17234:17248   */\n      add\n        /* \"#utility.yul\":17227:17285   */\n      mstore\n        /* \"#utility.yul\":17319:17331   */\n      0x63686f6963652079657400000000000000000000000000000000000000000000\n        /* \"#utility.yul\":17314:17316   */\n      0x20\n        /* \"#utility.yul\":17306:17312   */\n      dup3\n        /* \"#utility.yul\":17302:17317   */\n      add\n        /* \"#utility.yul\":17295:17332   */\n      mstore\n        /* \"#utility.yul\":17110:17339   */\n      pop\n      jump\t// out\n        /* \"#utility.yul\":17345:17711   */\n    tag_357:\n        /* \"#utility.yul\":17487:17490   */\n      0x00\n        /* \"#utility.yul\":17508:17575   */\n      tag_518\n        /* \"#utility.yul\":17572:17574   */\n      0x2a\n        /* \"#utility.yul\":17567:17570   */\n      dup4\n        /* \"#utility.yul\":17508:17575   */\n      tag_330\n      jump\t// in\n    tag_518:\n        /* \"#utility.yul\":17501:17575   */\n      swap2\n      pop\n        /* \"#utility.yul\":17584:17677   */\n      tag_519\n        /* \"#utility.yul\":17673:17676   */\n      dup3\n        /* \"#utility.yul\":17584:17677   */\n      tag_356\n      jump\t// in\n    tag_519:\n        /* \"#utility.yul\":17702:17704   */\n      0x40\n        /* \"#utility.yul\":17697:17700   */\n      dup3\n        /* \"#utility.yul\":17693:17705   */\n      add\n        /* \"#utility.yul\":17686:17705   */\n      swap1\n      pop\n        /* \"#utility.yul\":17345:17711   */\n      swap2\n      swap1\n      pop\n      jump\t// out\n        /* \"#utility.yul\":17717:18136   */\n    tag_206:\n        /* \"#utility.yul\":17883:17887   */\n      0x00\n        /* \"#utility.yul\":17921:17923   */\n      0x20\n        /* \"#utility.yul\":17910:17919   */\n      dup3\n        /* \"#utility.yul\":17906:17924   */\n      add\n        /* \"#utility.yul\":17898:17924   */\n      swap1\n      pop\n        /* \"#utility.yul\":17970:17979   */\n      dup2\n        /* \"#utility.yul\":17964:17968   */\n      dup2\n        /* \"#utility.yul\":17960:17980   */\n      sub\n        /* \"#utility.yul\":17956:17957   */\n      0x00\n        /* \"#utility.yul\":17945:17954   */\n      dup4\n        /* \"#utility.yul\":17941:17958   */\n      add\n        /* \"#utility.yul\":17934:17981   */\n      mstore\n        /* \"#utility.yul\":17998:18129   */\n      tag_521\n        /* \"#utility.yul\":18124:18128   */\n      dup2\n        /* \"#utility.yul\":17998:18129   */\n      tag_357\n      jump\t// in\n    tag_521:\n        /* \"#utility.yul\":17990:18129   */\n      swap1\n      pop\n        /* \"#utility.yul\":17717:18136   */\n      swap2\n      swap1\n      pop\n      jump\t// out\n        /* \"#utility.yul\":18142:18308   */\n    tag_358:\n        /* \"#utility.yul\":18282:18300   */\n      0x416c72656164792072657665616c656400000000000000000000000000000000\n        /* \"#utility.yul\":18278:18279   */\n      0x00\n        /* \"#utility.yul\":18270:18276   */\n      dup3\n        /* \"#utility.yul\":18266:18280   */\n      add\n        /* \"#utility.yul\":18259:18301   */\n      mstore\n        /* \"#utility.yul\":18142:18308   */\n      pop\n      jump\t// out\n        /* \"#utility.yul\":18314:18680   */\n    tag_359:\n        /* \"#utility.yul\":18456:18459   */\n      0x00\n        /* \"#utility.yul\":18477:18544   */\n      tag_524\n        /* \"#utility.yul\":18541:18543   */\n      0x10\n        /* \"#utility.yul\":18536:18539   */\n      dup4\n        /* \"#utility.yul\":18477:18544   */\n      tag_330\n      jump\t// in\n    tag_524:\n        /* \"#utility.yul\":18470:18544   */\n      swap2\n      pop\n        /* \"#utility.yul\":18553:18646   */\n      tag_525\n        /* \"#utility.yul\":18642:18645   */\n      dup3\n        /* \"#utility.yul\":18553:18646   */\n      tag_358\n      jump\t// in\n    tag_525:\n        /* \"#utility.yul\":18671:18673   */\n      0x20\n        /* \"#utility.yul\":18666:18669   */\n      dup3\n        /* \"#utility.yul\":18662:18674   */\n      add\n        /* \"#utility.yul\":18655:18674   */\n      swap1\n      pop\n        /* \"#utility.yul\":18314:18680   */\n      swap2\n      swap1\n      pop\n      jump\t// out\n        /* \"#utility.yul\":18686:19105   */\n    tag_209:\n        /* \"#utility.yul\":18852:18856   */\n      0x00\n        /* \"#utility.yul\":18890:18892   */\n      0x20\n        /* \"#utility.yul\":18879:18888   */\n      dup3\n        /* \"#utility.yul\":18875:18893   */\n      add\n        /* \"#utility.yul\":18867:18893   */\n      swap1\n      pop\n        /* \"#utility.yul\":18939:18948   */\n      dup2\n        /* \"#utility.yul\":18933:18937   */\n      dup2\n        /* \"#utility.yul\":18929:18949   */\n      sub\n        /* \"#utility.yul\":18925:18926   */\n      0x00\n        /* \"#utility.yul\":18914:18923   */\n      dup4\n        /* \"#utility.yul\":18910:18927   */\n      add\n        /* \"#utility.yul\":18903:18950   */\n      mstore\n        /* \"#utility.yul\":18967:19098   */\n      tag_527\n        /* \"#utility.yul\":19093:19097   */\n      dup2\n        /* \"#utility.yul\":18967:19098   */\n      tag_359\n      jump\t// in\n    tag_527:\n        /* \"#utility.yul\":18959:19098   */\n      swap1\n      pop\n        /* \"#utility.yul\":18686:19105   */\n      swap2\n      swap1\n      pop\n      jump\t// out\n        /* \"#utility.yul\":19111:19227   */\n    tag_360:\n        /* \"#utility.yul\":19181:19202   */\n      tag_529\n        /* \"#utility.yul\":19196:19201   */\n      dup2\n        /* \"#utility.yul\":19181:19202   */\n      tag_318\n      jump\t// in\n    tag_529:\n        /* \"#utility.yul\":19174:19179   */\n      dup2\n        /* \"#utility.yul\":19171:19203   */\n      eq\n        /* \"#utility.yul\":19161:19221   */\n      tag_530\n      jumpi\n        /* \"#utility.yul\":19217:19218   */\n      0x00\n        /* \"#utility.yul\":19214:19215   */\n      dup1\n        /* \"#utility.yul\":19207:19219   */\n      revert\n        /* \"#utility.yul\":19161:19221   */\n    tag_530:\n        /* \"#utility.yul\":19111:19227   */\n      pop\n      jump\t// out\n        /* \"#utility.yul\":19233:19370   */\n    tag_361:\n        /* \"#utility.yul\":19287:19292   */\n      0x00\n        /* \"#utility.yul\":19318:19324   */\n      dup2\n        /* \"#utility.yul\":19312:19325   */\n      mload\n        /* \"#utility.yul\":19303:19325   */\n      swap1\n      pop\n        /* \"#utility.yul\":19334:19364   */\n      tag_532\n        /* \"#utility.yul\":19358:19363   */\n      dup2\n        /* \"#utility.yul\":19334:19364   */\n      tag_360\n      jump\t// in\n    tag_532:\n        /* \"#utility.yul\":19233:19370   */\n      swap3\n      swap2\n      pop\n      pop\n      jump\t// out\n        /* \"#utility.yul\":19376:19721   */\n    tag_221:\n        /* \"#utility.yul\":19443:19449   */\n      0x00\n        /* \"#utility.yul\":19492:19494   */\n      0x20\n        /* \"#utility.yul\":19480:19489   */\n      dup3\n        /* \"#utility.yul\":19471:19478   */\n      dup5\n        /* \"#utility.yul\":19467:19490   */\n      sub\n        /* \"#utility.yul\":19463:19495   */\n      slt\n        /* \"#utility.yul\":19460:19579   */\n      iszero\n      tag_534\n      jumpi\n        /* \"#utility.yul\":19498:19577   */\n      tag_535\n      tag_312\n      jump\t// in\n    tag_535:\n        /* \"#utility.yul\":19460:19579   */\n    tag_534:\n        /* \"#utility.yul\":19618:19619   */\n      0x00\n        /* \"#utility.yul\":19643:19704   */\n      tag_536\n        /* \"#utility.yul\":19696:19703   */\n      dup5\n        /* \"#utility.yul\":19687:19693   */\n      dup3\n        /* \"#utility.yul\":19676:19685   */\n      dup6\n        /* \"#utility.yul\":19672:19694   */\n      add\n        /* \"#utility.yul\":19643:19704   */\n      tag_361\n      jump\t// in\n    tag_536:\n        /* \"#utility.yul\":19633:19704   */\n      swap2\n      pop\n        /* \"#utility.yul\":19589:19714   */\n      pop\n        /* \"#utility.yul\":19376:19721   */\n      swap3\n      swap2\n      pop\n      pop\n      jump\t// out\n        /* \"#utility.yul\":19727:19897   */\n    tag_362:\n        /* \"#utility.yul\":19867:19889   */\n      0x52657665616c656420696e707574206572726f72000000000000000000000000\n        /* \"#utility.yul\":19863:19864   */\n      0x00\n        /* \"#utility.yul\":19855:19861   */\n      dup3\n        /* \"#utility.yul\":19851:19865   */\n      add\n        /* \"#utility.yul\":19844:19890   */\n      mstore\n        /* \"#utility.yul\":19727:19897   */\n      pop\n      jump\t// out\n        /* \"#utility.yul\":19903:20269   */\n    tag_363:\n        /* \"#utility.yul\":20045:20048   */\n      0x00\n        /* \"#utility.yul\":20066:20133   */\n      tag_539\n        /* \"#utility.yul\":20130:20132   */\n      0x14\n        /* \"#utility.yul\":20125:20128   */\n      dup4\n        /* \"#utility.yul\":20066:20133   */\n      tag_330\n      jump\t// in\n    tag_539:\n        /* \"#utility.yul\":20059:20133   */\n      swap2\n      pop\n        /* \"#utility.yul\":20142:20235   */\n      tag_540\n        /* \"#utility.yul\":20231:20234   */\n      dup3\n        /* \"#utility.yul\":20142:20235   */\n      tag_362\n      jump\t// in\n    tag_540:\n        /* \"#utility.yul\":20260:20262   */\n      0x20\n        /* \"#utility.yul\":20255:20258   */\n      dup3\n        /* \"#utility.yul\":20251:20263   */\n      add\n        /* \"#utility.yul\":20244:20263   */\n      swap1\n      pop\n        /* \"#utility.yul\":19903:20269   */\n      swap2\n      swap1\n      pop\n      jump\t// out\n        /* \"#utility.yul\":20275:20694   */\n    tag_224:\n        /* \"#utility.yul\":20441:20445   */\n      0x00\n        /* \"#utility.yul\":20479:20481   */\n      0x20\n        /* \"#utility.yul\":20468:20477   */\n      dup3\n        /* \"#utility.yul\":20464:20482   */\n      add\n        /* \"#utility.yul\":20456:20482   */\n      swap1\n      pop\n        /* \"#utility.yul\":20528:20537   */\n      dup2\n        /* \"#utility.yul\":20522:20526   */\n      dup2\n        /* \"#utility.yul\":20518:20538   */\n      sub\n        /* \"#utility.yul\":20514:20515   */\n      0x00\n        /* \"#utility.yul\":20503:20512   */\n      dup4\n        /* \"#utility.yul\":20499:20516   */\n      add\n        /* \"#utility.yul\":20492:20539   */\n      mstore\n        /* \"#utility.yul\":20556:20687   */\n      tag_542\n        /* \"#utility.yul\":20682:20686   */\n      dup2\n        /* \"#utility.yul\":20556:20687   */\n      tag_363\n      jump\t// in\n    tag_542:\n        /* \"#utility.yul\":20548:20687   */\n      swap1\n      pop\n        /* \"#utility.yul\":20275:20694   */\n      swap2\n      swap1\n      pop\n      jump\t// out\n        /* \"#utility.yul\":20700:20880   */\n    tag_244:\n        /* \"#utility.yul\":20748:20825   */\n      0x4e487b7100000000000000000000000000000000000000000000000000000000\n        /* \"#utility.yul\":20745:20746   */\n      0x00\n        /* \"#utility.yul\":20738:20826   */\n      mstore\n        /* \"#utility.yul\":20845:20849   */\n      0x41\n        /* \"#utility.yul\":20842:20843   */\n      0x04\n        /* \"#utility.yul\":20835:20850   */\n      mstore\n        /* \"#utility.yul\":20869:20873   */\n      0x24\n        /* \"#utility.yul\":20866:20867   */\n      0x00\n        /* \"#utility.yul\":20859:20874   */\n      revert\n    stop\n\n    sub_0: assembly {\n            /* \"TimeUnit.sol\":136:1086  contract TimeUnit { ... */\n          mstore(0x40, 0x80)\n          callvalue\n          dup1\n          iszero\n          tag_1\n          jumpi\n          0x00\n          dup1\n          revert\n        tag_1:\n          pop\n          dataSize(sub_0)\n          dup1\n          dataOffset(sub_0)\n          0x00\n          codecopy\n          0x00\n          return\n        stop\n\n        sub_0: assembly {\n                /* \"TimeUnit.sol\":136:1086  contract TimeUnit { ... */\n              mstore(0x40, 0x80)\n              callvalue\n              dup1\n              iszero\n              tag_1\n              jumpi\n              0x00\n              dup1\n              revert\n            tag_1:\n              pop\n              jumpi(tag_2, lt(calldatasize, 0x04))\n              shr(0xe0, calldataload(0x00))\n              dup1\n              0x78e97925\n              eq\n              tag_3\n              jumpi\n              dup1\n              0xa63f7c53\n              eq\n              tag_4\n              jumpi\n              dup1\n              0xbc06b8cd\n              eq\n              tag_5\n              jumpi\n              dup1\n              0xd97c8416\n              eq\n              tag_6\n              jumpi\n            tag_2:\n              0x00\n              dup1\n              revert\n                /* \"TimeUnit.sol\":307:331  uint256 public startTime */\n            tag_3:\n              tag_7\n              tag_8\n              jump\t// in\n            tag_7:\n              mload(0x40)\n              tag_9\n              swap2\n              swap1\n              tag_10\n              jump\t// in\n            tag_9:\n              mload(0x40)\n              dup1\n              swap2\n              sub\n              swap1\n              return\n                /* \"TimeUnit.sol\":379:452  function setStartTime() public { ... */\n            tag_4:\n              tag_11\n              tag_12\n              jump\t// in\n            tag_11:\n              stop\n                /* \"TimeUnit.sol\":576:683  function elapsedSeconds() public view returns (uint256) { ... */\n            tag_5:\n              tag_13\n              tag_14\n              jump\t// in\n            tag_13:\n              mload(0x40)\n              tag_15\n              swap2\n              swap1\n              tag_10\n              jump\t// in\n            tag_15:\n              mload(0x40)\n              dup1\n              swap2\n              sub\n              swap1\n              return\n                /* \"TimeUnit.sol\":799:1082  function elapsedMinutes() public view returns (uint256) { ... */\n            tag_6:\n              tag_16\n              tag_17\n              jump\t// in\n            tag_16:\n              mload(0x40)\n              tag_18\n              swap2\n              swap1\n              tag_10\n              jump\t// in\n            tag_18:\n              mload(0x40)\n              dup1\n              swap2\n              sub\n              swap1\n              return\n                /* \"TimeUnit.sol\":307:331  uint256 public startTime */\n            tag_8:\n              sload(0x00)\n              dup2\n              jump\t// out\n                /* \"TimeUnit.sol\":379:452  function setStartTime() public { ... */\n            tag_12:\n                /* \"TimeUnit.sol\":430:445  block.timestamp */\n              timestamp\n                /* \"TimeUnit.sol\":418:427  startTime */\n              0x00\n                /* \"TimeUnit.sol\":418:445  startTime = block.timestamp */\n              dup2\n              swap1\n              sstore\n              pop\n                /* \"TimeUnit.sol\":379:452  function setStartTime() public { ... */\n              jump\t// out\n                /* \"TimeUnit.sol\":576:683  function elapsedSeconds() public view returns (uint256) { ... */\n            tag_14:\n                /* \"TimeUnit.sol\":623:630  uint256 */\n              0x00\n                /* \"TimeUnit.sol\":666:675  startTime */\n              dup1\n              sload\n                /* \"TimeUnit.sol\":648:663  block.timestamp */\n              timestamp\n                /* \"TimeUnit.sol\":648:675  block.timestamp - startTime */\n              tag_21\n              swap2\n              swap1\n              tag_22\n              jump\t// in\n            tag_21:\n                /* \"TimeUnit.sol\":640:676  return (block.timestamp - startTime) */\n              swap1\n              pop\n                /* \"TimeUnit.sol\":576:683  function elapsedSeconds() public view returns (uint256) { ... */\n              swap1\n              jump\t// out\n                /* \"TimeUnit.sol\":799:1082  function elapsedMinutes() public view returns (uint256) { ... */\n            tag_17:\n                /* \"TimeUnit.sol\":846:853  uint256 */\n              0x00\n                /* \"TimeUnit.sol\":1066:1075  1 minutes */\n              0x3c\n                /* \"TimeUnit.sol\":1053:1062  startTime */\n              sload(0x00)\n                /* \"TimeUnit.sol\":1035:1050  block.timestamp */\n              timestamp\n                /* \"TimeUnit.sol\":1035:1062  block.timestamp - startTime */\n              tag_24\n              swap2\n              swap1\n              tag_22\n              jump\t// in\n            tag_24:\n                /* \"TimeUnit.sol\":1034:1075  (block.timestamp - startTime) / 1 minutes */\n              tag_25\n              swap2\n              swap1\n              tag_26\n              jump\t// in\n            tag_25:\n                /* \"TimeUnit.sol\":1027:1075  return (block.timestamp - startTime) / 1 minutes */\n              swap1\n              pop\n                /* \"TimeUnit.sol\":799:1082  function elapsedMinutes() public view returns (uint256) { ... */\n              swap1\n              jump\t// out\n                /* \"#utility.yul\":7:84   */\n            tag_27:\n                /* \"#utility.yul\":44:51   */\n              0x00\n                /* \"#utility.yul\":73:78   */\n              dup2\n                /* \"#utility.yul\":62:78   */\n              swap1\n              pop\n                /* \"#utility.yul\":7:84   */\n              swap2\n              swap1\n              pop\n              jump\t// out\n                /* \"#utility.yul\":90:208   */\n            tag_28:\n                /* \"#utility.yul\":177:201   */\n              tag_34\n                /* \"#utility.yul\":195:200   */\n              dup2\n                /* \"#utility.yul\":177:201   */\n              tag_27\n              jump\t// in\n            tag_34:\n                /* \"#utility.yul\":172:175   */\n              dup3\n                /* \"#utility.yul\":165:202   */\n              mstore\n                /* \"#utility.yul\":90:208   */\n              pop\n              pop\n              jump\t// out\n                /* \"#utility.yul\":214:436   */\n            tag_10:\n                /* \"#utility.yul\":307:311   */\n              0x00\n                /* \"#utility.yul\":345:347   */\n              0x20\n                /* \"#utility.yul\":334:343   */\n              dup3\n                /* \"#utility.yul\":330:348   */\n              add\n                /* \"#utility.yul\":322:348   */\n              swap1\n              pop\n                /* \"#utility.yul\":358:429   */\n              tag_36\n                /* \"#utility.yul\":426:427   */\n              0x00\n                /* \"#utility.yul\":415:424   */\n              dup4\n                /* \"#utility.yul\":411:428   */\n              add\n                /* \"#utility.yul\":402:408   */\n              dup5\n                /* \"#utility.yul\":358:429   */\n              tag_28\n              jump\t// in\n            tag_36:\n                /* \"#utility.yul\":214:436   */\n              swap3\n              swap2\n              pop\n              pop\n              jump\t// out\n                /* \"#utility.yul\":442:622   */\n            tag_29:\n                /* \"#utility.yul\":490:567   */\n              0x4e487b7100000000000000000000000000000000000000000000000000000000\n                /* \"#utility.yul\":487:488   */\n              0x00\n                /* \"#utility.yul\":480:568   */\n              mstore\n                /* \"#utility.yul\":587:591   */\n              0x11\n                /* \"#utility.yul\":584:585   */\n              0x04\n                /* \"#utility.yul\":577:592   */\n              mstore\n                /* \"#utility.yul\":611:615   */\n              0x24\n                /* \"#utility.yul\":608:609   */\n              0x00\n                /* \"#utility.yul\":601:616   */\n              revert\n                /* \"#utility.yul\":628:822   */\n            tag_22:\n                /* \"#utility.yul\":668:672   */\n              0x00\n                /* \"#utility.yul\":688:708   */\n              tag_39\n                /* \"#utility.yul\":706:707   */\n              dup3\n                /* \"#utility.yul\":688:708   */\n              tag_27\n              jump\t// in\n            tag_39:\n                /* \"#utility.yul\":683:708   */\n              swap2\n              pop\n                /* \"#utility.yul\":722:742   */\n              tag_40\n                /* \"#utility.yul\":740:741   */\n              dup4\n                /* \"#utility.yul\":722:742   */\n              tag_27\n              jump\t// in\n            tag_40:\n                /* \"#utility.yul\":717:742   */\n              swap3\n              pop\n                /* \"#utility.yul\":766:767   */\n              dup3\n                /* \"#utility.yul\":763:764   */\n              dup3\n                /* \"#utility.yul\":759:768   */\n              sub\n                /* \"#utility.yul\":751:768   */\n              swap1\n              pop\n                /* \"#utility.yul\":790:791   */\n              dup2\n                /* \"#utility.yul\":784:788   */\n              dup2\n                /* \"#utility.yul\":781:792   */\n              gt\n                /* \"#utility.yul\":778:815   */\n              iszero\n              tag_41\n              jumpi\n                /* \"#utility.yul\":795:813   */\n              tag_42\n              tag_29\n              jump\t// in\n            tag_42:\n                /* \"#utility.yul\":778:815   */\n            tag_41:\n                /* \"#utility.yul\":628:822   */\n              swap3\n              swap2\n              pop\n              pop\n              jump\t// out\n                /* \"#utility.yul\":828:1008   */\n            tag_30:\n                /* \"#utility.yul\":876:953   */\n              0x4e487b7100000000000000000000000000000000000000000000000000000000\n                /* \"#utility.yul\":873:874   */\n              0x00\n                /* \"#utility.yul\":866:954   */\n              mstore\n                /* \"#utility.yul\":973:977   */\n              0x12\n                /* \"#utility.yul\":970:971   */\n              0x04\n                /* \"#utility.yul\":963:978   */\n              mstore\n                /* \"#utility.yul\":997:1001   */\n              0x24\n                /* \"#utility.yul\":994:995   */\n              0x00\n                /* \"#utility.yul\":987:1002   */\n              revert\n                /* \"#utility.yul\":1014:1199   */\n            tag_26:\n                /* \"#utility.yul\":1054:1055   */\n              0x00\n                /* \"#utility.yul\":1071:1091   */\n              tag_45\n                /* \"#utility.yul\":1089:1090   */\n              dup3\n                /* \"#utility.yul\":1071:1091   */\n              tag_27\n              jump\t// in\n            tag_45:\n                /* \"#utility.yul\":1066:1091   */\n              swap2\n              pop\n                /* \"#utility.yul\":1105:1125   */\n              tag_46\n                /* \"#utility.yul\":1123:1124   */\n              dup4\n                /* \"#utility.yul\":1105:1125   */\n              tag_27\n              jump\t// in\n            tag_46:\n                /* \"#utility.yul\":1100:1125   */\n              swap3\n              pop\n                /* \"#utility.yul\":1144:1145   */\n              dup3\n                /* \"#utility.yul\":1134:1169   */\n              tag_47\n              jumpi\n                /* \"#utility.yul\":1149:1167   */\n              tag_48\n              tag_30\n              jump\t// in\n            tag_48:\n                /* \"#utility.yul\":1134:1169   */\n            tag_47:\n                /* \"#utility.yul\":1191:1192   */\n              dup3\n                /* \"#utility.yul\":1188:1189   */\n              dup3\n                /* \"#utility.yul\":1184:1193   */\n              div\n                /* \"#utility.yul\":1179:1193   */\n              swap1\n              pop\n                /* \"#utility.yul\":1014:1199   */\n              swap3\n              swap2\n              pop\n              pop\n              jump\t// out\n\n            auxdata: 0xa2646970667358221220536b7940d5371faaf75b89b185b412b3b063b6163f59953ace730f47887b6dae64736f6c634300081a0033\n        }\n    }\n\n    sub_1: assembly {\n            /* \"CommitReveal.sol\":78:2080  contract CommitReveal {... */\n          mstore(0x40, 0x80)\n            /* \"CommitReveal.sol\":126:129  100 */\n          0x64\n            /* \"CommitReveal.sol\":107:129  uint8 public max = 100 */\n          0x00\n          dup1\n          0x0100\n          exp\n          dup2\n          sload\n          dup2\n          0xff\n          mul\n          not\n          and\n          swap1\n          dup4\n          0xff\n          and\n          mul\n          or\n          swap1\n          sstore\n          pop\n            /* \"CommitReveal.sol\":78:2080  contract CommitReveal {... */\n          callvalue\n          dup1\n          iszero\n          tag_1\n          jumpi\n          0x00\n          dup1\n          revert\n        tag_1:\n          pop\n          dataSize(sub_0)\n          dup1\n          dataOffset(sub_0)\n          0x00\n          codecopy\n          0x00\n          return\n        stop\n\n        sub_0: assembly {\n                /* \"CommitReveal.sol\":78:2080  contract CommitReveal {... */\n              mstore(0x40, 0x80)\n              callvalue\n              dup1\n              iszero\n              tag_1\n              jumpi\n              0x00\n              dup1\n              revert\n            tag_1:\n              pop\n              jumpi(tag_2, lt(calldatasize, 0x04))\n              shr(0xe0, calldataload(0x00))\n              dup1\n              0x3cf5040a\n              eq\n              tag_3\n              jumpi\n              dup1\n              0x54214f69\n              eq\n              tag_4\n              jumpi\n              dup1\n              0x6ac5db19\n              eq\n              tag_5\n              jumpi\n              dup1\n              0x701fd0f1\n              eq\n              tag_6\n              jumpi\n              dup1\n              0x7b43a8e6\n              eq\n              tag_7\n              jumpi\n              dup1\n              0xf14fcbc8\n              eq\n              tag_8\n              jumpi\n            tag_2:\n              0x00\n              dup1\n              revert\n                /* \"CommitReveal.sol\":1862:1974  function getHash(bytes32 data) public pure returns(bytes32){... */\n            tag_3:\n              tag_9\n              0x04\n              dup1\n              calldatasize\n              sub\n              dup2\n              add\n              swap1\n              tag_10\n              swap2\n              swap1\n              tag_11\n              jump\t// in\n            tag_10:\n              tag_12\n              jump\t// in\n            tag_9:\n              mload(0x40)\n              tag_13\n              swap2\n              swap1\n              tag_14\n              jump\t// in\n            tag_13:\n              mload(0x40)\n              dup1\n              swap2\n              sub\n              swap1\n              return\n                /* \"CommitReveal.sol\":1980:2077  function isRevealed() public view returns (bool) {... */\n            tag_4:\n              tag_15\n              tag_16\n              jump\t// in\n            tag_15:\n              mload(0x40)\n              tag_17\n              swap2\n              swap1\n              tag_18\n              jump\t// in\n            tag_17:\n              mload(0x40)\n              dup1\n              swap2\n              sub\n              swap1\n              return\n                /* \"CommitReveal.sol\":107:129  uint8 public max = 100 */\n            tag_5:\n              tag_19\n              tag_20\n              jump\t// in\n            tag_19:\n              mload(0x40)\n              tag_21\n              swap2\n              swap1\n              tag_22\n              jump\t// in\n            tag_21:\n              mload(0x40)\n              dup1\n              swap2\n              sub\n              swap1\n              return\n                /* \"CommitReveal.sol\":622:1786  function reveal(bytes32 revealHash) public {... */\n            tag_6:\n              tag_23\n              0x04\n              dup1\n              calldatasize\n              sub\n              dup2\n              add\n              swap1\n              tag_24\n              swap2\n              swap1\n              tag_11\n              jump\t// in\n            tag_24:\n              tag_25\n              jump\t// in\n            tag_23:\n              stop\n                /* \"CommitReveal.sol\":222:264  mapping (address => Commit) public commits */\n            tag_7:\n              tag_26\n              0x04\n              dup1\n              calldatasize\n              sub\n              dup2\n              add\n              swap1\n              tag_27\n              swap2\n              swap1\n              tag_28\n              jump\t// in\n            tag_27:\n              tag_29\n              jump\t// in\n            tag_26:\n              mload(0x40)\n              tag_30\n              swap4\n              swap3\n              swap2\n              swap1\n              tag_31\n              jump\t// in\n            tag_30:\n              mload(0x40)\n              dup1\n              swap2\n              sub\n              swap1\n              return\n                /* \"CommitReveal.sol\":271:547  function commit(bytes32 dataHash) public {... */\n            tag_8:\n              tag_32\n              0x04\n              dup1\n              calldatasize\n              sub\n              dup2\n              add\n              swap1\n              tag_33\n              swap2\n              swap1\n              tag_11\n              jump\t// in\n            tag_33:\n              tag_34\n              jump\t// in\n            tag_32:\n              stop\n                /* \"CommitReveal.sol\":1862:1974  function getHash(bytes32 data) public pure returns(bytes32){... */\n            tag_12:\n                /* \"CommitReveal.sol\":1913:1920  bytes32 */\n              0x00\n                /* \"CommitReveal.sol\":1962:1966  data */\n              dup2\n                /* \"CommitReveal.sol\":1945:1967  abi.encodePacked(data) */\n              add(0x20, mload(0x40))\n              tag_36\n              swap2\n              swap1\n              tag_37\n              jump\t// in\n            tag_36:\n              mload(0x40)\n              0x20\n              dup2\n              dup4\n              sub\n              sub\n              dup2\n              mstore\n              swap1\n              0x40\n              mstore\n                /* \"CommitReveal.sol\":1935:1968  keccak256(abi.encodePacked(data)) */\n              dup1\n              mload\n              swap1\n              0x20\n              add\n              keccak256\n                /* \"CommitReveal.sol\":1928:1968  return keccak256(abi.encodePacked(data)) */\n              swap1\n              pop\n                /* \"CommitReveal.sol\":1862:1974  function getHash(bytes32 data) public pure returns(bytes32){... */\n              swap2\n              swap1\n              pop\n              jump\t// out\n                /* \"CommitReveal.sol\":1980:2077  function isRevealed() public view returns (bool) {... */\n            tag_16:\n                /* \"CommitReveal.sol\":2023:2027  bool */\n              0x00\n                /* \"CommitReveal.sol\":2043:2050  commits */\n              0x01\n                /* \"CommitReveal.sol\":2043:2062  commits[msg.sender] */\n              0x00\n                /* \"CommitReveal.sol\":2051:2061  msg.sender */\n              caller\n                /* \"CommitReveal.sol\":2043:2062  commits[msg.sender] */\n              0xffffffffffffffffffffffffffffffffffffffff\n              and\n              0xffffffffffffffffffffffffffffffffffffffff\n              and\n              dup2\n              mstore\n              0x20\n              add\n              swap1\n              dup2\n              mstore\n              0x20\n              add\n              0x00\n              keccak256\n                /* \"CommitReveal.sol\":2043:2071  commits[msg.sender].revealed */\n              0x01\n              add\n              0x08\n              swap1\n              sload\n              swap1\n              0x0100\n              exp\n              swap1\n              div\n              0xff\n              and\n                /* \"CommitReveal.sol\":2036:2071  return commits[msg.sender].revealed */\n              swap1\n              pop\n                /* \"CommitReveal.sol\":1980:2077  function isRevealed() public view returns (bool) {... */\n              swap1\n              jump\t// out\n                /* \"CommitReveal.sol\":107:129  uint8 public max = 100 */\n            tag_20:\n              0x00\n              dup1\n              sload\n              swap1\n              0x0100\n              exp\n              swap1\n              div\n              0xff\n              and\n              dup2\n              jump\t// out\n                /* \"CommitReveal.sol\":622:1786  function reveal(bytes32 revealHash) public {... */\n            tag_25:\n                /* \"CommitReveal.sol\":778:783  false */\n              0x00\n                /* \"CommitReveal.sol\":748:783  commits[msg.sender].revealed==false */\n              iszero\n              iszero\n                /* \"CommitReveal.sol\":748:755  commits */\n              0x01\n                /* \"CommitReveal.sol\":748:767  commits[msg.sender] */\n              0x00\n                /* \"CommitReveal.sol\":756:766  msg.sender */\n              caller\n                /* \"CommitReveal.sol\":748:767  commits[msg.sender] */\n              0xffffffffffffffffffffffffffffffffffffffff\n              and\n              0xffffffffffffffffffffffffffffffffffffffff\n              and\n              dup2\n              mstore\n              0x20\n              add\n              swap1\n              dup2\n              mstore\n              0x20\n              add\n              0x00\n              keccak256\n                /* \"CommitReveal.sol\":748:776  commits[msg.sender].revealed */\n              0x01\n              add\n              0x08\n              swap1\n              sload\n              swap1\n              0x0100\n              exp\n              swap1\n              div\n              0xff\n              and\n                /* \"CommitReveal.sol\":748:783  commits[msg.sender].revealed==false */\n              iszero\n              iszero\n              eq\n                /* \"CommitReveal.sol\":740:825  require(commits[msg.sender].revealed==false,\"CommitReveal::reveal: Already revealed\") */\n              tag_40\n              jumpi\n              mload(0x40)\n              0x08c379a000000000000000000000000000000000000000000000000000000000\n              dup2\n              mstore\n              0x04\n              add\n              tag_41\n              swap1\n              tag_42\n              jump\t// in\n            tag_41:\n              mload(0x40)\n              dup1\n              swap2\n              sub\n              swap1\n              revert\n            tag_40:\n                /* \"CommitReveal.sol\":861:865  true */\n              0x01\n                /* \"CommitReveal.sol\":832:839  commits */\n              dup1\n                /* \"CommitReveal.sol\":832:851  commits[msg.sender] */\n              0x00\n                /* \"CommitReveal.sol\":840:850  msg.sender */\n              caller\n                /* \"CommitReveal.sol\":832:851  commits[msg.sender] */\n              0xffffffffffffffffffffffffffffffffffffffff\n              and\n              0xffffffffffffffffffffffffffffffffffffffff\n              and\n              dup2\n              mstore\n              0x20\n              add\n              swap1\n              dup2\n              mstore\n              0x20\n              add\n              0x00\n              keccak256\n                /* \"CommitReveal.sol\":832:860  commits[msg.sender].revealed */\n              0x01\n              add\n              0x08\n                /* \"CommitReveal.sol\":832:865  commits[msg.sender].revealed=true */\n              0x0100\n              exp\n              dup2\n              sload\n              dup2\n              0xff\n              mul\n              not\n              and\n              swap1\n              dup4\n              iszero\n              iszero\n              mul\n              or\n              swap1\n              sstore\n              pop\n                /* \"CommitReveal.sol\":957:964  commits */\n              0x01\n                /* \"CommitReveal.sol\":957:976  commits[msg.sender] */\n              0x00\n                /* \"CommitReveal.sol\":965:975  msg.sender */\n              caller\n                /* \"CommitReveal.sol\":957:976  commits[msg.sender] */\n              0xffffffffffffffffffffffffffffffffffffffff\n              and\n              0xffffffffffffffffffffffffffffffffffffffff\n              and\n              dup2\n              mstore\n              0x20\n              add\n              swap1\n              dup2\n              mstore\n              0x20\n              add\n              0x00\n              keccak256\n                /* \"CommitReveal.sol\":957:983  commits[msg.sender].commit */\n              0x00\n              add\n              sload\n                /* \"CommitReveal.sol\":936:955  getHash(revealHash) */\n              tag_43\n                /* \"CommitReveal.sol\":944:954  revealHash */\n              dup3\n                /* \"CommitReveal.sol\":936:943  getHash */\n              tag_12\n                /* \"CommitReveal.sol\":936:955  getHash(revealHash) */\n              jump\t// in\n            tag_43:\n                /* \"CommitReveal.sol\":936:983  getHash(revealHash)==commits[msg.sender].commit */\n              eq\n                /* \"CommitReveal.sol\":928:1044  require(getHash(revealHash)==commits[msg.sender].commit,\"CommitReveal::reveal: Revealed hash does not match commit\") */\n              tag_44\n              jumpi\n              mload(0x40)\n              0x08c379a000000000000000000000000000000000000000000000000000000000\n              dup2\n              mstore\n              0x04\n              add\n              tag_45\n              swap1\n              tag_46\n              jump\t// in\n            tag_45:\n              mload(0x40)\n              dup1\n              swap2\n              sub\n              swap1\n              revert\n            tag_44:\n                /* \"CommitReveal.sol\":1152:1159  commits */\n              0x01\n                /* \"CommitReveal.sol\":1152:1171  commits[msg.sender] */\n              0x00\n                /* \"CommitReveal.sol\":1160:1170  msg.sender */\n              caller\n                /* \"CommitReveal.sol\":1152:1171  commits[msg.sender] */\n              0xffffffffffffffffffffffffffffffffffffffff\n              and\n              0xffffffffffffffffffffffffffffffffffffffff\n              and\n              dup2\n              mstore\n              0x20\n              add\n              swap1\n              dup2\n              mstore\n              0x20\n              add\n              0x00\n              keccak256\n                /* \"CommitReveal.sol\":1152:1177  commits[msg.sender].block */\n              0x01\n              add\n              0x00\n              swap1\n              sload\n              swap1\n              0x0100\n              exp\n              swap1\n              div\n              0xffffffffffffffff\n              and\n                /* \"CommitReveal.sol\":1131:1177  uint64(block.number)>commits[msg.sender].block */\n              0xffffffffffffffff\n              and\n                /* \"CommitReveal.sol\":1138:1150  block.number */\n              number\n                /* \"CommitReveal.sol\":1131:1177  uint64(block.number)>commits[msg.sender].block */\n              0xffffffffffffffff\n              and\n              gt\n                /* \"CommitReveal.sol\":1123:1247  require(uint64(block.number)>commits[msg.sender].block,\"CommitReveal::reveal: Reveal and commit happened on the same block\") */\n              tag_47\n              jumpi\n              mload(0x40)\n              0x08c379a000000000000000000000000000000000000000000000000000000000\n              dup2\n              mstore\n              0x04\n              add\n              tag_48\n              swap1\n              tag_49\n              jump\t// in\n            tag_48:\n              mload(0x40)\n              dup1\n              swap2\n              sub\n              swap1\n              revert\n            tag_47:\n                /* \"CommitReveal.sol\":1366:1369  250 */\n              0xfa\n                /* \"CommitReveal.sol\":1340:1347  commits */\n              0x01\n                /* \"CommitReveal.sol\":1340:1359  commits[msg.sender] */\n              0x00\n                /* \"CommitReveal.sol\":1348:1358  msg.sender */\n              caller\n                /* \"CommitReveal.sol\":1340:1359  commits[msg.sender] */\n              0xffffffffffffffffffffffffffffffffffffffff\n              and\n              0xffffffffffffffffffffffffffffffffffffffff\n              and\n              dup2\n              mstore\n              0x20\n              add\n              swap1\n              dup2\n              mstore\n              0x20\n              add\n              0x00\n              keccak256\n                /* \"CommitReveal.sol\":1340:1365  commits[msg.sender].block */\n              0x01\n              add\n              0x00\n              swap1\n              sload\n              swap1\n              0x0100\n              exp\n              swap1\n              div\n              0xffffffffffffffff\n              and\n                /* \"CommitReveal.sol\":1340:1369  commits[msg.sender].block+250 */\n              tag_50\n              swap2\n              swap1\n              tag_51\n              jump\t// in\n            tag_50:\n                /* \"CommitReveal.sol\":1318:1369  uint64(block.number)<=commits[msg.sender].block+250 */\n              0xffffffffffffffff\n              and\n                /* \"CommitReveal.sol\":1325:1337  block.number */\n              number\n                /* \"CommitReveal.sol\":1318:1369  uint64(block.number)<=commits[msg.sender].block+250 */\n              0xffffffffffffffff\n              and\n              gt\n              iszero\n                /* \"CommitReveal.sol\":1310:1412  require(uint64(block.number)<=commits[msg.sender].block+250,\"CommitReveal::reveal: Revealed too late\") */\n              tag_52\n              jumpi\n              mload(0x40)\n              0x08c379a000000000000000000000000000000000000000000000000000000000\n              dup2\n              mstore\n              0x04\n              add\n              tag_53\n              swap1\n              tag_54\n              jump\t// in\n            tag_53:\n              mload(0x40)\n              dup1\n              swap2\n              sub\n              swap1\n              revert\n            tag_52:\n                /* \"CommitReveal.sol\":1487:1504  bytes32 blockHash */\n              0x00\n                /* \"CommitReveal.sol\":1517:1524  commits */\n              0x01\n                /* \"CommitReveal.sol\":1517:1536  commits[msg.sender] */\n              0x00\n                /* \"CommitReveal.sol\":1525:1535  msg.sender */\n              caller\n                /* \"CommitReveal.sol\":1517:1536  commits[msg.sender] */\n              0xffffffffffffffffffffffffffffffffffffffff\n              and\n              0xffffffffffffffffffffffffffffffffffffffff\n              and\n              dup2\n              mstore\n              0x20\n              add\n              swap1\n              dup2\n              mstore\n              0x20\n              add\n              0x00\n              keccak256\n                /* \"CommitReveal.sol\":1517:1542  commits[msg.sender].block */\n              0x01\n              add\n              0x00\n              swap1\n              sload\n              swap1\n              0x0100\n              exp\n              swap1\n              div\n              0xffffffffffffffff\n              and\n                /* \"CommitReveal.sol\":1507:1543  blockhash(commits[msg.sender].block) */\n              0xffffffffffffffff\n              and\n              blockhash\n                /* \"CommitReveal.sol\":1487:1543  bytes32 blockHash = blockhash(commits[msg.sender].block) */\n              swap1\n              pop\n                /* \"CommitReveal.sol\":1655:1666  uint random */\n              0x00\n                /* \"CommitReveal.sol\":1725:1728  max */\n              dup1\n              0x00\n              swap1\n              sload\n              swap1\n              0x0100\n              exp\n              swap1\n              div\n              0xff\n              and\n                /* \"CommitReveal.sol\":1669:1728  uint(keccak256(abi.encodePacked(blockHash,revealHash)))%max */\n              0xff\n              and\n                /* \"CommitReveal.sol\":1701:1710  blockHash */\n              dup3\n                /* \"CommitReveal.sol\":1711:1721  revealHash */\n              dup5\n                /* \"CommitReveal.sol\":1684:1722  abi.encodePacked(blockHash,revealHash) */\n              add(0x20, mload(0x40))\n              tag_55\n              swap3\n              swap2\n              swap1\n              tag_56\n              jump\t// in\n            tag_55:\n              mload(0x40)\n              0x20\n              dup2\n              dup4\n              sub\n              sub\n              dup2\n              mstore\n              swap1\n              0x40\n              mstore\n                /* \"CommitReveal.sol\":1674:1723  keccak256(abi.encodePacked(blockHash,revealHash)) */\n              dup1\n              mload\n              swap1\n              0x20\n              add\n              keccak256\n                /* \"CommitReveal.sol\":1669:1724  uint(keccak256(abi.encodePacked(blockHash,revealHash))) */\n              0x00\n              shr\n                /* \"CommitReveal.sol\":1669:1728  uint(keccak256(abi.encodePacked(blockHash,revealHash)))%max */\n              tag_57\n              swap2\n              swap1\n              tag_58\n              jump\t// in\n            tag_57:\n                /* \"CommitReveal.sol\":1655:1728  uint random = uint(keccak256(abi.encodePacked(blockHash,revealHash)))%max */\n              swap1\n              pop\n                /* \"CommitReveal.sol\":1740:1780  RevealHash(msg.sender,revealHash,random) */\n              0xbc016dd1cadeaefcb851af7a0a93532e0023d536894b730801f7bcfe7065bcc2\n                /* \"CommitReveal.sol\":1751:1761  msg.sender */\n              caller\n                /* \"CommitReveal.sol\":1762:1772  revealHash */\n              dup5\n                /* \"CommitReveal.sol\":1773:1779  random */\n              dup4\n                /* \"CommitReveal.sol\":1740:1780  RevealHash(msg.sender,revealHash,random) */\n              mload(0x40)\n              tag_59\n              swap4\n              swap3\n              swap2\n              swap1\n              tag_60\n              jump\t// in\n            tag_59:\n              mload(0x40)\n              dup1\n              swap2\n              sub\n              swap1\n              log1\n                /* \"CommitReveal.sol\":665:1786  {... */\n              pop\n              pop\n                /* \"CommitReveal.sol\":622:1786  function reveal(bytes32 revealHash) public {... */\n              pop\n              jump\t// out\n                /* \"CommitReveal.sol\":222:264  mapping (address => Commit) public commits */\n            tag_29:\n              mstore(0x20, 0x01)\n              dup1\n              0x00\n              mstore\n              keccak256(0x00, 0x40)\n              0x00\n              swap2\n              pop\n              swap1\n              pop\n              dup1\n              0x00\n              add\n              sload\n              swap1\n              dup1\n              0x01\n              add\n              0x00\n              swap1\n              sload\n              swap1\n              0x0100\n              exp\n              swap1\n              div\n              0xffffffffffffffff\n              and\n              swap1\n              dup1\n              0x01\n              add\n              0x08\n              swap1\n              sload\n              swap1\n              0x0100\n              exp\n              swap1\n              div\n              0xff\n              and\n              swap1\n              pop\n              dup4\n              jump\t// out\n                /* \"CommitReveal.sol\":271:547  function commit(bytes32 dataHash) public {... */\n            tag_34:\n                /* \"CommitReveal.sol\":348:356  dataHash */\n              dup1\n                /* \"CommitReveal.sol\":319:326  commits */\n              0x01\n                /* \"CommitReveal.sol\":319:338  commits[msg.sender] */\n              0x00\n                /* \"CommitReveal.sol\":327:337  msg.sender */\n              caller\n                /* \"CommitReveal.sol\":319:338  commits[msg.sender] */\n              0xffffffffffffffffffffffffffffffffffffffff\n              and\n              0xffffffffffffffffffffffffffffffffffffffff\n              and\n              dup2\n              mstore\n              0x20\n              add\n              swap1\n              dup2\n              mstore\n              0x20\n              add\n              0x00\n              keccak256\n                /* \"CommitReveal.sol\":319:345  commits[msg.sender].commit */\n              0x00\n              add\n                /* \"CommitReveal.sol\":319:356  commits[msg.sender].commit = dataHash */\n              dup2\n              swap1\n              sstore\n              pop\n                /* \"CommitReveal.sol\":398:410  block.number */\n              number\n                /* \"CommitReveal.sol\":363:370  commits */\n              0x01\n                /* \"CommitReveal.sol\":363:382  commits[msg.sender] */\n              0x00\n                /* \"CommitReveal.sol\":371:381  msg.sender */\n              caller\n                /* \"CommitReveal.sol\":363:382  commits[msg.sender] */\n              0xffffffffffffffffffffffffffffffffffffffff\n              and\n              0xffffffffffffffffffffffffffffffffffffffff\n              and\n              dup2\n              mstore\n              0x20\n              add\n              swap1\n              dup2\n              mstore\n              0x20\n              add\n              0x00\n              keccak256\n                /* \"CommitReveal.sol\":363:388  commits[msg.sender].block */\n              0x01\n              add\n              0x00\n                /* \"CommitReveal.sol\":363:411  commits[msg.sender].block = uint64(block.number) */\n              0x0100\n              exp\n              dup2\n              sload\n              dup2\n              0xffffffffffffffff\n              mul\n              not\n              and\n              swap1\n              dup4\n              0xffffffffffffffff\n              and\n              mul\n              or\n              swap1\n              sstore\n              pop\n                /* \"CommitReveal.sol\":449:454  false */\n              0x00\n                /* \"CommitReveal.sol\":418:425  commits */\n              0x01\n                /* \"CommitReveal.sol\":418:437  commits[msg.sender] */\n              0x00\n                /* \"CommitReveal.sol\":426:436  msg.sender */\n              caller\n                /* \"CommitReveal.sol\":418:437  commits[msg.sender] */\n              0xffffffffffffffffffffffffffffffffffffffff\n              and\n              0xffffffffffffffffffffffffffffffffffffffff\n              and\n              dup2\n              mstore\n              0x20\n              add\n              swap1\n              dup2\n              mstore\n              0x20\n              add\n              0x00\n              keccak256\n                /* \"CommitReveal.sol\":418:446  commits[msg.sender].revealed */\n              0x01\n              add\n              0x08\n                /* \"CommitReveal.sol\":418:454  commits[msg.sender].revealed = false */\n              0x0100\n              exp\n              dup2\n              sload\n              dup2\n              0xff\n              mul\n              not\n              and\n              swap1\n              dup4\n              iszero\n              iszero\n              mul\n              or\n              swap1\n              sstore\n              pop\n                /* \"CommitReveal.sol\":466:541  CommitHash(msg.sender,commits[msg.sender].commit,commits[msg.sender].block) */\n              0x3c1a1f8f38335b17f751c6da4ba7d1865f26b3997535176f5080de9fad891603\n                /* \"CommitReveal.sol\":477:487  msg.sender */\n              caller\n                /* \"CommitReveal.sol\":488:495  commits */\n              0x01\n                /* \"CommitReveal.sol\":488:507  commits[msg.sender] */\n              0x00\n                /* \"CommitReveal.sol\":496:506  msg.sender */\n              caller\n                /* \"CommitReveal.sol\":488:507  commits[msg.sender] */\n              0xffffffffffffffffffffffffffffffffffffffff\n              and\n              0xffffffffffffffffffffffffffffffffffffffff\n              and\n              dup2\n              mstore\n              0x20\n              add\n              swap1\n              dup2\n              mstore\n              0x20\n              add\n              0x00\n              keccak256\n                /* \"CommitReveal.sol\":488:514  commits[msg.sender].commit */\n              0x00\n              add\n              sload\n                /* \"CommitReveal.sol\":515:522  commits */\n              0x01\n                /* \"CommitReveal.sol\":515:534  commits[msg.sender] */\n              0x00\n                /* \"CommitReveal.sol\":523:533  msg.sender */\n              caller\n                /* \"CommitReveal.sol\":515:534  commits[msg.sender] */\n              0xffffffffffffffffffffffffffffffffffffffff\n              and\n              0xffffffffffffffffffffffffffffffffffffffff\n              and\n              dup2\n              mstore\n              0x20\n              add\n              swap1\n              dup2\n              mstore\n              0x20\n              add\n              0x00\n              keccak256\n                /* \"CommitReveal.sol\":515:540  commits[msg.sender].block */\n              0x01\n              add\n              0x00\n              swap1\n              sload\n              swap1\n              0x0100\n              exp\n              swap1\n              div\n              0xffffffffffffffff\n              and\n                /* \"CommitReveal.sol\":466:541  CommitHash(msg.sender,commits[msg.sender].commit,commits[msg.sender].block) */\n              mload(0x40)\n              tag_62\n              swap4\n              swap3\n              swap2\n              swap1\n              tag_63\n              jump\t// in\n            tag_62:\n              mload(0x40)\n              dup1\n              swap2\n              sub\n              swap1\n              log1\n                /* \"CommitReveal.sol\":271:547  function commit(bytes32 dataHash) public {... */\n              pop\n              jump\t// out\n                /* \"#utility.yul\":88:205   */\n            tag_65:\n                /* \"#utility.yul\":197:198   */\n              0x00\n                /* \"#utility.yul\":194:195   */\n              dup1\n                /* \"#utility.yul\":187:199   */\n              revert\n                /* \"#utility.yul\":334:411   */\n            tag_67:\n                /* \"#utility.yul\":371:378   */\n              0x00\n                /* \"#utility.yul\":400:405   */\n              dup2\n                /* \"#utility.yul\":389:405   */\n              swap1\n              pop\n                /* \"#utility.yul\":334:411   */\n              swap2\n              swap1\n              pop\n              jump\t// out\n                /* \"#utility.yul\":417:539   */\n            tag_68:\n                /* \"#utility.yul\":490:514   */\n              tag_103\n                /* \"#utility.yul\":508:513   */\n              dup2\n                /* \"#utility.yul\":490:514   */\n              tag_67\n              jump\t// in\n            tag_103:\n                /* \"#utility.yul\":483:488   */\n              dup2\n                /* \"#utility.yul\":480:515   */\n              eq\n                /* \"#utility.yul\":470:533   */\n              tag_104\n              jumpi\n                /* \"#utility.yul\":529:530   */\n              0x00\n                /* \"#utility.yul\":526:527   */\n              dup1\n                /* \"#utility.yul\":519:531   */\n              revert\n                /* \"#utility.yul\":470:533   */\n            tag_104:\n                /* \"#utility.yul\":417:539   */\n              pop\n              jump\t// out\n                /* \"#utility.yul\":545:684   */\n            tag_69:\n                /* \"#utility.yul\":591:596   */\n              0x00\n                /* \"#utility.yul\":629:635   */\n              dup2\n                /* \"#utility.yul\":616:636   */\n              calldataload\n                /* \"#utility.yul\":607:636   */\n              swap1\n              pop\n                /* \"#utility.yul\":645:678   */\n              tag_106\n                /* \"#utility.yul\":672:677   */\n              dup2\n                /* \"#utility.yul\":645:678   */\n              tag_68\n              jump\t// in\n            tag_106:\n                /* \"#utility.yul\":545:684   */\n              swap3\n              swap2\n              pop\n              pop\n              jump\t// out\n                /* \"#utility.yul\":690:1019   */\n            tag_11:\n                /* \"#utility.yul\":749:755   */\n              0x00\n                /* \"#utility.yul\":798:800   */\n              0x20\n                /* \"#utility.yul\":786:795   */\n              dup3\n                /* \"#utility.yul\":777:784   */\n              dup5\n                /* \"#utility.yul\":773:796   */\n              sub\n                /* \"#utility.yul\":769:801   */\n              slt\n                /* \"#utility.yul\":766:885   */\n              iszero\n              tag_108\n              jumpi\n                /* \"#utility.yul\":804:883   */\n              tag_109\n              tag_65\n              jump\t// in\n            tag_109:\n                /* \"#utility.yul\":766:885   */\n            tag_108:\n                /* \"#utility.yul\":924:925   */\n              0x00\n                /* \"#utility.yul\":949:1002   */\n              tag_110\n                /* \"#utility.yul\":994:1001   */\n              dup5\n                /* \"#utility.yul\":985:991   */\n              dup3\n                /* \"#utility.yul\":974:983   */\n              dup6\n                /* \"#utility.yul\":970:992   */\n              add\n                /* \"#utility.yul\":949:1002   */\n              tag_69\n              jump\t// in\n            tag_110:\n                /* \"#utility.yul\":939:1002   */\n              swap2\n              pop\n                /* \"#utility.yul\":895:1012   */\n              pop\n                /* \"#utility.yul\":690:1019   */\n              swap3\n              swap2\n              pop\n              pop\n              jump\t// out\n                /* \"#utility.yul\":1025:1143   */\n            tag_70:\n                /* \"#utility.yul\":1112:1136   */\n              tag_112\n                /* \"#utility.yul\":1130:1135   */\n              dup2\n                /* \"#utility.yul\":1112:1136   */\n              tag_67\n              jump\t// in\n            tag_112:\n                /* \"#utility.yul\":1107:1110   */\n              dup3\n                /* \"#utility.yul\":1100:1137   */\n              mstore\n                /* \"#utility.yul\":1025:1143   */\n              pop\n              pop\n              jump\t// out\n                /* \"#utility.yul\":1149:1371   */\n            tag_14:\n                /* \"#utility.yul\":1242:1246   */\n              0x00\n                /* \"#utility.yul\":1280:1282   */\n              0x20\n                /* \"#utility.yul\":1269:1278   */\n              dup3\n                /* \"#utility.yul\":1265:1283   */\n              add\n                /* \"#utility.yul\":1257:1283   */\n              swap1\n              pop\n                /* \"#utility.yul\":1293:1364   */\n              tag_114\n                /* \"#utility.yul\":1361:1362   */\n              0x00\n                /* \"#utility.yul\":1350:1359   */\n              dup4\n                /* \"#utility.yul\":1346:1363   */\n              add\n                /* \"#utility.yul\":1337:1343   */\n              dup5\n                /* \"#utility.yul\":1293:1364   */\n              tag_70\n              jump\t// in\n            tag_114:\n                /* \"#utility.yul\":1149:1371   */\n              swap3\n              swap2\n              pop\n              pop\n              jump\t// out\n                /* \"#utility.yul\":1377:1467   */\n            tag_71:\n                /* \"#utility.yul\":1411:1418   */\n              0x00\n                /* \"#utility.yul\":1454:1459   */\n              dup2\n                /* \"#utility.yul\":1447:1460   */\n              iszero\n                /* \"#utility.yul\":1440:1461   */\n              iszero\n                /* \"#utility.yul\":1429:1461   */\n              swap1\n              pop\n                /* \"#utility.yul\":1377:1467   */\n              swap2\n              swap1\n              pop\n              jump\t// out\n                /* \"#utility.yul\":1473:1582   */\n            tag_72:\n                /* \"#utility.yul\":1554:1575   */\n              tag_117\n                /* \"#utility.yul\":1569:1574   */\n              dup2\n                /* \"#utility.yul\":1554:1575   */\n              tag_71\n              jump\t// in\n            tag_117:\n                /* \"#utility.yul\":1549:1552   */\n              dup3\n                /* \"#utility.yul\":1542:1576   */\n              mstore\n                /* \"#utility.yul\":1473:1582   */\n              pop\n              pop\n              jump\t// out\n                /* \"#utility.yul\":1588:1798   */\n            tag_18:\n                /* \"#utility.yul\":1675:1679   */\n              0x00\n                /* \"#utility.yul\":1713:1715   */\n              0x20\n                /* \"#utility.yul\":1702:1711   */\n              dup3\n                /* \"#utility.yul\":1698:1716   */\n              add\n                /* \"#utility.yul\":1690:1716   */\n              swap1\n              pop\n                /* \"#utility.yul\":1726:1791   */\n              tag_119\n                /* \"#utility.yul\":1788:1789   */\n              0x00\n                /* \"#utility.yul\":1777:1786   */\n              dup4\n                /* \"#utility.yul\":1773:1790   */\n              add\n                /* \"#utility.yul\":1764:1770   */\n              dup5\n                /* \"#utility.yul\":1726:1791   */\n              tag_72\n              jump\t// in\n            tag_119:\n                /* \"#utility.yul\":1588:1798   */\n              swap3\n              swap2\n              pop\n              pop\n              jump\t// out\n                /* \"#utility.yul\":1804:1890   */\n            tag_73:\n                /* \"#utility.yul\":1839:1846   */\n              0x00\n                /* \"#utility.yul\":1879:1883   */\n              0xff\n                /* \"#utility.yul\":1872:1877   */\n              dup3\n                /* \"#utility.yul\":1868:1884   */\n              and\n                /* \"#utility.yul\":1857:1884   */\n              swap1\n              pop\n                /* \"#utility.yul\":1804:1890   */\n              swap2\n              swap1\n              pop\n              jump\t// out\n                /* \"#utility.yul\":1896:2008   */\n            tag_74:\n                /* \"#utility.yul\":1979:2001   */\n              tag_122\n                /* \"#utility.yul\":1995:2000   */\n              dup2\n                /* \"#utility.yul\":1979:2001   */\n              tag_73\n              jump\t// in\n            tag_122:\n                /* \"#utility.yul\":1974:1977   */\n              dup3\n                /* \"#utility.yul\":1967:2002   */\n              mstore\n                /* \"#utility.yul\":1896:2008   */\n              pop\n              pop\n              jump\t// out\n                /* \"#utility.yul\":2014:2228   */\n            tag_22:\n                /* \"#utility.yul\":2103:2107   */\n              0x00\n                /* \"#utility.yul\":2141:2143   */\n              0x20\n                /* \"#utility.yul\":2130:2139   */\n              dup3\n                /* \"#utility.yul\":2126:2144   */\n              add\n                /* \"#utility.yul\":2118:2144   */\n              swap1\n              pop\n                /* \"#utility.yul\":2154:2221   */\n              tag_124\n                /* \"#utility.yul\":2218:2219   */\n              0x00\n                /* \"#utility.yul\":2207:2216   */\n              dup4\n                /* \"#utility.yul\":2203:2220   */\n              add\n                /* \"#utility.yul\":2194:2200   */\n              dup5\n                /* \"#utility.yul\":2154:2221   */\n              tag_74\n              jump\t// in\n            tag_124:\n                /* \"#utility.yul\":2014:2228   */\n              swap3\n              swap2\n              pop\n              pop\n              jump\t// out\n                /* \"#utility.yul\":2234:2360   */\n            tag_75:\n                /* \"#utility.yul\":2271:2278   */\n              0x00\n                /* \"#utility.yul\":2311:2353   */\n              0xffffffffffffffffffffffffffffffffffffffff\n                /* \"#utility.yul\":2304:2309   */\n              dup3\n                /* \"#utility.yul\":2300:2354   */\n              and\n                /* \"#utility.yul\":2289:2354   */\n              swap1\n              pop\n                /* \"#utility.yul\":2234:2360   */\n              swap2\n              swap1\n              pop\n              jump\t// out\n                /* \"#utility.yul\":2366:2462   */\n            tag_76:\n                /* \"#utility.yul\":2403:2410   */\n              0x00\n                /* \"#utility.yul\":2432:2456   */\n              tag_127\n                /* \"#utility.yul\":2450:2455   */\n              dup3\n                /* \"#utility.yul\":2432:2456   */\n              tag_75\n              jump\t// in\n            tag_127:\n                /* \"#utility.yul\":2421:2456   */\n              swap1\n              pop\n                /* \"#utility.yul\":2366:2462   */\n              swap2\n              swap1\n              pop\n              jump\t// out\n                /* \"#utility.yul\":2468:2590   */\n            tag_77:\n                /* \"#utility.yul\":2541:2565   */\n              tag_129\n                /* \"#utility.yul\":2559:2564   */\n              dup2\n                /* \"#utility.yul\":2541:2565   */\n              tag_76\n              jump\t// in\n            tag_129:\n                /* \"#utility.yul\":2534:2539   */\n              dup2\n                /* \"#utility.yul\":2531:2566   */\n              eq\n                /* \"#utility.yul\":2521:2584   */\n              tag_130\n              jumpi\n                /* \"#utility.yul\":2580:2581   */\n              0x00\n                /* \"#utility.yul\":2577:2578   */\n              dup1\n                /* \"#utility.yul\":2570:2582   */\n              revert\n                /* \"#utility.yul\":2521:2584   */\n            tag_130:\n                /* \"#utility.yul\":2468:2590   */\n              pop\n              jump\t// out\n                /* \"#utility.yul\":2596:2735   */\n            tag_78:\n                /* \"#utility.yul\":2642:2647   */\n              0x00\n                /* \"#utility.yul\":2680:2686   */\n              dup2\n                /* \"#utility.yul\":2667:2687   */\n              calldataload\n                /* \"#utility.yul\":2658:2687   */\n              swap1\n              pop\n                /* \"#utility.yul\":2696:2729   */\n              tag_132\n                /* \"#utility.yul\":2723:2728   */\n              dup2\n                /* \"#utility.yul\":2696:2729   */\n              tag_77\n              jump\t// in\n            tag_132:\n                /* \"#utility.yul\":2596:2735   */\n              swap3\n              swap2\n              pop\n              pop\n              jump\t// out\n                /* \"#utility.yul\":2741:3070   */\n            tag_28:\n                /* \"#utility.yul\":2800:2806   */\n              0x00\n                /* \"#utility.yul\":2849:2851   */\n              0x20\n                /* \"#utility.yul\":2837:2846   */\n              dup3\n                /* \"#utility.yul\":2828:2835   */\n              dup5\n                /* \"#utility.yul\":2824:2847   */\n              sub\n                /* \"#utility.yul\":2820:2852   */\n              slt\n                /* \"#utility.yul\":2817:2936   */\n              iszero\n              tag_134\n              jumpi\n                /* \"#utility.yul\":2855:2934   */\n              tag_135\n              tag_65\n              jump\t// in\n            tag_135:\n                /* \"#utility.yul\":2817:2936   */\n            tag_134:\n                /* \"#utility.yul\":2975:2976   */\n              0x00\n                /* \"#utility.yul\":3000:3053   */\n              tag_136\n                /* \"#utility.yul\":3045:3052   */\n              dup5\n                /* \"#utility.yul\":3036:3042   */\n              dup3\n                /* \"#utility.yul\":3025:3034   */\n              dup6\n                /* \"#utility.yul\":3021:3043   */\n              add\n                /* \"#utility.yul\":3000:3053   */\n              tag_78\n              jump\t// in\n            tag_136:\n                /* \"#utility.yul\":2990:3053   */\n              swap2\n              pop\n                /* \"#utility.yul\":2946:3063   */\n              pop\n                /* \"#utility.yul\":2741:3070   */\n              swap3\n              swap2\n              pop\n              pop\n              jump\t// out\n                /* \"#utility.yul\":3076:3177   */\n            tag_79:\n                /* \"#utility.yul\":3112:3119   */\n              0x00\n                /* \"#utility.yul\":3152:3170   */\n              0xffffffffffffffff\n                /* \"#utility.yul\":3145:3150   */\n              dup3\n                /* \"#utility.yul\":3141:3171   */\n              and\n                /* \"#utility.yul\":3130:3171   */\n              swap1\n              pop\n                /* \"#utility.yul\":3076:3177   */\n              swap2\n              swap1\n              pop\n              jump\t// out\n                /* \"#utility.yul\":3183:3298   */\n            tag_80:\n                /* \"#utility.yul\":3268:3291   */\n              tag_139\n                /* \"#utility.yul\":3285:3290   */\n              dup2\n                /* \"#utility.yul\":3268:3291   */\n              tag_79\n              jump\t// in\n            tag_139:\n                /* \"#utility.yul\":3263:3266   */\n              dup3\n                /* \"#utility.yul\":3256:3292   */\n              mstore\n                /* \"#utility.yul\":3183:3298   */\n              pop\n              pop\n              jump\t// out\n                /* \"#utility.yul\":3304:3730   */\n            tag_31:\n                /* \"#utility.yul\":3445:3449   */\n              0x00\n                /* \"#utility.yul\":3483:3485   */\n              0x60\n                /* \"#utility.yul\":3472:3481   */\n              dup3\n                /* \"#utility.yul\":3468:3486   */\n              add\n                /* \"#utility.yul\":3460:3486   */\n              swap1\n              pop\n                /* \"#utility.yul\":3496:3567   */\n              tag_141\n                /* \"#utility.yul\":3564:3565   */\n              0x00\n                /* \"#utility.yul\":3553:3562   */\n              dup4\n                /* \"#utility.yul\":3549:3566   */\n              add\n                /* \"#utility.yul\":3540:3546   */\n              dup7\n                /* \"#utility.yul\":3496:3567   */\n              tag_70\n              jump\t// in\n            tag_141:\n                /* \"#utility.yul\":3577:3647   */\n              tag_142\n                /* \"#utility.yul\":3643:3645   */\n              0x20\n                /* \"#utility.yul\":3632:3641   */\n              dup4\n                /* \"#utility.yul\":3628:3646   */\n              add\n                /* \"#utility.yul\":3619:3625   */\n              dup6\n                /* \"#utility.yul\":3577:3647   */\n              tag_80\n              jump\t// in\n            tag_142:\n                /* \"#utility.yul\":3657:3723   */\n              tag_143\n                /* \"#utility.yul\":3719:3721   */\n              0x40\n                /* \"#utility.yul\":3708:3717   */\n              dup4\n                /* \"#utility.yul\":3704:3722   */\n              add\n                /* \"#utility.yul\":3695:3701   */\n              dup5\n                /* \"#utility.yul\":3657:3723   */\n              tag_72\n              jump\t// in\n            tag_143:\n                /* \"#utility.yul\":3304:3730   */\n              swap5\n              swap4\n              pop\n              pop\n              pop\n              pop\n              jump\t// out\n                /* \"#utility.yul\":3736:3815   */\n            tag_81:\n                /* \"#utility.yul\":3775:3782   */\n              0x00\n                /* \"#utility.yul\":3804:3809   */\n              dup2\n                /* \"#utility.yul\":3793:3809   */\n              swap1\n              pop\n                /* \"#utility.yul\":3736:3815   */\n              swap2\n              swap1\n              pop\n              jump\t// out\n                /* \"#utility.yul\":3821:3978   */\n            tag_82:\n                /* \"#utility.yul\":3926:3971   */\n              tag_146\n                /* \"#utility.yul\":3946:3970   */\n              tag_147\n                /* \"#utility.yul\":3964:3969   */\n              dup3\n                /* \"#utility.yul\":3946:3970   */\n              tag_67\n              jump\t// in\n            tag_147:\n                /* \"#utility.yul\":3926:3971   */\n              tag_81\n              jump\t// in\n            tag_146:\n                /* \"#utility.yul\":3921:3924   */\n              dup3\n                /* \"#utility.yul\":3914:3972   */\n              mstore\n                /* \"#utility.yul\":3821:3978   */\n              pop\n              pop\n              jump\t// out\n                /* \"#utility.yul\":3984:4240   */\n            tag_37:\n                /* \"#utility.yul\":4096:4099   */\n              0x00\n                /* \"#utility.yul\":4111:4186   */\n              tag_149\n                /* \"#utility.yul\":4182:4185   */\n              dup3\n                /* \"#utility.yul\":4173:4179   */\n              dup5\n                /* \"#utility.yul\":4111:4186   */\n              tag_82\n              jump\t// in\n            tag_149:\n                /* \"#utility.yul\":4211:4213   */\n              0x20\n                /* \"#utility.yul\":4206:4209   */\n              dup3\n                /* \"#utility.yul\":4202:4214   */\n              add\n                /* \"#utility.yul\":4195:4214   */\n              swap2\n              pop\n                /* \"#utility.yul\":4231:4234   */\n              dup2\n                /* \"#utility.yul\":4224:4234   */\n              swap1\n              pop\n                /* \"#utility.yul\":3984:4240   */\n              swap3\n              swap2\n              pop\n              pop\n              jump\t// out\n                /* \"#utility.yul\":4246:4415   */\n            tag_83:\n                /* \"#utility.yul\":4330:4341   */\n              0x00\n                /* \"#utility.yul\":4364:4370   */\n              dup3\n                /* \"#utility.yul\":4359:4362   */\n              dup3\n                /* \"#utility.yul\":4352:4371   */\n              mstore\n                /* \"#utility.yul\":4404:4408   */\n              0x20\n                /* \"#utility.yul\":4399:4402   */\n              dup3\n                /* \"#utility.yul\":4395:4409   */\n              add\n                /* \"#utility.yul\":4380:4409   */\n              swap1\n              pop\n                /* \"#utility.yul\":4246:4415   */\n              swap3\n              swap2\n              pop\n              pop\n              jump\t// out\n                /* \"#utility.yul\":4421:4646   */\n            tag_84:\n                /* \"#utility.yul\":4561:4595   */\n              0x436f6d6d697452657665616c3a3a72657665616c3a20416c7265616479207265\n                /* \"#utility.yul\":4557:4558   */\n              0x00\n                /* \"#utility.yul\":4549:4555   */\n              dup3\n                /* \"#utility.yul\":4545:4559   */\n              add\n                /* \"#utility.yul\":4538:4596   */\n              mstore\n                /* \"#utility.yul\":4630:4638   */\n              0x7665616c65640000000000000000000000000000000000000000000000000000\n                /* \"#utility.yul\":4625:4627   */\n              0x20\n                /* \"#utility.yul\":4617:4623   */\n              dup3\n                /* \"#utility.yul\":4613:4628   */\n              add\n                /* \"#utility.yul\":4606:4639   */\n              mstore\n                /* \"#utility.yul\":4421:4646   */\n              pop\n              jump\t// out\n                /* \"#utility.yul\":4652:5018   */\n            tag_85:\n                /* \"#utility.yul\":4794:4797   */\n              0x00\n                /* \"#utility.yul\":4815:4882   */\n              tag_153\n                /* \"#utility.yul\":4879:4881   */\n              0x26\n                /* \"#utility.yul\":4874:4877   */\n              dup4\n                /* \"#utility.yul\":4815:4882   */\n              tag_83\n              jump\t// in\n            tag_153:\n                /* \"#utility.yul\":4808:4882   */\n              swap2\n              pop\n                /* \"#utility.yul\":4891:4984   */\n              tag_154\n                /* \"#utility.yul\":4980:4983   */\n              dup3\n                /* \"#utility.yul\":4891:4984   */\n              tag_84\n              jump\t// in\n            tag_154:\n                /* \"#utility.yul\":5009:5011   */\n              0x40\n                /* \"#utility.yul\":5004:5007   */\n              dup3\n                /* \"#utility.yul\":5000:5012   */\n              add\n                /* \"#utility.yul\":4993:5012   */\n              swap1\n              pop\n                /* \"#utility.yul\":4652:5018   */\n              swap2\n              swap1\n              pop\n              jump\t// out\n                /* \"#utility.yul\":5024:5443   */\n            tag_42:\n                /* \"#utility.yul\":5190:5194   */\n              0x00\n                /* \"#utility.yul\":5228:5230   */\n              0x20\n                /* \"#utility.yul\":5217:5226   */\n              dup3\n                /* \"#utility.yul\":5213:5231   */\n              add\n                /* \"#utility.yul\":5205:5231   */\n              swap1\n              pop\n                /* \"#utility.yul\":5277:5286   */\n              dup2\n                /* \"#utility.yul\":5271:5275   */\n              dup2\n                /* \"#utility.yul\":5267:5287   */\n              sub\n                /* \"#utility.yul\":5263:5264   */\n              0x00\n                /* \"#utility.yul\":5252:5261   */\n              dup4\n                /* \"#utility.yul\":5248:5265   */\n              add\n                /* \"#utility.yul\":5241:5288   */\n              mstore\n                /* \"#utility.yul\":5305:5436   */\n              tag_156\n                /* \"#utility.yul\":5431:5435   */\n              dup2\n                /* \"#utility.yul\":5305:5436   */\n              tag_85\n              jump\t// in\n            tag_156:\n                /* \"#utility.yul\":5297:5436   */\n              swap1\n              pop\n                /* \"#utility.yul\":5024:5443   */\n              swap2\n              swap1\n              pop\n              jump\t// out\n                /* \"#utility.yul\":5449:5693   */\n            tag_86:\n                /* \"#utility.yul\":5589:5623   */\n              0x436f6d6d697452657665616c3a3a72657665616c3a2052657665616c65642068\n                /* \"#utility.yul\":5585:5586   */\n              0x00\n                /* \"#utility.yul\":5577:5583   */\n              dup3\n                /* \"#utility.yul\":5573:5587   */\n              add\n                /* \"#utility.yul\":5566:5624   */\n              mstore\n                /* \"#utility.yul\":5658:5685   */\n              0x61736820646f6573206e6f74206d6174636820636f6d6d697400000000000000\n                /* \"#utility.yul\":5653:5655   */\n              0x20\n                /* \"#utility.yul\":5645:5651   */\n              dup3\n                /* \"#utility.yul\":5641:5656   */\n              add\n                /* \"#utility.yul\":5634:5686   */\n              mstore\n                /* \"#utility.yul\":5449:5693   */\n              pop\n              jump\t// out\n                /* \"#utility.yul\":5699:6065   */\n            tag_87:\n                /* \"#utility.yul\":5841:5844   */\n              0x00\n                /* \"#utility.yul\":5862:5929   */\n              tag_159\n                /* \"#utility.yul\":5926:5928   */\n              0x39\n                /* \"#utility.yul\":5921:5924   */\n              dup4\n                /* \"#utility.yul\":5862:5929   */\n              tag_83\n              jump\t// in\n            tag_159:\n                /* \"#utility.yul\":5855:5929   */\n              swap2\n              pop\n                /* \"#utility.yul\":5938:6031   */\n              tag_160\n                /* \"#utility.yul\":6027:6030   */\n              dup3\n                /* \"#utility.yul\":5938:6031   */\n              tag_86\n              jump\t// in\n            tag_160:\n                /* \"#utility.yul\":6056:6058   */\n              0x40\n                /* \"#utility.yul\":6051:6054   */\n              dup3\n                /* \"#utility.yul\":6047:6059   */\n              add\n                /* \"#utility.yul\":6040:6059   */\n              swap1\n              pop\n                /* \"#utility.yul\":5699:6065   */\n              swap2\n              swap1\n              pop\n              jump\t// out\n                /* \"#utility.yul\":6071:6490   */\n            tag_46:\n                /* \"#utility.yul\":6237:6241   */\n              0x00\n                /* \"#utility.yul\":6275:6277   */\n              0x20\n                /* \"#utility.yul\":6264:6273   */\n              dup3\n                /* \"#utility.yul\":6260:6278   */\n              add\n                /* \"#utility.yul\":6252:6278   */\n              swap1\n              pop\n                /* \"#utility.yul\":6324:6333   */\n              dup2\n                /* \"#utility.yul\":6318:6322   */\n              dup2\n                /* \"#utility.yul\":6314:6334   */\n              sub\n                /* \"#utility.yul\":6310:6311   */\n              0x00\n                /* \"#utility.yul\":6299:6308   */\n              dup4\n                /* \"#utility.yul\":6295:6312   */\n              add\n                /* \"#utility.yul\":6288:6335   */\n              mstore\n                /* \"#utility.yul\":6352:6483   */\n              tag_162\n                /* \"#utility.yul\":6478:6482   */\n              dup2\n                /* \"#utility.yul\":6352:6483   */\n              tag_87\n              jump\t// in\n            tag_162:\n                /* \"#utility.yul\":6344:6483   */\n              swap1\n              pop\n                /* \"#utility.yul\":6071:6490   */\n              swap2\n              swap1\n              pop\n              jump\t// out\n                /* \"#utility.yul\":6496:6786   */\n            tag_88:\n                /* \"#utility.yul\":6636:6670   */\n              0x436f6d6d697452657665616c3a3a72657665616c3a2052657665616c20616e64\n                /* \"#utility.yul\":6632:6633   */\n              0x00\n                /* \"#utility.yul\":6624:6630   */\n              dup3\n                /* \"#utility.yul\":6620:6634   */\n              add\n                /* \"#utility.yul\":6613:6671   */\n              mstore\n                /* \"#utility.yul\":6705:6739   */\n              0x20636f6d6d69742068617070656e6564206f6e207468652073616d6520626c6f\n                /* \"#utility.yul\":6700:6702   */\n              0x20\n                /* \"#utility.yul\":6692:6698   */\n              dup3\n                /* \"#utility.yul\":6688:6703   */\n              add\n                /* \"#utility.yul\":6681:6740   */\n              mstore\n                /* \"#utility.yul\":6774:6778   */\n              0x636b000000000000000000000000000000000000000000000000000000000000\n                /* \"#utility.yul\":6769:6771   */\n              0x40\n                /* \"#utility.yul\":6761:6767   */\n              dup3\n                /* \"#utility.yul\":6757:6772   */\n              add\n                /* \"#utility.yul\":6750:6779   */\n              mstore\n                /* \"#utility.yul\":6496:6786   */\n              pop\n              jump\t// out\n                /* \"#utility.yul\":6792:7158   */\n            tag_89:\n                /* \"#utility.yul\":6934:6937   */\n              0x00\n                /* \"#utility.yul\":6955:7022   */\n              tag_165\n                /* \"#utility.yul\":7019:7021   */\n              0x42\n                /* \"#utility.yul\":7014:7017   */\n              dup4\n                /* \"#utility.yul\":6955:7022   */\n              tag_83\n              jump\t// in\n            tag_165:\n                /* \"#utility.yul\":6948:7022   */\n              swap2\n              pop\n                /* \"#utility.yul\":7031:7124   */\n              tag_166\n                /* \"#utility.yul\":7120:7123   */\n              dup3\n                /* \"#utility.yul\":7031:7124   */\n              tag_88\n              jump\t// in\n            tag_166:\n                /* \"#utility.yul\":7149:7151   */\n              0x60\n                /* \"#utility.yul\":7144:7147   */\n              dup3\n                /* \"#utility.yul\":7140:7152   */\n              add\n                /* \"#utility.yul\":7133:7152   */\n              swap1\n              pop\n                /* \"#utility.yul\":6792:7158   */\n              swap2\n              swap1\n              pop\n              jump\t// out\n                /* \"#utility.yul\":7164:7583   */\n            tag_49:\n                /* \"#utility.yul\":7330:7334   */\n              0x00\n                /* \"#utility.yul\":7368:7370   */\n              0x20\n                /* \"#utility.yul\":7357:7366   */\n              dup3\n                /* \"#utility.yul\":7353:7371   */\n              add\n                /* \"#utility.yul\":7345:7371   */\n              swap1\n              pop\n                /* \"#utility.yul\":7417:7426   */\n              dup2\n                /* \"#utility.yul\":7411:7415   */\n              dup2\n                /* \"#utility.yul\":7407:7427   */\n              sub\n                /* \"#utility.yul\":7403:7404   */\n              0x00\n                /* \"#utility.yul\":7392:7401   */\n              dup4\n                /* \"#utility.yul\":7388:7405   */\n              add\n                /* \"#utility.yul\":7381:7428   */\n              mstore\n                /* \"#utility.yul\":7445:7576   */\n              tag_168\n                /* \"#utility.yul\":7571:7575   */\n              dup2\n                /* \"#utility.yul\":7445:7576   */\n              tag_89\n              jump\t// in\n            tag_168:\n                /* \"#utility.yul\":7437:7576   */\n              swap1\n              pop\n                /* \"#utility.yul\":7164:7583   */\n              swap2\n              swap1\n              pop\n              jump\t// out\n                /* \"#utility.yul\":7589:7769   */\n            tag_90:\n                /* \"#utility.yul\":7637:7714   */\n              0x4e487b7100000000000000000000000000000000000000000000000000000000\n                /* \"#utility.yul\":7634:7635   */\n              0x00\n                /* \"#utility.yul\":7627:7715   */\n              mstore\n                /* \"#utility.yul\":7734:7738   */\n              0x11\n                /* \"#utility.yul\":7731:7732   */\n              0x04\n                /* \"#utility.yul\":7724:7739   */\n              mstore\n                /* \"#utility.yul\":7758:7762   */\n              0x24\n                /* \"#utility.yul\":7755:7756   */\n              0x00\n                /* \"#utility.yul\":7748:7763   */\n              revert\n                /* \"#utility.yul\":7775:7980   */\n            tag_51:\n                /* \"#utility.yul\":7814:7817   */\n              0x00\n                /* \"#utility.yul\":7833:7852   */\n              tag_171\n                /* \"#utility.yul\":7850:7851   */\n              dup3\n                /* \"#utility.yul\":7833:7852   */\n              tag_79\n              jump\t// in\n            tag_171:\n                /* \"#utility.yul\":7828:7852   */\n              swap2\n              pop\n                /* \"#utility.yul\":7866:7885   */\n              tag_172\n                /* \"#utility.yul\":7883:7884   */\n              dup4\n                /* \"#utility.yul\":7866:7885   */\n              tag_79\n              jump\t// in\n            tag_172:\n                /* \"#utility.yul\":7861:7885   */\n              swap3\n              pop\n                /* \"#utility.yul\":7908:7909   */\n              dup3\n                /* \"#utility.yul\":7905:7906   */\n              dup3\n                /* \"#utility.yul\":7901:7910   */\n              add\n                /* \"#utility.yul\":7894:7910   */\n              swap1\n              pop\n                /* \"#utility.yul\":7931:7949   */\n              0xffffffffffffffff\n                /* \"#utility.yul\":7926:7929   */\n              dup2\n                /* \"#utility.yul\":7923:7950   */\n              gt\n                /* \"#utility.yul\":7920:7973   */\n              iszero\n              tag_173\n              jumpi\n                /* \"#utility.yul\":7953:7971   */\n              tag_174\n              tag_90\n              jump\t// in\n            tag_174:\n                /* \"#utility.yul\":7920:7973   */\n            tag_173:\n                /* \"#utility.yul\":7775:7980   */\n              swap3\n              swap2\n              pop\n              pop\n              jump\t// out\n                /* \"#utility.yul\":7986:8212   */\n            tag_91:\n                /* \"#utility.yul\":8126:8160   */\n              0x436f6d6d697452657665616c3a3a72657665616c3a2052657665616c65642074\n                /* \"#utility.yul\":8122:8123   */\n              0x00\n                /* \"#utility.yul\":8114:8120   */\n              dup3\n                /* \"#utility.yul\":8110:8124   */\n              add\n                /* \"#utility.yul\":8103:8161   */\n              mstore\n                /* \"#utility.yul\":8195:8204   */\n              0x6f6f206c61746500000000000000000000000000000000000000000000000000\n                /* \"#utility.yul\":8190:8192   */\n              0x20\n                /* \"#utility.yul\":8182:8188   */\n              dup3\n                /* \"#utility.yul\":8178:8193   */\n              add\n                /* \"#utility.yul\":8171:8205   */\n              mstore\n                /* \"#utility.yul\":7986:8212   */\n              pop\n              jump\t// out\n                /* \"#utility.yul\":8218:8584   */\n            tag_92:\n                /* \"#utility.yul\":8360:8363   */\n              0x00\n                /* \"#utility.yul\":8381:8448   */\n              tag_177\n                /* \"#utility.yul\":8445:8447   */\n              0x27\n                /* \"#utility.yul\":8440:8443   */\n              dup4\n                /* \"#utility.yul\":8381:8448   */\n              tag_83\n              jump\t// in\n            tag_177:\n                /* \"#utility.yul\":8374:8448   */\n              swap2\n              pop\n                /* \"#utility.yul\":8457:8550   */\n              tag_178\n                /* \"#utility.yul\":8546:8549   */\n              dup3\n                /* \"#utility.yul\":8457:8550   */\n              tag_91\n              jump\t// in\n            tag_178:\n                /* \"#utility.yul\":8575:8577   */\n              0x40\n                /* \"#utility.yul\":8570:8573   */\n              dup3\n                /* \"#utility.yul\":8566:8578   */\n              add\n                /* \"#utility.yul\":8559:8578   */\n              swap1\n              pop\n                /* \"#utility.yul\":8218:8584   */\n              swap2\n              swap1\n              pop\n              jump\t// out\n                /* \"#utility.yul\":8590:9009   */\n            tag_54:\n                /* \"#utility.yul\":8756:8760   */\n              0x00\n                /* \"#utility.yul\":8794:8796   */\n              0x20\n                /* \"#utility.yul\":8783:8792   */\n              dup3\n                /* \"#utility.yul\":8779:8797   */\n              add\n                /* \"#utility.yul\":8771:8797   */\n              swap1\n              pop\n                /* \"#utility.yul\":8843:8852   */\n              dup2\n                /* \"#utility.yul\":8837:8841   */\n              dup2\n                /* \"#utility.yul\":8833:8853   */\n              sub\n                /* \"#utility.yul\":8829:8830   */\n              0x00\n                /* \"#utility.yul\":8818:8827   */\n              dup4\n                /* \"#utility.yul\":8814:8831   */\n              add\n                /* \"#utility.yul\":8807:8854   */\n              mstore\n                /* \"#utility.yul\":8871:9002   */\n              tag_180\n                /* \"#utility.yul\":8997:9001   */\n              dup2\n                /* \"#utility.yul\":8871:9002   */\n              tag_92\n              jump\t// in\n            tag_180:\n                /* \"#utility.yul\":8863:9002   */\n              swap1\n              pop\n                /* \"#utility.yul\":8590:9009   */\n              swap2\n              swap1\n              pop\n              jump\t// out\n                /* \"#utility.yul\":9015:9412   */\n            tag_56:\n                /* \"#utility.yul\":9155:9158   */\n              0x00\n                /* \"#utility.yul\":9170:9245   */\n              tag_182\n                /* \"#utility.yul\":9241:9244   */\n              dup3\n                /* \"#utility.yul\":9232:9238   */\n              dup6\n                /* \"#utility.yul\":9170:9245   */\n              tag_82\n              jump\t// in\n            tag_182:\n                /* \"#utility.yul\":9270:9272   */\n              0x20\n                /* \"#utility.yul\":9265:9268   */\n              dup3\n                /* \"#utility.yul\":9261:9273   */\n              add\n                /* \"#utility.yul\":9254:9273   */\n              swap2\n              pop\n                /* \"#utility.yul\":9283:9358   */\n              tag_183\n                /* \"#utility.yul\":9354:9357   */\n              dup3\n                /* \"#utility.yul\":9345:9351   */\n              dup5\n                /* \"#utility.yul\":9283:9358   */\n              tag_82\n              jump\t// in\n            tag_183:\n                /* \"#utility.yul\":9383:9385   */\n              0x20\n                /* \"#utility.yul\":9378:9381   */\n              dup3\n                /* \"#utility.yul\":9374:9386   */\n              add\n                /* \"#utility.yul\":9367:9386   */\n              swap2\n              pop\n                /* \"#utility.yul\":9403:9406   */\n              dup2\n                /* \"#utility.yul\":9396:9406   */\n              swap1\n              pop\n                /* \"#utility.yul\":9015:9412   */\n              swap4\n              swap3\n              pop\n              pop\n              pop\n              jump\t// out\n                /* \"#utility.yul\":9418:9495   */\n            tag_93:\n                /* \"#utility.yul\":9455:9462   */\n              0x00\n                /* \"#utility.yul\":9484:9489   */\n              dup2\n                /* \"#utility.yul\":9473:9489   */\n              swap1\n              pop\n                /* \"#utility.yul\":9418:9495   */\n              swap2\n              swap1\n              pop\n              jump\t// out\n                /* \"#utility.yul\":9501:9681   */\n            tag_94:\n                /* \"#utility.yul\":9549:9626   */\n              0x4e487b7100000000000000000000000000000000000000000000000000000000\n                /* \"#utility.yul\":9546:9547   */\n              0x00\n                /* \"#utility.yul\":9539:9627   */\n              mstore\n                /* \"#utility.yul\":9646:9650   */\n              0x12\n                /* \"#utility.yul\":9643:9644   */\n              0x04\n                /* \"#utility.yul\":9636:9651   */\n              mstore\n                /* \"#utility.yul\":9670:9674   */\n              0x24\n                /* \"#utility.yul\":9667:9668   */\n              0x00\n                /* \"#utility.yul\":9660:9675   */\n              revert\n                /* \"#utility.yul\":9687:9863   */\n            tag_58:\n                /* \"#utility.yul\":9719:9720   */\n              0x00\n                /* \"#utility.yul\":9736:9756   */\n              tag_187\n                /* \"#utility.yul\":9754:9755   */\n              dup3\n                /* \"#utility.yul\":9736:9756   */\n              tag_93\n              jump\t// in\n            tag_187:\n                /* \"#utility.yul\":9731:9756   */\n              swap2\n              pop\n                /* \"#utility.yul\":9770:9790   */\n              tag_188\n                /* \"#utility.yul\":9788:9789   */\n              dup4\n                /* \"#utility.yul\":9770:9790   */\n              tag_93\n              jump\t// in\n            tag_188:\n                /* \"#utility.yul\":9765:9790   */\n              swap3\n              pop\n                /* \"#utility.yul\":9809:9810   */\n              dup3\n                /* \"#utility.yul\":9799:9834   */\n              tag_189\n              jumpi\n                /* \"#utility.yul\":9814:9832   */\n              tag_190\n              tag_94\n              jump\t// in\n            tag_190:\n                /* \"#utility.yul\":9799:9834   */\n            tag_189:\n                /* \"#utility.yul\":9855:9856   */\n              dup3\n                /* \"#utility.yul\":9852:9853   */\n              dup3\n                /* \"#utility.yul\":9848:9857   */\n              mod\n                /* \"#utility.yul\":9843:9857   */\n              swap1\n              pop\n                /* \"#utility.yul\":9687:9863   */\n              swap3\n              swap2\n              pop\n              pop\n              jump\t// out\n                /* \"#utility.yul\":9869:9987   */\n            tag_95:\n                /* \"#utility.yul\":9956:9980   */\n              tag_192\n                /* \"#utility.yul\":9974:9979   */\n              dup2\n                /* \"#utility.yul\":9956:9980   */\n              tag_76\n              jump\t// in\n            tag_192:\n                /* \"#utility.yul\":9951:9954   */\n              dup3\n                /* \"#utility.yul\":9944:9981   */\n              mstore\n                /* \"#utility.yul\":9869:9987   */\n              pop\n              pop\n              jump\t// out\n                /* \"#utility.yul\":9993:10111   */\n            tag_96:\n                /* \"#utility.yul\":10080:10104   */\n              tag_194\n                /* \"#utility.yul\":10098:10103   */\n              dup2\n                /* \"#utility.yul\":10080:10104   */\n              tag_93\n              jump\t// in\n            tag_194:\n                /* \"#utility.yul\":10075:10078   */\n              dup3\n                /* \"#utility.yul\":10068:10105   */\n              mstore\n                /* \"#utility.yul\":9993:10111   */\n              pop\n              pop\n              jump\t// out\n                /* \"#utility.yul\":10117:10559   */\n            tag_60:\n                /* \"#utility.yul\":10266:10270   */\n              0x00\n                /* \"#utility.yul\":10304:10306   */\n              0x60\n                /* \"#utility.yul\":10293:10302   */\n              dup3\n                /* \"#utility.yul\":10289:10307   */\n              add\n                /* \"#utility.yul\":10281:10307   */\n              swap1\n              pop\n                /* \"#utility.yul\":10317:10388   */\n              tag_196\n                /* \"#utility.yul\":10385:10386   */\n              0x00\n                /* \"#utility.yul\":10374:10383   */\n              dup4\n                /* \"#utility.yul\":10370:10387   */\n              add\n                /* \"#utility.yul\":10361:10367   */\n              dup7\n                /* \"#utility.yul\":10317:10388   */\n              tag_95\n              jump\t// in\n            tag_196:\n                /* \"#utility.yul\":10398:10470   */\n              tag_197\n                /* \"#utility.yul\":10466:10468   */\n              0x20\n                /* \"#utility.yul\":10455:10464   */\n              dup4\n                /* \"#utility.yul\":10451:10469   */\n              add\n                /* \"#utility.yul\":10442:10448   */\n              dup6\n                /* \"#utility.yul\":10398:10470   */\n              tag_70\n              jump\t// in\n            tag_197:\n                /* \"#utility.yul\":10480:10552   */\n              tag_198\n                /* \"#utility.yul\":10548:10550   */\n              0x40\n                /* \"#utility.yul\":10537:10546   */\n              dup4\n                /* \"#utility.yul\":10533:10551   */\n              add\n                /* \"#utility.yul\":10524:10530   */\n              dup5\n                /* \"#utility.yul\":10480:10552   */\n              tag_96\n              jump\t// in\n            tag_198:\n                /* \"#utility.yul\":10117:10559   */\n              swap5\n              swap4\n              pop\n              pop\n              pop\n              pop\n              jump\t// out\n                /* \"#utility.yul\":10565:11003   */\n            tag_63:\n                /* \"#utility.yul\":10712:10716   */\n              0x00\n                /* \"#utility.yul\":10750:10752   */\n              0x60\n                /* \"#utility.yul\":10739:10748   */\n              dup3\n                /* \"#utility.yul\":10735:10753   */\n              add\n                /* \"#utility.yul\":10727:10753   */\n              swap1\n              pop\n                /* \"#utility.yul\":10763:10834   */\n              tag_200\n                /* \"#utility.yul\":10831:10832   */\n              0x00\n                /* \"#utility.yul\":10820:10829   */\n              dup4\n                /* \"#utility.yul\":10816:10833   */\n              add\n                /* \"#utility.yul\":10807:10813   */\n              dup7\n                /* \"#utility.yul\":10763:10834   */\n              tag_95\n              jump\t// in\n            tag_200:\n                /* \"#utility.yul\":10844:10916   */\n              tag_201\n                /* \"#utility.yul\":10912:10914   */\n              0x20\n                /* \"#utility.yul\":10901:10910   */\n              dup4\n                /* \"#utility.yul\":10897:10915   */\n              add\n                /* \"#utility.yul\":10888:10894   */\n              dup6\n                /* \"#utility.yul\":10844:10916   */\n              tag_70\n              jump\t// in\n            tag_201:\n                /* \"#utility.yul\":10926:10996   */\n              tag_202\n                /* \"#utility.yul\":10992:10994   */\n              0x40\n                /* \"#utility.yul\":10981:10990   */\n              dup4\n                /* \"#utility.yul\":10977:10995   */\n              add\n                /* \"#utility.yul\":10968:10974   */\n              dup5\n                /* \"#utility.yul\":10926:10996   */\n              tag_80\n              jump\t// in\n            tag_202:\n                /* \"#utility.yul\":10565:11003   */\n              swap5\n              swap4\n              pop\n              pop\n              pop\n              pop\n              jump\t// out\n\n            auxdata: 0xa2646970667358221220fdd22c54c033718cc8a7c05d7e199f7c5e11d8f70a7d529af3902eeb1b929b0464736f6c634300081a0033\n        }\n    }\n\n    auxdata: 0xa2646970667358221220a311f81e3b66dce1e1f6d473d530b514fc69fa0c9834be144f2daeef1e35b1ec64736f6c634300081a0033\n}\n\nsub_1: assembly {\n        /* \"TimeUnit.sol\":136:1086  contract TimeUnit { ... */\n      mstore(0x40, 0x80)\n      callvalue\n      dup1\n      iszero\n      tag_1\n      jumpi\n      0x00\n      dup1\n      revert\n    tag_1:\n      pop\n      dataSize(sub_0)\n      dup1\n      dataOffset(sub_0)\n      0x00\n      codecopy\n      0x00\n      return\n    stop\n\n    sub_0: assembly {\n            /* \"TimeUnit.sol\":136:1086  contract TimeUnit { ... */\n          mstore(0x40, 0x80)\n          callvalue\n          dup1\n          iszero\n          tag_1\n          jumpi\n          0x00\n          dup1\n          revert\n        tag_1:\n          pop\n          jumpi(tag_2, lt(calldatasize, 0x04))\n          shr(0xe0, calldataload(0x00))\n          dup1\n          0x78e97925\n          eq\n          tag_3\n          jumpi\n          dup1\n          0xa63f7c53\n          eq\n          tag_4\n          jumpi\n          dup1\n          0xbc06b8cd\n          eq\n          tag_5\n          jumpi\n          dup1\n          0xd97c8416\n          eq\n          tag_6\n          jumpi\n        tag_2:\n          0x00\n          dup1\n          revert\n            /* \"TimeUnit.sol\":307:331  uint256 public startTime */\n        tag_3:\n          tag_7\n          tag_8\n          jump\t// in\n        tag_7:\n          mload(0x40)\n          tag_9\n          swap2\n          swap1\n          tag_10\n          jump\t// in\n        tag_9:\n          mload(0x40)\n          dup1\n          swap2\n          sub\n          swap1\n          return\n            /* \"TimeUnit.sol\":379:452  function setStartTime() public { ... */\n        tag_4:\n          tag_11\n          tag_12\n          jump\t// in\n        tag_11:\n          stop\n            /* \"TimeUnit.sol\":576:683  function elapsedSeconds() public view returns (uint256) { ... */\n        tag_5:\n          tag_13\n          tag_14\n          jump\t// in\n        tag_13:\n          mload(0x40)\n          tag_15\n          swap2\n          swap1\n          tag_10\n          jump\t// in\n        tag_15:\n          mload(0x40)\n          dup1\n          swap2\n          sub\n          swap1\n          return\n            /* \"TimeUnit.sol\":799:1082  function elapsedMinutes() public view returns (uint256) { ... */\n        tag_6:\n          tag_16\n          tag_17\n          jump\t// in\n        tag_16:\n          mload(0x40)\n          tag_18\n          swap2\n          swap1\n          tag_10\n          jump\t// in\n        tag_18:\n          mload(0x40)\n          dup1\n          swap2\n          sub\n          swap1\n          return\n            /* \"TimeUnit.sol\":307:331  uint256 public startTime */\n        tag_8:\n          sload(0x00)\n          dup2\n          jump\t// out\n            /* \"TimeUnit.sol\":379:452  function setStartTime() public { ... */\n        tag_12:\n            /* \"TimeUnit.sol\":430:445  block.timestamp */\n          timestamp\n            /* \"TimeUnit.sol\":418:427  startTime */\n          0x00\n            /* \"TimeUnit.sol\":418:445  startTime = block.timestamp */\n          dup2\n          swap1\n          sstore\n          pop\n            /* \"TimeUnit.sol\":379:452  function setStartTime() public { ... */\n          jump\t// out\n            /* \"TimeUnit.sol\":576:683  function elapsedSeconds() public view returns (uint256) { ... */\n        tag_14:\n            /* \"TimeUnit.sol\":623:630  uint256 */\n          0x00\n            /* \"TimeUnit.sol\":666:675  startTime */\n          dup1\n          sload\n            /* \"TimeUnit.sol\":648:663  block.timestamp */\n          timestamp\n            /* \"TimeUnit.sol\":648:675  block.timestamp - startTime */\n          tag_21\n          swap2\n          swap1\n          tag_22\n          jump\t// in\n        tag_21:\n            /* \"TimeUnit.sol\":640:676  return (block.timestamp - startTime) */\n          swap1\n          pop\n            /* \"TimeUnit.sol\":576:683  function elapsedSeconds() public view returns (uint256) { ... */\n          swap1\n          jump\t// out\n            /* \"TimeUnit.sol\":799:1082  function elapsedMinutes() public view returns (uint256) { ... */\n        tag_17:\n            /* \"TimeUnit.sol\":846:853  uint256 */\n          0x00\n            /* \"TimeUnit.sol\":1066:1075  1 minutes */\n          0x3c\n            /* \"TimeUnit.sol\":1053:1062  startTime */\n          sload(0x00)\n            /* \"TimeUnit.sol\":1035:1050  block.timestamp */\n          timestamp\n            /* \"TimeUnit.sol\":1035:1062  block.timestamp - startTime */\n          tag_24\n          swap2\n          swap1\n          tag_22\n          jump\t// in\n        tag_24:\n            /* \"TimeUnit.sol\":1034:1075  (block.timestamp - startTime) / 1 minutes */\n          tag_25\n          swap2\n          swap1\n          tag_26\n          jump\t// in\n        tag_25:\n            /* \"TimeUnit.sol\":1027:1075  return (block.timestamp - startTime) / 1 minutes */\n          swap1\n          pop\n            /* \"TimeUnit.sol\":799:1082  function elapsedMinutes() public view returns (uint256) { ... */\n          swap1\n          jump\t// out\n            /* \"#utility.yul\":7:84   */\n        tag_27:\n            /* \"#utility.yul\":44:51   */\n          0x00\n            /* \"#utility.yul\":73:78   */\n          dup2\n            /* \"#utility.yul\":62:78   */\n          swap1\n          pop\n            /* \"#utility.yul\":7:84   */\n          swap2\n          swap1\n          pop\n          jump\t// out\n            /* \"#utility.yul\":90:208   */\n        tag_28:\n            /* \"#utility.yul\":177:201   */\n          tag_34\n            /* \"#utility.yul\":195:200   */\n          dup2\n            /* \"#utility.yul\":177:201   */\n          tag_27\n          jump\t// in\n        tag_34:\n            /* \"#utility.yul\":172:175   */\n          dup3\n            /* \"#utility.yul\":165:202   */\n          mstore\n            /* \"#utility.yul\":90:208   */\n          pop\n          pop\n          jump\t// out\n            /* \"#utility.yul\":214:436   */\n        tag_10:\n            /* \"#utility.yul\":307:311   */\n          0x00\n            /* \"#utility.yul\":345:347   */\n          0x20\n            /* \"#utility.yul\":334:343   */\n          dup3\n            /* \"#utility.yul\":330:348   */\n          add\n            /* \"#utility.yul\":322:348   */\n          swap1\n          pop\n            /* \"#utility.yul\":358:429   */\n          tag_36\n            /* \"#utility.yul\":426:427   */\n          0x00\n            /* \"#utility.yul\":415:424   */\n          dup4\n            /* \"#utility.yul\":411:428   */\n          add\n            /* \"#utility.yul\":402:408   */\n          dup5\n            /* \"#utility.yul\":358:429   */\n          tag_28\n          jump\t// in\n        tag_36:\n            /* \"#utility.yul\":214:436   */\n          swap3\n          swap2\n          pop\n          pop\n          jump\t// out\n            /* \"#utility.yul\":442:622   */\n        tag_29:\n            /* \"#utility.yul\":490:567   */\n          0x4e487b7100000000000000000000000000000000000000000000000000000000\n            /* \"#utility.yul\":487:488   */\n          0x00\n            /* \"#utility.yul\":480:568   */\n          mstore\n            /* \"#utility.yul\":587:591   */\n          0x11\n            /* \"#utility.yul\":584:585   */\n          0x04\n            /* \"#utility.yul\":577:592   */\n          mstore\n            /* \"#utility.yul\":611:615   */\n          0x24\n            /* \"#utility.yul\":608:609   */\n          0x00\n            /* \"#utility.yul\":601:616   */\n          revert\n            /* \"#utility.yul\":628:822   */\n        tag_22:\n            /* \"#utility.yul\":668:672   */\n          0x00\n            /* \"#utility.yul\":688:708   */\n          tag_39\n            /* \"#utility.yul\":706:707   */\n          dup3\n            /* \"#utility.yul\":688:708   */\n          tag_27\n          jump\t// in\n        tag_39:\n            /* \"#utility.yul\":683:708   */\n          swap2\n          pop\n            /* \"#utility.yul\":722:742   */\n          tag_40\n            /* \"#utility.yul\":740:741   */\n          dup4\n            /* \"#utility.yul\":722:742   */\n          tag_27\n          jump\t// in\n        tag_40:\n            /* \"#utility.yul\":717:742   */\n          swap3\n          pop\n            /* \"#utility.yul\":766:767   */\n          dup3\n            /* \"#utility.yul\":763:764   */\n          dup3\n            /* \"#utility.yul\":759:768   */\n          sub\n            /* \"#utility.yul\":751:768   */\n          swap1\n          pop\n            /* \"#utility.yul\":790:791   */\n          dup2\n            /* \"#utility.yul\":784:788   */\n          dup2\n            /* \"#utility.yul\":781:792   */\n          gt\n            /* \"#utility.yul\":778:815   */\n          iszero\n          tag_41\n          jumpi\n            /* \"#utility.yul\":795:813   */\n          tag_42\n          tag_29\n          jump\t// in\n        tag_42:\n            /* \"#utility.yul\":778:815   */\n        tag_41:\n            /* \"#utility.yul\":628:822   */\n          swap3\n          swap2\n          pop\n          pop\n          jump\t// out\n            /* \"#utility.yul\":828:1008   */\n        tag_30:\n            /* \"#utility.yul\":876:953   */\n          0x4e487b7100000000000000000000000000000000000000000000000000000000\n            /* \"#utility.yul\":873:874   */\n          0x00\n            /* \"#utility.yul\":866:954   */\n          mstore\n            /* \"#utility.yul\":973:977   */\n          0x12\n            /* \"#utility.yul\":970:971   */\n          0x04\n            /* \"#utility.yul\":963:978   */\n          mstore\n            /* \"#utility.yul\":997:1001   */\n          0x24\n            /* \"#utility.yul\":994:995   */\n          0x00\n            /* \"#utility.yul\":987:1002   */\n          revert\n            /* \"#utility.yul\":1014:1199   */\n        tag_26:\n            /* \"#utility.yul\":1054:1055   */\n          0x00\n            /* \"#utility.yul\":1071:1091   */\n          tag_45\n            /* \"#utility.yul\":1089:1090   */\n          dup3\n            /* \"#utility.yul\":1071:1091   */\n          tag_27\n          jump\t// in\n        tag_45:\n            /* \"#utility.yul\":1066:1091   */\n          swap2\n          pop\n            /* \"#utility.yul\":1105:1125   */\n          tag_46\n            /* \"#utility.yul\":1123:1124   */\n          dup4\n            /* \"#utility.yul\":1105:1125   */\n          tag_27\n          jump\t// in\n        tag_46:\n            /* \"#utility.yul\":1100:1125   */\n          swap3\n          pop\n            /* \"#utility.yul\":1144:1145   */\n          dup3\n            /* \"#utility.yul\":1134:1169   */\n          tag_47\n          jumpi\n            /* \"#utility.yul\":1149:1167   */\n          tag_48\n          tag_30\n          jump\t// in\n        tag_48:\n            /* \"#utility.yul\":1134:1169   */\n        tag_47:\n            /* \"#utility.yul\":1191:1192   */\n          dup3\n            /* \"#utility.yul\":1188:1189   */\n          dup3\n            /* \"#utility.yul\":1184:1193   */\n          div\n            /* \"#utility.yul\":1179:1193   */\n          swap1\n          pop\n            /* \"#utility.yul\":1014:1199   */\n          swap3\n          swap2\n          pop\n          pop\n          jump\t// out\n\n        auxdata: 0xa2646970667358221220536b7940d5371faaf75b89b185b412b3b063b6163f59953ace730f47887b6dae64736f6c634300081a0033\n    }\n}\n\nsub_2: assembly {\n        /* \"CommitReveal.sol\":78:2080  contract CommitReveal {... */\n      mstore(0x40, 0x80)\n        /* \"CommitReveal.sol\":126:129  100 */\n      0x64\n        /* \"CommitReveal.sol\":107:129  uint8 public max = 100 */\n      0x00\n      dup1\n      0x0100\n      exp\n      dup2\n      sload\n      dup2\n      0xff\n      mul\n      not\n      and\n      swap1\n      dup4\n      0xff\n      and\n      mul\n      or\n      swap1\n      sstore\n      pop\n        /* \"CommitReveal.sol\":78:2080  contract CommitReveal {... */\n      callvalue\n      dup1\n      iszero\n      tag_1\n      jumpi\n      0x00\n      dup1\n      revert\n    tag_1:\n      pop\n      dataSize(sub_0)\n      dup1\n      dataOffset(sub_0)\n      0x00\n      codecopy\n      0x00\n      return\n    stop\n\n    sub_0: assembly {\n            /* \"CommitReveal.sol\":78:2080  contract CommitReveal {... */\n          mstore(0x40, 0x80)\n          callvalue\n          dup1\n          iszero\n          tag_1\n          jumpi\n          0x00\n          dup1\n          revert\n        tag_1:\n          pop\n          jumpi(tag_2, lt(calldatasize, 0x04))\n          shr(0xe0, calldataload(0x00))\n          dup1\n          0x3cf5040a\n          eq\n          tag_3\n          jumpi\n          dup1\n          0x54214f69\n          eq\n          tag_4\n          jumpi\n          dup1\n          0x6ac5db19\n          eq\n          tag_5\n          jumpi\n          dup1\n          0x701fd0f1\n          eq\n          tag_6\n          jumpi\n          dup1\n          0x7b43a8e6\n          eq\n          tag_7\n          jumpi\n          dup1\n          0xf14fcbc8\n          eq\n          tag_8\n          jumpi\n        tag_2:\n          0x00\n          dup1\n          revert\n            /* \"CommitReveal.sol\":1862:1974  function getHash(bytes32 data) public pure returns(bytes32){... */\n        tag_3:\n          tag_9\n          0x04\n          dup1\n          calldatasize\n          sub\n          dup2\n          add\n          swap1\n          tag_10\n          swap2\n          swap1\n          tag_11\n          jump\t// in\n        tag_10:\n          tag_12\n          jump\t// in\n        tag_9:\n          mload(0x40)\n          tag_13\n          swap2\n          swap1\n          tag_14\n          jump\t// in\n        tag_13:\n          mload(0x40)\n          dup1\n          swap2\n          sub\n          swap1\n          return\n            /* \"CommitReveal.sol\":1980:2077  function isRevealed() public view returns (bool) {... */\n        tag_4:\n          tag_15\n          tag_16\n          jump\t// in\n        tag_15:\n          mload(0x40)\n          tag_17\n          swap2\n          swap1\n          tag_18\n          jump\t// in\n        tag_17:\n          mload(0x40)\n          dup1\n          swap2\n          sub\n          swap1\n          return\n            /* \"CommitReveal.sol\":107:129  uint8 public max = 100 */\n        tag_5:\n          tag_19\n          tag_20\n          jump\t// in\n        tag_19:\n          mload(0x40)\n          tag_21\n          swap2\n          swap1\n          tag_22\n          jump\t// in\n        tag_21:\n          mload(0x40)\n          dup1\n          swap2\n          sub\n          swap1\n          return\n            /* \"CommitReveal.sol\":622:1786  function reveal(bytes32 revealHash) public {... */\n        tag_6:\n          tag_23\n          0x04\n          dup1\n          calldatasize\n          sub\n          dup2\n          add\n          swap1\n          tag_24\n          swap2\n          swap1\n          tag_11\n          jump\t// in\n        tag_24:\n          tag_25\n          jump\t// in\n        tag_23:\n          stop\n            /* \"CommitReveal.sol\":222:264  mapping (address => Commit) public commits */\n        tag_7:\n          tag_26\n          0x04\n          dup1\n          calldatasize\n          sub\n          dup2\n          add\n          swap1\n          tag_27\n          swap2\n          swap1\n          tag_28\n          jump\t// in\n        tag_27:\n          tag_29\n          jump\t// in\n        tag_26:\n          mload(0x40)\n          tag_30\n          swap4\n          swap3\n          swap2\n          swap1\n          tag_31\n          jump\t// in\n        tag_30:\n          mload(0x40)\n          dup1\n          swap2\n          sub\n          swap1\n          return\n            /* \"CommitReveal.sol\":271:547  function commit(bytes32 dataHash) public {... */\n        tag_8:\n          tag_32\n          0x04\n          dup1\n          calldatasize\n          sub\n          dup2\n          add\n          swap1\n          tag_33\n          swap2\n          swap1\n          tag_11\n          jump\t// in\n        tag_33:\n          tag_34\n          jump\t// in\n        tag_32:\n          stop\n            /* \"CommitReveal.sol\":1862:1974  function getHash(bytes32 data) public pure returns(bytes32){... */\n        tag_12:\n            /* \"CommitReveal.sol\":1913:1920  bytes32 */\n          0x00\n            /* \"CommitReveal.sol\":1962:1966  data */\n          dup2\n            /* \"CommitReveal.sol\":1945:1967  abi.encodePacked(data) */\n          add(0x20, mload(0x40))\n          tag_36\n          swap2\n          swap1\n          tag_37\n          jump\t// in\n        tag_36:\n          mload(0x40)\n          0x20\n          dup2\n          dup4\n          sub\n          sub\n          dup2\n          mstore\n          swap1\n          0x40\n          mstore\n            /* \"CommitReveal.sol\":1935:1968  keccak256(abi.encodePacked(data)) */\n          dup1\n          mload\n          swap1\n          0x20\n          add\n          keccak256\n            /* \"CommitReveal.sol\":1928:1968  return keccak256(abi.encodePacked(data)) */\n          swap1\n          pop\n            /* \"CommitReveal.sol\":1862:1974  function getHash(bytes32 data) public pure returns(bytes32){... */\n          swap2\n          swap1\n          pop\n          jump\t// out\n            /* \"CommitReveal.sol\":1980:2077  function isRevealed() public view returns (bool) {... */\n        tag_16:\n            /* \"CommitReveal.sol\":2023:2027  bool */\n          0x00\n            /* \"CommitReveal.sol\":2043:2050  commits */\n          0x01\n            /* \"CommitReveal.sol\":2043:2062  commits[msg.sender] */\n          0x00\n            /* \"CommitReveal.sol\":2051:2061  msg.sender */\n          caller\n            /* \"CommitReveal.sol\":2043:2062  commits[msg.sender] */\n          0xffffffffffffffffffffffffffffffffffffffff\n          and\n          0xffffffffffffffffffffffffffffffffffffffff\n          and\n          dup2\n          mstore\n          0x20\n          add\n          swap1\n          dup2\n          mstore\n          0x20\n          add\n          0x00\n          keccak256\n            /* \"CommitReveal.sol\":2043:2071  commits[msg.sender].revealed */\n          0x01\n          add\n          0x08\n          swap1\n          sload\n          swap1\n          0x0100\n          exp\n          swap1\n          div\n          0xff\n          and\n            /* \"CommitReveal.sol\":2036:2071  return commits[msg.sender].revealed */\n          swap1\n          pop\n            /* \"CommitReveal.sol\":1980:2077  function isRevealed() public view returns (bool) {... */\n          swap1\n          jump\t// out\n            /* \"CommitReveal.sol\":107:129  uint8 public max = 100 */\n        tag_20:\n          0x00\n          dup1\n          sload\n          swap1\n          0x0100\n          exp\n          swap1\n          div\n          0xff\n          and\n          dup2\n          jump\t// out\n            /* \"CommitReveal.sol\":622:1786  function reveal(bytes32 revealHash) public {... */\n        tag_25:\n            /* \"CommitReveal.sol\":778:783  false */\n          0x00\n            /* \"CommitReveal.sol\":748:783  commits[msg.sender].revealed==false */\n          iszero\n          iszero\n            /* \"CommitReveal.sol\":748:755  commits */\n          0x01\n            /* \"CommitReveal.sol\":748:767  commits[msg.sender] */\n          0x00\n            /* \"CommitReveal.sol\":756:766  msg.sender */\n          caller\n            /* \"CommitReveal.sol\":748:767  commits[msg.sender] */\n          0xffffffffffffffffffffffffffffffffffffffff\n          and\n          0xffffffffffffffffffffffffffffffffffffffff\n          and\n          dup2\n          mstore\n          0x20\n          add\n          swap1\n          dup2\n          mstore\n          0x20\n          add\n          0x00\n          keccak256\n            /* \"CommitReveal.sol\":748:776  commits[msg.sender].revealed */\n          0x01\n          add\n          0x08\n          swap1\n          sload\n          swap1\n          0x0100\n          exp\n          swap1\n          div\n          0xff\n          and\n            /* \"CommitReveal.sol\":748:783  commits[msg.sender].revealed==false */\n          iszero\n          iszero\n          eq\n            /* \"CommitReveal.sol\":740:825  require(commits[msg.sender].revealed==false,\"CommitReveal::reveal: Already revealed\") */\n          tag_40\n          jumpi\n          mload(0x40)\n          0x08c379a000000000000000000000000000000000000000000000000000000000\n          dup2\n          mstore\n          0x04\n          add\n          tag_41\n          swap1\n          tag_42\n          jump\t// in\n        tag_41:\n          mload(0x40)\n          dup1\n          swap2\n          sub\n          swap1\n          revert\n        tag_40:\n            /* \"CommitReveal.sol\":861:865  true */\n          0x01\n            /* \"CommitReveal.sol\":832:839  commits */\n          dup1\n            /* \"CommitReveal.sol\":832:851  commits[msg.sender] */\n          0x00\n            /* \"CommitReveal.sol\":840:850  msg.sender */\n          caller\n            /* \"CommitReveal.sol\":832:851  commits[msg.sender] */\n          0xffffffffffffffffffffffffffffffffffffffff\n          and\n          0xffffffffffffffffffffffffffffffffffffffff\n          and\n          dup2\n          mstore\n          0x20\n          add\n          swap1\n          dup2\n          mstore\n          0x20\n          add\n          0x00\n          keccak256\n            /* \"CommitReveal.sol\":832:860  commits[msg.sender].revealed */\n          0x01\n          add\n          0x08\n            /* \"CommitReveal.sol\":832:865  commits[msg.sender].revealed=true */\n          0x0100\n          exp\n          dup2\n          sload\n          dup2\n          0xff\n          mul\n          not\n          and\n          swap1\n          dup4\n          iszero\n          iszero\n          mul\n          or\n          swap1\n          sstore\n          pop\n            /* \"CommitReveal.sol\":957:964  commits */\n          0x01\n            /* \"CommitReveal.sol\":957:976  commits[msg.sender] */\n          0x00\n            /* \"CommitReveal.sol\":965:975  msg.sender */\n          caller\n            /* \"CommitReveal.sol\":957:976  commits[msg.sender] */\n          0xffffffffffffffffffffffffffffffffffffffff\n          and\n          0xffffffffffffffffffffffffffffffffffffffff\n          and\n          dup2\n          mstore\n          0x20\n          add\n          swap1\n          dup2\n          mstore\n          0x20\n          add\n          0x00\n          keccak256\n            /* \"CommitReveal.sol\":957:983  commits[msg.sender].commit */\n          0x00\n          add\n          sload\n            /* \"CommitReveal.sol\":936:955  getHash(revealHash) */\n          tag_43\n            /* \"CommitReveal.sol\":944:954  revealHash */\n          dup3\n            /* \"CommitReveal.sol\":936:943  getHash */\n          tag_12\n            /* \"CommitReveal.sol\":936:955  getHash(revealHash) */\n          jump\t// in\n        tag_43:\n            /* \"CommitReveal.sol\":936:983  getHash(revealHash)==commits[msg.sender].commit */\n          eq\n            /* \"CommitReveal.sol\":928:1044  require(getHash(revealHash)==commits[msg.sender].commit,\"CommitReveal::reveal: Revealed hash does not match commit\") */\n          tag_44\n          jumpi\n          mload(0x40)\n          0x08c379a000000000000000000000000000000000000000000000000000000000\n          dup2\n          mstore\n          0x04\n          add\n          tag_45\n          swap1\n          tag_46\n          jump\t// in\n        tag_45:\n          mload(0x40)\n          dup1\n          swap2\n          sub\n          swap1\n          revert\n        tag_44:\n            /* \"CommitReveal.sol\":1152:1159  commits */\n          0x01\n            /* \"CommitReveal.sol\":1152:1171  commits[msg.sender] */\n          0x00\n            /* \"CommitReveal.sol\":1160:1170  msg.sender */\n          caller\n            /* \"CommitReveal.sol\":1152:1171  commits[msg.sender] */\n          0xffffffffffffffffffffffffffffffffffffffff\n          and\n          0xffffffffffffffffffffffffffffffffffffffff\n          and\n          dup2\n          mstore\n          0x20\n          add\n          swap1\n          dup2\n          mstore\n          0x20\n          add\n          0x00\n          keccak256\n            /* \"CommitReveal.sol\":1152:1177  commits[msg.sender].block */\n          0x01\n          add\n          0x00\n          swap1\n          sload\n          swap1\n          0x0100\n          exp\n          swap1\n          div\n          0xffffffffffffffff\n          and\n            /* \"CommitReveal.sol\":1131:1177  uint64(block.number)>commits[msg.sender].block */\n          0xffffffffffffffff\n          and\n            /* \"CommitReveal.sol\":1138:1150  block.number */\n          number\n            /* \"CommitReveal.sol\":1131:1177  uint64(block.number)>commits[msg.sender].block */\n          0xffffffffffffffff\n          and\n          gt\n            /* \"CommitReveal.sol\":1123:1247  require(uint64(block.number)>commits[msg.sender].block,\"CommitReveal::reveal: Reveal and commit happened on the same block\") */\n          tag_47\n          jumpi\n          mload(0x40)\n          0x08c379a000000000000000000000000000000000000000000000000000000000\n          dup2\n          mstore\n          0x04\n          add\n          tag_48\n          swap1\n          tag_49\n          jump\t// in\n        tag_48:\n          mload(0x40)\n          dup1\n          swap2\n          sub\n          swap1\n          revert\n        tag_47:\n            /* \"CommitReveal.sol\":1366:1369  250 */\n          0xfa\n            /* \"CommitReveal.sol\":1340:1347  commits */\n          0x01\n            /* \"CommitReveal.sol\":1340:1359  commits[msg.sender] */\n          0x00\n            /* \"CommitReveal.sol\":1348:1358  msg.sender */\n          caller\n            /* \"CommitReveal.sol\":1340:1359  commits[msg.sender] */\n          0xffffffffffffffffffffffffffffffffffffffff\n          and\n          0xffffffffffffffffffffffffffffffffffffffff\n          and\n          dup2\n          mstore\n          0x20\n          add\n          swap1\n          dup2\n          mstore\n          0x20\n          add\n          0x00\n          keccak256\n            /* \"CommitReveal.sol\":1340:1365  commits[msg.sender].block */\n          0x01\n          add\n          0x00\n          swap1\n          sload\n          swap1\n          0x0100\n          exp\n          swap1\n          div\n          0xffffffffffffffff\n          and\n            /* \"CommitReveal.sol\":1340:1369  commits[msg.sender].block+250 */\n          tag_50\n          swap2\n          swap1\n          tag_51\n          jump\t// in\n        tag_50:\n            /* \"CommitReveal.sol\":1318:1369  uint64(block.number)<=commits[msg.sender].block+250 */\n          0xffffffffffffffff\n          and\n            /* \"CommitReveal.sol\":1325:1337  block.number */\n          number\n            /* \"CommitReveal.sol\":1318:1369  uint64(block.number)<=commits[msg.sender].block+250 */\n          0xffffffffffffffff\n          and\n          gt\n          iszero\n            /* \"CommitReveal.sol\":1310:1412  require(uint64(block.number)<=commits[msg.sender].block+250,\"CommitReveal::reveal: Revealed too late\") */\n          tag_52\n          jumpi\n          mload(0x40)\n          0x08c379a000000000000000000000000000000000000000000000000000000000\n          dup2\n          mstore\n          0x04\n          add\n          tag_53\n          swap1\n          tag_54\n          jump\t// in\n        tag_53:\n          mload(0x40)\n          dup1\n          swap2\n          sub\n          swap1\n          revert\n        tag_52:\n            /* \"CommitReveal.sol\":1487:1504  bytes32 blockHash */\n          0x00\n            /* \"CommitReveal.sol\":1517:1524  commits */\n          0x01\n            /* \"CommitReveal.sol\":1517:1536  commits[msg.sender] */\n          0x00\n            /* \"CommitReveal.sol\":1525:1535  msg.sender */\n          caller\n            /* \"CommitReveal.sol\":1517:1536  commits[msg.sender] */\n          0xffffffffffffffffffffffffffffffffffffffff\n          and\n          0xffffffffffffffffffffffffffffffffffffffff\n          and\n          dup2\n          mstore\n          0x20\n          add\n          swap1\n          dup2\n          mstore\n          0x20\n          add\n          0x00\n          keccak256\n            /* \"CommitReveal.sol\":1517:1542  commits[msg.sender].block */\n          0x01\n          add\n          0x00\n          swap1\n          sload\n          swap1\n          0x0100\n          exp\n          swap1\n          div\n          0xffffffffffffffff\n          and\n            /* \"CommitReveal.sol\":1507:1543  blockhash(commits[msg.sender].block) */\n          0xffffffffffffffff\n          and\n          blockhash\n            /* \"CommitReveal.sol\":1487:1543  bytes32 blockHash = blockhash(commits[msg.sender].block) */\n          swap1\n          pop\n            /* \"CommitReveal.sol\":1655:1666  uint random */\n          0x00\n            /* \"CommitReveal.sol\":1725:1728  max */\n          dup1\n          0x00\n          swap1\n          sload\n          swap1\n          0x0100\n          exp\n          swap1\n          div\n          0xff\n          and\n            /* \"CommitReveal.sol\":1669:1728  uint(keccak256(abi.encodePacked(blockHash,revealHash)))%max */\n          0xff\n          and\n            /* \"CommitReveal.sol\":1701:1710  blockHash */\n          dup3\n            /* \"CommitReveal.sol\":1711:1721  revealHash */\n          dup5\n            /* \"CommitReveal.sol\":1684:1722  abi.encodePacked(blockHash,revealHash) */\n          add(0x20, mload(0x40))\n          tag_55\n          swap3\n          swap2\n          swap1\n          tag_56\n          jump\t// in\n        tag_55:\n          mload(0x40)\n          0x20\n          dup2\n          dup4\n          sub\n          sub\n          dup2\n          mstore\n          swap1\n          0x40\n          mstore\n            /* \"CommitReveal.sol\":1674:1723  keccak256(abi.encodePacked(blockHash,revealHash)) */\n          dup1\n          mload\n          swap1\n          0x20\n          add\n          keccak256\n            /* \"CommitReveal.sol\":1669:1724  uint(keccak256(abi.encodePacked(blockHash,revealHash))) */\n          0x00\n          shr\n            /* \"CommitReveal.sol\":1669:1728  uint(keccak256(abi.encodePacked(blockHash,revealHash)))%max */\n          tag_57\n          swap2\n          swap1\n          tag_58\n          jump\t// in\n        tag_57:\n            /* \"CommitReveal.sol\":1655:1728  uint random = uint(keccak256(abi.encodePacked(blockHash,revealHash)))%max */\n          swap1\n          pop\n            /* \"CommitReveal.sol\":1740:1780  RevealHash(msg.sender,revealHash,random) */\n          0xbc016dd1cadeaefcb851af7a0a93532e0023d536894b730801f7bcfe7065bcc2\n            /* \"CommitReveal.sol\":1751:1761  msg.sender */\n          caller\n            /* \"CommitReveal.sol\":1762:1772  revealHash */\n          dup5\n            /* \"CommitReveal.sol\":1773:1779  random */\n          dup4\n            /* \"CommitReveal.sol\":1740:1780  RevealHash(msg.sender,revealHash,random) */\n          mload(0x40)\n          tag_59\n          swap4\n          swap3\n          swap2\n          swap1\n          tag_60\n          jump\t// in\n        tag_59:\n          mload(0x40)\n          dup1\n          swap2\n          sub\n          swap1\n          log1\n            /* \"CommitReveal.sol\":665:1786  {... */\n          pop\n          pop\n            /* \"CommitReveal.sol\":622:1786  function reveal(bytes32 revealHash) public {... */\n          pop\n          jump\t// out\n            /* \"CommitReveal.sol\":222:264  mapping (address => Commit) public commits */\n        tag_29:\n          mstore(0x20, 0x01)\n          dup1\n          0x00\n          mstore\n          keccak256(0x00, 0x40)\n          0x00\n          swap2\n          pop\n          swap1\n          pop\n          dup1\n          0x00\n          add\n          sload\n          swap1\n          dup1\n          0x01\n          add\n          0x00\n          swap1\n          sload\n          swap1\n          0x0100\n          exp\n          swap1\n          div\n          0xffffffffffffffff\n          and\n          swap1\n          dup1\n          0x01\n          add\n          0x08\n          swap1\n          sload\n          swap1\n          0x0100\n          exp\n          swap1\n          div\n          0xff\n          and\n          swap1\n          pop\n          dup4\n          jump\t// out\n            /* \"CommitReveal.sol\":271:547  function commit(bytes32 dataHash) public {... */\n        tag_34:\n            /* \"CommitReveal.sol\":348:356  dataHash */\n          dup1\n            /* \"CommitReveal.sol\":319:326  commits */\n          0x01\n            /* \"CommitReveal.sol\":319:338  commits[msg.sender] */\n          0x00\n            /* \"CommitReveal.sol\":327:337  msg.sender */\n          caller\n            /* \"CommitReveal.sol\":319:338  commits[msg.sender] */\n          0xffffffffffffffffffffffffffffffffffffffff\n          and\n          0xffffffffffffffffffffffffffffffffffffffff\n          and\n          dup2\n          mstore\n          0x20\n          add\n          swap1\n          dup2\n          mstore\n          0x20\n          add\n          0x00\n          keccak256\n            /* \"CommitReveal.sol\":319:345  commits[msg.sender].commit */\n          0x00\n          add\n            /* \"CommitReveal.sol\":319:356  commits[msg.sender].commit = dataHash */\n          dup2\n          swap1\n          sstore\n          pop\n            /* \"CommitReveal.sol\":398:410  block.number */\n          number\n            /* \"CommitReveal.sol\":363:370  commits */\n          0x01\n            /* \"CommitReveal.sol\":363:382  commits[msg.sender] */\n          0x00\n            /* \"CommitReveal.sol\":371:381  msg.sender */\n          caller\n            /* \"CommitReveal.sol\":363:382  commits[msg.sender] */\n          0xffffffffffffffffffffffffffffffffffffffff\n          and\n          0xffffffffffffffffffffffffffffffffffffffff\n          and\n          dup2\n          mstore\n          0x20\n          add\n          swap1\n          dup2\n          mstore\n          0x20\n          add\n          0x00\n          keccak256\n            /* \"CommitReveal.sol\":363:388  commits[msg.sender].block */\n          0x01\n          add\n          0x00\n            /* \"CommitReveal.sol\":363:411  commits[msg.sender].block = uint64(block.number) */\n          0x0100\n          exp\n          dup2\n          sload\n          dup2\n          0xffffffffffffffff\n          mul\n          not\n          and\n          swap1\n          dup4\n          0xffffffffffffffff\n          and\n          mul\n          or\n          swap1\n          sstore\n          pop\n            /* \"CommitReveal.sol\":449:454  false */\n          0x00\n            /* \"CommitReveal.sol\":418:425  commits */\n          0x01\n            /* \"CommitReveal.sol\":418:437  commits[msg.sender] */\n          0x00\n            /* \"CommitReveal.sol\":426:436  msg.sender */\n          caller\n            /* \"CommitReveal.sol\":418:437  commits[msg.sender] */\n          0xffffffffffffffffffffffffffffffffffffffff\n          and\n          0xffffffffffffffffffffffffffffffffffffffff\n          and\n          dup2\n          mstore\n          0x20\n          add\n          swap1\n          dup2\n          mstore\n          0x20\n          add\n          0x00\n          keccak256\n            /* \"CommitReveal.sol\":418:446  commits[msg.sender].revealed */\n          0x01\n          add\n          0x08\n            /* \"CommitReveal.sol\":418:454  commits[msg.sender].revealed = false */\n          0x0100\n          exp\n          dup2\n          sload\n          dup2\n          0xff\n          mul\n          not\n          and\n          swap1\n          dup4\n          iszero\n          iszero\n          mul\n          or\n          swap1\n          sstore\n          pop\n            /* \"CommitReveal.sol\":466:541  CommitHash(msg.sender,commits[msg.sender].commit,commits[msg.sender].block) */\n          0x3c1a1f8f38335b17f751c6da4ba7d1865f26b3997535176f5080de9fad891603\n            /* \"CommitReveal.sol\":477:487  msg.sender */\n          caller\n            /* \"CommitReveal.sol\":488:495  commits */\n          0x01\n            /* \"CommitReveal.sol\":488:507  commits[msg.sender] */\n          0x00\n            /* \"CommitReveal.sol\":496:506  msg.sender */\n          caller\n            /* \"CommitReveal.sol\":488:507  commits[msg.sender] */\n          0xffffffffffffffffffffffffffffffffffffffff\n          and\n          0xffffffffffffffffffffffffffffffffffffffff\n          and\n          dup2\n          mstore\n          0x20\n          add\n          swap1\n          dup2\n          mstore\n          0x20\n          add\n          0x00\n          keccak256\n            /* \"CommitReveal.sol\":488:514  commits[msg.sender].commit */\n          0x00\n          add\n          sload\n            /* \"CommitReveal.sol\":515:522  commits */\n          0x01\n            /* \"CommitReveal.sol\":515:534  commits[msg.sender] */\n          0x00\n            /* \"CommitReveal.sol\":523:533  msg.sender */\n          caller\n            /* \"CommitReveal.sol\":515:534  commits[msg.sender] */\n          0xffffffffffffffffffffffffffffffffffffffff\n          and\n          0xffffffffffffffffffffffffffffffffffffffff\n          and\n          dup2\n          mstore\n          0x20\n          add\n          swap1\n          dup2\n          mstore\n          0x20\n          add\n          0x00\n          keccak256\n            /* \"CommitReveal.sol\":515:540  commits[msg.sender].block */\n          0x01\n          add\n          0x00\n          swap1\n          sload\n          swap1\n          0x0100\n          exp\n          swap1\n          div\n          0xffffffffffffffff\n          and\n            /* \"CommitReveal.sol\":466:541  CommitHash(msg.sender,commits[msg.sender].commit,commits[msg.sender].block) */\n          mload(0x40)\n          tag_62\n          swap4\n          swap3\n          swap2\n          swap1\n          tag_63\n          jump\t// in\n        tag_62:\n          mload(0x40)\n          dup1\n          swap2\n          sub\n          swap1\n          log1\n            /* \"CommitReveal.sol\":271:547  function commit(bytes32 dataHash) public {... */\n          pop\n          jump\t// out\n            /* \"#utility.yul\":88:205   */\n        tag_65:\n            /* \"#utility.yul\":197:198   */\n          0x00\n            /* \"#utility.yul\":194:195   */\n          dup1\n            /* \"#utility.yul\":187:199   */\n          revert\n            /* \"#utility.yul\":334:411   */\n        tag_67:\n            /* \"#utility.yul\":371:378   */\n          0x00\n            /* \"#utility.yul\":400:405   */\n          dup2\n            /* \"#utility.yul\":389:405   */\n          swap1\n          pop\n            /* \"#utility.yul\":334:411   */\n          swap2\n          swap1\n          pop\n          jump\t// out\n            /* \"#utility.yul\":417:539   */\n        tag_68:\n            /* \"#utility.yul\":490:514   */\n          tag_103\n            /* \"#utility.yul\":508:513   */\n          dup2\n            /* \"#utility.yul\":490:514   */\n          tag_67\n          jump\t// in\n        tag_103:\n            /* \"#utility.yul\":483:488   */\n          dup2\n            /* \"#utility.yul\":480:515   */\n          eq\n            /* \"#utility.yul\":470:533   */\n          tag_104\n          jumpi\n            /* \"#utility.yul\":529:530   */\n          0x00\n            /* \"#utility.yul\":526:527   */\n          dup1\n            /* \"#utility.yul\":519:531   */\n          revert\n            /* \"#utility.yul\":470:533   */\n        tag_104:\n            /* \"#utility.yul\":417:539   */\n          pop\n          jump\t// out\n            /* \"#utility.yul\":545:684   */\n        tag_69:\n            /* \"#utility.yul\":591:596   */\n          0x00\n            /* \"#utility.yul\":629:635   */\n          dup2\n            /* \"#utility.yul\":616:636   */\n          calldataload\n            /* \"#utility.yul\":607:636   */\n          swap1\n          pop\n            /* \"#utility.yul\":645:678   */\n          tag_106\n            /* \"#utility.yul\":672:677   */\n          dup2\n            /* \"#utility.yul\":645:678   */\n          tag_68\n          jump\t// in\n        tag_106:\n            /* \"#utility.yul\":545:684   */\n          swap3\n          swap2\n          pop\n          pop\n          jump\t// out\n            /* \"#utility.yul\":690:1019   */\n        tag_11:\n            /* \"#utility.yul\":749:755   */\n          0x00\n            /* \"#utility.yul\":798:800   */\n          0x20\n            /* \"#utility.yul\":786:795   */\n          dup3\n            /* \"#utility.yul\":777:784   */\n          dup5\n            /* \"#utility.yul\":773:796   */\n          sub\n            /* \"#utility.yul\":769:801   */\n          slt\n            /* \"#utility.yul\":766:885   */\n          iszero\n          tag_108\n          jumpi\n            /* \"#utility.yul\":804:883   */\n          tag_109\n          tag_65\n          jump\t// in\n        tag_109:\n            /* \"#utility.yul\":766:885   */\n        tag_108:\n            /* \"#utility.yul\":924:925   */\n          0x00\n            /* \"#utility.yul\":949:1002   */\n          tag_110\n            /* \"#utility.yul\":994:1001   */\n          dup5\n            /* \"#utility.yul\":985:991   */\n          dup3\n            /* \"#utility.yul\":974:983   */\n          dup6\n            /* \"#utility.yul\":970:992   */\n          add\n            /* \"#utility.yul\":949:1002   */\n          tag_69\n          jump\t// in\n        tag_110:\n            /* \"#utility.yul\":939:1002   */\n          swap2\n          pop\n            /* \"#utility.yul\":895:1012   */\n          pop\n            /* \"#utility.yul\":690:1019   */\n          swap3\n          swap2\n          pop\n          pop\n          jump\t// out\n            /* \"#utility.yul\":1025:1143   */\n        tag_70:\n            /* \"#utility.yul\":1112:1136   */\n          tag_112\n            /* \"#utility.yul\":1130:1135   */\n          dup2\n            /* \"#utility.yul\":1112:1136   */\n          tag_67\n          jump\t// in\n        tag_112:\n            /* \"#utility.yul\":1107:1110   */\n          dup3\n            /* \"#utility.yul\":1100:1137   */\n          mstore\n            /* \"#utility.yul\":1025:1143   */\n          pop\n          pop\n          jump\t// out\n            /* \"#utility.yul\":1149:1371   */\n        tag_14:\n            /* \"#utility.yul\":1242:1246   */\n          0x00\n            /* \"#utility.yul\":1280:1282   */\n          0x20\n            /* \"#utility.yul\":1269:1278   */\n          dup3\n            /* \"#utility.yul\":1265:1283   */\n          add\n            /* \"#utility.yul\":1257:1283   */\n          swap1\n          pop\n            /* \"#utility.yul\":1293:1364   */\n          tag_114\n            /* \"#utility.yul\":1361:1362   */\n          0x00\n            /* \"#utility.yul\":1350:1359   */\n          dup4\n            /* \"#utility.yul\":1346:1363   */\n          add\n            /* \"#utility.yul\":1337:1343   */\n          dup5\n            /* \"#utility.yul\":1293:1364   */\n          tag_70\n          jump\t// in\n        tag_114:\n            /* \"#utility.yul\":1149:1371   */\n          swap3\n          swap2\n          pop\n          pop\n          jump\t// out\n            /* \"#utility.yul\":1377:1467   */\n        tag_71:\n            /* \"#utility.yul\":1411:1418   */\n          0x00\n            /* \"#utility.yul\":1454:1459   */\n          dup2\n            /* \"#utility.yul\":1447:1460   */\n          iszero\n            /* \"#utility.yul\":1440:1461   */\n          iszero\n            /* \"#utility.yul\":1429:1461   */\n          swap1\n          pop\n            /* \"#utility.yul\":1377:1467   */\n          swap2\n          swap1\n          pop\n          jump\t// out\n            /* \"#utility.yul\":1473:1582   */\n        tag_72:\n            /* \"#utility.yul\":1554:1575   */\n          tag_117\n            /* \"#utility.yul\":1569:1574   */\n          dup2\n            /* \"#utility.yul\":1554:1575   */\n          tag_71\n          jump\t// in\n        tag_117:\n            /* \"#utility.yul\":1549:1552   */\n          dup3\n            /* \"#utility.yul\":1542:1576   */\n          mstore\n            /* \"#utility.yul\":1473:1582   */\n          pop\n          pop\n          jump\t// out\n            /* \"#utility.yul\":1588:1798   */\n        tag_18:\n            /* \"#utility.yul\":1675:1679   */\n          0x00\n            /* \"#utility.yul\":1713:1715   */\n          0x20\n            /* \"#utility.yul\":1702:1711   */\n          dup3\n            /* \"#utility.yul\":1698:1716   */\n          add\n            /* \"#utility.yul\":1690:1716   */\n          swap1\n          pop\n            /* \"#utility.yul\":1726:1791   */\n          tag_119\n            /* \"#utility.yul\":1788:1789   */\n          0x00\n            /* \"#utility.yul\":1777:1786   */\n          dup4\n            /* \"#utility.yul\":1773:1790   */\n          add\n            /* \"#utility.yul\":1764:1770   */\n          dup5\n            /* \"#utility.yul\":1726:1791   */\n          tag_72\n          jump\t// in\n        tag_119:\n            /* \"#utility.yul\":1588:1798   */\n          swap3\n          swap2\n          pop\n          pop\n          jump\t// out\n            /* \"#utility.yul\":1804:1890   */\n        tag_73:\n            /* \"#utility.yul\":1839:1846   */\n          0x00\n            /* \"#utility.yul\":1879:1883   */\n          0xff\n            /* \"#utility.yul\":1872:1877   */\n          dup3\n            /* \"#utility.yul\":1868:1884   */\n          and\n            /* \"#utility.yul\":1857:1884   */\n          swap1\n          pop\n            /* \"#utility.yul\":1804:1890   */\n          swap2\n          swap1\n          pop\n          jump\t// out\n            /* \"#utility.yul\":1896:2008   */\n        tag_74:\n            /* \"#utility.yul\":1979:2001   */\n          tag_122\n            /* \"#utility.yul\":1995:2000   */\n          dup2\n            /* \"#utility.yul\":1979:2001   */\n          tag_73\n          jump\t// in\n        tag_122:\n            /* \"#utility.yul\":1974:1977   */\n          dup3\n            /* \"#utility.yul\":1967:2002   */\n          mstore\n            /* \"#utility.yul\":1896:2008   */\n          pop\n          pop\n          jump\t// out\n            /* \"#utility.yul\":2014:2228   */\n        tag_22:\n            /* \"#utility.yul\":2103:2107   */\n          0x00\n            /* \"#utility.yul\":2141:2143   */\n          0x20\n            /* \"#utility.yul\":2130:2139   */\n          dup3\n            /* \"#utility.yul\":2126:2144   */\n          add\n            /* \"#utility.yul\":2118:2144   */\n          swap1\n          pop\n            /* \"#utility.yul\":2154:2221   */\n          tag_124\n            /* \"#utility.yul\":2218:2219   */\n          0x00\n            /* \"#utility.yul\":2207:2216   */\n          dup4\n            /* \"#utility.yul\":2203:2220   */\n          add\n            /* \"#utility.yul\":2194:2200   */\n          dup5\n            /* \"#utility.yul\":2154:2221   */\n          tag_74\n          jump\t// in\n        tag_124:\n            /* \"#utility.yul\":2014:2228   */\n          swap3\n          swap2\n          pop\n          pop\n          jump\t// out\n            /* \"#utility.yul\":2234:2360   */\n        tag_75:\n            /* \"#utility.yul\":2271:2278   */\n          0x00\n            /* \"#utility.yul\":2311:2353   */\n          0xffffffffffffffffffffffffffffffffffffffff\n            /* \"#utility.yul\":2304:2309   */\n          dup3\n            /* \"#utility.yul\":2300:2354   */\n          and\n            /* \"#utility.yul\":2289:2354   */\n          swap1\n          pop\n            /* \"#utility.yul\":2234:2360   */\n          swap2\n          swap1\n          pop\n          jump\t// out\n            /* \"#utility.yul\":2366:2462   */\n        tag_76:\n            /* \"#utility.yul\":2403:2410   */\n          0x00\n            /* \"#utility.yul\":2432:2456   */\n          tag_127\n            /* \"#utility.yul\":2450:2455   */\n          dup3\n            /* \"#utility.yul\":2432:2456   */\n          tag_75\n          jump\t// in\n        tag_127:\n            /* \"#utility.yul\":2421:2456   */\n          swap1\n          pop\n            /* \"#utility.yul\":2366:2462   */\n          swap2\n          swap1\n          pop\n          jump\t// out\n            /* \"#utility.yul\":2468:2590   */\n        tag_77:\n            /* \"#utility.yul\":2541:2565   */\n          tag_129\n            /* \"#utility.yul\":2559:2564   */\n          dup2\n            /* \"#utility.yul\":2541:2565   */\n          tag_76\n          jump\t// in\n        tag_129:\n            /* \"#utility.yul\":2534:2539   */\n          dup2\n            /* \"#utility.yul\":2531:2566   */\n          eq\n            /* \"#utility.yul\":2521:2584   */\n          tag_130\n          jumpi\n            /* \"#utility.yul\":2580:2581   */\n          0x00\n            /* \"#utility.yul\":2577:2578   */\n          dup1\n            /* \"#utility.yul\":2570:2582   */\n          revert\n            /* \"#utility.yul\":2521:2584   */\n        tag_130:\n            /* \"#utility.yul\":2468:2590   */\n          pop\n          jump\t// out\n            /* \"#utility.yul\":2596:2735   */\n        tag_78:\n            /* \"#utility.yul\":2642:2647   */\n          0x00\n            /* \"#utility.yul\":2680:2686   */\n          dup2\n            /* \"#utility.yul\":2667:2687   */\n          calldataload\n            /* \"#utility.yul\":2658:2687   */\n          swap1\n          pop\n            /* \"#utility.yul\":2696:2729   */\n          tag_132\n            /* \"#utility.yul\":2723:2728   */\n          dup2\n            /* \"#utility.yul\":2696:2729   */\n          tag_77\n          jump\t// in\n        tag_132:\n            /* \"#utility.yul\":2596:2735   */\n          swap3\n          swap2\n          pop\n          pop\n          jump\t// out\n            /* \"#utility.yul\":2741:3070   */\n        tag_28:\n            /* \"#utility.yul\":2800:2806   */\n          0x00\n            /* \"#utility.yul\":2849:2851   */\n          0x20\n            /* \"#utility.yul\":2837:2846   */\n          dup3\n            /* \"#utility.yul\":2828:2835   */\n          dup5\n            /* \"#utility.yul\":2824:2847   */\n          sub\n            /* \"#utility.yul\":2820:2852   */\n          slt\n            /* \"#utility.yul\":2817:2936   */\n          iszero\n          tag_134\n          jumpi\n            /* \"#utility.yul\":2855:2934   */\n          tag_135\n          tag_65\n          jump\t// in\n        tag_135:\n            /* \"#utility.yul\":2817:2936   */\n        tag_134:\n            /* \"#utility.yul\":2975:2976   */\n          0x00\n            /* \"#utility.yul\":3000:3053   */\n          tag_136\n            /* \"#utility.yul\":3045:3052   */\n          dup5\n            /* \"#utility.yul\":3036:3042   */\n          dup3\n            /* \"#utility.yul\":3025:3034   */\n          dup6\n            /* \"#utility.yul\":3021:3043   */\n          add\n            /* \"#utility.yul\":3000:3053   */\n          tag_78\n          jump\t// in\n        tag_136:\n            /* \"#utility.yul\":2990:3053   */\n          swap2\n          pop\n            /* \"#utility.yul\":2946:3063   */\n          pop\n            /* \"#utility.yul\":2741:3070   */\n          swap3\n          swap2\n          pop\n          pop\n          jump\t// out\n            /* \"#utility.yul\":3076:3177   */\n        tag_79:\n            /* \"#utility.yul\":3112:3119   */\n          0x00\n            /* \"#utility.yul\":3152:3170   */\n          0xffffffffffffffff\n            /* \"#utility.yul\":3145:3150   */\n          dup3\n            /* \"#utility.yul\":3141:3171   */\n          and\n            /* \"#utility.yul\":3130:3171   */\n          swap1\n          pop\n            /* \"#utility.yul\":3076:3177   */\n          swap2\n          swap1\n          pop\n          jump\t// out\n            /* \"#utility.yul\":3183:3298   */\n        tag_80:\n            /* \"#utility.yul\":3268:3291   */\n          tag_139\n            /* \"#utility.yul\":3285:3290   */\n          dup2\n            /* \"#utility.yul\":3268:3291   */\n          tag_79\n          jump\t// in\n        tag_139:\n            /* \"#utility.yul\":3263:3266   */\n          dup3\n            /* \"#utility.yul\":3256:3292   */\n          mstore\n            /* \"#utility.yul\":3183:3298   */\n          pop\n          pop\n          jump\t// out\n            /* \"#utility.yul\":3304:3730   */\n        tag_31:\n            /* \"#utility.yul\":3445:3449   */\n          0x00\n            /* \"#utility.yul\":3483:3485   */\n          0x60\n            /* \"#utility.yul\":3472:3481   */\n          dup3\n            /* \"#utility.yul\":3468:3486   */\n          add\n            /* \"#utility.yul\":3460:3486   */\n          swap1\n          pop\n            /* \"#utility.yul\":3496:3567   */\n          tag_141\n            /* \"#utility.yul\":3564:3565   */\n          0x00\n            /* \"#utility.yul\":3553:3562   */\n          dup4\n            /* \"#utility.yul\":3549:3566   */\n          add\n            /* \"#utility.yul\":3540:3546   */\n          dup7\n            /* \"#utility.yul\":3496:3567   */\n          tag_70\n          jump\t// in\n        tag_141:\n            /* \"#utility.yul\":3577:3647   */\n          tag_142\n            /* \"#utility.yul\":3643:3645   */\n          0x20\n            /* \"#utility.yul\":3632:3641   */\n          dup4\n            /* \"#utility.yul\":3628:3646   */\n          add\n            /* \"#utility.yul\":3619:3625   */\n          dup6\n            /* \"#utility.yul\":3577:3647   */\n          tag_80\n          jump\t// in\n        tag_142:\n            /* \"#utility.yul\":3657:3723   */\n          tag_143\n            /* \"#utility.yul\":3719:3721   */\n          0x40\n            /* \"#utility.yul\":3708:3717   */\n          dup4\n            /* \"#utility.yul\":3704:3722   */\n          add\n            /* \"#utility.yul\":3695:3701   */\n          dup5\n            /* \"#utility.yul\":3657:3723   */\n          tag_72\n          jump\t// in\n        tag_143:\n            /* \"#utility.yul\":3304:3730   */\n          swap5\n          swap4\n          pop\n          pop\n          pop\n          pop\n          jump\t// out\n            /* \"#utility.yul\":3736:3815   */\n        tag_81:\n            /* \"#utility.yul\":3775:3782   */\n          0x00\n            /* \"#utility.yul\":3804:3809   */\n          dup2\n            /* \"#utility.yul\":3793:3809   */\n          swap1\n          pop\n            /* \"#utility.yul\":3736:3815   */\n          swap2\n          swap1\n          pop\n          jump\t// out\n            /* \"#utility.yul\":3821:3978   */\n        tag_82:\n            /* \"#utility.yul\":3926:3971   */\n          tag_146\n            /* \"#utility.yul\":3946:3970   */\n          tag_147\n            /* \"#utility.yul\":3964:3969   */\n          dup3\n            /* \"#utility.yul\":3946:3970   */\n          tag_67\n          jump\t// in\n        tag_147:\n            /* \"#utility.yul\":3926:3971   */\n          tag_81\n          jump\t// in\n        tag_146:\n            /* \"#utility.yul\":3921:3924   */\n          dup3\n            /* \"#utility.yul\":3914:3972   */\n          mstore\n            /* \"#utility.yul\":3821:3978   */\n          pop\n          pop\n          jump\t// out\n            /* \"#utility.yul\":3984:4240   */\n        tag_37:\n            /* \"#utility.yul\":4096:4099   */\n          0x00\n            /* \"#utility.yul\":4111:4186   */\n          tag_149\n            /* \"#utility.yul\":4182:4185   */\n          dup3\n            /* \"#utility.yul\":4173:4179   */\n          dup5\n            /* \"#utility.yul\":4111:4186   */\n          tag_82\n          jump\t// in\n        tag_149:\n            /* \"#utility.yul\":4211:4213   */\n          0x20\n            /* \"#utility.yul\":4206:4209   */\n          dup3\n            /* \"#utility.yul\":4202:4214   */\n          add\n            /* \"#utility.yul\":4195:4214   */\n          swap2\n          pop\n            /* \"#utility.yul\":4231:4234   */\n          dup2\n            /* \"#utility.yul\":4224:4234   */\n          swap1\n          pop\n            /* \"#utility.yul\":3984:4240   */\n          swap3\n          swap2\n          pop\n          pop\n          jump\t// out\n            /* \"#utility.yul\":4246:4415   */\n        tag_83:\n            /* \"#utility.yul\":4330:4341   */\n          0x00\n            /* \"#utility.yul\":4364:4370   */\n          dup3\n            /* \"#utility.yul\":4359:4362   */\n          dup3\n            /* \"#utility.yul\":4352:4371   */\n          mstore\n            /* \"#utility.yul\":4404:4408   */\n          0x20\n            /* \"#utility.yul\":4399:4402   */\n          dup3\n            /* \"#utility.yul\":4395:4409   */\n          add\n            /* \"#utility.yul\":4380:4409   */\n          swap1\n          pop\n            /* \"#utility.yul\":4246:4415   */\n          swap3\n          swap2\n          pop\n          pop\n          jump\t// out\n            /* \"#utility.yul\":4421:4646   */\n        tag_84:\n            /* \"#utility.yul\":4561:4595   */\n          0x436f6d6d697452657665616c3a3a72657665616c3a20416c7265616479207265\n            /* \"#utility.yul\":4557:4558   */\n          0x00\n            /* \"#utility.yul\":4549:4555   */\n          dup3\n            /* \"#utility.yul\":4545:4559   */\n          add\n            /* \"#utility.yul\":4538:4596   */\n          mstore\n            /* \"#utility.yul\":4630:4638   */\n          0x7665616c65640000000000000000000000000000000000000000000000000000\n            /* \"#utility.yul\":4625:4627   */\n          0x20\n            /* \"#utility.yul\":4617:4623   */\n          dup3\n            /* \"#utility.yul\":4613:4628   */\n          add\n            /* \"#utility.yul\":4606:4639   */\n          mstore\n            /* \"#utility.yul\":4421:4646   */\n          pop\n          jump\t// out\n            /* \"#utility.yul\":4652:5018   */\n        tag_85:\n            /* \"#utility.yul\":4794:4797   */\n          0x00\n            /* \"#utility.yul\":4815:4882   */\n          tag_153\n            /* \"#utility.yul\":4879:4881   */\n          0x26\n            /* \"#utility.yul\":4874:4877   */\n          dup4\n            /* \"#utility.yul\":4815:4882   */\n          tag_83\n          jump\t// in\n        tag_153:\n            /* \"#utility.yul\":4808:4882   */\n          swap2\n          pop\n            /* \"#utility.yul\":4891:4984   */\n          tag_154\n            /* \"#utility.yul\":4980:4983   */\n          dup3\n            /* \"#utility.yul\":4891:4984   */\n          tag_84\n          jump\t// in\n        tag_154:\n            /* \"#utility.yul\":5009:5011   */\n          0x40\n            /* \"#utility.yul\":5004:5007   */\n          dup3\n            /* \"#utility.yul\":5000:5012   */\n          add\n            /* \"#utility.yul\":4993:5012   */\n          swap1\n          pop\n            /* \"#utility.yul\":4652:5018   */\n          swap2\n          swap1\n          pop\n          jump\t// out\n            /* \"#utility.yul\":5024:5443   */\n        tag_42:\n            /* \"#utility.yul\":5190:5194   */\n          0x00\n            /* \"#utility.yul\":5228:5230   */\n          0x20\n            /* \"#utility.yul\":5217:5226   */\n          dup3\n            /* \"#utility.yul\":5213:5231   */\n          add\n            /* \"#utility.yul\":5205:5231   */\n          swap1\n          pop\n            /* \"#utility.yul\":5277:5286   */\n          dup2\n            /* \"#utility.yul\":5271:5275   */\n          dup2\n            /* \"#utility.yul\":5267:5287   */\n          sub\n            /* \"#utility.yul\":5263:5264   */\n          0x00\n            /* \"#utility.yul\":5252:5261   */\n          dup4\n            /* \"#utility.yul\":5248:5265   */\n          add\n            /* \"#utility.yul\":5241:5288   */\n          mstore\n            /* \"#utility.yul\":5305:5436   */\n          tag_156\n            /* \"#utility.yul\":5431:5435   */\n          dup2\n            /* \"#utility.yul\":5305:5436   */\n          tag_85\n          jump\t// in\n        tag_156:\n            /* \"#utility.yul\":5297:5436   */\n          swap1\n          pop\n            /* \"#utility.yul\":5024:5443   */\n          swap2\n          swap1\n          pop\n          jump\t// out\n            /* \"#utility.yul\":5449:5693   */\n        tag_86:\n            /* \"#utility.yul\":5589:5623   */\n          0x436f6d6d697452657665616c3a3a72657665616c3a2052657665616c65642068\n            /* \"#utility.yul\":5585:5586   */\n          0x00\n            /* \"#utility.yul\":5577:5583   */\n          dup3\n            /* \"#utility.yul\":5573:5587   */\n          add\n            /* \"#utility.yul\":5566:5624   */\n          mstore\n            /* \"#utility.yul\":5658:5685   */\n          0x61736820646f6573206e6f74206d6174636820636f6d6d697400000000000000\n            /* \"#utility.yul\":5653:5655   */\n          0x20\n            /* \"#utility.yul\":5645:5651   */\n          dup3\n            /* \"#utility.yul\":5641:5656   */\n          add\n            /* \"#utility.yul\":5634:5686   */\n          mstore\n            /* \"#utility.yul\":5449:5693   */\n          pop\n          jump\t// out\n            /* \"#utility.yul\":5699:6065   */\n        tag_87:\n            /* \"#utility.yul\":5841:5844   */\n          0x00\n            /* \"#utility.yul\":5862:5929   */\n          tag_159\n            /* \"#utility.yul\":5926:5928   */\n          0x39\n            /* \"#utility.yul\":5921:5924   */\n          dup4\n            /* \"#utility.yul\":5862:5929   */\n          tag_83\n          jump\t// in\n        tag_159:\n            /* \"#utility.yul\":5855:5929   */\n          swap2\n          pop\n            /* \"#utility.yul\":5938:6031   */\n          tag_160\n            /* \"#utility.yul\":6027:6030   */\n          dup3\n            /* \"#utility.yul\":5938:6031   */\n          tag_86\n          jump\t// in\n        tag_160:\n            /* \"#utility.yul\":6056:6058   */\n          0x40\n            /* \"#utility.yul\":6051:6054   */\n          dup3\n            /* \"#utility.yul\":6047:6059   */\n          add\n            /* \"#utility.yul\":6040:6059   */\n          swap1\n          pop\n            /* \"#utility.yul\":5699:6065   */\n          swap2\n          swap1\n          pop\n          jump\t// out\n            /* \"#utility.yul\":6071:6490   */\n        tag_46:\n            /* \"#utility.yul\":6237:6241   */\n          0x00\n            /* \"#utility.yul\":6275:6277   */\n          0x20\n            /* \"#utility.yul\":6264:6273   */\n          dup3\n            /* \"#utility.yul\":6260:6278   */\n          add\n            /* \"#utility.yul\":6252:6278   */\n          swap1\n          pop\n            /* \"#utility.yul\":6324:6333   */\n          dup2\n            /* \"#utility.yul\":6318:6322   */\n          dup2\n            /* \"#utility.yul\":6314:6334   */\n          sub\n            /* \"#utility.yul\":6310:6311   */\n          0x00\n            /* \"#utility.yul\":6299:6308   */\n          dup4\n            /* \"#utility.yul\":6295:6312   */\n          add\n            /* \"#utility.yul\":6288:6335   */\n          mstore\n            /* \"#utility.yul\":6352:6483   */\n          tag_162\n            /* \"#utility.yul\":6478:6482   */\n          dup2\n            /* \"#utility.yul\":6352:6483   */\n          tag_87\n          jump\t// in\n        tag_162:\n            /* \"#utility.yul\":6344:6483   */\n          swap1\n          pop\n            /* \"#utility.yul\":6071:6490   */\n          swap2\n          swap1\n          pop\n          jump\t// out\n            /* \"#utility.yul\":6496:6786   */\n        tag_88:\n            /* \"#utility.yul\":6636:6670   */\n          0x436f6d6d697452657665616c3a3a72657665616c3a2052657665616c20616e64\n            /* \"#utility.yul\":6632:6633   */\n          0x00\n            /* \"#utility.yul\":6624:6630   */\n          dup3\n            /* \"#utility.yul\":6620:6634   */\n          add\n            /* \"#utility.yul\":6613:6671   */\n          mstore\n            /* \"#utility.yul\":6705:6739   */\n          0x20636f6d6d69742068617070656e6564206f6e207468652073616d6520626c6f\n            /* \"#utility.yul\":6700:6702   */\n          0x20\n            /* \"#utility.yul\":6692:6698   */\n          dup3\n            /* \"#utility.yul\":6688:6703   */\n          add\n            /* \"#utility.yul\":6681:6740   */\n          mstore\n            /* \"#utility.yul\":6774:6778   */\n          0x636b000000000000000000000000000000000000000000000000000000000000\n            /* \"#utility.yul\":6769:6771   */\n          0x40\n            /* \"#utility.yul\":6761:6767   */\n          dup3\n            /* \"#utility.yul\":6757:6772   */\n          add\n            /* \"#utility.yul\":6750:6779   */\n          mstore\n            /* \"#utility.yul\":6496:6786   */\n          pop\n          jump\t// out\n            /* \"#utility.yul\":6792:7158   */\n        tag_89:\n            /* \"#utility.yul\":6934:6937   */\n          0x00\n            /* \"#utility.yul\":6955:7022   */\n          tag_165\n            /* \"#utility.yul\":7019:7021   */\n          0x42\n            /* \"#utility.yul\":7014:7017   */\n          dup4\n            /* \"#utility.yul\":6955:7022   */\n          tag_83\n          jump\t// in\n        tag_165:\n            /* \"#utility.yul\":6948:7022   */\n          swap2\n          pop\n            /* \"#utility.yul\":7031:7124   */\n          tag_166\n            /* \"#utility.yul\":7120:7123   */\n          dup3\n            /* \"#utility.yul\":7031:7124   */\n          tag_88\n          jump\t// in\n        tag_166:\n            /* \"#utility.yul\":7149:7151   */\n          0x60\n            /* \"#utility.yul\":7144:7147   */\n          dup3\n            /* \"#utility.yul\":7140:7152   */\n          add\n            /* \"#utility.yul\":7133:7152   */\n          swap1\n          pop\n            /* \"#utility.yul\":6792:7158   */\n          swap2\n          swap1\n          pop\n          jump\t// out\n            /* \"#utility.yul\":7164:7583   */\n        tag_49:\n            /* \"#utility.yul\":7330:7334   */\n          0x00\n            /* \"#utility.yul\":7368:7370   */\n          0x20\n            /* \"#utility.yul\":7357:7366   */\n          dup3\n            /* \"#utility.yul\":7353:7371   */\n          add\n            /* \"#utility.yul\":7345:7371   */\n          swap1\n          pop\n            /* \"#utility.yul\":7417:7426   */\n          dup2\n            /* \"#utility.yul\":7411:7415   */\n          dup2\n            /* \"#utility.yul\":7407:7427   */\n          sub\n            /* \"#utility.yul\":7403:7404   */\n          0x00\n            /* \"#utility.yul\":7392:7401   */\n          dup4\n            /* \"#utility.yul\":7388:7405   */\n          add\n            /* \"#utility.yul\":7381:7428   */\n          mstore\n            /* \"#utility.yul\":7445:7576   */\n          tag_168\n            /* \"#utility.yul\":7571:7575   */\n          dup2\n            /* \"#utility.yul\":7445:7576   */\n          tag_89\n          jump\t// in\n        tag_168:\n            /* \"#utility.yul\":7437:7576   */\n          swap1\n          pop\n            /* \"#utility.yul\":7164:7583   */\n          swap2\n          swap1\n          pop\n          jump\t// out\n            /* \"#utility.yul\":7589:7769   */\n        tag_90:\n            /* \"#utility.yul\":7637:7714   */\n          0x4e487b7100000000000000000000000000000000000000000000000000000000\n            /* \"#utility.yul\":7634:7635   */\n          0x00\n            /* \"#utility.yul\":7627:7715   */\n          mstore\n            /* \"#utility.yul\":7734:7738   */\n          0x11\n            /* \"#utility.yul\":7731:7732   */\n          0x04\n            /* \"#utility.yul\":7724:7739   */\n          mstore\n            /* \"#utility.yul\":7758:7762   */\n          0x24\n            /* \"#utility.yul\":7755:7756   */\n          0x00\n            /* \"#utility.yul\":7748:7763   */\n          revert\n            /* \"#utility.yul\":7775:7980   */\n        tag_51:\n            /* \"#utility.yul\":7814:7817   */\n          0x00\n            /* \"#utility.yul\":7833:7852   */\n          tag_171\n            /* \"#utility.yul\":7850:7851   */\n          dup3\n            /* \"#utility.yul\":7833:7852   */\n          tag_79\n          jump\t// in\n        tag_171:\n            /* \"#utility.yul\":7828:7852   */\n          swap2\n          pop\n            /* \"#utility.yul\":7866:7885   */\n          tag_172\n            /* \"#utility.yul\":7883:7884   */\n          dup4\n            /* \"#utility.yul\":7866:7885   */\n          tag_79\n          jump\t// in\n        tag_172:\n            /* \"#utility.yul\":7861:7885   */\n          swap3\n          pop\n            /* \"#utility.yul\":7908:7909   */\n          dup3\n            /* \"#utility.yul\":7905:7906   */\n          dup3\n            /* \"#utility.yul\":7901:7910   */\n          add\n            /* \"#utility.yul\":7894:7910   */\n          swap1\n          pop\n            /* \"#utility.yul\":7931:7949   */\n          0xffffffffffffffff\n            /* \"#utility.yul\":7926:7929   */\n          dup2\n            /* \"#utility.yul\":7923:7950   */\n          gt\n            /* \"#utility.yul\":7920:7973   */\n          iszero\n          tag_173\n          jumpi\n            /* \"#utility.yul\":7953:7971   */\n          tag_174\n          tag_90\n          jump\t// in\n        tag_174:\n            /* \"#utility.yul\":7920:7973   */\n        tag_173:\n            /* \"#utility.yul\":7775:7980   */\n          swap3\n          swap2\n          pop\n          pop\n          jump\t// out\n            /* \"#utility.yul\":7986:8212   */\n        tag_91:\n            /* \"#utility.yul\":8126:8160   */\n          0x436f6d6d697452657665616c3a3a72657665616c3a2052657665616c65642074\n            /* \"#utility.yul\":8122:8123   */\n          0x00\n            /* \"#utility.yul\":8114:8120   */\n          dup3\n            /* \"#utility.yul\":8110:8124   */\n          add\n            /* \"#utility.yul\":8103:8161   */\n          mstore\n            /* \"#utility.yul\":8195:8204   */\n          0x6f6f206c61746500000000000000000000000000000000000000000000000000\n            /* \"#utility.yul\":8190:8192   */\n          0x20\n            /* \"#utility.yul\":8182:8188   */\n          dup3\n            /* \"#utility.yul\":8178:8193   */\n          add\n            /* \"#utility.yul\":8171:8205   */\n          mstore\n            /* \"#utility.yul\":7986:8212   */\n          pop\n          jump\t// out\n            /* \"#utility.yul\":8218:8584   */\n        tag_92:\n            /* \"#utility.yul\":8360:8363   */\n          0x00\n            /* \"#utility.yul\":8381:8448   */\n          tag_177\n            /* \"#utility.yul\":8445:8447   */\n          0x27\n            /* \"#utility.yul\":8440:8443   */\n          dup4\n            /* \"#utility.yul\":8381:8448   */\n          tag_83\n          jump\t// in\n        tag_177:\n            /* \"#utility.yul\":8374:8448   */\n          swap2\n          pop\n            /* \"#utility.yul\":8457:8550   */\n          tag_178\n            /* \"#utility.yul\":8546:8549   */\n          dup3\n            /* \"#utility.yul\":8457:8550   */\n          tag_91\n          jump\t// in\n        tag_178:\n            /* \"#utility.yul\":8575:8577   */\n          0x40\n            /* \"#utility.yul\":8570:8573   */\n          dup3\n            /* \"#utility.yul\":8566:8578   */\n          add\n            /* \"#utility.yul\":8559:8578   */\n          swap1\n          pop\n            /* \"#utility.yul\":8218:8584   */\n          swap2\n          swap1\n          pop\n          jump\t// out\n            /* \"#utility.yul\":8590:9009   */\n        tag_54:\n            /* \"#utility.yul\":8756:8760   */\n          0x00\n            /* \"#utility.yul\":8794:8796   */\n          0x20\n            /* \"#utility.yul\":8783:8792   */\n          dup3\n            /* \"#utility.yul\":8779:8797   */\n          add\n            /* \"#utility.yul\":8771:8797   */\n          swap1\n          pop\n            /* \"#utility.yul\":8843:8852   */\n          dup2\n            /* \"#utility.yul\":8837:8841   */\n          dup2\n            /* \"#utility.yul\":8833:8853   */\n          sub\n            /* \"#utility.yul\":8829:8830   */\n          0x00\n            /* \"#utility.yul\":8818:8827   */\n          dup4\n            /* \"#utility.yul\":8814:8831   */\n          add\n            /* \"#utility.yul\":8807:8854   */\n          mstore\n            /* \"#utility.yul\":8871:9002   */\n          tag_180\n            /* \"#utility.yul\":8997:9001   */\n          dup2\n            /* \"#utility.yul\":8871:9002   */\n          tag_92\n          jump\t// in\n        tag_180:\n            /* \"#utility.yul\":8863:9002   */\n          swap1\n          pop\n            /* \"#utility.yul\":8590:9009   */\n          swap2\n          swap1\n          pop\n          jump\t// out\n            /* \"#utility.yul\":9015:9412   */\n        tag_56:\n            /* \"#utility.yul\":9155:9158   */\n          0x00\n            /* \"#utility.yul\":9170:9245   */\n          tag_182\n            /* \"#utility.yul\":9241:9244   */\n          dup3\n            /* \"#utility.yul\":9232:9238   */\n          dup6\n            /* \"#utility.yul\":9170:9245   */\n          tag_82\n          jump\t// in\n        tag_182:\n            /* \"#utility.yul\":9270:9272   */\n          0x20\n            /* \"#utility.yul\":9265:9268   */\n          dup3\n            /* \"#utility.yul\":9261:9273   */\n          add\n            /* \"#utility.yul\":9254:9273   */\n          swap2\n          pop\n            /* \"#utility.yul\":9283:9358   */\n          tag_183\n            /* \"#utility.yul\":9354:9357   */\n          dup3\n            /* \"#utility.yul\":9345:9351   */\n          dup5\n            /* \"#utility.yul\":9283:9358   */\n          tag_82\n          jump\t// in\n        tag_183:\n            /* \"#utility.yul\":9383:9385   */\n          0x20\n            /* \"#utility.yul\":9378:9381   */\n          dup3\n            /* \"#utility.yul\":9374:9386   */\n          add\n            /* \"#utility.yul\":9367:9386   */\n          swap2\n          pop\n            /* \"#utility.yul\":9403:9406   */\n          dup2\n            /* \"#utility.yul\":9396:9406   */\n          swap1\n          pop\n            /* \"#utility.yul\":9015:9412   */\n          swap4\n          swap3\n          pop\n          pop\n          pop\n          jump\t// out\n            /* \"#utility.yul\":9418:9495   */\n        tag_93:\n            /* \"#utility.yul\":9455:9462   */\n          0x00\n            /* \"#utility.yul\":9484:9489   */\n          dup2\n            /* \"#utility.yul\":9473:9489   */\n          swap1\n          pop\n            /* \"#utility.yul\":9418:9495   */\n          swap2\n          swap1\n          pop\n          jump\t// out\n            /* \"#utility.yul\":9501:9681   */\n        tag_94:\n            /* \"#utility.yul\":9549:9626   */\n          0x4e487b7100000000000000000000000000000000000000000000000000000000\n            /* \"#utility.yul\":9546:9547   */\n          0x00\n            /* \"#utility.yul\":9539:9627   */\n          mstore\n            /* \"#utility.yul\":9646:9650   */\n          0x12\n            /* \"#utility.yul\":9643:9644   */\n          0x04\n            /* \"#utility.yul\":9636:9651   */\n          mstore\n            /* \"#utility.yul\":9670:9674   */\n          0x24\n            /* \"#utility.yul\":9667:9668   */\n          0x00\n            /* \"#utility.yul\":9660:9675   */\n          revert\n            /* \"#utility.yul\":9687:9863   */\n        tag_58:\n            /* \"#utility.yul\":9719:9720   */\n          0x00\n            /* \"#utility.yul\":9736:9756   */\n          tag_187\n            /* \"#utility.yul\":9754:9755   */\n          dup3\n            /* \"#utility.yul\":9736:9756   */\n          tag_93\n          jump\t// in\n        tag_187:\n            /* \"#utility.yul\":9731:9756   */\n          swap2\n          pop\n            /* \"#utility.yul\":9770:9790   */\n          tag_188\n            /* \"#utility.yul\":9788:9789   */\n          dup4\n            /* \"#utility.yul\":9770:9790   */\n          tag_93\n          jump\t// in\n        tag_188:\n            /* \"#utility.yul\":9765:9790   */\n          swap3\n          pop\n            /* \"#utility.yul\":9809:9810   */\n          dup3\n            /* \"#utility.yul\":9799:9834   */\n          tag_189\n          jumpi\n            /* \"#utility.yul\":9814:9832   */\n          tag_190\n          tag_94\n          jump\t// in\n        tag_190:\n            /* \"#utility.yul\":9799:9834   */\n        tag_189:\n            /* \"#utility.yul\":9855:9856   */\n          dup3\n            /* \"#utility.yul\":9852:9853   */\n          dup3\n            /* \"#utility.yul\":9848:9857   */\n          mod\n            /* \"#utility.yul\":9843:9857   */\n          swap1\n          pop\n            /* \"#utility.yul\":9687:9863   */\n          swap3\n          swap2\n          pop\n          pop\n          jump\t// out\n            /* \"#utility.yul\":9869:9987   */\n        tag_95:\n            /* \"#utility.yul\":9956:9980   */\n          tag_192\n            /* \"#utility.yul\":9974:9979   */\n          dup2\n            /* \"#utility.yul\":9956:9980   */\n          tag_76\n          jump\t// in\n        tag_192:\n            /* \"#utility.yul\":9951:9954   */\n          dup3\n            /* \"#utility.yul\":9944:9981   */\n          mstore\n            /* \"#utility.yul\":9869:9987   */\n          pop\n          pop\n          jump\t// out\n            /* \"#utility.yul\":9993:10111   */\n        tag_96:\n            /* \"#utility.yul\":10080:10104   */\n          tag_194\n            /* \"#utility.yul\":10098:10103   */\n          dup2\n            /* \"#utility.yul\":10080:10104   */\n          tag_93\n          jump\t// in\n        tag_194:\n            /* \"#utility.yul\":10075:10078   */\n          dup3\n            /* \"#utility.yul\":10068:10105   */\n          mstore\n            /* \"#utility.yul\":9993:10111   */\n          pop\n          pop\n          jump\t// out\n            /* \"#utility.yul\":10117:10559   */\n        tag_60:\n            /* \"#utility.yul\":10266:10270   */\n          0x00\n            /* \"#utility.yul\":10304:10306   */\n          0x60\n            /* \"#utility.yul\":10293:10302   */\n          dup3\n            /* \"#utility.yul\":10289:10307   */\n          add\n            /* \"#utility.yul\":10281:10307   */\n          swap1\n          pop\n            /* \"#utility.yul\":10317:10388   */\n          tag_196\n            /* \"#utility.yul\":10385:10386   */\n          0x00\n            /* \"#utility.yul\":10374:10383   */\n          dup4\n            /* \"#utility.yul\":10370:10387   */\n          add\n            /* \"#utility.yul\":10361:10367   */\n          dup7\n            /* \"#utility.yul\":10317:10388   */\n          tag_95\n          jump\t// in\n        tag_196:\n            /* \"#utility.yul\":10398:10470   */\n          tag_197\n            /* \"#utility.yul\":10466:10468   */\n          0x20\n            /* \"#utility.yul\":10455:10464   */\n          dup4\n            /* \"#utility.yul\":10451:10469   */\n          add\n            /* \"#utility.yul\":10442:10448   */\n          dup6\n            /* \"#utility.yul\":10398:10470   */\n          tag_70\n          jump\t// in\n        tag_197:\n            /* \"#utility.yul\":10480:10552   */\n          tag_198\n            /* \"#utility.yul\":10548:10550   */\n          0x40\n            /* \"#utility.yul\":10537:10546   */\n          dup4\n            /* \"#utility.yul\":10533:10551   */\n          add\n            /* \"#utility.yul\":10524:10530   */\n          dup5\n            /* \"#utility.yul\":10480:10552   */\n          tag_96\n          jump\t// in\n        tag_198:\n            /* \"#utility.yul\":10117:10559   */\n          swap5\n          swap4\n          pop\n          pop\n          pop\n          pop\n          jump\t// out\n            /* \"#utility.yul\":10565:11003   */\n        tag_63:\n            /* \"#utility.yul\":10712:10716   */\n          0x00\n            /* \"#utility.yul\":10750:10752   */\n          0x60\n            /* \"#utility.yul\":10739:10748   */\n          dup3\n            /* \"#utility.yul\":10735:10753   */\n          add\n            /* \"#utility.yul\":10727:10753   */\n          swap1\n          pop\n            /* \"#utility.yul\":10763:10834   */\n          tag_200\n            /* \"#utility.yul\":10831:10832   */\n          0x00\n            /* \"#utility.yul\":10820:10829   */\n          dup4\n            /* \"#utility.yul\":10816:10833   */\n          add\n            /* \"#utility.yul\":10807:10813   */\n          dup7\n            /* \"#utility.yul\":10763:10834   */\n          tag_95\n          jump\t// in\n        tag_200:\n            /* \"#utility.yul\":10844:10916   */\n          tag_201\n            /* \"#utility.yul\":10912:10914   */\n          0x20\n            /* \"#utility.yul\":10901:10910   */\n          dup4\n            /* \"#utility.yul\":10897:10915   */\n          add\n            /* \"#utility.yul\":10888:10894   */\n          dup6\n            /* \"#utility.yul\":10844:10916   */\n          tag_70\n          jump\t// in\n        tag_201:\n            /* \"#utility.yul\":10926:10996   */\n          tag_202\n            /* \"#utility.yul\":10992:10994   */\n          0x40\n            /* \"#utility.yul\":10981:10990   */\n          dup4\n            /* \"#utility.yul\":10977:10995   */\n          add\n            /* \"#utility.yul\":10968:10974   */\n          dup5\n            /* \"#utility.yul\":10926:10996   */\n          tag_80\n          jump\t// in\n        tag_202:\n            /* \"#utility.yul\":10565:11003   */\n          swap5\n          swap4\n          pop\n          pop\n          pop\n          pop\n          jump\t// out\n\n        auxdata: 0xa2646970667358221220fdd22c54c033718cc8a7c05d7e199f7c5e11d8f70a7d529af3902eeb1b929b0464736f6c634300081a0033\n    }\n}\n",
				"bytecode": {
					"linkReferences": {},
					"object": "60806040525f80555f6001555f6006555f60075560405161001f90610157565b604051809103905ff080158015610038573d5f803e3d5ffd5b5060085f6101000a81548173ffffffffffffffffffffffffffffffffffffffff021916908373ffffffffffffffffffffffffffffffffffffffff16021790555060405161008490610164565b604051809103905ff08015801561009d573d5f803e3d5ffd5b5060095f6101000a81548173ffffffffffffffffffffffffffffffffffffffff021916908373ffffffffffffffffffffffffffffffffffffffff1602179055506040516100e990610164565b604051809103905ff080158015610102573d5f803e3d5ffd5b50600a5f6101000a81548173ffffffffffffffffffffffffffffffffffffffff021916908373ffffffffffffffffffffffffffffffffffffffff1602179055505f600b55348015610151575f80fd5b50610171565b6102318061374183390190565b610e058061397283390190565b6135c38061017e5f395ff3fe6080604052600436106100fd575f3560e01c80638ffbc76711610094578063ce6e1c4e11610063578063ce6e1c4e146102fb578063dd62ed3e14610323578063dea29c541461035f578063df870a6214610387578063f71d96cb146103b1576100fd565b80638ffbc7671461022f57806390d5d0c31461026b578063a040478d14610295578063c876e615146102d1576100fd565b80632fc54f73116100d05780632fc54f731461019b5780633c6a7f9b146101b1578063728385fb146101db57806377cfb37814610205576100fd565b8063086f781514610101578063190cf7451461012b578063228cb7331461016757806327b5db8a14610191575b5f80fd5b34801561010c575f80fd5b506101156103ed565b6040516101229190611b53565b60405180910390f35b348015610136575f80fd5b50610151600480360381019061014c9190611bca565b6103f3565b60405161015e9190611c0f565b60405180910390f35b348015610172575f80fd5b5061017b610410565b6040516101889190611b53565b60405180910390f35b610199610416565b005b3480156101a6575f80fd5b506101af6106ba565b005b3480156101bc575f80fd5b506101c5610c73565b6040516101d29190611c83565b60405180910390f35b3480156101e6575f80fd5b506101ef610c98565b6040516101fc9190611cbc565b60405180910390f35b348015610210575f80fd5b50610219610cbd565b6040516102269190611b53565b60405180910390f35b34801561023a575f80fd5b5061025560048036038101906102509190611bca565b610cc3565b6040516102629190611c0f565b60405180910390f35b348015610276575f80fd5b5061027f610ce0565b60405161028c9190611b53565b60405180910390f35b3480156102a0575f80fd5b506102bb60048036038101906102b69190611bca565b610ce5565b6040516102c89190611b53565b60405180910390f35b3480156102dc575f80fd5b506102e5610cfa565b6040516102f29190611b53565b60405180910390f35b348015610306575f80fd5b50610321600480360381019061031c9190611cff565b610d00565b005b34801561032e575f80fd5b5061034960048036038101906103449190611d2a565b611016565b6040516103569190611b53565b60405180910390f35b34801561036a575f80fd5b5061038560048036038101906103809190611cff565b611036565b005b348015610392575f80fd5b5061039b6114ea565b6040516103a89190611cbc565b60405180910390f35b3480156103bc575f80fd5b506103d760048036038101906103d29190611cff565b61150f565b6040516103e49190611d77565b60405180910390f35b60065481565b6003602052805f5260405f205f915054906101000a900460ff1681565b60015481565b60025f541061045a576040517f08c379a000000000000000000000000000000000000000000000000000000000815260040161045190611dea565b60405180910390fd5b5f805411156105115760055f8154811061047757610476611e08565b5b905f5260205f20015f9054906101000a900473ffffffffffffffffffffffffffffffffffffffff1673ffffffffffffffffffffffffffffffffffffffff163373ffffffffffffffffffffffffffffffffffffffff160361050c576040517f08c379a000000000000000000000000000000000000000000000000000000000815260040161050390611e7f565b60405180910390fd5b61058e565b60085f9054906101000a900473ffffffffffffffffffffffffffffffffffffffff1673ffffffffffffffffffffffffffffffffffffffff1663a63f7c536040518163ffffffff1660e01b81526004015f604051808303815f87803b158015610577575f80fd5b505af1158015610589573d5f803e3d5ffd5b505050505b64e8d4a5100034146105d5576040517f08c379a00000000000000000000000000000000000000000000000000000000081526004016105cc90611ee7565b60405180910390fd5b3460015f8282546105e69190611f32565b92505081905550600160035f3373ffffffffffffffffffffffffffffffffffffffff1673ffffffffffffffffffffffffffffffffffffffff1681526020019081526020015f205f6101000a81548160ff021916908315150217905550600533908060018154018082558091505060019003905f5260205f20015f9091909190916101000a81548173ffffffffffffffffffffffffffffffffffffffff021916908373ffffffffffffffffffffffffffffffffffffffff1602179055505f808154809291906106b390611f65565b9190505550565b5f8054116106fd576040517f08c379a00000000000000000000000000000000000000000000000000000000081526004016106f490611ff6565b60405180910390fd5b60085f9054906101000a900473ffffffffffffffffffffffffffffffffffffffff1673ffffffffffffffffffffffffffffffffffffffff1663d97c84166040518163ffffffff1660e01b8152600401602060405180830381865afa158015610767573d5f803e3d5ffd5b505050506040513d601f19601f8201168201806040525081019061078b9190612028565b600b81905550600a600b5410156107d7576040517f08c379a00000000000000000000000000000000000000000000000000000000081526004016107ce9061209d565b60405180910390fd5b5f60055f815481106107ec576107eb611e08565b5b905f5260205f20015f9054906101000a900473ffffffffffffffffffffffffffffffffffffffff16905060015f54036109135760055f8154811061083357610832611e08565b5b905f5260205f20015f9054906101000a900473ffffffffffffffffffffffffffffffffffffffff1673ffffffffffffffffffffffffffffffffffffffff163373ffffffffffffffffffffffffffffffffffffffff16146108c8576040517f08c379a00000000000000000000000000000000000000000000000000000000081526004016108bf90612105565b60405180910390fd5b8073ffffffffffffffffffffffffffffffffffffffff166108fc60015490811502906040515f60405180830381858888f1935050505015801561090d573d5f803e3d5ffd5b50610c67565b600260065403610af657600160075403610a9a5760045f3373ffffffffffffffffffffffffffffffffffffffff1673ffffffffffffffffffffffffffffffffffffffff1681526020019081526020015f205f9054906101000a900460ff16158015610a56575060055f8154811061098d5761098c611e08565b5b905f5260205f20015f9054906101000a900473ffffffffffffffffffffffffffffffffffffffff1673ffffffffffffffffffffffffffffffffffffffff163373ffffffffffffffffffffffffffffffffffffffff161480610a55575060056001815481106109fe576109fd611e08565b5b905f5260205f20015f9054906101000a900473ffffffffffffffffffffffffffffffffffffffff1673ffffffffffffffffffffffffffffffffffffffff163373ffffffffffffffffffffffffffffffffffffffff16145b5b610a95576040517f08c379a0000000000000000000000000000000000000000000000000000000008152600401610a8c9061216d565b60405180910390fd5b610aab565b600260075403610aaa5750610c71565b5b3373ffffffffffffffffffffffffffffffffffffffff166108fc60015490811502906040515f60405180830381858888f19350505050158015610af0573d5f803e3d5ffd5b50610c66565b5f6005600181548110610b0c57610b0b611e08565b5b905f5260205f20015f9054906101000a900473ffffffffffffffffffffffffffffffffffffffff16905060035f3373ffffffffffffffffffffffffffffffffffffffff1673ffffffffffffffffffffffffffffffffffffffff1681526020019081526020015f205f9054906101000a900460ff1615610bc0576040517f08c379a0000000000000000000000000000000000000000000000000000000008152600401610bb7906121fb565b60405180910390fd5b8173ffffffffffffffffffffffffffffffffffffffff166108fc6002600154610be99190612246565b90811502906040515f60405180830381858888f19350505050158015610c11573d5f803e3d5ffd5b508073ffffffffffffffffffffffffffffffffffffffff166108fc6002600154610c3b9190612246565b90811502906040515f60405180830381858888f19350505050158015610c63573d5f803e3d5ffd5b50505b5b610c6f61154a565b505b565b60085f9054906101000a900473ffffffffffffffffffffffffffffffffffffffff1681565b600a5f9054906101000a900473ffffffffffffffffffffffffffffffffffffffff1681565b600b5481565b6004602052805f5260405f205f915054906101000a900460ff1681565b5f5481565b6002602052805f5260405f205f915090505481565b60075481565b60025f5414610d44576040517f08c379a0000000000000000000000000000000000000000000000000000000008152600401610d3b906122c0565b60405180910390fd5b60035f3373ffffffffffffffffffffffffffffffffffffffff1673ffffffffffffffffffffffffffffffffffffffff1681526020019081526020015f205f9054906101000a900460ff16610dcd576040517f08c379a0000000000000000000000000000000000000000000000000000000008152600401610dc490612328565b60405180910390fd5b60055f81548110610de157610de0611e08565b5b905f5260205f20015f9054906101000a900473ffffffffffffffffffffffffffffffffffffffff1673ffffffffffffffffffffffffffffffffffffffff163373ffffffffffffffffffffffffffffffffffffffff1603610ec95760095f9054906101000a900473ffffffffffffffffffffffffffffffffffffffff1673ffffffffffffffffffffffffffffffffffffffff1663f14fcbc8825f1b6040518263ffffffff1660e01b8152600401610e97919061235e565b5f604051808303815f87803b158015610eae575f80fd5b505af1158015610ec0573d5f803e3d5ffd5b50505050610f53565b600a5f9054906101000a900473ffffffffffffffffffffffffffffffffffffffff1673ffffffffffffffffffffffffffffffffffffffff1663f14fcbc8825f1b6040518263ffffffff1660e01b8152600401610f25919061235e565b5f604051808303815f87803b158015610f3c575f80fd5b505af1158015610f4e573d5f803e3d5ffd5b505050505b5f60035f3373ffffffffffffffffffffffffffffffffffffffff1673ffffffffffffffffffffffffffffffffffffffff1681526020019081526020015f205f6101000a81548160ff021916908315150217905550600160045f3373ffffffffffffffffffffffffffffffffffffffff1673ffffffffffffffffffffffffffffffffffffffff1681526020019081526020015f205f6101000a81548160ff02191690831515021790555060065f81548092919061100e90611f65565b919050555050565b600c602052815f5260405f20602052805f5260405f205f91509150505481565b60026006541461107b576040517f08c379a0000000000000000000000000000000000000000000000000000000008152600401611072906123e7565b60405180910390fd5b60045f3373ffffffffffffffffffffffffffffffffffffffff1673ffffffffffffffffffffffffffffffffffffffff1681526020019081526020015f205f9054906101000a900460ff16611104576040517f08c379a00000000000000000000000000000000000000000000000000000000081526004016110fb9061244f565b60405180910390fd5b60055f8154811061111857611117611e08565b5b905f5260205f20015f9054906101000a900473ffffffffffffffffffffffffffffffffffffffff1673ffffffffffffffffffffffffffffffffffffffff163373ffffffffffffffffffffffffffffffffffffffff16036112cd5760095f9054906101000a900473ffffffffffffffffffffffffffffffffffffffff1673ffffffffffffffffffffffffffffffffffffffff1663701fd0f1825f1b6040518263ffffffff1660e01b81526004016111ce919061235e565b5f604051808303815f87803b1580156111e5575f80fd5b505af11580156111f7573d5f803e3d5ffd5b5050505060095f9054906101000a900473ffffffffffffffffffffffffffffffffffffffff1673ffffffffffffffffffffffffffffffffffffffff166354214f696040518163ffffffff1660e01b8152600401602060405180830381865afa158015611265573d5f803e3d5ffd5b505050506040513d601f19601f820116820180604052508101906112899190612497565b6112c8576040517f08c379a00000000000000000000000000000000000000000000000000000000081526004016112bf9061250c565b60405180910390fd5b611424565b600a5f9054906101000a900473ffffffffffffffffffffffffffffffffffffffff1673ffffffffffffffffffffffffffffffffffffffff1663701fd0f1825f1b6040518263ffffffff1660e01b8152600401611329919061235e565b5f604051808303815f87803b158015611340575f80fd5b505af1158015611352573d5f803e3d5ffd5b50505050600a5f9054906101000a900473ffffffffffffffffffffffffffffffffffffffff1673ffffffffffffffffffffffffffffffffffffffff166354214f696040518163ffffffff1660e01b8152600401602060405180830381865afa1580156113c0573d5f803e3d5ffd5b505050506040513d601f19601f820116820180604052508101906113e49190612497565b611423576040517f08c379a000000000000000000000000000000000000000000000000000000000815260040161141a9061250c565b60405180910390fd5b5b60ff811660025f3373ffffffffffffffffffffffffffffffffffffffff1673ffffffffffffffffffffffffffffffffffffffff1681526020019081526020015f20819055505f60045f3373ffffffffffffffffffffffffffffffffffffffff1673ffffffffffffffffffffffffffffffffffffffff1681526020019081526020015f205f6101000a81548160ff02191690831515021790555060075f8154809291906114cf90611f65565b91905055506002600754036114e7576114e66116f6565b5b50565b60095f9054906101000a900473ffffffffffffffffffffffffffffffffffffffff1681565b6005818154811061151e575f80fd5b905f5260205f20015f915054906101000a900473ffffffffffffffffffffffffffffffffffffffff1681565b600267ffffffffffffffff8111156115655761156461252a565b5b6040519080825280602002602001820160405280156115935781602001602082028036833780820191505090505b50600590805190602001906115a9929190611a7f565b506040516115b690611b06565b604051809103905ff0801580156115cf573d5f803e3d5ffd5b5060085f6101000a81548173ffffffffffffffffffffffffffffffffffffffff021916908373ffffffffffffffffffffffffffffffffffffffff16021790555060405161161b90611b13565b604051809103905ff080158015611634573d5f803e3d5ffd5b5060095f6101000a81548173ffffffffffffffffffffffffffffffffffffffff021916908373ffffffffffffffffffffffffffffffffffffffff16021790555060405161168090611b13565b604051809103905ff080158015611699573d5f803e3d5ffd5b50600a5f6101000a81548173ffffffffffffffffffffffffffffffffffffffff021916908373ffffffffffffffffffffffffffffffffffffffff1602179055505f80819055505f6006819055505f6007819055505f600181905550565b5f60025f60055f8154811061170e5761170d611e08565b5b905f5260205f20015f9054906101000a900473ffffffffffffffffffffffffffffffffffffffff1673ffffffffffffffffffffffffffffffffffffffff1673ffffffffffffffffffffffffffffffffffffffff1681526020019081526020015f205490505f60025f600560018154811061178b5761178a611e08565b5b905f5260205f20015f9054906101000a900473ffffffffffffffffffffffffffffffffffffffff1673ffffffffffffffffffffffffffffffffffffffff1673ffffffffffffffffffffffffffffffffffffffff1681526020019081526020015f205490505f60055f8154811061180457611803611e08565b5b905f5260205f20015f9054906101000a900473ffffffffffffffffffffffffffffffffffffffff1690505f600560018154811061184457611843611e08565b5b905f5260205f20015f9054906101000a900473ffffffffffffffffffffffffffffffffffffffff16905061187884846119d6565b156118c8578173ffffffffffffffffffffffffffffffffffffffff166108fc60015490811502906040515f60405180830381858888f193505050501580156118c2573d5f803e3d5ffd5b506119c8565b6118d283856119d6565b15611922578073ffffffffffffffffffffffffffffffffffffffff166108fc60015490811502906040515f60405180830381858888f1935050505015801561191c573d5f803e3d5ffd5b506119c7565b8173ffffffffffffffffffffffffffffffffffffffff166108fc600260015461194b9190612246565b90811502906040515f60405180830381858888f19350505050158015611973573d5f803e3d5ffd5b508073ffffffffffffffffffffffffffffffffffffffff166108fc600260015461199d9190612246565b90811502906040515f60405180830381858888f193505050501580156119c5573d5f803e3d5ffd5b505b5b6119d061154a565b50505050565b5f80831480156119f1575060028214806119f05750600382145b5b80611a125750600183148015611a1157505f821480611a105750600482145b5b5b80611a345750600283148015611a3357506001821480611a325750600382145b5b5b80611a565750600383148015611a5557506001821480611a545750600482145b5b5b80611a775750600483148015611a7657505f821480611a755750600282145b5b5b905092915050565b828054828255905f5260205f20908101928215611af5579160200282015b82811115611af4578251825f6101000a81548173ffffffffffffffffffffffffffffffffffffffff021916908373ffffffffffffffffffffffffffffffffffffffff16021790555091602001919060010190611a9d565b5b509050611b029190611b20565b5090565b6102318061255883390190565b610e058061278983390190565b5b80821115611b37575f815f905550600101611b21565b5090565b5f819050919050565b611b4d81611b3b565b82525050565b5f602082019050611b665f830184611b44565b92915050565b5f80fd5b5f73ffffffffffffffffffffffffffffffffffffffff82169050919050565b5f611b9982611b70565b9050919050565b611ba981611b8f565b8114611bb3575f80fd5b50565b5f81359050611bc481611ba0565b92915050565b5f60208284031215611bdf57611bde611b6c565b5b5f611bec84828501611bb6565b91505092915050565b5f8115159050919050565b611c0981611bf5565b82525050565b5f602082019050611c225f830184611c00565b92915050565b5f819050919050565b5f611c4b611c46611c4184611b70565b611c28565b611b70565b9050919050565b5f611c5c82611c31565b9050919050565b5f611c6d82611c52565b9050919050565b611c7d81611c63565b82525050565b5f602082019050611c965f830184611c74565b92915050565b5f611ca682611c52565b9050919050565b611cb681611c9c565b82525050565b5f602082019050611ccf5f830184611cad565b92915050565b611cde81611b3b565b8114611ce8575f80fd5b50565b5f81359050611cf981611cd5565b92915050565b5f60208284031215611d1457611d13611b6c565b5b5f611d2184828501611ceb565b91505092915050565b5f8060408385031215611d4057611d3f611b6c565b5b5f611d4d85828601611bb6565b9250506020611d5e85828601611bb6565b9150509250929050565b611d7181611b8f565b82525050565b5f602082019050611d8a5f830184611d68565b92915050565b5f82825260208201905092915050565b7f47616d6520616c7265616479206861732074776f20706c6179657273000000005f82015250565b5f611dd4601c83611d90565b9150611ddf82611da0565b602082019050919050565b5f6020820190508181035f830152611e0181611dc8565b9050919050565b7f4e487b71000000000000000000000000000000000000000000000000000000005f52603260045260245ffd5b7f506c6179657220616c72656164792061646465640000000000000000000000005f82015250565b5f611e69601483611d90565b9150611e7482611e35565b602082019050919050565b5f6020820190508181035f830152611e9681611e5d565b9050919050565b7f4d7573742073656e642065786163746c7920302e3030303030312065746865725f82015250565b5f611ed1602083611d90565b9150611edc82611e9d565b602082019050919050565b5f6020820190508181035f830152611efe81611ec5565b9050919050565b7f4e487b71000000000000000000000000000000000000000000000000000000005f52601160045260245ffd5b5f611f3c82611b3b565b9150611f4783611b3b565b9250828201905080821115611f5f57611f5e611f05565b5b92915050565b5f611f6f82611b3b565b91507fffffffffffffffffffffffffffffffffffffffffffffffffffffffffffffffff8203611fa157611fa0611f05565b5b600182019050919050565b7f47616d6520697320656d707479000000000000000000000000000000000000005f82015250565b5f611fe0600d83611d90565b9150611feb82611fac565b602082019050919050565b5f6020820190508181035f83015261200d81611fd4565b9050919050565b5f8151905061202281611cd5565b92915050565b5f6020828403121561203d5761203c611b6c565b5b5f61204a84828501612014565b91505092915050565b7f54696d656f757420706572696f64206e6f7420726561636865640000000000005f82015250565b5f612087601a83611d90565b915061209282612053565b602082019050919050565b5f6020820190508181035f8301526120b48161207b565b9050919050565b7f4f6e6c7920706c61796572302063616e207769746864726177000000000000005f82015250565b5f6120ef601983611d90565b91506120fa826120bb565b602082019050919050565b5f6020820190508181035f83015261211c816120e3565b9050919050565b7f4f6e6c7920706c617965722077686f2072657665616c656400000000000000005f82015250565b5f612157601883611d90565b915061216282612123565b602082019050919050565b5f6020820190508181035f8301526121848161214b565b9050919050565b7f4f6e6c7920706c617965722077686f207069636b656420612063686f696365205f8201527f63616e2077697468647261770000000000000000000000000000000000000000602082015250565b5f6121e5602c83611d90565b91506121f08261218b565b604082019050919050565b5f6020820190508181035f830152612212816121d9565b9050919050565b7f4e487b71000000000000000000000000000000000000000000000000000000005f52601260045260245ffd5b5f61225082611b3b565b915061225b83611b3b565b92508261226b5761226a612219565b5b828204905092915050565b7f4e6f7420656e6f75676820706c617965727300000000000000000000000000005f82015250565b5f6122aa601283611d90565b91506122b582612276565b602082019050919050565b5f6020820190508181035f8301526122d78161229e565b9050919050565b7f416c726561647920706c617965640000000000000000000000000000000000005f82015250565b5f612312600e83611d90565b915061231d826122de565b602082019050919050565b5f6020820190508181035f83015261233f81612306565b9050919050565b5f819050919050565b61235881612346565b82525050565b5f6020820190506123715f83018461234f565b92915050565b7f416c6c20706c617965727320686176656e277420636f6d6d69747465642061205f8201527f63686f6963652079657400000000000000000000000000000000000000000000602082015250565b5f6123d1602a83611d90565b91506123dc82612377565b604082019050919050565b5f6020820190508181035f8301526123fe816123c5565b9050919050565b7f416c72656164792072657665616c6564000000000000000000000000000000005f82015250565b5f612439601083611d90565b915061244482612405565b602082019050919050565b5f6020820190508181035f8301526124668161242d565b9050919050565b61247681611bf5565b8114612480575f80fd5b50565b5f815190506124918161246d565b92915050565b5f602082840312156124ac576124ab611b6c565b5b5f6124b984828501612483565b91505092915050565b7f52657665616c656420696e707574206572726f720000000000000000000000005f82015250565b5f6124f6601483611d90565b9150612501826124c2565b602082019050919050565b5f6020820190508181035f830152612523816124ea565b9050919050565b7f4e487b71000000000000000000000000000000000000000000000000000000005f52604160045260245ffdfe6080604052348015600e575f80fd5b506102158061001c5f395ff3fe608060405234801561000f575f80fd5b506004361061004a575f3560e01c806378e979251461004e578063a63f7c531461006c578063bc06b8cd14610076578063d97c841614610094575b5f80fd5b6100566100b2565b6040516100639190610109565b60405180910390f35b6100746100b7565b005b61007e6100bf565b60405161008b9190610109565b60405180910390f35b61009c6100d2565b6040516100a99190610109565b60405180910390f35b5f5481565b425f81905550565b5f8054426100cd919061014f565b905090565b5f603c5f54426100e2919061014f565b6100ec91906101af565b905090565b5f819050919050565b610103816100f1565b82525050565b5f60208201905061011c5f8301846100fa565b92915050565b7f4e487b71000000000000000000000000000000000000000000000000000000005f52601160045260245ffd5b5f610159826100f1565b9150610164836100f1565b925082820390508181111561017c5761017b610122565b5b92915050565b7f4e487b71000000000000000000000000000000000000000000000000000000005f52601260045260245ffd5b5f6101b9826100f1565b91506101c4836100f1565b9250826101d4576101d3610182565b5b82820490509291505056fea2646970667358221220536b7940d5371faaf75b89b185b412b3b063b6163f59953ace730f47887b6dae64736f6c634300081a0033608060405260645f806101000a81548160ff021916908360ff1602179055503480156028575f80fd5b50610dcf806100365f395ff3fe608060405234801561000f575f80fd5b5060043610610060575f3560e01c80633cf5040a1461006457806354214f69146100945780636ac5db19146100b2578063701fd0f1146100d05780637b43a8e6146100ec578063f14fcbc81461011e575b5f80fd5b61007e600480360381019061007991906107da565b61013a565b60405161008b9190610814565b60405180910390f35b61009c610169565b6040516100a99190610847565b60405180910390f35b6100ba6101bd565b6040516100c7919061087b565b60405180910390f35b6100ea60048036038101906100e591906107da565b6101cd565b005b610106600480360381019061010191906108ee565b61058b565b6040516101159392919061093b565b60405180910390f35b610138600480360381019061013391906107da565b6105d1565b005b5f8160405160200161014c9190610990565b604051602081830303815290604052805190602001209050919050565b5f60015f3373ffffffffffffffffffffffffffffffffffffffff1673ffffffffffffffffffffffffffffffffffffffff1681526020019081526020015f2060010160089054906101000a900460ff16905090565b5f8054906101000a900460ff1681565b5f151560015f3373ffffffffffffffffffffffffffffffffffffffff1673ffffffffffffffffffffffffffffffffffffffff1681526020019081526020015f2060010160089054906101000a900460ff16151514610260576040517f08c379a000000000000000000000000000000000000000000000000000000000815260040161025790610a2a565b60405180910390fd5b6001805f3373ffffffffffffffffffffffffffffffffffffffff1673ffffffffffffffffffffffffffffffffffffffff1681526020019081526020015f2060010160086101000a81548160ff02191690831515021790555060015f3373ffffffffffffffffffffffffffffffffffffffff1673ffffffffffffffffffffffffffffffffffffffff1681526020019081526020015f205f01546103018261013a565b14610341576040517f08c379a000000000000000000000000000000000000000000000000000000000815260040161033890610ab8565b60405180910390fd5b60015f3373ffffffffffffffffffffffffffffffffffffffff1673ffffffffffffffffffffffffffffffffffffffff1681526020019081526020015f206001015f9054906101000a900467ffffffffffffffff1667ffffffffffffffff164367ffffffffffffffff16116103ea576040517f08c379a00000000000000000000000000000000000000000000000000000000081526004016103e190610b6c565b60405180910390fd5b60fa60015f3373ffffffffffffffffffffffffffffffffffffffff1673ffffffffffffffffffffffffffffffffffffffff1681526020019081526020015f206001015f9054906101000a900467ffffffffffffffff1661044a9190610bb7565b67ffffffffffffffff164367ffffffffffffffff1611156104a0576040517f08c379a000000000000000000000000000000000000000000000000000000000815260040161049790610c62565b60405180910390fd5b5f60015f3373ffffffffffffffffffffffffffffffffffffffff1673ffffffffffffffffffffffffffffffffffffffff1681526020019081526020015f206001015f9054906101000a900467ffffffffffffffff1667ffffffffffffffff164090505f805f9054906101000a900460ff1660ff168284604051602001610527929190610c80565b604051602081830303815290604052805190602001205f1c6105499190610ce1565b90507fbc016dd1cadeaefcb851af7a0a93532e0023d536894b730801f7bcfe7065bcc233848360405161057e93929190610d2f565b60405180910390a1505050565b6001602052805f5260405f205f91509050805f015490806001015f9054906101000a900467ffffffffffffffff16908060010160089054906101000a900460ff16905083565b8060015f3373ffffffffffffffffffffffffffffffffffffffff1673ffffffffffffffffffffffffffffffffffffffff1681526020019081526020015f205f01819055504360015f3373ffffffffffffffffffffffffffffffffffffffff1673ffffffffffffffffffffffffffffffffffffffff1681526020019081526020015f206001015f6101000a81548167ffffffffffffffff021916908367ffffffffffffffff1602179055505f60015f3373ffffffffffffffffffffffffffffffffffffffff1673ffffffffffffffffffffffffffffffffffffffff1681526020019081526020015f2060010160086101000a81548160ff0219169083151502179055507f3c1a1f8f38335b17f751c6da4ba7d1865f26b3997535176f5080de9fad8916033360015f3373ffffffffffffffffffffffffffffffffffffffff1673ffffffffffffffffffffffffffffffffffffffff1681526020019081526020015f205f015460015f3373ffffffffffffffffffffffffffffffffffffffff1673ffffffffffffffffffffffffffffffffffffffff1681526020019081526020015f206001015f9054906101000a900467ffffffffffffffff1660405161079893929190610d64565b60405180910390a150565b5f80fd5b5f819050919050565b6107b9816107a7565b81146107c3575f80fd5b50565b5f813590506107d4816107b0565b92915050565b5f602082840312156107ef576107ee6107a3565b5b5f6107fc848285016107c6565b91505092915050565b61080e816107a7565b82525050565b5f6020820190506108275f830184610805565b92915050565b5f8115159050919050565b6108418161082d565b82525050565b5f60208201905061085a5f830184610838565b92915050565b5f60ff82169050919050565b61087581610860565b82525050565b5f60208201905061088e5f83018461086c565b92915050565b5f73ffffffffffffffffffffffffffffffffffffffff82169050919050565b5f6108bd82610894565b9050919050565b6108cd816108b3565b81146108d7575f80fd5b50565b5f813590506108e8816108c4565b92915050565b5f60208284031215610903576109026107a3565b5b5f610910848285016108da565b91505092915050565b5f67ffffffffffffffff82169050919050565b61093581610919565b82525050565b5f60608201905061094e5f830186610805565b61095b602083018561092c565b6109686040830184610838565b949350505050565b5f819050919050565b61098a610985826107a7565b610970565b82525050565b5f61099b8284610979565b60208201915081905092915050565b5f82825260208201905092915050565b7f436f6d6d697452657665616c3a3a72657665616c3a20416c72656164792072655f8201527f7665616c65640000000000000000000000000000000000000000000000000000602082015250565b5f610a146026836109aa565b9150610a1f826109ba565b604082019050919050565b5f6020820190508181035f830152610a4181610a08565b9050919050565b7f436f6d6d697452657665616c3a3a72657665616c3a2052657665616c656420685f8201527f61736820646f6573206e6f74206d6174636820636f6d6d697400000000000000602082015250565b5f610aa26039836109aa565b9150610aad82610a48565b604082019050919050565b5f6020820190508181035f830152610acf81610a96565b9050919050565b7f436f6d6d697452657665616c3a3a72657665616c3a2052657665616c20616e645f8201527f20636f6d6d69742068617070656e6564206f6e207468652073616d6520626c6f60208201527f636b000000000000000000000000000000000000000000000000000000000000604082015250565b5f610b566042836109aa565b9150610b6182610ad6565b606082019050919050565b5f6020820190508181035f830152610b8381610b4a565b9050919050565b7f4e487b71000000000000000000000000000000000000000000000000000000005f52601160045260245ffd5b5f610bc182610919565b9150610bcc83610919565b9250828201905067ffffffffffffffff811115610bec57610beb610b8a565b5b92915050565b7f436f6d6d697452657665616c3a3a72657665616c3a2052657665616c656420745f8201527f6f6f206c61746500000000000000000000000000000000000000000000000000602082015250565b5f610c4c6027836109aa565b9150610c5782610bf2565b604082019050919050565b5f6020820190508181035f830152610c7981610c40565b9050919050565b5f610c8b8285610979565b602082019150610c9b8284610979565b6020820191508190509392505050565b5f819050919050565b7f4e487b71000000000000000000000000000000000000000000000000000000005f52601260045260245ffd5b5f610ceb82610cab565b9150610cf683610cab565b925082610d0657610d05610cb4565b5b828206905092915050565b610d1a816108b3565b82525050565b610d2981610cab565b82525050565b5f606082019050610d425f830186610d11565b610d4f6020830185610805565b610d5c6040830184610d20565b949350505050565b5f606082019050610d775f830186610d11565b610d846020830185610805565b610d91604083018461092c565b94935050505056fea2646970667358221220fdd22c54c033718cc8a7c05d7e199f7c5e11d8f70a7d529af3902eeb1b929b0464736f6c634300081a0033a2646970667358221220a311f81e3b66dce1e1f6d473d530b514fc69fa0c9834be144f2daeef1e35b1ec64736f6c634300081a00336080604052348015600e575f80fd5b506102158061001c5f395ff3fe608060405234801561000f575f80fd5b506004361061004a575f3560e01c806378e979251461004e578063a63f7c531461006c578063bc06b8cd14610076578063d97c841614610094575b5f80fd5b6100566100b2565b6040516100639190610109565b60405180910390f35b6100746100b7565b005b61007e6100bf565b60405161008b9190610109565b60405180910390f35b61009c6100d2565b6040516100a99190610109565b60405180910390f35b5f5481565b425f81905550565b5f8054426100cd919061014f565b905090565b5f603c5f54426100e2919061014f565b6100ec91906101af565b905090565b5f819050919050565b610103816100f1565b82525050565b5f60208201905061011c5f8301846100fa565b92915050565b7f4e487b71000000000000000000000000000000000000000000000000000000005f52601160045260245ffd5b5f610159826100f1565b9150610164836100f1565b925082820390508181111561017c5761017b610122565b5b92915050565b7f4e487b71000000000000000000000000000000000000000000000000000000005f52601260045260245ffd5b5f6101b9826100f1565b91506101c4836100f1565b9250826101d4576101d3610182565b5b82820490509291505056fea2646970667358221220536b7940d5371faaf75b89b185b412b3b063b6163f59953ace730f47887b6dae64736f6c634300081a0033608060405260645f806101000a81548160ff021916908360ff1602179055503480156028575f80fd5b50610dcf806100365f395ff3fe608060405234801561000f575f80fd5b5060043610610060575f3560e01c80633cf5040a1461006457806354214f69146100945780636ac5db19146100b2578063701fd0f1146100d05780637b43a8e6146100ec578063f14fcbc81461011e575b5f80fd5b61007e600480360381019061007991906107da565b61013a565b60405161008b9190610814565b60405180910390f35b61009c610169565b6040516100a99190610847565b60405180910390f35b6100ba6101bd565b6040516100c7919061087b565b60405180910390f35b6100ea60048036038101906100e591906107da565b6101cd565b005b610106600480360381019061010191906108ee565b61058b565b6040516101159392919061093b565b60405180910390f35b610138600480360381019061013391906107da565b6105d1565b005b5f8160405160200161014c9190610990565b604051602081830303815290604052805190602001209050919050565b5f60015f3373ffffffffffffffffffffffffffffffffffffffff1673ffffffffffffffffffffffffffffffffffffffff1681526020019081526020015f2060010160089054906101000a900460ff16905090565b5f8054906101000a900460ff1681565b5f151560015f3373ffffffffffffffffffffffffffffffffffffffff1673ffffffffffffffffffffffffffffffffffffffff1681526020019081526020015f2060010160089054906101000a900460ff16151514610260576040517f08c379a000000000000000000000000000000000000000000000000000000000815260040161025790610a2a565b60405180910390fd5b6001805f3373ffffffffffffffffffffffffffffffffffffffff1673ffffffffffffffffffffffffffffffffffffffff1681526020019081526020015f2060010160086101000a81548160ff02191690831515021790555060015f3373ffffffffffffffffffffffffffffffffffffffff1673ffffffffffffffffffffffffffffffffffffffff1681526020019081526020015f205f01546103018261013a565b14610341576040517f08c379a000000000000000000000000000000000000000000000000000000000815260040161033890610ab8565b60405180910390fd5b60015f3373ffffffffffffffffffffffffffffffffffffffff1673ffffffffffffffffffffffffffffffffffffffff1681526020019081526020015f206001015f9054906101000a900467ffffffffffffffff1667ffffffffffffffff164367ffffffffffffffff16116103ea576040517f08c379a00000000000000000000000000000000000000000000000000000000081526004016103e190610b6c565b60405180910390fd5b60fa60015f3373ffffffffffffffffffffffffffffffffffffffff1673ffffffffffffffffffffffffffffffffffffffff1681526020019081526020015f206001015f9054906101000a900467ffffffffffffffff1661044a9190610bb7565b67ffffffffffffffff164367ffffffffffffffff1611156104a0576040517f08c379a000000000000000000000000000000000000000000000000000000000815260040161049790610c62565b60405180910390fd5b5f60015f3373ffffffffffffffffffffffffffffffffffffffff1673ffffffffffffffffffffffffffffffffffffffff1681526020019081526020015f206001015f9054906101000a900467ffffffffffffffff1667ffffffffffffffff164090505f805f9054906101000a900460ff1660ff168284604051602001610527929190610c80565b604051602081830303815290604052805190602001205f1c6105499190610ce1565b90507fbc016dd1cadeaefcb851af7a0a93532e0023d536894b730801f7bcfe7065bcc233848360405161057e93929190610d2f565b60405180910390a1505050565b6001602052805f5260405f205f91509050805f015490806001015f9054906101000a900467ffffffffffffffff16908060010160089054906101000a900460ff16905083565b8060015f3373ffffffffffffffffffffffffffffffffffffffff1673ffffffffffffffffffffffffffffffffffffffff1681526020019081526020015f205f01819055504360015f3373ffffffffffffffffffffffffffffffffffffffff1673ffffffffffffffffffffffffffffffffffffffff1681526020019081526020015f206001015f6101000a81548167ffffffffffffffff021916908367ffffffffffffffff1602179055505f60015f3373ffffffffffffffffffffffffffffffffffffffff1673ffffffffffffffffffffffffffffffffffffffff1681526020019081526020015f2060010160086101000a81548160ff0219169083151502179055507f3c1a1f8f38335b17f751c6da4ba7d1865f26b3997535176f5080de9fad8916033360015f3373ffffffffffffffffffffffffffffffffffffffff1673ffffffffffffffffffffffffffffffffffffffff1681526020019081526020015f205f015460015f3373ffffffffffffffffffffffffffffffffffffffff1673ffffffffffffffffffffffffffffffffffffffff1681526020019081526020015f206001015f9054906101000a900467ffffffffffffffff1660405161079893929190610d64565b60405180910390a150565b5f80fd5b5f819050919050565b6107b9816107a7565b81146107c3575f80fd5b50565b5f813590506107d4816107b0565b92915050565b5f602082840312156107ef576107ee6107a3565b5b5f6107fc848285016107c6565b91505092915050565b61080e816107a7565b82525050565b5f6020820190506108275f830184610805565b92915050565b5f8115159050919050565b6108418161082d565b82525050565b5f60208201905061085a5f830184610838565b92915050565b5f60ff82169050919050565b61087581610860565b82525050565b5f60208201905061088e5f83018461086c565b92915050565b5f73ffffffffffffffffffffffffffffffffffffffff82169050919050565b5f6108bd82610894565b9050919050565b6108cd816108b3565b81146108d7575f80fd5b50565b5f813590506108e8816108c4565b92915050565b5f60208284031215610903576109026107a3565b5b5f610910848285016108da565b91505092915050565b5f67ffffffffffffffff82169050919050565b61093581610919565b82525050565b5f60608201905061094e5f830186610805565b61095b602083018561092c565b6109686040830184610838565b949350505050565b5f819050919050565b61098a610985826107a7565b610970565b82525050565b5f61099b8284610979565b60208201915081905092915050565b5f82825260208201905092915050565b7f436f6d6d697452657665616c3a3a72657665616c3a20416c72656164792072655f8201527f7665616c65640000000000000000000000000000000000000000000000000000602082015250565b5f610a146026836109aa565b9150610a1f826109ba565b604082019050919050565b5f6020820190508181035f830152610a4181610a08565b9050919050565b7f436f6d6d697452657665616c3a3a72657665616c3a2052657665616c656420685f8201527f61736820646f6573206e6f74206d6174636820636f6d6d697400000000000000602082015250565b5f610aa26039836109aa565b9150610aad82610a48565b604082019050919050565b5f6020820190508181035f830152610acf81610a96565b9050919050565b7f436f6d6d697452657665616c3a3a72657665616c3a2052657665616c20616e645f8201527f20636f6d6d69742068617070656e6564206f6e207468652073616d6520626c6f60208201527f636b000000000000000000000000000000000000000000000000000000000000604082015250565b5f610b566042836109aa565b9150610b6182610ad6565b606082019050919050565b5f6020820190508181035f830152610b8381610b4a565b9050919050565b7f4e487b71000000000000000000000000000000000000000000000000000000005f52601160045260245ffd5b5f610bc182610919565b9150610bcc83610919565b9250828201905067ffffffffffffffff811115610bec57610beb610b8a565b5b92915050565b7f436f6d6d697452657665616c3a3a72657665616c3a2052657665616c656420745f8201527f6f6f206c61746500000000000000000000000000000000000000000000000000602082015250565b5f610c4c6027836109aa565b9150610c5782610bf2565b604082019050919050565b5f6020820190508181035f830152610c7981610c40565b9050919050565b5f610c8b8285610979565b602082019150610c9b8284610979565b6020820191508190509392505050565b5f819050919050565b7f4e487b71000000000000000000000000000000000000000000000000000000005f52601260045260245ffd5b5f610ceb82610cab565b9150610cf683610cab565b925082610d0657610d05610cb4565b5b828206905092915050565b610d1a816108b3565b82525050565b610d2981610cab565b82525050565b5f606082019050610d425f830186610d11565b610d4f6020830185610805565b610d5c6040830184610d20565b949350505050565b5f606082019050610d775f830186610d11565b610d846020830185610805565b610d91604083018461092c565b94935050505056fea2646970667358221220fdd22c54c033718cc8a7c05d7e199f7c5e11d8f70a7d529af3902eeb1b929b0464736f6c634300081a0033",
					"opcodes": "PUSH1 0x80 PUSH1 0x40 MSTORE PUSH0 DUP1 SSTORE PUSH0 PUSH1 0x1 SSTORE PUSH0 PUSH1 0x6 SSTORE PUSH0 PUSH1 0x7 SSTORE PUSH1 0x40 MLOAD PUSH2 0x1F SWAP1 PUSH2 0x157 JUMP JUMPDEST PUSH1 0x40 MLOAD DUP1 SWAP2 SUB SWAP1 PUSH0 CREATE DUP1 ISZERO DUP1 ISZERO PUSH2 0x38 JUMPI RETURNDATASIZE PUSH0 DUP1 RETURNDATACOPY RETURNDATASIZE PUSH0 REVERT JUMPDEST POP PUSH1 0x8 PUSH0 PUSH2 0x100 EXP DUP2 SLOAD DUP2 PUSH20 0xFFFFFFFFFFFFFFFFFFFFFFFFFFFFFFFFFFFFFFFF MUL NOT AND SWAP1 DUP4 PUSH20 0xFFFFFFFFFFFFFFFFFFFFFFFFFFFFFFFFFFFFFFFF AND MUL OR SWAP1 SSTORE POP PUSH1 0x40 MLOAD PUSH2 0x84 SWAP1 PUSH2 0x164 JUMP JUMPDEST PUSH1 0x40 MLOAD DUP1 SWAP2 SUB SWAP1 PUSH0 CREATE DUP1 ISZERO DUP1 ISZERO PUSH2 0x9D JUMPI RETURNDATASIZE PUSH0 DUP1 RETURNDATACOPY RETURNDATASIZE PUSH0 REVERT JUMPDEST POP PUSH1 0x9 PUSH0 PUSH2 0x100 EXP DUP2 SLOAD DUP2 PUSH20 0xFFFFFFFFFFFFFFFFFFFFFFFFFFFFFFFFFFFFFFFF MUL NOT AND SWAP1 DUP4 PUSH20 0xFFFFFFFFFFFFFFFFFFFFFFFFFFFFFFFFFFFFFFFF AND MUL OR SWAP1 SSTORE POP PUSH1 0x40 MLOAD PUSH2 0xE9 SWAP1 PUSH2 0x164 JUMP JUMPDEST PUSH1 0x40 MLOAD DUP1 SWAP2 SUB SWAP1 PUSH0 CREATE DUP1 ISZERO DUP1 ISZERO PUSH2 0x102 JUMPI RETURNDATASIZE PUSH0 DUP1 RETURNDATACOPY RETURNDATASIZE PUSH0 REVERT JUMPDEST POP PUSH1 0xA PUSH0 PUSH2 0x100 EXP DUP2 SLOAD DUP2 PUSH20 0xFFFFFFFFFFFFFFFFFFFFFFFFFFFFFFFFFFFFFFFF MUL NOT AND SWAP1 DUP4 PUSH20 0xFFFFFFFFFFFFFFFFFFFFFFFFFFFFFFFFFFFFFFFF AND MUL OR SWAP1 SSTORE POP PUSH0 PUSH1 0xB SSTORE CALLVALUE DUP1 ISZERO PUSH2 0x151 JUMPI PUSH0 DUP1 REVERT JUMPDEST POP PUSH2 0x171 JUMP JUMPDEST PUSH2 0x231 DUP1 PUSH2 0x3741 DUP4 CODECOPY ADD SWAP1 JUMP JUMPDEST PUSH2 0xE05 DUP1 PUSH2 0x3972 DUP4 CODECOPY ADD SWAP1 JUMP JUMPDEST PUSH2 0x35C3 DUP1 PUSH2 0x17E PUSH0 CODECOPY PUSH0 RETURN INVALID PUSH1 0x80 PUSH1 0x40 MSTORE PUSH1 0x4 CALLDATASIZE LT PUSH2 0xFD JUMPI PUSH0 CALLDATALOAD PUSH1 0xE0 SHR DUP1 PUSH4 0x8FFBC767 GT PUSH2 0x94 JUMPI DUP1 PUSH4 0xCE6E1C4E GT PUSH2 0x63 JUMPI DUP1 PUSH4 0xCE6E1C4E EQ PUSH2 0x2FB JUMPI DUP1 PUSH4 0xDD62ED3E EQ PUSH2 0x323 JUMPI DUP1 PUSH4 0xDEA29C54 EQ PUSH2 0x35F JUMPI DUP1 PUSH4 0xDF870A62 EQ PUSH2 0x387 JUMPI DUP1 PUSH4 0xF71D96CB EQ PUSH2 0x3B1 JUMPI PUSH2 0xFD JUMP JUMPDEST DUP1 PUSH4 0x8FFBC767 EQ PUSH2 0x22F JUMPI DUP1 PUSH4 0x90D5D0C3 EQ PUSH2 0x26B JUMPI DUP1 PUSH4 0xA040478D EQ PUSH2 0x295 JUMPI DUP1 PUSH4 0xC876E615 EQ PUSH2 0x2D1 JUMPI PUSH2 0xFD JUMP JUMPDEST DUP1 PUSH4 0x2FC54F73 GT PUSH2 0xD0 JUMPI DUP1 PUSH4 0x2FC54F73 EQ PUSH2 0x19B JUMPI DUP1 PUSH4 0x3C6A7F9B EQ PUSH2 0x1B1 JUMPI DUP1 PUSH4 0x728385FB EQ PUSH2 0x1DB JUMPI DUP1 PUSH4 0x77CFB378 EQ PUSH2 0x205 JUMPI PUSH2 0xFD JUMP JUMPDEST DUP1 PUSH4 0x86F7815 EQ PUSH2 0x101 JUMPI DUP1 PUSH4 0x190CF745 EQ PUSH2 0x12B JUMPI DUP1 PUSH4 0x228CB733 EQ PUSH2 0x167 JUMPI DUP1 PUSH4 0x27B5DB8A EQ PUSH2 0x191 JUMPI JUMPDEST PUSH0 DUP1 REVERT JUMPDEST CALLVALUE DUP1 ISZERO PUSH2 0x10C JUMPI PUSH0 DUP1 REVERT JUMPDEST POP PUSH2 0x115 PUSH2 0x3ED JUMP JUMPDEST PUSH1 0x40 MLOAD PUSH2 0x122 SWAP2 SWAP1 PUSH2 0x1B53 JUMP JUMPDEST PUSH1 0x40 MLOAD DUP1 SWAP2 SUB SWAP1 RETURN JUMPDEST CALLVALUE DUP1 ISZERO PUSH2 0x136 JUMPI PUSH0 DUP1 REVERT JUMPDEST POP PUSH2 0x151 PUSH1 0x4 DUP1 CALLDATASIZE SUB DUP2 ADD SWAP1 PUSH2 0x14C SWAP2 SWAP1 PUSH2 0x1BCA JUMP JUMPDEST PUSH2 0x3F3 JUMP JUMPDEST PUSH1 0x40 MLOAD PUSH2 0x15E SWAP2 SWAP1 PUSH2 0x1C0F JUMP JUMPDEST PUSH1 0x40 MLOAD DUP1 SWAP2 SUB SWAP1 RETURN JUMPDEST CALLVALUE DUP1 ISZERO PUSH2 0x172 JUMPI PUSH0 DUP1 REVERT JUMPDEST POP PUSH2 0x17B PUSH2 0x410 JUMP JUMPDEST PUSH1 0x40 MLOAD PUSH2 0x188 SWAP2 SWAP1 PUSH2 0x1B53 JUMP JUMPDEST PUSH1 0x40 MLOAD DUP1 SWAP2 SUB SWAP1 RETURN JUMPDEST PUSH2 0x199 PUSH2 0x416 JUMP JUMPDEST STOP JUMPDEST CALLVALUE DUP1 ISZERO PUSH2 0x1A6 JUMPI PUSH0 DUP1 REVERT JUMPDEST POP PUSH2 0x1AF PUSH2 0x6BA JUMP JUMPDEST STOP JUMPDEST CALLVALUE DUP1 ISZERO PUSH2 0x1BC JUMPI PUSH0 DUP1 REVERT JUMPDEST POP PUSH2 0x1C5 PUSH2 0xC73 JUMP JUMPDEST PUSH1 0x40 MLOAD PUSH2 0x1D2 SWAP2 SWAP1 PUSH2 0x1C83 JUMP JUMPDEST PUSH1 0x40 MLOAD DUP1 SWAP2 SUB SWAP1 RETURN JUMPDEST CALLVALUE DUP1 ISZERO PUSH2 0x1E6 JUMPI PUSH0 DUP1 REVERT JUMPDEST POP PUSH2 0x1EF PUSH2 0xC98 JUMP JUMPDEST PUSH1 0x40 MLOAD PUSH2 0x1FC SWAP2 SWAP1 PUSH2 0x1CBC JUMP JUMPDEST PUSH1 0x40 MLOAD DUP1 SWAP2 SUB SWAP1 RETURN JUMPDEST CALLVALUE DUP1 ISZERO PUSH2 0x210 JUMPI PUSH0 DUP1 REVERT JUMPDEST POP PUSH2 0x219 PUSH2 0xCBD JUMP JUMPDEST PUSH1 0x40 MLOAD PUSH2 0x226 SWAP2 SWAP1 PUSH2 0x1B53 JUMP JUMPDEST PUSH1 0x40 MLOAD DUP1 SWAP2 SUB SWAP1 RETURN JUMPDEST CALLVALUE DUP1 ISZERO PUSH2 0x23A JUMPI PUSH0 DUP1 REVERT JUMPDEST POP PUSH2 0x255 PUSH1 0x4 DUP1 CALLDATASIZE SUB DUP2 ADD SWAP1 PUSH2 0x250 SWAP2 SWAP1 PUSH2 0x1BCA JUMP JUMPDEST PUSH2 0xCC3 JUMP JUMPDEST PUSH1 0x40 MLOAD PUSH2 0x262 SWAP2 SWAP1 PUSH2 0x1C0F JUMP JUMPDEST PUSH1 0x40 MLOAD DUP1 SWAP2 SUB SWAP1 RETURN JUMPDEST CALLVALUE DUP1 ISZERO PUSH2 0x276 JUMPI PUSH0 DUP1 REVERT JUMPDEST POP PUSH2 0x27F PUSH2 0xCE0 JUMP JUMPDEST PUSH1 0x40 MLOAD PUSH2 0x28C SWAP2 SWAP1 PUSH2 0x1B53 JUMP JUMPDEST PUSH1 0x40 MLOAD DUP1 SWAP2 SUB SWAP1 RETURN JUMPDEST CALLVALUE DUP1 ISZERO PUSH2 0x2A0 JUMPI PUSH0 DUP1 REVERT JUMPDEST POP PUSH2 0x2BB PUSH1 0x4 DUP1 CALLDATASIZE SUB DUP2 ADD SWAP1 PUSH2 0x2B6 SWAP2 SWAP1 PUSH2 0x1BCA JUMP JUMPDEST PUSH2 0xCE5 JUMP JUMPDEST PUSH1 0x40 MLOAD PUSH2 0x2C8 SWAP2 SWAP1 PUSH2 0x1B53 JUMP JUMPDEST PUSH1 0x40 MLOAD DUP1 SWAP2 SUB SWAP1 RETURN JUMPDEST CALLVALUE DUP1 ISZERO PUSH2 0x2DC JUMPI PUSH0 DUP1 REVERT JUMPDEST POP PUSH2 0x2E5 PUSH2 0xCFA JUMP JUMPDEST PUSH1 0x40 MLOAD PUSH2 0x2F2 SWAP2 SWAP1 PUSH2 0x1B53 JUMP JUMPDEST PUSH1 0x40 MLOAD DUP1 SWAP2 SUB SWAP1 RETURN JUMPDEST CALLVALUE DUP1 ISZERO PUSH2 0x306 JUMPI PUSH0 DUP1 REVERT JUMPDEST POP PUSH2 0x321 PUSH1 0x4 DUP1 CALLDATASIZE SUB DUP2 ADD SWAP1 PUSH2 0x31C SWAP2 SWAP1 PUSH2 0x1CFF JUMP JUMPDEST PUSH2 0xD00 JUMP JUMPDEST STOP JUMPDEST CALLVALUE DUP1 ISZERO PUSH2 0x32E JUMPI PUSH0 DUP1 REVERT JUMPDEST POP PUSH2 0x349 PUSH1 0x4 DUP1 CALLDATASIZE SUB DUP2 ADD SWAP1 PUSH2 0x344 SWAP2 SWAP1 PUSH2 0x1D2A JUMP JUMPDEST PUSH2 0x1016 JUMP JUMPDEST PUSH1 0x40 MLOAD PUSH2 0x356 SWAP2 SWAP1 PUSH2 0x1B53 JUMP JUMPDEST PUSH1 0x40 MLOAD DUP1 SWAP2 SUB SWAP1 RETURN JUMPDEST CALLVALUE DUP1 ISZERO PUSH2 0x36A JUMPI PUSH0 DUP1 REVERT JUMPDEST POP PUSH2 0x385 PUSH1 0x4 DUP1 CALLDATASIZE SUB DUP2 ADD SWAP1 PUSH2 0x380 SWAP2 SWAP1 PUSH2 0x1CFF JUMP JUMPDEST PUSH2 0x1036 JUMP JUMPDEST STOP JUMPDEST CALLVALUE DUP1 ISZERO PUSH2 0x392 JUMPI PUSH0 DUP1 REVERT JUMPDEST POP PUSH2 0x39B PUSH2 0x14EA JUMP JUMPDEST PUSH1 0x40 MLOAD PUSH2 0x3A8 SWAP2 SWAP1 PUSH2 0x1CBC JUMP JUMPDEST PUSH1 0x40 MLOAD DUP1 SWAP2 SUB SWAP1 RETURN JUMPDEST CALLVALUE DUP1 ISZERO PUSH2 0x3BC JUMPI PUSH0 DUP1 REVERT JUMPDEST POP PUSH2 0x3D7 PUSH1 0x4 DUP1 CALLDATASIZE SUB DUP2 ADD SWAP1 PUSH2 0x3D2 SWAP2 SWAP1 PUSH2 0x1CFF JUMP JUMPDEST PUSH2 0x150F JUMP JUMPDEST PUSH1 0x40 MLOAD PUSH2 0x3E4 SWAP2 SWAP1 PUSH2 0x1D77 JUMP JUMPDEST PUSH1 0x40 MLOAD DUP1 SWAP2 SUB SWAP1 RETURN JUMPDEST PUSH1 0x6 SLOAD DUP2 JUMP JUMPDEST PUSH1 0x3 PUSH1 0x20 MSTORE DUP1 PUSH0 MSTORE PUSH1 0x40 PUSH0 KECCAK256 PUSH0 SWAP2 POP SLOAD SWAP1 PUSH2 0x100 EXP SWAP1 DIV PUSH1 0xFF AND DUP2 JUMP JUMPDEST PUSH1 0x1 SLOAD DUP2 JUMP JUMPDEST PUSH1 0x2 PUSH0 SLOAD LT PUSH2 0x45A JUMPI PUSH1 0x40 MLOAD PUSH32 0x8C379A000000000000000000000000000000000000000000000000000000000 DUP2 MSTORE PUSH1 0x4 ADD PUSH2 0x451 SWAP1 PUSH2 0x1DEA JUMP JUMPDEST PUSH1 0x40 MLOAD DUP1 SWAP2 SUB SWAP1 REVERT JUMPDEST PUSH0 DUP1 SLOAD GT ISZERO PUSH2 0x511 JUMPI PUSH1 0x5 PUSH0 DUP2 SLOAD DUP2 LT PUSH2 0x477 JUMPI PUSH2 0x476 PUSH2 0x1E08 JUMP JUMPDEST JUMPDEST SWAP1 PUSH0 MSTORE PUSH1 0x20 PUSH0 KECCAK256 ADD PUSH0 SWAP1 SLOAD SWAP1 PUSH2 0x100 EXP SWAP1 DIV PUSH20 0xFFFFFFFFFFFFFFFFFFFFFFFFFFFFFFFFFFFFFFFF AND PUSH20 0xFFFFFFFFFFFFFFFFFFFFFFFFFFFFFFFFFFFFFFFF AND CALLER PUSH20 0xFFFFFFFFFFFFFFFFFFFFFFFFFFFFFFFFFFFFFFFF AND SUB PUSH2 0x50C JUMPI PUSH1 0x40 MLOAD PUSH32 0x8C379A000000000000000000000000000000000000000000000000000000000 DUP2 MSTORE PUSH1 0x4 ADD PUSH2 0x503 SWAP1 PUSH2 0x1E7F JUMP JUMPDEST PUSH1 0x40 MLOAD DUP1 SWAP2 SUB SWAP1 REVERT JUMPDEST PUSH2 0x58E JUMP JUMPDEST PUSH1 0x8 PUSH0 SWAP1 SLOAD SWAP1 PUSH2 0x100 EXP SWAP1 DIV PUSH20 0xFFFFFFFFFFFFFFFFFFFFFFFFFFFFFFFFFFFFFFFF AND PUSH20 0xFFFFFFFFFFFFFFFFFFFFFFFFFFFFFFFFFFFFFFFF AND PUSH4 0xA63F7C53 PUSH1 0x40 MLOAD DUP2 PUSH4 0xFFFFFFFF AND PUSH1 0xE0 SHL DUP2 MSTORE PUSH1 0x4 ADD PUSH0 PUSH1 0x40 MLOAD DUP1 DUP4 SUB DUP2 PUSH0 DUP8 DUP1 EXTCODESIZE ISZERO DUP1 ISZERO PUSH2 0x577 JUMPI PUSH0 DUP1 REVERT JUMPDEST POP GAS CALL ISZERO DUP1 ISZERO PUSH2 0x589 JUMPI RETURNDATASIZE PUSH0 DUP1 RETURNDATACOPY RETURNDATASIZE PUSH0 REVERT JUMPDEST POP POP POP POP JUMPDEST PUSH5 0xE8D4A51000 CALLVALUE EQ PUSH2 0x5D5 JUMPI PUSH1 0x40 MLOAD PUSH32 0x8C379A000000000000000000000000000000000000000000000000000000000 DUP2 MSTORE PUSH1 0x4 ADD PUSH2 0x5CC SWAP1 PUSH2 0x1EE7 JUMP JUMPDEST PUSH1 0x40 MLOAD DUP1 SWAP2 SUB SWAP1 REVERT JUMPDEST CALLVALUE PUSH1 0x1 PUSH0 DUP3 DUP3 SLOAD PUSH2 0x5E6 SWAP2 SWAP1 PUSH2 0x1F32 JUMP JUMPDEST SWAP3 POP POP DUP2 SWAP1 SSTORE POP PUSH1 0x1 PUSH1 0x3 PUSH0 CALLER PUSH20 0xFFFFFFFFFFFFFFFFFFFFFFFFFFFFFFFFFFFFFFFF AND PUSH20 0xFFFFFFFFFFFFFFFFFFFFFFFFFFFFFFFFFFFFFFFF AND DUP2 MSTORE PUSH1 0x20 ADD SWAP1 DUP2 MSTORE PUSH1 0x20 ADD PUSH0 KECCAK256 PUSH0 PUSH2 0x100 EXP DUP2 SLOAD DUP2 PUSH1 0xFF MUL NOT AND SWAP1 DUP4 ISZERO ISZERO MUL OR SWAP1 SSTORE POP PUSH1 0x5 CALLER SWAP1 DUP1 PUSH1 0x1 DUP2 SLOAD ADD DUP1 DUP3 SSTORE DUP1 SWAP2 POP POP PUSH1 0x1 SWAP1 SUB SWAP1 PUSH0 MSTORE PUSH1 0x20 PUSH0 KECCAK256 ADD PUSH0 SWAP1 SWAP2 SWAP1 SWAP2 SWAP1 SWAP2 PUSH2 0x100 EXP DUP2 SLOAD DUP2 PUSH20 0xFFFFFFFFFFFFFFFFFFFFFFFFFFFFFFFFFFFFFFFF MUL NOT AND SWAP1 DUP4 PUSH20 0xFFFFFFFFFFFFFFFFFFFFFFFFFFFFFFFFFFFFFFFF AND MUL OR SWAP1 SSTORE POP PUSH0 DUP1 DUP2 SLOAD DUP1 SWAP3 SWAP2 SWAP1 PUSH2 0x6B3 SWAP1 PUSH2 0x1F65 JUMP JUMPDEST SWAP2 SWAP1 POP SSTORE POP JUMP JUMPDEST PUSH0 DUP1 SLOAD GT PUSH2 0x6FD JUMPI PUSH1 0x40 MLOAD PUSH32 0x8C379A000000000000000000000000000000000000000000000000000000000 DUP2 MSTORE PUSH1 0x4 ADD PUSH2 0x6F4 SWAP1 PUSH2 0x1FF6 JUMP JUMPDEST PUSH1 0x40 MLOAD DUP1 SWAP2 SUB SWAP1 REVERT JUMPDEST PUSH1 0x8 PUSH0 SWAP1 SLOAD SWAP1 PUSH2 0x100 EXP SWAP1 DIV PUSH20 0xFFFFFFFFFFFFFFFFFFFFFFFFFFFFFFFFFFFFFFFF AND PUSH20 0xFFFFFFFFFFFFFFFFFFFFFFFFFFFFFFFFFFFFFFFF AND PUSH4 0xD97C8416 PUSH1 0x40 MLOAD DUP2 PUSH4 0xFFFFFFFF AND PUSH1 0xE0 SHL DUP2 MSTORE PUSH1 0x4 ADD PUSH1 0x20 PUSH1 0x40 MLOAD DUP1 DUP4 SUB DUP2 DUP7 GAS STATICCALL ISZERO DUP1 ISZERO PUSH2 0x767 JUMPI RETURNDATASIZE PUSH0 DUP1 RETURNDATACOPY RETURNDATASIZE PUSH0 REVERT JUMPDEST POP POP POP POP PUSH1 0x40 MLOAD RETURNDATASIZE PUSH1 0x1F NOT PUSH1 0x1F DUP3 ADD AND DUP3 ADD DUP1 PUSH1 0x40 MSTORE POP DUP2 ADD SWAP1 PUSH2 0x78B SWAP2 SWAP1 PUSH2 0x2028 JUMP JUMPDEST PUSH1 0xB DUP2 SWAP1 SSTORE POP PUSH1 0xA PUSH1 0xB SLOAD LT ISZERO PUSH2 0x7D7 JUMPI PUSH1 0x40 MLOAD PUSH32 0x8C379A000000000000000000000000000000000000000000000000000000000 DUP2 MSTORE PUSH1 0x4 ADD PUSH2 0x7CE SWAP1 PUSH2 0x209D JUMP JUMPDEST PUSH1 0x40 MLOAD DUP1 SWAP2 SUB SWAP1 REVERT JUMPDEST PUSH0 PUSH1 0x5 PUSH0 DUP2 SLOAD DUP2 LT PUSH2 0x7EC JUMPI PUSH2 0x7EB PUSH2 0x1E08 JUMP JUMPDEST JUMPDEST SWAP1 PUSH0 MSTORE PUSH1 0x20 PUSH0 KECCAK256 ADD PUSH0 SWAP1 SLOAD SWAP1 PUSH2 0x100 EXP SWAP1 DIV PUSH20 0xFFFFFFFFFFFFFFFFFFFFFFFFFFFFFFFFFFFFFFFF AND SWAP1 POP PUSH1 0x1 PUSH0 SLOAD SUB PUSH2 0x913 JUMPI PUSH1 0x5 PUSH0 DUP2 SLOAD DUP2 LT PUSH2 0x833 JUMPI PUSH2 0x832 PUSH2 0x1E08 JUMP JUMPDEST JUMPDEST SWAP1 PUSH0 MSTORE PUSH1 0x20 PUSH0 KECCAK256 ADD PUSH0 SWAP1 SLOAD SWAP1 PUSH2 0x100 EXP SWAP1 DIV PUSH20 0xFFFFFFFFFFFFFFFFFFFFFFFFFFFFFFFFFFFFFFFF AND PUSH20 0xFFFFFFFFFFFFFFFFFFFFFFFFFFFFFFFFFFFFFFFF AND CALLER PUSH20 0xFFFFFFFFFFFFFFFFFFFFFFFFFFFFFFFFFFFFFFFF AND EQ PUSH2 0x8C8 JUMPI PUSH1 0x40 MLOAD PUSH32 0x8C379A000000000000000000000000000000000000000000000000000000000 DUP2 MSTORE PUSH1 0x4 ADD PUSH2 0x8BF SWAP1 PUSH2 0x2105 JUMP JUMPDEST PUSH1 0x40 MLOAD DUP1 SWAP2 SUB SWAP1 REVERT JUMPDEST DUP1 PUSH20 0xFFFFFFFFFFFFFFFFFFFFFFFFFFFFFFFFFFFFFFFF AND PUSH2 0x8FC PUSH1 0x1 SLOAD SWAP1 DUP2 ISZERO MUL SWAP1 PUSH1 0x40 MLOAD PUSH0 PUSH1 0x40 MLOAD DUP1 DUP4 SUB DUP2 DUP6 DUP9 DUP9 CALL SWAP4 POP POP POP POP ISZERO DUP1 ISZERO PUSH2 0x90D JUMPI RETURNDATASIZE PUSH0 DUP1 RETURNDATACOPY RETURNDATASIZE PUSH0 REVERT JUMPDEST POP PUSH2 0xC67 JUMP JUMPDEST PUSH1 0x2 PUSH1 0x6 SLOAD SUB PUSH2 0xAF6 JUMPI PUSH1 0x1 PUSH1 0x7 SLOAD SUB PUSH2 0xA9A JUMPI PUSH1 0x4 PUSH0 CALLER PUSH20 0xFFFFFFFFFFFFFFFFFFFFFFFFFFFFFFFFFFFFFFFF AND PUSH20 0xFFFFFFFFFFFFFFFFFFFFFFFFFFFFFFFFFFFFFFFF AND DUP2 MSTORE PUSH1 0x20 ADD SWAP1 DUP2 MSTORE PUSH1 0x20 ADD PUSH0 KECCAK256 PUSH0 SWAP1 SLOAD SWAP1 PUSH2 0x100 EXP SWAP1 DIV PUSH1 0xFF AND ISZERO DUP1 ISZERO PUSH2 0xA56 JUMPI POP PUSH1 0x5 PUSH0 DUP2 SLOAD DUP2 LT PUSH2 0x98D JUMPI PUSH2 0x98C PUSH2 0x1E08 JUMP JUMPDEST JUMPDEST SWAP1 PUSH0 MSTORE PUSH1 0x20 PUSH0 KECCAK256 ADD PUSH0 SWAP1 SLOAD SWAP1 PUSH2 0x100 EXP SWAP1 DIV PUSH20 0xFFFFFFFFFFFFFFFFFFFFFFFFFFFFFFFFFFFFFFFF AND PUSH20 0xFFFFFFFFFFFFFFFFFFFFFFFFFFFFFFFFFFFFFFFF AND CALLER PUSH20 0xFFFFFFFFFFFFFFFFFFFFFFFFFFFFFFFFFFFFFFFF AND EQ DUP1 PUSH2 0xA55 JUMPI POP PUSH1 0x5 PUSH1 0x1 DUP2 SLOAD DUP2 LT PUSH2 0x9FE JUMPI PUSH2 0x9FD PUSH2 0x1E08 JUMP JUMPDEST JUMPDEST SWAP1 PUSH0 MSTORE PUSH1 0x20 PUSH0 KECCAK256 ADD PUSH0 SWAP1 SLOAD SWAP1 PUSH2 0x100 EXP SWAP1 DIV PUSH20 0xFFFFFFFFFFFFFFFFFFFFFFFFFFFFFFFFFFFFFFFF AND PUSH20 0xFFFFFFFFFFFFFFFFFFFFFFFFFFFFFFFFFFFFFFFF AND CALLER PUSH20 0xFFFFFFFFFFFFFFFFFFFFFFFFFFFFFFFFFFFFFFFF AND EQ JUMPDEST JUMPDEST PUSH2 0xA95 JUMPI PUSH1 0x40 MLOAD PUSH32 0x8C379A000000000000000000000000000000000000000000000000000000000 DUP2 MSTORE PUSH1 0x4 ADD PUSH2 0xA8C SWAP1 PUSH2 0x216D JUMP JUMPDEST PUSH1 0x40 MLOAD DUP1 SWAP2 SUB SWAP1 REVERT JUMPDEST PUSH2 0xAAB JUMP JUMPDEST PUSH1 0x2 PUSH1 0x7 SLOAD SUB PUSH2 0xAAA JUMPI POP PUSH2 0xC71 JUMP JUMPDEST JUMPDEST CALLER PUSH20 0xFFFFFFFFFFFFFFFFFFFFFFFFFFFFFFFFFFFFFFFF AND PUSH2 0x8FC PUSH1 0x1 SLOAD SWAP1 DUP2 ISZERO MUL SWAP1 PUSH1 0x40 MLOAD PUSH0 PUSH1 0x40 MLOAD DUP1 DUP4 SUB DUP2 DUP6 DUP9 DUP9 CALL SWAP4 POP POP POP POP ISZERO DUP1 ISZERO PUSH2 0xAF0 JUMPI RETURNDATASIZE PUSH0 DUP1 RETURNDATACOPY RETURNDATASIZE PUSH0 REVERT JUMPDEST POP PUSH2 0xC66 JUMP JUMPDEST PUSH0 PUSH1 0x5 PUSH1 0x1 DUP2 SLOAD DUP2 LT PUSH2 0xB0C JUMPI PUSH2 0xB0B PUSH2 0x1E08 JUMP JUMPDEST JUMPDEST SWAP1 PUSH0 MSTORE PUSH1 0x20 PUSH0 KECCAK256 ADD PUSH0 SWAP1 SLOAD SWAP1 PUSH2 0x100 EXP SWAP1 DIV PUSH20 0xFFFFFFFFFFFFFFFFFFFFFFFFFFFFFFFFFFFFFFFF AND SWAP1 POP PUSH1 0x3 PUSH0 CALLER PUSH20 0xFFFFFFFFFFFFFFFFFFFFFFFFFFFFFFFFFFFFFFFF AND PUSH20 0xFFFFFFFFFFFFFFFFFFFFFFFFFFFFFFFFFFFFFFFF AND DUP2 MSTORE PUSH1 0x20 ADD SWAP1 DUP2 MSTORE PUSH1 0x20 ADD PUSH0 KECCAK256 PUSH0 SWAP1 SLOAD SWAP1 PUSH2 0x100 EXP SWAP1 DIV PUSH1 0xFF AND ISZERO PUSH2 0xBC0 JUMPI PUSH1 0x40 MLOAD PUSH32 0x8C379A000000000000000000000000000000000000000000000000000000000 DUP2 MSTORE PUSH1 0x4 ADD PUSH2 0xBB7 SWAP1 PUSH2 0x21FB JUMP JUMPDEST PUSH1 0x40 MLOAD DUP1 SWAP2 SUB SWAP1 REVERT JUMPDEST DUP2 PUSH20 0xFFFFFFFFFFFFFFFFFFFFFFFFFFFFFFFFFFFFFFFF AND PUSH2 0x8FC PUSH1 0x2 PUSH1 0x1 SLOAD PUSH2 0xBE9 SWAP2 SWAP1 PUSH2 0x2246 JUMP JUMPDEST SWAP1 DUP2 ISZERO MUL SWAP1 PUSH1 0x40 MLOAD PUSH0 PUSH1 0x40 MLOAD DUP1 DUP4 SUB DUP2 DUP6 DUP9 DUP9 CALL SWAP4 POP POP POP POP ISZERO DUP1 ISZERO PUSH2 0xC11 JUMPI RETURNDATASIZE PUSH0 DUP1 RETURNDATACOPY RETURNDATASIZE PUSH0 REVERT JUMPDEST POP DUP1 PUSH20 0xFFFFFFFFFFFFFFFFFFFFFFFFFFFFFFFFFFFFFFFF AND PUSH2 0x8FC PUSH1 0x2 PUSH1 0x1 SLOAD PUSH2 0xC3B SWAP2 SWAP1 PUSH2 0x2246 JUMP JUMPDEST SWAP1 DUP2 ISZERO MUL SWAP1 PUSH1 0x40 MLOAD PUSH0 PUSH1 0x40 MLOAD DUP1 DUP4 SUB DUP2 DUP6 DUP9 DUP9 CALL SWAP4 POP POP POP POP ISZERO DUP1 ISZERO PUSH2 0xC63 JUMPI RETURNDATASIZE PUSH0 DUP1 RETURNDATACOPY RETURNDATASIZE PUSH0 REVERT JUMPDEST POP POP JUMPDEST JUMPDEST PUSH2 0xC6F PUSH2 0x154A JUMP JUMPDEST POP JUMPDEST JUMP JUMPDEST PUSH1 0x8 PUSH0 SWAP1 SLOAD SWAP1 PUSH2 0x100 EXP SWAP1 DIV PUSH20 0xFFFFFFFFFFFFFFFFFFFFFFFFFFFFFFFFFFFFFFFF AND DUP2 JUMP JUMPDEST PUSH1 0xA PUSH0 SWAP1 SLOAD SWAP1 PUSH2 0x100 EXP SWAP1 DIV PUSH20 0xFFFFFFFFFFFFFFFFFFFFFFFFFFFFFFFFFFFFFFFF AND DUP2 JUMP JUMPDEST PUSH1 0xB SLOAD DUP2 JUMP JUMPDEST PUSH1 0x4 PUSH1 0x20 MSTORE DUP1 PUSH0 MSTORE PUSH1 0x40 PUSH0 KECCAK256 PUSH0 SWAP2 POP SLOAD SWAP1 PUSH2 0x100 EXP SWAP1 DIV PUSH1 0xFF AND DUP2 JUMP JUMPDEST PUSH0 SLOAD DUP2 JUMP JUMPDEST PUSH1 0x2 PUSH1 0x20 MSTORE DUP1 PUSH0 MSTORE PUSH1 0x40 PUSH0 KECCAK256 PUSH0 SWAP2 POP SWAP1 POP SLOAD DUP2 JUMP JUMPDEST PUSH1 0x7 SLOAD DUP2 JUMP JUMPDEST PUSH1 0x2 PUSH0 SLOAD EQ PUSH2 0xD44 JUMPI PUSH1 0x40 MLOAD PUSH32 0x8C379A000000000000000000000000000000000000000000000000000000000 DUP2 MSTORE PUSH1 0x4 ADD PUSH2 0xD3B SWAP1 PUSH2 0x22C0 JUMP JUMPDEST PUSH1 0x40 MLOAD DUP1 SWAP2 SUB SWAP1 REVERT JUMPDEST PUSH1 0x3 PUSH0 CALLER PUSH20 0xFFFFFFFFFFFFFFFFFFFFFFFFFFFFFFFFFFFFFFFF AND PUSH20 0xFFFFFFFFFFFFFFFFFFFFFFFFFFFFFFFFFFFFFFFF AND DUP2 MSTORE PUSH1 0x20 ADD SWAP1 DUP2 MSTORE PUSH1 0x20 ADD PUSH0 KECCAK256 PUSH0 SWAP1 SLOAD SWAP1 PUSH2 0x100 EXP SWAP1 DIV PUSH1 0xFF AND PUSH2 0xDCD JUMPI PUSH1 0x40 MLOAD PUSH32 0x8C379A000000000000000000000000000000000000000000000000000000000 DUP2 MSTORE PUSH1 0x4 ADD PUSH2 0xDC4 SWAP1 PUSH2 0x2328 JUMP JUMPDEST PUSH1 0x40 MLOAD DUP1 SWAP2 SUB SWAP1 REVERT JUMPDEST PUSH1 0x5 PUSH0 DUP2 SLOAD DUP2 LT PUSH2 0xDE1 JUMPI PUSH2 0xDE0 PUSH2 0x1E08 JUMP JUMPDEST JUMPDEST SWAP1 PUSH0 MSTORE PUSH1 0x20 PUSH0 KECCAK256 ADD PUSH0 SWAP1 SLOAD SWAP1 PUSH2 0x100 EXP SWAP1 DIV PUSH20 0xFFFFFFFFFFFFFFFFFFFFFFFFFFFFFFFFFFFFFFFF AND PUSH20 0xFFFFFFFFFFFFFFFFFFFFFFFFFFFFFFFFFFFFFFFF AND CALLER PUSH20 0xFFFFFFFFFFFFFFFFFFFFFFFFFFFFFFFFFFFFFFFF AND SUB PUSH2 0xEC9 JUMPI PUSH1 0x9 PUSH0 SWAP1 SLOAD SWAP1 PUSH2 0x100 EXP SWAP1 DIV PUSH20 0xFFFFFFFFFFFFFFFFFFFFFFFFFFFFFFFFFFFFFFFF AND PUSH20 0xFFFFFFFFFFFFFFFFFFFFFFFFFFFFFFFFFFFFFFFF AND PUSH4 0xF14FCBC8 DUP3 PUSH0 SHL PUSH1 0x40 MLOAD DUP3 PUSH4 0xFFFFFFFF AND PUSH1 0xE0 SHL DUP2 MSTORE PUSH1 0x4 ADD PUSH2 0xE97 SWAP2 SWAP1 PUSH2 0x235E JUMP JUMPDEST PUSH0 PUSH1 0x40 MLOAD DUP1 DUP4 SUB DUP2 PUSH0 DUP8 DUP1 EXTCODESIZE ISZERO DUP1 ISZERO PUSH2 0xEAE JUMPI PUSH0 DUP1 REVERT JUMPDEST POP GAS CALL ISZERO DUP1 ISZERO PUSH2 0xEC0 JUMPI RETURNDATASIZE PUSH0 DUP1 RETURNDATACOPY RETURNDATASIZE PUSH0 REVERT JUMPDEST POP POP POP POP PUSH2 0xF53 JUMP JUMPDEST PUSH1 0xA PUSH0 SWAP1 SLOAD SWAP1 PUSH2 0x100 EXP SWAP1 DIV PUSH20 0xFFFFFFFFFFFFFFFFFFFFFFFFFFFFFFFFFFFFFFFF AND PUSH20 0xFFFFFFFFFFFFFFFFFFFFFFFFFFFFFFFFFFFFFFFF AND PUSH4 0xF14FCBC8 DUP3 PUSH0 SHL PUSH1 0x40 MLOAD DUP3 PUSH4 0xFFFFFFFF AND PUSH1 0xE0 SHL DUP2 MSTORE PUSH1 0x4 ADD PUSH2 0xF25 SWAP2 SWAP1 PUSH2 0x235E JUMP JUMPDEST PUSH0 PUSH1 0x40 MLOAD DUP1 DUP4 SUB DUP2 PUSH0 DUP8 DUP1 EXTCODESIZE ISZERO DUP1 ISZERO PUSH2 0xF3C JUMPI PUSH0 DUP1 REVERT JUMPDEST POP GAS CALL ISZERO DUP1 ISZERO PUSH2 0xF4E JUMPI RETURNDATASIZE PUSH0 DUP1 RETURNDATACOPY RETURNDATASIZE PUSH0 REVERT JUMPDEST POP POP POP POP JUMPDEST PUSH0 PUSH1 0x3 PUSH0 CALLER PUSH20 0xFFFFFFFFFFFFFFFFFFFFFFFFFFFFFFFFFFFFFFFF AND PUSH20 0xFFFFFFFFFFFFFFFFFFFFFFFFFFFFFFFFFFFFFFFF AND DUP2 MSTORE PUSH1 0x20 ADD SWAP1 DUP2 MSTORE PUSH1 0x20 ADD PUSH0 KECCAK256 PUSH0 PUSH2 0x100 EXP DUP2 SLOAD DUP2 PUSH1 0xFF MUL NOT AND SWAP1 DUP4 ISZERO ISZERO MUL OR SWAP1 SSTORE POP PUSH1 0x1 PUSH1 0x4 PUSH0 CALLER PUSH20 0xFFFFFFFFFFFFFFFFFFFFFFFFFFFFFFFFFFFFFFFF AND PUSH20 0xFFFFFFFFFFFFFFFFFFFFFFFFFFFFFFFFFFFFFFFF AND DUP2 MSTORE PUSH1 0x20 ADD SWAP1 DUP2 MSTORE PUSH1 0x20 ADD PUSH0 KECCAK256 PUSH0 PUSH2 0x100 EXP DUP2 SLOAD DUP2 PUSH1 0xFF MUL NOT AND SWAP1 DUP4 ISZERO ISZERO MUL OR SWAP1 SSTORE POP PUSH1 0x6 PUSH0 DUP2 SLOAD DUP1 SWAP3 SWAP2 SWAP1 PUSH2 0x100E SWAP1 PUSH2 0x1F65 JUMP JUMPDEST SWAP2 SWAP1 POP SSTORE POP POP JUMP JUMPDEST PUSH1 0xC PUSH1 0x20 MSTORE DUP2 PUSH0 MSTORE PUSH1 0x40 PUSH0 KECCAK256 PUSH1 0x20 MSTORE DUP1 PUSH0 MSTORE PUSH1 0x40 PUSH0 KECCAK256 PUSH0 SWAP2 POP SWAP2 POP POP SLOAD DUP2 JUMP JUMPDEST PUSH1 0x2 PUSH1 0x6 SLOAD EQ PUSH2 0x107B JUMPI PUSH1 0x40 MLOAD PUSH32 0x8C379A000000000000000000000000000000000000000000000000000000000 DUP2 MSTORE PUSH1 0x4 ADD PUSH2 0x1072 SWAP1 PUSH2 0x23E7 JUMP JUMPDEST PUSH1 0x40 MLOAD DUP1 SWAP2 SUB SWAP1 REVERT JUMPDEST PUSH1 0x4 PUSH0 CALLER PUSH20 0xFFFFFFFFFFFFFFFFFFFFFFFFFFFFFFFFFFFFFFFF AND PUSH20 0xFFFFFFFFFFFFFFFFFFFFFFFFFFFFFFFFFFFFFFFF AND DUP2 MSTORE PUSH1 0x20 ADD SWAP1 DUP2 MSTORE PUSH1 0x20 ADD PUSH0 KECCAK256 PUSH0 SWAP1 SLOAD SWAP1 PUSH2 0x100 EXP SWAP1 DIV PUSH1 0xFF AND PUSH2 0x1104 JUMPI PUSH1 0x40 MLOAD PUSH32 0x8C379A000000000000000000000000000000000000000000000000000000000 DUP2 MSTORE PUSH1 0x4 ADD PUSH2 0x10FB SWAP1 PUSH2 0x244F JUMP JUMPDEST PUSH1 0x40 MLOAD DUP1 SWAP2 SUB SWAP1 REVERT JUMPDEST PUSH1 0x5 PUSH0 DUP2 SLOAD DUP2 LT PUSH2 0x1118 JUMPI PUSH2 0x1117 PUSH2 0x1E08 JUMP JUMPDEST JUMPDEST SWAP1 PUSH0 MSTORE PUSH1 0x20 PUSH0 KECCAK256 ADD PUSH0 SWAP1 SLOAD SWAP1 PUSH2 0x100 EXP SWAP1 DIV PUSH20 0xFFFFFFFFFFFFFFFFFFFFFFFFFFFFFFFFFFFFFFFF AND PUSH20 0xFFFFFFFFFFFFFFFFFFFFFFFFFFFFFFFFFFFFFFFF AND CALLER PUSH20 0xFFFFFFFFFFFFFFFFFFFFFFFFFFFFFFFFFFFFFFFF AND SUB PUSH2 0x12CD JUMPI PUSH1 0x9 PUSH0 SWAP1 SLOAD SWAP1 PUSH2 0x100 EXP SWAP1 DIV PUSH20 0xFFFFFFFFFFFFFFFFFFFFFFFFFFFFFFFFFFFFFFFF AND PUSH20 0xFFFFFFFFFFFFFFFFFFFFFFFFFFFFFFFFFFFFFFFF AND PUSH4 0x701FD0F1 DUP3 PUSH0 SHL PUSH1 0x40 MLOAD DUP3 PUSH4 0xFFFFFFFF AND PUSH1 0xE0 SHL DUP2 MSTORE PUSH1 0x4 ADD PUSH2 0x11CE SWAP2 SWAP1 PUSH2 0x235E JUMP JUMPDEST PUSH0 PUSH1 0x40 MLOAD DUP1 DUP4 SUB DUP2 PUSH0 DUP8 DUP1 EXTCODESIZE ISZERO DUP1 ISZERO PUSH2 0x11E5 JUMPI PUSH0 DUP1 REVERT JUMPDEST POP GAS CALL ISZERO DUP1 ISZERO PUSH2 0x11F7 JUMPI RETURNDATASIZE PUSH0 DUP1 RETURNDATACOPY RETURNDATASIZE PUSH0 REVERT JUMPDEST POP POP POP POP PUSH1 0x9 PUSH0 SWAP1 SLOAD SWAP1 PUSH2 0x100 EXP SWAP1 DIV PUSH20 0xFFFFFFFFFFFFFFFFFFFFFFFFFFFFFFFFFFFFFFFF AND PUSH20 0xFFFFFFFFFFFFFFFFFFFFFFFFFFFFFFFFFFFFFFFF AND PUSH4 0x54214F69 PUSH1 0x40 MLOAD DUP2 PUSH4 0xFFFFFFFF AND PUSH1 0xE0 SHL DUP2 MSTORE PUSH1 0x4 ADD PUSH1 0x20 PUSH1 0x40 MLOAD DUP1 DUP4 SUB DUP2 DUP7 GAS STATICCALL ISZERO DUP1 ISZERO PUSH2 0x1265 JUMPI RETURNDATASIZE PUSH0 DUP1 RETURNDATACOPY RETURNDATASIZE PUSH0 REVERT JUMPDEST POP POP POP POP PUSH1 0x40 MLOAD RETURNDATASIZE PUSH1 0x1F NOT PUSH1 0x1F DUP3 ADD AND DUP3 ADD DUP1 PUSH1 0x40 MSTORE POP DUP2 ADD SWAP1 PUSH2 0x1289 SWAP2 SWAP1 PUSH2 0x2497 JUMP JUMPDEST PUSH2 0x12C8 JUMPI PUSH1 0x40 MLOAD PUSH32 0x8C379A000000000000000000000000000000000000000000000000000000000 DUP2 MSTORE PUSH1 0x4 ADD PUSH2 0x12BF SWAP1 PUSH2 0x250C JUMP JUMPDEST PUSH1 0x40 MLOAD DUP1 SWAP2 SUB SWAP1 REVERT JUMPDEST PUSH2 0x1424 JUMP JUMPDEST PUSH1 0xA PUSH0 SWAP1 SLOAD SWAP1 PUSH2 0x100 EXP SWAP1 DIV PUSH20 0xFFFFFFFFFFFFFFFFFFFFFFFFFFFFFFFFFFFFFFFF AND PUSH20 0xFFFFFFFFFFFFFFFFFFFFFFFFFFFFFFFFFFFFFFFF AND PUSH4 0x701FD0F1 DUP3 PUSH0 SHL PUSH1 0x40 MLOAD DUP3 PUSH4 0xFFFFFFFF AND PUSH1 0xE0 SHL DUP2 MSTORE PUSH1 0x4 ADD PUSH2 0x1329 SWAP2 SWAP1 PUSH2 0x235E JUMP JUMPDEST PUSH0 PUSH1 0x40 MLOAD DUP1 DUP4 SUB DUP2 PUSH0 DUP8 DUP1 EXTCODESIZE ISZERO DUP1 ISZERO PUSH2 0x1340 JUMPI PUSH0 DUP1 REVERT JUMPDEST POP GAS CALL ISZERO DUP1 ISZERO PUSH2 0x1352 JUMPI RETURNDATASIZE PUSH0 DUP1 RETURNDATACOPY RETURNDATASIZE PUSH0 REVERT JUMPDEST POP POP POP POP PUSH1 0xA PUSH0 SWAP1 SLOAD SWAP1 PUSH2 0x100 EXP SWAP1 DIV PUSH20 0xFFFFFFFFFFFFFFFFFFFFFFFFFFFFFFFFFFFFFFFF AND PUSH20 0xFFFFFFFFFFFFFFFFFFFFFFFFFFFFFFFFFFFFFFFF AND PUSH4 0x54214F69 PUSH1 0x40 MLOAD DUP2 PUSH4 0xFFFFFFFF AND PUSH1 0xE0 SHL DUP2 MSTORE PUSH1 0x4 ADD PUSH1 0x20 PUSH1 0x40 MLOAD DUP1 DUP4 SUB DUP2 DUP7 GAS STATICCALL ISZERO DUP1 ISZERO PUSH2 0x13C0 JUMPI RETURNDATASIZE PUSH0 DUP1 RETURNDATACOPY RETURNDATASIZE PUSH0 REVERT JUMPDEST POP POP POP POP PUSH1 0x40 MLOAD RETURNDATASIZE PUSH1 0x1F NOT PUSH1 0x1F DUP3 ADD AND DUP3 ADD DUP1 PUSH1 0x40 MSTORE POP DUP2 ADD SWAP1 PUSH2 0x13E4 SWAP2 SWAP1 PUSH2 0x2497 JUMP JUMPDEST PUSH2 0x1423 JUMPI PUSH1 0x40 MLOAD PUSH32 0x8C379A000000000000000000000000000000000000000000000000000000000 DUP2 MSTORE PUSH1 0x4 ADD PUSH2 0x141A SWAP1 PUSH2 0x250C JUMP JUMPDEST PUSH1 0x40 MLOAD DUP1 SWAP2 SUB SWAP1 REVERT JUMPDEST JUMPDEST PUSH1 0xFF DUP2 AND PUSH1 0x2 PUSH0 CALLER PUSH20 0xFFFFFFFFFFFFFFFFFFFFFFFFFFFFFFFFFFFFFFFF AND PUSH20 0xFFFFFFFFFFFFFFFFFFFFFFFFFFFFFFFFFFFFFFFF AND DUP2 MSTORE PUSH1 0x20 ADD SWAP1 DUP2 MSTORE PUSH1 0x20 ADD PUSH0 KECCAK256 DUP2 SWAP1 SSTORE POP PUSH0 PUSH1 0x4 PUSH0 CALLER PUSH20 0xFFFFFFFFFFFFFFFFFFFFFFFFFFFFFFFFFFFFFFFF AND PUSH20 0xFFFFFFFFFFFFFFFFFFFFFFFFFFFFFFFFFFFFFFFF AND DUP2 MSTORE PUSH1 0x20 ADD SWAP1 DUP2 MSTORE PUSH1 0x20 ADD PUSH0 KECCAK256 PUSH0 PUSH2 0x100 EXP DUP2 SLOAD DUP2 PUSH1 0xFF MUL NOT AND SWAP1 DUP4 ISZERO ISZERO MUL OR SWAP1 SSTORE POP PUSH1 0x7 PUSH0 DUP2 SLOAD DUP1 SWAP3 SWAP2 SWAP1 PUSH2 0x14CF SWAP1 PUSH2 0x1F65 JUMP JUMPDEST SWAP2 SWAP1 POP SSTORE POP PUSH1 0x2 PUSH1 0x7 SLOAD SUB PUSH2 0x14E7 JUMPI PUSH2 0x14E6 PUSH2 0x16F6 JUMP JUMPDEST JUMPDEST POP JUMP JUMPDEST PUSH1 0x9 PUSH0 SWAP1 SLOAD SWAP1 PUSH2 0x100 EXP SWAP1 DIV PUSH20 0xFFFFFFFFFFFFFFFFFFFFFFFFFFFFFFFFFFFFFFFF AND DUP2 JUMP JUMPDEST PUSH1 0x5 DUP2 DUP2 SLOAD DUP2 LT PUSH2 0x151E JUMPI PUSH0 DUP1 REVERT JUMPDEST SWAP1 PUSH0 MSTORE PUSH1 0x20 PUSH0 KECCAK256 ADD PUSH0 SWAP2 POP SLOAD SWAP1 PUSH2 0x100 EXP SWAP1 DIV PUSH20 0xFFFFFFFFFFFFFFFFFFFFFFFFFFFFFFFFFFFFFFFF AND DUP2 JUMP JUMPDEST PUSH1 0x2 PUSH8 0xFFFFFFFFFFFFFFFF DUP2 GT ISZERO PUSH2 0x1565 JUMPI PUSH2 0x1564 PUSH2 0x252A JUMP JUMPDEST JUMPDEST PUSH1 0x40 MLOAD SWAP1 DUP1 DUP3 MSTORE DUP1 PUSH1 0x20 MUL PUSH1 0x20 ADD DUP3 ADD PUSH1 0x40 MSTORE DUP1 ISZERO PUSH2 0x1593 JUMPI DUP2 PUSH1 0x20 ADD PUSH1 0x20 DUP3 MUL DUP1 CALLDATASIZE DUP4 CALLDATACOPY DUP1 DUP3 ADD SWAP2 POP POP SWAP1 POP JUMPDEST POP PUSH1 0x5 SWAP1 DUP1 MLOAD SWAP1 PUSH1 0x20 ADD SWAP1 PUSH2 0x15A9 SWAP3 SWAP2 SWAP1 PUSH2 0x1A7F JUMP JUMPDEST POP PUSH1 0x40 MLOAD PUSH2 0x15B6 SWAP1 PUSH2 0x1B06 JUMP JUMPDEST PUSH1 0x40 MLOAD DUP1 SWAP2 SUB SWAP1 PUSH0 CREATE DUP1 ISZERO DUP1 ISZERO PUSH2 0x15CF JUMPI RETURNDATASIZE PUSH0 DUP1 RETURNDATACOPY RETURNDATASIZE PUSH0 REVERT JUMPDEST POP PUSH1 0x8 PUSH0 PUSH2 0x100 EXP DUP2 SLOAD DUP2 PUSH20 0xFFFFFFFFFFFFFFFFFFFFFFFFFFFFFFFFFFFFFFFF MUL NOT AND SWAP1 DUP4 PUSH20 0xFFFFFFFFFFFFFFFFFFFFFFFFFFFFFFFFFFFFFFFF AND MUL OR SWAP1 SSTORE POP PUSH1 0x40 MLOAD PUSH2 0x161B SWAP1 PUSH2 0x1B13 JUMP JUMPDEST PUSH1 0x40 MLOAD DUP1 SWAP2 SUB SWAP1 PUSH0 CREATE DUP1 ISZERO DUP1 ISZERO PUSH2 0x1634 JUMPI RETURNDATASIZE PUSH0 DUP1 RETURNDATACOPY RETURNDATASIZE PUSH0 REVERT JUMPDEST POP PUSH1 0x9 PUSH0 PUSH2 0x100 EXP DUP2 SLOAD DUP2 PUSH20 0xFFFFFFFFFFFFFFFFFFFFFFFFFFFFFFFFFFFFFFFF MUL NOT AND SWAP1 DUP4 PUSH20 0xFFFFFFFFFFFFFFFFFFFFFFFFFFFFFFFFFFFFFFFF AND MUL OR SWAP1 SSTORE POP PUSH1 0x40 MLOAD PUSH2 0x1680 SWAP1 PUSH2 0x1B13 JUMP JUMPDEST PUSH1 0x40 MLOAD DUP1 SWAP2 SUB SWAP1 PUSH0 CREATE DUP1 ISZERO DUP1 ISZERO PUSH2 0x1699 JUMPI RETURNDATASIZE PUSH0 DUP1 RETURNDATACOPY RETURNDATASIZE PUSH0 REVERT JUMPDEST POP PUSH1 0xA PUSH0 PUSH2 0x100 EXP DUP2 SLOAD DUP2 PUSH20 0xFFFFFFFFFFFFFFFFFFFFFFFFFFFFFFFFFFFFFFFF MUL NOT AND SWAP1 DUP4 PUSH20 0xFFFFFFFFFFFFFFFFFFFFFFFFFFFFFFFFFFFFFFFF AND MUL OR SWAP1 SSTORE POP PUSH0 DUP1 DUP2 SWAP1 SSTORE POP PUSH0 PUSH1 0x6 DUP2 SWAP1 SSTORE POP PUSH0 PUSH1 0x7 DUP2 SWAP1 SSTORE POP PUSH0 PUSH1 0x1 DUP2 SWAP1 SSTORE POP JUMP JUMPDEST PUSH0 PUSH1 0x2 PUSH0 PUSH1 0x5 PUSH0 DUP2 SLOAD DUP2 LT PUSH2 0x170E JUMPI PUSH2 0x170D PUSH2 0x1E08 JUMP JUMPDEST JUMPDEST SWAP1 PUSH0 MSTORE PUSH1 0x20 PUSH0 KECCAK256 ADD PUSH0 SWAP1 SLOAD SWAP1 PUSH2 0x100 EXP SWAP1 DIV PUSH20 0xFFFFFFFFFFFFFFFFFFFFFFFFFFFFFFFFFFFFFFFF AND PUSH20 0xFFFFFFFFFFFFFFFFFFFFFFFFFFFFFFFFFFFFFFFF AND PUSH20 0xFFFFFFFFFFFFFFFFFFFFFFFFFFFFFFFFFFFFFFFF AND DUP2 MSTORE PUSH1 0x20 ADD SWAP1 DUP2 MSTORE PUSH1 0x20 ADD PUSH0 KECCAK256 SLOAD SWAP1 POP PUSH0 PUSH1 0x2 PUSH0 PUSH1 0x5 PUSH1 0x1 DUP2 SLOAD DUP2 LT PUSH2 0x178B JUMPI PUSH2 0x178A PUSH2 0x1E08 JUMP JUMPDEST JUMPDEST SWAP1 PUSH0 MSTORE PUSH1 0x20 PUSH0 KECCAK256 ADD PUSH0 SWAP1 SLOAD SWAP1 PUSH2 0x100 EXP SWAP1 DIV PUSH20 0xFFFFFFFFFFFFFFFFFFFFFFFFFFFFFFFFFFFFFFFF AND PUSH20 0xFFFFFFFFFFFFFFFFFFFFFFFFFFFFFFFFFFFFFFFF AND PUSH20 0xFFFFFFFFFFFFFFFFFFFFFFFFFFFFFFFFFFFFFFFF AND DUP2 MSTORE PUSH1 0x20 ADD SWAP1 DUP2 MSTORE PUSH1 0x20 ADD PUSH0 KECCAK256 SLOAD SWAP1 POP PUSH0 PUSH1 0x5 PUSH0 DUP2 SLOAD DUP2 LT PUSH2 0x1804 JUMPI PUSH2 0x1803 PUSH2 0x1E08 JUMP JUMPDEST JUMPDEST SWAP1 PUSH0 MSTORE PUSH1 0x20 PUSH0 KECCAK256 ADD PUSH0 SWAP1 SLOAD SWAP1 PUSH2 0x100 EXP SWAP1 DIV PUSH20 0xFFFFFFFFFFFFFFFFFFFFFFFFFFFFFFFFFFFFFFFF AND SWAP1 POP PUSH0 PUSH1 0x5 PUSH1 0x1 DUP2 SLOAD DUP2 LT PUSH2 0x1844 JUMPI PUSH2 0x1843 PUSH2 0x1E08 JUMP JUMPDEST JUMPDEST SWAP1 PUSH0 MSTORE PUSH1 0x20 PUSH0 KECCAK256 ADD PUSH0 SWAP1 SLOAD SWAP1 PUSH2 0x100 EXP SWAP1 DIV PUSH20 0xFFFFFFFFFFFFFFFFFFFFFFFFFFFFFFFFFFFFFFFF AND SWAP1 POP PUSH2 0x1878 DUP5 DUP5 PUSH2 0x19D6 JUMP JUMPDEST ISZERO PUSH2 0x18C8 JUMPI DUP2 PUSH20 0xFFFFFFFFFFFFFFFFFFFFFFFFFFFFFFFFFFFFFFFF AND PUSH2 0x8FC PUSH1 0x1 SLOAD SWAP1 DUP2 ISZERO MUL SWAP1 PUSH1 0x40 MLOAD PUSH0 PUSH1 0x40 MLOAD DUP1 DUP4 SUB DUP2 DUP6 DUP9 DUP9 CALL SWAP4 POP POP POP POP ISZERO DUP1 ISZERO PUSH2 0x18C2 JUMPI RETURNDATASIZE PUSH0 DUP1 RETURNDATACOPY RETURNDATASIZE PUSH0 REVERT JUMPDEST POP PUSH2 0x19C8 JUMP JUMPDEST PUSH2 0x18D2 DUP4 DUP6 PUSH2 0x19D6 JUMP JUMPDEST ISZERO PUSH2 0x1922 JUMPI DUP1 PUSH20 0xFFFFFFFFFFFFFFFFFFFFFFFFFFFFFFFFFFFFFFFF AND PUSH2 0x8FC PUSH1 0x1 SLOAD SWAP1 DUP2 ISZERO MUL SWAP1 PUSH1 0x40 MLOAD PUSH0 PUSH1 0x40 MLOAD DUP1 DUP4 SUB DUP2 DUP6 DUP9 DUP9 CALL SWAP4 POP POP POP POP ISZERO DUP1 ISZERO PUSH2 0x191C JUMPI RETURNDATASIZE PUSH0 DUP1 RETURNDATACOPY RETURNDATASIZE PUSH0 REVERT JUMPDEST POP PUSH2 0x19C7 JUMP JUMPDEST DUP2 PUSH20 0xFFFFFFFFFFFFFFFFFFFFFFFFFFFFFFFFFFFFFFFF AND PUSH2 0x8FC PUSH1 0x2 PUSH1 0x1 SLOAD PUSH2 0x194B SWAP2 SWAP1 PUSH2 0x2246 JUMP JUMPDEST SWAP1 DUP2 ISZERO MUL SWAP1 PUSH1 0x40 MLOAD PUSH0 PUSH1 0x40 MLOAD DUP1 DUP4 SUB DUP2 DUP6 DUP9 DUP9 CALL SWAP4 POP POP POP POP ISZERO DUP1 ISZERO PUSH2 0x1973 JUMPI RETURNDATASIZE PUSH0 DUP1 RETURNDATACOPY RETURNDATASIZE PUSH0 REVERT JUMPDEST POP DUP1 PUSH20 0xFFFFFFFFFFFFFFFFFFFFFFFFFFFFFFFFFFFFFFFF AND PUSH2 0x8FC PUSH1 0x2 PUSH1 0x1 SLOAD PUSH2 0x199D SWAP2 SWAP1 PUSH2 0x2246 JUMP JUMPDEST SWAP1 DUP2 ISZERO MUL SWAP1 PUSH1 0x40 MLOAD PUSH0 PUSH1 0x40 MLOAD DUP1 DUP4 SUB DUP2 DUP6 DUP9 DUP9 CALL SWAP4 POP POP POP POP ISZERO DUP1 ISZERO PUSH2 0x19C5 JUMPI RETURNDATASIZE PUSH0 DUP1 RETURNDATACOPY RETURNDATASIZE PUSH0 REVERT JUMPDEST POP JUMPDEST JUMPDEST PUSH2 0x19D0 PUSH2 0x154A JUMP JUMPDEST POP POP POP POP JUMP JUMPDEST PUSH0 DUP1 DUP4 EQ DUP1 ISZERO PUSH2 0x19F1 JUMPI POP PUSH1 0x2 DUP3 EQ DUP1 PUSH2 0x19F0 JUMPI POP PUSH1 0x3 DUP3 EQ JUMPDEST JUMPDEST DUP1 PUSH2 0x1A12 JUMPI POP PUSH1 0x1 DUP4 EQ DUP1 ISZERO PUSH2 0x1A11 JUMPI POP PUSH0 DUP3 EQ DUP1 PUSH2 0x1A10 JUMPI POP PUSH1 0x4 DUP3 EQ JUMPDEST JUMPDEST JUMPDEST DUP1 PUSH2 0x1A34 JUMPI POP PUSH1 0x2 DUP4 EQ DUP1 ISZERO PUSH2 0x1A33 JUMPI POP PUSH1 0x1 DUP3 EQ DUP1 PUSH2 0x1A32 JUMPI POP PUSH1 0x3 DUP3 EQ JUMPDEST JUMPDEST JUMPDEST DUP1 PUSH2 0x1A56 JUMPI POP PUSH1 0x3 DUP4 EQ DUP1 ISZERO PUSH2 0x1A55 JUMPI POP PUSH1 0x1 DUP3 EQ DUP1 PUSH2 0x1A54 JUMPI POP PUSH1 0x4 DUP3 EQ JUMPDEST JUMPDEST JUMPDEST DUP1 PUSH2 0x1A77 JUMPI POP PUSH1 0x4 DUP4 EQ DUP1 ISZERO PUSH2 0x1A76 JUMPI POP PUSH0 DUP3 EQ DUP1 PUSH2 0x1A75 JUMPI POP PUSH1 0x2 DUP3 EQ JUMPDEST JUMPDEST JUMPDEST SWAP1 POP SWAP3 SWAP2 POP POP JUMP JUMPDEST DUP3 DUP1 SLOAD DUP3 DUP3 SSTORE SWAP1 PUSH0 MSTORE PUSH1 0x20 PUSH0 KECCAK256 SWAP1 DUP2 ADD SWAP3 DUP3 ISZERO PUSH2 0x1AF5 JUMPI SWAP2 PUSH1 0x20 MUL DUP3 ADD JUMPDEST DUP3 DUP2 GT ISZERO PUSH2 0x1AF4 JUMPI DUP3 MLOAD DUP3 PUSH0 PUSH2 0x100 EXP DUP2 SLOAD DUP2 PUSH20 0xFFFFFFFFFFFFFFFFFFFFFFFFFFFFFFFFFFFFFFFF MUL NOT AND SWAP1 DUP4 PUSH20 0xFFFFFFFFFFFFFFFFFFFFFFFFFFFFFFFFFFFFFFFF AND MUL OR SWAP1 SSTORE POP SWAP2 PUSH1 0x20 ADD SWAP2 SWAP1 PUSH1 0x1 ADD SWAP1 PUSH2 0x1A9D JUMP JUMPDEST JUMPDEST POP SWAP1 POP PUSH2 0x1B02 SWAP2 SWAP1 PUSH2 0x1B20 JUMP JUMPDEST POP SWAP1 JUMP JUMPDEST PUSH2 0x231 DUP1 PUSH2 0x2558 DUP4 CODECOPY ADD SWAP1 JUMP JUMPDEST PUSH2 0xE05 DUP1 PUSH2 0x2789 DUP4 CODECOPY ADD SWAP1 JUMP JUMPDEST JUMPDEST DUP1 DUP3 GT ISZERO PUSH2 0x1B37 JUMPI PUSH0 DUP2 PUSH0 SWAP1 SSTORE POP PUSH1 0x1 ADD PUSH2 0x1B21 JUMP JUMPDEST POP SWAP1 JUMP JUMPDEST PUSH0 DUP2 SWAP1 POP SWAP2 SWAP1 POP JUMP JUMPDEST PUSH2 0x1B4D DUP2 PUSH2 0x1B3B JUMP JUMPDEST DUP3 MSTORE POP POP JUMP JUMPDEST PUSH0 PUSH1 0x20 DUP3 ADD SWAP1 POP PUSH2 0x1B66 PUSH0 DUP4 ADD DUP5 PUSH2 0x1B44 JUMP JUMPDEST SWAP3 SWAP2 POP POP JUMP JUMPDEST PUSH0 DUP1 REVERT JUMPDEST PUSH0 PUSH20 0xFFFFFFFFFFFFFFFFFFFFFFFFFFFFFFFFFFFFFFFF DUP3 AND SWAP1 POP SWAP2 SWAP1 POP JUMP JUMPDEST PUSH0 PUSH2 0x1B99 DUP3 PUSH2 0x1B70 JUMP JUMPDEST SWAP1 POP SWAP2 SWAP1 POP JUMP JUMPDEST PUSH2 0x1BA9 DUP2 PUSH2 0x1B8F JUMP JUMPDEST DUP2 EQ PUSH2 0x1BB3 JUMPI PUSH0 DUP1 REVERT JUMPDEST POP JUMP JUMPDEST PUSH0 DUP2 CALLDATALOAD SWAP1 POP PUSH2 0x1BC4 DUP2 PUSH2 0x1BA0 JUMP JUMPDEST SWAP3 SWAP2 POP POP JUMP JUMPDEST PUSH0 PUSH1 0x20 DUP3 DUP5 SUB SLT ISZERO PUSH2 0x1BDF JUMPI PUSH2 0x1BDE PUSH2 0x1B6C JUMP JUMPDEST JUMPDEST PUSH0 PUSH2 0x1BEC DUP5 DUP3 DUP6 ADD PUSH2 0x1BB6 JUMP JUMPDEST SWAP2 POP POP SWAP3 SWAP2 POP POP JUMP JUMPDEST PUSH0 DUP2 ISZERO ISZERO SWAP1 POP SWAP2 SWAP1 POP JUMP JUMPDEST PUSH2 0x1C09 DUP2 PUSH2 0x1BF5 JUMP JUMPDEST DUP3 MSTORE POP POP JUMP JUMPDEST PUSH0 PUSH1 0x20 DUP3 ADD SWAP1 POP PUSH2 0x1C22 PUSH0 DUP4 ADD DUP5 PUSH2 0x1C00 JUMP JUMPDEST SWAP3 SWAP2 POP POP JUMP JUMPDEST PUSH0 DUP2 SWAP1 POP SWAP2 SWAP1 POP JUMP JUMPDEST PUSH0 PUSH2 0x1C4B PUSH2 0x1C46 PUSH2 0x1C41 DUP5 PUSH2 0x1B70 JUMP JUMPDEST PUSH2 0x1C28 JUMP JUMPDEST PUSH2 0x1B70 JUMP JUMPDEST SWAP1 POP SWAP2 SWAP1 POP JUMP JUMPDEST PUSH0 PUSH2 0x1C5C DUP3 PUSH2 0x1C31 JUMP JUMPDEST SWAP1 POP SWAP2 SWAP1 POP JUMP JUMPDEST PUSH0 PUSH2 0x1C6D DUP3 PUSH2 0x1C52 JUMP JUMPDEST SWAP1 POP SWAP2 SWAP1 POP JUMP JUMPDEST PUSH2 0x1C7D DUP2 PUSH2 0x1C63 JUMP JUMPDEST DUP3 MSTORE POP POP JUMP JUMPDEST PUSH0 PUSH1 0x20 DUP3 ADD SWAP1 POP PUSH2 0x1C96 PUSH0 DUP4 ADD DUP5 PUSH2 0x1C74 JUMP JUMPDEST SWAP3 SWAP2 POP POP JUMP JUMPDEST PUSH0 PUSH2 0x1CA6 DUP3 PUSH2 0x1C52 JUMP JUMPDEST SWAP1 POP SWAP2 SWAP1 POP JUMP JUMPDEST PUSH2 0x1CB6 DUP2 PUSH2 0x1C9C JUMP JUMPDEST DUP3 MSTORE POP POP JUMP JUMPDEST PUSH0 PUSH1 0x20 DUP3 ADD SWAP1 POP PUSH2 0x1CCF PUSH0 DUP4 ADD DUP5 PUSH2 0x1CAD JUMP JUMPDEST SWAP3 SWAP2 POP POP JUMP JUMPDEST PUSH2 0x1CDE DUP2 PUSH2 0x1B3B JUMP JUMPDEST DUP2 EQ PUSH2 0x1CE8 JUMPI PUSH0 DUP1 REVERT JUMPDEST POP JUMP JUMPDEST PUSH0 DUP2 CALLDATALOAD SWAP1 POP PUSH2 0x1CF9 DUP2 PUSH2 0x1CD5 JUMP JUMPDEST SWAP3 SWAP2 POP POP JUMP JUMPDEST PUSH0 PUSH1 0x20 DUP3 DUP5 SUB SLT ISZERO PUSH2 0x1D14 JUMPI PUSH2 0x1D13 PUSH2 0x1B6C JUMP JUMPDEST JUMPDEST PUSH0 PUSH2 0x1D21 DUP5 DUP3 DUP6 ADD PUSH2 0x1CEB JUMP JUMPDEST SWAP2 POP POP SWAP3 SWAP2 POP POP JUMP JUMPDEST PUSH0 DUP1 PUSH1 0x40 DUP4 DUP6 SUB SLT ISZERO PUSH2 0x1D40 JUMPI PUSH2 0x1D3F PUSH2 0x1B6C JUMP JUMPDEST JUMPDEST PUSH0 PUSH2 0x1D4D DUP6 DUP3 DUP7 ADD PUSH2 0x1BB6 JUMP JUMPDEST SWAP3 POP POP PUSH1 0x20 PUSH2 0x1D5E DUP6 DUP3 DUP7 ADD PUSH2 0x1BB6 JUMP JUMPDEST SWAP2 POP POP SWAP3 POP SWAP3 SWAP1 POP JUMP JUMPDEST PUSH2 0x1D71 DUP2 PUSH2 0x1B8F JUMP JUMPDEST DUP3 MSTORE POP POP JUMP JUMPDEST PUSH0 PUSH1 0x20 DUP3 ADD SWAP1 POP PUSH2 0x1D8A PUSH0 DUP4 ADD DUP5 PUSH2 0x1D68 JUMP JUMPDEST SWAP3 SWAP2 POP POP JUMP JUMPDEST PUSH0 DUP3 DUP3 MSTORE PUSH1 0x20 DUP3 ADD SWAP1 POP SWAP3 SWAP2 POP POP JUMP JUMPDEST PUSH32 0x47616D6520616C7265616479206861732074776F20706C617965727300000000 PUSH0 DUP3 ADD MSTORE POP JUMP JUMPDEST PUSH0 PUSH2 0x1DD4 PUSH1 0x1C DUP4 PUSH2 0x1D90 JUMP JUMPDEST SWAP2 POP PUSH2 0x1DDF DUP3 PUSH2 0x1DA0 JUMP JUMPDEST PUSH1 0x20 DUP3 ADD SWAP1 POP SWAP2 SWAP1 POP JUMP JUMPDEST PUSH0 PUSH1 0x20 DUP3 ADD SWAP1 POP DUP2 DUP2 SUB PUSH0 DUP4 ADD MSTORE PUSH2 0x1E01 DUP2 PUSH2 0x1DC8 JUMP JUMPDEST SWAP1 POP SWAP2 SWAP1 POP JUMP JUMPDEST PUSH32 0x4E487B7100000000000000000000000000000000000000000000000000000000 PUSH0 MSTORE PUSH1 0x32 PUSH1 0x4 MSTORE PUSH1 0x24 PUSH0 REVERT JUMPDEST PUSH32 0x506C6179657220616C7265616479206164646564000000000000000000000000 PUSH0 DUP3 ADD MSTORE POP JUMP JUMPDEST PUSH0 PUSH2 0x1E69 PUSH1 0x14 DUP4 PUSH2 0x1D90 JUMP JUMPDEST SWAP2 POP PUSH2 0x1E74 DUP3 PUSH2 0x1E35 JUMP JUMPDEST PUSH1 0x20 DUP3 ADD SWAP1 POP SWAP2 SWAP1 POP JUMP JUMPDEST PUSH0 PUSH1 0x20 DUP3 ADD SWAP1 POP DUP2 DUP2 SUB PUSH0 DUP4 ADD MSTORE PUSH2 0x1E96 DUP2 PUSH2 0x1E5D JUMP JUMPDEST SWAP1 POP SWAP2 SWAP1 POP JUMP JUMPDEST PUSH32 0x4D7573742073656E642065786163746C7920302E303030303031206574686572 PUSH0 DUP3 ADD MSTORE POP JUMP JUMPDEST PUSH0 PUSH2 0x1ED1 PUSH1 0x20 DUP4 PUSH2 0x1D90 JUMP JUMPDEST SWAP2 POP PUSH2 0x1EDC DUP3 PUSH2 0x1E9D JUMP JUMPDEST PUSH1 0x20 DUP3 ADD SWAP1 POP SWAP2 SWAP1 POP JUMP JUMPDEST PUSH0 PUSH1 0x20 DUP3 ADD SWAP1 POP DUP2 DUP2 SUB PUSH0 DUP4 ADD MSTORE PUSH2 0x1EFE DUP2 PUSH2 0x1EC5 JUMP JUMPDEST SWAP1 POP SWAP2 SWAP1 POP JUMP JUMPDEST PUSH32 0x4E487B7100000000000000000000000000000000000000000000000000000000 PUSH0 MSTORE PUSH1 0x11 PUSH1 0x4 MSTORE PUSH1 0x24 PUSH0 REVERT JUMPDEST PUSH0 PUSH2 0x1F3C DUP3 PUSH2 0x1B3B JUMP JUMPDEST SWAP2 POP PUSH2 0x1F47 DUP4 PUSH2 0x1B3B JUMP JUMPDEST SWAP3 POP DUP3 DUP3 ADD SWAP1 POP DUP1 DUP3 GT ISZERO PUSH2 0x1F5F JUMPI PUSH2 0x1F5E PUSH2 0x1F05 JUMP JUMPDEST JUMPDEST SWAP3 SWAP2 POP POP JUMP JUMPDEST PUSH0 PUSH2 0x1F6F DUP3 PUSH2 0x1B3B JUMP JUMPDEST SWAP2 POP PUSH32 0xFFFFFFFFFFFFFFFFFFFFFFFFFFFFFFFFFFFFFFFFFFFFFFFFFFFFFFFFFFFFFFFF DUP3 SUB PUSH2 0x1FA1 JUMPI PUSH2 0x1FA0 PUSH2 0x1F05 JUMP JUMPDEST JUMPDEST PUSH1 0x1 DUP3 ADD SWAP1 POP SWAP2 SWAP1 POP JUMP JUMPDEST PUSH32 0x47616D6520697320656D70747900000000000000000000000000000000000000 PUSH0 DUP3 ADD MSTORE POP JUMP JUMPDEST PUSH0 PUSH2 0x1FE0 PUSH1 0xD DUP4 PUSH2 0x1D90 JUMP JUMPDEST SWAP2 POP PUSH2 0x1FEB DUP3 PUSH2 0x1FAC JUMP JUMPDEST PUSH1 0x20 DUP3 ADD SWAP1 POP SWAP2 SWAP1 POP JUMP JUMPDEST PUSH0 PUSH1 0x20 DUP3 ADD SWAP1 POP DUP2 DUP2 SUB PUSH0 DUP4 ADD MSTORE PUSH2 0x200D DUP2 PUSH2 0x1FD4 JUMP JUMPDEST SWAP1 POP SWAP2 SWAP1 POP JUMP JUMPDEST PUSH0 DUP2 MLOAD SWAP1 POP PUSH2 0x2022 DUP2 PUSH2 0x1CD5 JUMP JUMPDEST SWAP3 SWAP2 POP POP JUMP JUMPDEST PUSH0 PUSH1 0x20 DUP3 DUP5 SUB SLT ISZERO PUSH2 0x203D JUMPI PUSH2 0x203C PUSH2 0x1B6C JUMP JUMPDEST JUMPDEST PUSH0 PUSH2 0x204A DUP5 DUP3 DUP6 ADD PUSH2 0x2014 JUMP JUMPDEST SWAP2 POP POP SWAP3 SWAP2 POP POP JUMP JUMPDEST PUSH32 0x54696D656F757420706572696F64206E6F742072656163686564000000000000 PUSH0 DUP3 ADD MSTORE POP JUMP JUMPDEST PUSH0 PUSH2 0x2087 PUSH1 0x1A DUP4 PUSH2 0x1D90 JUMP JUMPDEST SWAP2 POP PUSH2 0x2092 DUP3 PUSH2 0x2053 JUMP JUMPDEST PUSH1 0x20 DUP3 ADD SWAP1 POP SWAP2 SWAP1 POP JUMP JUMPDEST PUSH0 PUSH1 0x20 DUP3 ADD SWAP1 POP DUP2 DUP2 SUB PUSH0 DUP4 ADD MSTORE PUSH2 0x20B4 DUP2 PUSH2 0x207B JUMP JUMPDEST SWAP1 POP SWAP2 SWAP1 POP JUMP JUMPDEST PUSH32 0x4F6E6C7920706C61796572302063616E20776974686472617700000000000000 PUSH0 DUP3 ADD MSTORE POP JUMP JUMPDEST PUSH0 PUSH2 0x20EF PUSH1 0x19 DUP4 PUSH2 0x1D90 JUMP JUMPDEST SWAP2 POP PUSH2 0x20FA DUP3 PUSH2 0x20BB JUMP JUMPDEST PUSH1 0x20 DUP3 ADD SWAP1 POP SWAP2 SWAP1 POP JUMP JUMPDEST PUSH0 PUSH1 0x20 DUP3 ADD SWAP1 POP DUP2 DUP2 SUB PUSH0 DUP4 ADD MSTORE PUSH2 0x211C DUP2 PUSH2 0x20E3 JUMP JUMPDEST SWAP1 POP SWAP2 SWAP1 POP JUMP JUMPDEST PUSH32 0x4F6E6C7920706C617965722077686F2072657665616C65640000000000000000 PUSH0 DUP3 ADD MSTORE POP JUMP JUMPDEST PUSH0 PUSH2 0x2157 PUSH1 0x18 DUP4 PUSH2 0x1D90 JUMP JUMPDEST SWAP2 POP PUSH2 0x2162 DUP3 PUSH2 0x2123 JUMP JUMPDEST PUSH1 0x20 DUP3 ADD SWAP1 POP SWAP2 SWAP1 POP JUMP JUMPDEST PUSH0 PUSH1 0x20 DUP3 ADD SWAP1 POP DUP2 DUP2 SUB PUSH0 DUP4 ADD MSTORE PUSH2 0x2184 DUP2 PUSH2 0x214B JUMP JUMPDEST SWAP1 POP SWAP2 SWAP1 POP JUMP JUMPDEST PUSH32 0x4F6E6C7920706C617965722077686F207069636B656420612063686F69636520 PUSH0 DUP3 ADD MSTORE PUSH32 0x63616E2077697468647261770000000000000000000000000000000000000000 PUSH1 0x20 DUP3 ADD MSTORE POP JUMP JUMPDEST PUSH0 PUSH2 0x21E5 PUSH1 0x2C DUP4 PUSH2 0x1D90 JUMP JUMPDEST SWAP2 POP PUSH2 0x21F0 DUP3 PUSH2 0x218B JUMP JUMPDEST PUSH1 0x40 DUP3 ADD SWAP1 POP SWAP2 SWAP1 POP JUMP JUMPDEST PUSH0 PUSH1 0x20 DUP3 ADD SWAP1 POP DUP2 DUP2 SUB PUSH0 DUP4 ADD MSTORE PUSH2 0x2212 DUP2 PUSH2 0x21D9 JUMP JUMPDEST SWAP1 POP SWAP2 SWAP1 POP JUMP JUMPDEST PUSH32 0x4E487B7100000000000000000000000000000000000000000000000000000000 PUSH0 MSTORE PUSH1 0x12 PUSH1 0x4 MSTORE PUSH1 0x24 PUSH0 REVERT JUMPDEST PUSH0 PUSH2 0x2250 DUP3 PUSH2 0x1B3B JUMP JUMPDEST SWAP2 POP PUSH2 0x225B DUP4 PUSH2 0x1B3B JUMP JUMPDEST SWAP3 POP DUP3 PUSH2 0x226B JUMPI PUSH2 0x226A PUSH2 0x2219 JUMP JUMPDEST JUMPDEST DUP3 DUP3 DIV SWAP1 POP SWAP3 SWAP2 POP POP JUMP JUMPDEST PUSH32 0x4E6F7420656E6F75676820706C61796572730000000000000000000000000000 PUSH0 DUP3 ADD MSTORE POP JUMP JUMPDEST PUSH0 PUSH2 0x22AA PUSH1 0x12 DUP4 PUSH2 0x1D90 JUMP JUMPDEST SWAP2 POP PUSH2 0x22B5 DUP3 PUSH2 0x2276 JUMP JUMPDEST PUSH1 0x20 DUP3 ADD SWAP1 POP SWAP2 SWAP1 POP JUMP JUMPDEST PUSH0 PUSH1 0x20 DUP3 ADD SWAP1 POP DUP2 DUP2 SUB PUSH0 DUP4 ADD MSTORE PUSH2 0x22D7 DUP2 PUSH2 0x229E JUMP JUMPDEST SWAP1 POP SWAP2 SWAP1 POP JUMP JUMPDEST PUSH32 0x416C726561647920706C61796564000000000000000000000000000000000000 PUSH0 DUP3 ADD MSTORE POP JUMP JUMPDEST PUSH0 PUSH2 0x2312 PUSH1 0xE DUP4 PUSH2 0x1D90 JUMP JUMPDEST SWAP2 POP PUSH2 0x231D DUP3 PUSH2 0x22DE JUMP JUMPDEST PUSH1 0x20 DUP3 ADD SWAP1 POP SWAP2 SWAP1 POP JUMP JUMPDEST PUSH0 PUSH1 0x20 DUP3 ADD SWAP1 POP DUP2 DUP2 SUB PUSH0 DUP4 ADD MSTORE PUSH2 0x233F DUP2 PUSH2 0x2306 JUMP JUMPDEST SWAP1 POP SWAP2 SWAP1 POP JUMP JUMPDEST PUSH0 DUP2 SWAP1 POP SWAP2 SWAP1 POP JUMP JUMPDEST PUSH2 0x2358 DUP2 PUSH2 0x2346 JUMP JUMPDEST DUP3 MSTORE POP POP JUMP JUMPDEST PUSH0 PUSH1 0x20 DUP3 ADD SWAP1 POP PUSH2 0x2371 PUSH0 DUP4 ADD DUP5 PUSH2 0x234F JUMP JUMPDEST SWAP3 SWAP2 POP POP JUMP JUMPDEST PUSH32 0x416C6C20706C617965727320686176656E277420636F6D6D6974746564206120 PUSH0 DUP3 ADD MSTORE PUSH32 0x63686F6963652079657400000000000000000000000000000000000000000000 PUSH1 0x20 DUP3 ADD MSTORE POP JUMP JUMPDEST PUSH0 PUSH2 0x23D1 PUSH1 0x2A DUP4 PUSH2 0x1D90 JUMP JUMPDEST SWAP2 POP PUSH2 0x23DC DUP3 PUSH2 0x2377 JUMP JUMPDEST PUSH1 0x40 DUP3 ADD SWAP1 POP SWAP2 SWAP1 POP JUMP JUMPDEST PUSH0 PUSH1 0x20 DUP3 ADD SWAP1 POP DUP2 DUP2 SUB PUSH0 DUP4 ADD MSTORE PUSH2 0x23FE DUP2 PUSH2 0x23C5 JUMP JUMPDEST SWAP1 POP SWAP2 SWAP1 POP JUMP JUMPDEST PUSH32 0x416C72656164792072657665616C656400000000000000000000000000000000 PUSH0 DUP3 ADD MSTORE POP JUMP JUMPDEST PUSH0 PUSH2 0x2439 PUSH1 0x10 DUP4 PUSH2 0x1D90 JUMP JUMPDEST SWAP2 POP PUSH2 0x2444 DUP3 PUSH2 0x2405 JUMP JUMPDEST PUSH1 0x20 DUP3 ADD SWAP1 POP SWAP2 SWAP1 POP JUMP JUMPDEST PUSH0 PUSH1 0x20 DUP3 ADD SWAP1 POP DUP2 DUP2 SUB PUSH0 DUP4 ADD MSTORE PUSH2 0x2466 DUP2 PUSH2 0x242D JUMP JUMPDEST SWAP1 POP SWAP2 SWAP1 POP JUMP JUMPDEST PUSH2 0x2476 DUP2 PUSH2 0x1BF5 JUMP JUMPDEST DUP2 EQ PUSH2 0x2480 JUMPI PUSH0 DUP1 REVERT JUMPDEST POP JUMP JUMPDEST PUSH0 DUP2 MLOAD SWAP1 POP PUSH2 0x2491 DUP2 PUSH2 0x246D JUMP JUMPDEST SWAP3 SWAP2 POP POP JUMP JUMPDEST PUSH0 PUSH1 0x20 DUP3 DUP5 SUB SLT ISZERO PUSH2 0x24AC JUMPI PUSH2 0x24AB PUSH2 0x1B6C JUMP JUMPDEST JUMPDEST PUSH0 PUSH2 0x24B9 DUP5 DUP3 DUP6 ADD PUSH2 0x2483 JUMP JUMPDEST SWAP2 POP POP SWAP3 SWAP2 POP POP JUMP JUMPDEST PUSH32 0x52657665616C656420696E707574206572726F72000000000000000000000000 PUSH0 DUP3 ADD MSTORE POP JUMP JUMPDEST PUSH0 PUSH2 0x24F6 PUSH1 0x14 DUP4 PUSH2 0x1D90 JUMP JUMPDEST SWAP2 POP PUSH2 0x2501 DUP3 PUSH2 0x24C2 JUMP JUMPDEST PUSH1 0x20 DUP3 ADD SWAP1 POP SWAP2 SWAP1 POP JUMP JUMPDEST PUSH0 PUSH1 0x20 DUP3 ADD SWAP1 POP DUP2 DUP2 SUB PUSH0 DUP4 ADD MSTORE PUSH2 0x2523 DUP2 PUSH2 0x24EA JUMP JUMPDEST SWAP1 POP SWAP2 SWAP1 POP JUMP JUMPDEST PUSH32 0x4E487B7100000000000000000000000000000000000000000000000000000000 PUSH0 MSTORE PUSH1 0x41 PUSH1 0x4 MSTORE PUSH1 0x24 PUSH0 REVERT INVALID PUSH1 0x80 PUSH1 0x40 MSTORE CALLVALUE DUP1 ISZERO PUSH1 0xE JUMPI PUSH0 DUP1 REVERT JUMPDEST POP PUSH2 0x215 DUP1 PUSH2 0x1C PUSH0 CODECOPY PUSH0 RETURN INVALID PUSH1 0x80 PUSH1 0x40 MSTORE CALLVALUE DUP1 ISZERO PUSH2 0xF JUMPI PUSH0 DUP1 REVERT JUMPDEST POP PUSH1 0x4 CALLDATASIZE LT PUSH2 0x4A JUMPI PUSH0 CALLDATALOAD PUSH1 0xE0 SHR DUP1 PUSH4 0x78E97925 EQ PUSH2 0x4E JUMPI DUP1 PUSH4 0xA63F7C53 EQ PUSH2 0x6C JUMPI DUP1 PUSH4 0xBC06B8CD EQ PUSH2 0x76 JUMPI DUP1 PUSH4 0xD97C8416 EQ PUSH2 0x94 JUMPI JUMPDEST PUSH0 DUP1 REVERT JUMPDEST PUSH2 0x56 PUSH2 0xB2 JUMP JUMPDEST PUSH1 0x40 MLOAD PUSH2 0x63 SWAP2 SWAP1 PUSH2 0x109 JUMP JUMPDEST PUSH1 0x40 MLOAD DUP1 SWAP2 SUB SWAP1 RETURN JUMPDEST PUSH2 0x74 PUSH2 0xB7 JUMP JUMPDEST STOP JUMPDEST PUSH2 0x7E PUSH2 0xBF JUMP JUMPDEST PUSH1 0x40 MLOAD PUSH2 0x8B SWAP2 SWAP1 PUSH2 0x109 JUMP JUMPDEST PUSH1 0x40 MLOAD DUP1 SWAP2 SUB SWAP1 RETURN JUMPDEST PUSH2 0x9C PUSH2 0xD2 JUMP JUMPDEST PUSH1 0x40 MLOAD PUSH2 0xA9 SWAP2 SWAP1 PUSH2 0x109 JUMP JUMPDEST PUSH1 0x40 MLOAD DUP1 SWAP2 SUB SWAP1 RETURN JUMPDEST PUSH0 SLOAD DUP2 JUMP JUMPDEST TIMESTAMP PUSH0 DUP2 SWAP1 SSTORE POP JUMP JUMPDEST PUSH0 DUP1 SLOAD TIMESTAMP PUSH2 0xCD SWAP2 SWAP1 PUSH2 0x14F JUMP JUMPDEST SWAP1 POP SWAP1 JUMP JUMPDEST PUSH0 PUSH1 0x3C PUSH0 SLOAD TIMESTAMP PUSH2 0xE2 SWAP2 SWAP1 PUSH2 0x14F JUMP JUMPDEST PUSH2 0xEC SWAP2 SWAP1 PUSH2 0x1AF JUMP JUMPDEST SWAP1 POP SWAP1 JUMP JUMPDEST PUSH0 DUP2 SWAP1 POP SWAP2 SWAP1 POP JUMP JUMPDEST PUSH2 0x103 DUP2 PUSH2 0xF1 JUMP JUMPDEST DUP3 MSTORE POP POP JUMP JUMPDEST PUSH0 PUSH1 0x20 DUP3 ADD SWAP1 POP PUSH2 0x11C PUSH0 DUP4 ADD DUP5 PUSH2 0xFA JUMP JUMPDEST SWAP3 SWAP2 POP POP JUMP JUMPDEST PUSH32 0x4E487B7100000000000000000000000000000000000000000000000000000000 PUSH0 MSTORE PUSH1 0x11 PUSH1 0x4 MSTORE PUSH1 0x24 PUSH0 REVERT JUMPDEST PUSH0 PUSH2 0x159 DUP3 PUSH2 0xF1 JUMP JUMPDEST SWAP2 POP PUSH2 0x164 DUP4 PUSH2 0xF1 JUMP JUMPDEST SWAP3 POP DUP3 DUP3 SUB SWAP1 POP DUP2 DUP2 GT ISZERO PUSH2 0x17C JUMPI PUSH2 0x17B PUSH2 0x122 JUMP JUMPDEST JUMPDEST SWAP3 SWAP2 POP POP JUMP JUMPDEST PUSH32 0x4E487B7100000000000000000000000000000000000000000000000000000000 PUSH0 MSTORE PUSH1 0x12 PUSH1 0x4 MSTORE PUSH1 0x24 PUSH0 REVERT JUMPDEST PUSH0 PUSH2 0x1B9 DUP3 PUSH2 0xF1 JUMP JUMPDEST SWAP2 POP PUSH2 0x1C4 DUP4 PUSH2 0xF1 JUMP JUMPDEST SWAP3 POP DUP3 PUSH2 0x1D4 JUMPI PUSH2 0x1D3 PUSH2 0x182 JUMP JUMPDEST JUMPDEST DUP3 DUP3 DIV SWAP1 POP SWAP3 SWAP2 POP POP JUMP INVALID LOG2 PUSH5 0x6970667358 0x22 SLT KECCAK256 MSTORE8 PUSH12 0x7940D5371FAAF75B89B185B4 SLT 0xB3 0xB0 PUSH4 0xB6163F59 SWAP6 GASPRICE 0xCE PUSH20 0xF47887B6DAE64736F6C634300081A0033608060 BLOCKHASH MSTORE PUSH1 0x64 PUSH0 DUP1 PUSH2 0x100 EXP DUP2 SLOAD DUP2 PUSH1 0xFF MUL NOT AND SWAP1 DUP4 PUSH1 0xFF AND MUL OR SWAP1 SSTORE POP CALLVALUE DUP1 ISZERO PUSH1 0x28 JUMPI PUSH0 DUP1 REVERT JUMPDEST POP PUSH2 0xDCF DUP1 PUSH2 0x36 PUSH0 CODECOPY PUSH0 RETURN INVALID PUSH1 0x80 PUSH1 0x40 MSTORE CALLVALUE DUP1 ISZERO PUSH2 0xF JUMPI PUSH0 DUP1 REVERT JUMPDEST POP PUSH1 0x4 CALLDATASIZE LT PUSH2 0x60 JUMPI PUSH0 CALLDATALOAD PUSH1 0xE0 SHR DUP1 PUSH4 0x3CF5040A EQ PUSH2 0x64 JUMPI DUP1 PUSH4 0x54214F69 EQ PUSH2 0x94 JUMPI DUP1 PUSH4 0x6AC5DB19 EQ PUSH2 0xB2 JUMPI DUP1 PUSH4 0x701FD0F1 EQ PUSH2 0xD0 JUMPI DUP1 PUSH4 0x7B43A8E6 EQ PUSH2 0xEC JUMPI DUP1 PUSH4 0xF14FCBC8 EQ PUSH2 0x11E JUMPI JUMPDEST PUSH0 DUP1 REVERT JUMPDEST PUSH2 0x7E PUSH1 0x4 DUP1 CALLDATASIZE SUB DUP2 ADD SWAP1 PUSH2 0x79 SWAP2 SWAP1 PUSH2 0x7DA JUMP JUMPDEST PUSH2 0x13A JUMP JUMPDEST PUSH1 0x40 MLOAD PUSH2 0x8B SWAP2 SWAP1 PUSH2 0x814 JUMP JUMPDEST PUSH1 0x40 MLOAD DUP1 SWAP2 SUB SWAP1 RETURN JUMPDEST PUSH2 0x9C PUSH2 0x169 JUMP JUMPDEST PUSH1 0x40 MLOAD PUSH2 0xA9 SWAP2 SWAP1 PUSH2 0x847 JUMP JUMPDEST PUSH1 0x40 MLOAD DUP1 SWAP2 SUB SWAP1 RETURN JUMPDEST PUSH2 0xBA PUSH2 0x1BD JUMP JUMPDEST PUSH1 0x40 MLOAD PUSH2 0xC7 SWAP2 SWAP1 PUSH2 0x87B JUMP JUMPDEST PUSH1 0x40 MLOAD DUP1 SWAP2 SUB SWAP1 RETURN JUMPDEST PUSH2 0xEA PUSH1 0x4 DUP1 CALLDATASIZE SUB DUP2 ADD SWAP1 PUSH2 0xE5 SWAP2 SWAP1 PUSH2 0x7DA JUMP JUMPDEST PUSH2 0x1CD JUMP JUMPDEST STOP JUMPDEST PUSH2 0x106 PUSH1 0x4 DUP1 CALLDATASIZE SUB DUP2 ADD SWAP1 PUSH2 0x101 SWAP2 SWAP1 PUSH2 0x8EE JUMP JUMPDEST PUSH2 0x58B JUMP JUMPDEST PUSH1 0x40 MLOAD PUSH2 0x115 SWAP4 SWAP3 SWAP2 SWAP1 PUSH2 0x93B JUMP JUMPDEST PUSH1 0x40 MLOAD DUP1 SWAP2 SUB SWAP1 RETURN JUMPDEST PUSH2 0x138 PUSH1 0x4 DUP1 CALLDATASIZE SUB DUP2 ADD SWAP1 PUSH2 0x133 SWAP2 SWAP1 PUSH2 0x7DA JUMP JUMPDEST PUSH2 0x5D1 JUMP JUMPDEST STOP JUMPDEST PUSH0 DUP2 PUSH1 0x40 MLOAD PUSH1 0x20 ADD PUSH2 0x14C SWAP2 SWAP1 PUSH2 0x990 JUMP JUMPDEST PUSH1 0x40 MLOAD PUSH1 0x20 DUP2 DUP4 SUB SUB DUP2 MSTORE SWAP1 PUSH1 0x40 MSTORE DUP1 MLOAD SWAP1 PUSH1 0x20 ADD KECCAK256 SWAP1 POP SWAP2 SWAP1 POP JUMP JUMPDEST PUSH0 PUSH1 0x1 PUSH0 CALLER PUSH20 0xFFFFFFFFFFFFFFFFFFFFFFFFFFFFFFFFFFFFFFFF AND PUSH20 0xFFFFFFFFFFFFFFFFFFFFFFFFFFFFFFFFFFFFFFFF AND DUP2 MSTORE PUSH1 0x20 ADD SWAP1 DUP2 MSTORE PUSH1 0x20 ADD PUSH0 KECCAK256 PUSH1 0x1 ADD PUSH1 0x8 SWAP1 SLOAD SWAP1 PUSH2 0x100 EXP SWAP1 DIV PUSH1 0xFF AND SWAP1 POP SWAP1 JUMP JUMPDEST PUSH0 DUP1 SLOAD SWAP1 PUSH2 0x100 EXP SWAP1 DIV PUSH1 0xFF AND DUP2 JUMP JUMPDEST PUSH0 ISZERO ISZERO PUSH1 0x1 PUSH0 CALLER PUSH20 0xFFFFFFFFFFFFFFFFFFFFFFFFFFFFFFFFFFFFFFFF AND PUSH20 0xFFFFFFFFFFFFFFFFFFFFFFFFFFFFFFFFFFFFFFFF AND DUP2 MSTORE PUSH1 0x20 ADD SWAP1 DUP2 MSTORE PUSH1 0x20 ADD PUSH0 KECCAK256 PUSH1 0x1 ADD PUSH1 0x8 SWAP1 SLOAD SWAP1 PUSH2 0x100 EXP SWAP1 DIV PUSH1 0xFF AND ISZERO ISZERO EQ PUSH2 0x260 JUMPI PUSH1 0x40 MLOAD PUSH32 0x8C379A000000000000000000000000000000000000000000000000000000000 DUP2 MSTORE PUSH1 0x4 ADD PUSH2 0x257 SWAP1 PUSH2 0xA2A JUMP JUMPDEST PUSH1 0x40 MLOAD DUP1 SWAP2 SUB SWAP1 REVERT JUMPDEST PUSH1 0x1 DUP1 PUSH0 CALLER PUSH20 0xFFFFFFFFFFFFFFFFFFFFFFFFFFFFFFFFFFFFFFFF AND PUSH20 0xFFFFFFFFFFFFFFFFFFFFFFFFFFFFFFFFFFFFFFFF AND DUP2 MSTORE PUSH1 0x20 ADD SWAP1 DUP2 MSTORE PUSH1 0x20 ADD PUSH0 KECCAK256 PUSH1 0x1 ADD PUSH1 0x8 PUSH2 0x100 EXP DUP2 SLOAD DUP2 PUSH1 0xFF MUL NOT AND SWAP1 DUP4 ISZERO ISZERO MUL OR SWAP1 SSTORE POP PUSH1 0x1 PUSH0 CALLER PUSH20 0xFFFFFFFFFFFFFFFFFFFFFFFFFFFFFFFFFFFFFFFF AND PUSH20 0xFFFFFFFFFFFFFFFFFFFFFFFFFFFFFFFFFFFFFFFF AND DUP2 MSTORE PUSH1 0x20 ADD SWAP1 DUP2 MSTORE PUSH1 0x20 ADD PUSH0 KECCAK256 PUSH0 ADD SLOAD PUSH2 0x301 DUP3 PUSH2 0x13A JUMP JUMPDEST EQ PUSH2 0x341 JUMPI PUSH1 0x40 MLOAD PUSH32 0x8C379A000000000000000000000000000000000000000000000000000000000 DUP2 MSTORE PUSH1 0x4 ADD PUSH2 0x338 SWAP1 PUSH2 0xAB8 JUMP JUMPDEST PUSH1 0x40 MLOAD DUP1 SWAP2 SUB SWAP1 REVERT JUMPDEST PUSH1 0x1 PUSH0 CALLER PUSH20 0xFFFFFFFFFFFFFFFFFFFFFFFFFFFFFFFFFFFFFFFF AND PUSH20 0xFFFFFFFFFFFFFFFFFFFFFFFFFFFFFFFFFFFFFFFF AND DUP2 MSTORE PUSH1 0x20 ADD SWAP1 DUP2 MSTORE PUSH1 0x20 ADD PUSH0 KECCAK256 PUSH1 0x1 ADD PUSH0 SWAP1 SLOAD SWAP1 PUSH2 0x100 EXP SWAP1 DIV PUSH8 0xFFFFFFFFFFFFFFFF AND PUSH8 0xFFFFFFFFFFFFFFFF AND NUMBER PUSH8 0xFFFFFFFFFFFFFFFF AND GT PUSH2 0x3EA JUMPI PUSH1 0x40 MLOAD PUSH32 0x8C379A000000000000000000000000000000000000000000000000000000000 DUP2 MSTORE PUSH1 0x4 ADD PUSH2 0x3E1 SWAP1 PUSH2 0xB6C JUMP JUMPDEST PUSH1 0x40 MLOAD DUP1 SWAP2 SUB SWAP1 REVERT JUMPDEST PUSH1 0xFA PUSH1 0x1 PUSH0 CALLER PUSH20 0xFFFFFFFFFFFFFFFFFFFFFFFFFFFFFFFFFFFFFFFF AND PUSH20 0xFFFFFFFFFFFFFFFFFFFFFFFFFFFFFFFFFFFFFFFF AND DUP2 MSTORE PUSH1 0x20 ADD SWAP1 DUP2 MSTORE PUSH1 0x20 ADD PUSH0 KECCAK256 PUSH1 0x1 ADD PUSH0 SWAP1 SLOAD SWAP1 PUSH2 0x100 EXP SWAP1 DIV PUSH8 0xFFFFFFFFFFFFFFFF AND PUSH2 0x44A SWAP2 SWAP1 PUSH2 0xBB7 JUMP JUMPDEST PUSH8 0xFFFFFFFFFFFFFFFF AND NUMBER PUSH8 0xFFFFFFFFFFFFFFFF AND GT ISZERO PUSH2 0x4A0 JUMPI PUSH1 0x40 MLOAD PUSH32 0x8C379A000000000000000000000000000000000000000000000000000000000 DUP2 MSTORE PUSH1 0x4 ADD PUSH2 0x497 SWAP1 PUSH2 0xC62 JUMP JUMPDEST PUSH1 0x40 MLOAD DUP1 SWAP2 SUB SWAP1 REVERT JUMPDEST PUSH0 PUSH1 0x1 PUSH0 CALLER PUSH20 0xFFFFFFFFFFFFFFFFFFFFFFFFFFFFFFFFFFFFFFFF AND PUSH20 0xFFFFFFFFFFFFFFFFFFFFFFFFFFFFFFFFFFFFFFFF AND DUP2 MSTORE PUSH1 0x20 ADD SWAP1 DUP2 MSTORE PUSH1 0x20 ADD PUSH0 KECCAK256 PUSH1 0x1 ADD PUSH0 SWAP1 SLOAD SWAP1 PUSH2 0x100 EXP SWAP1 DIV PUSH8 0xFFFFFFFFFFFFFFFF AND PUSH8 0xFFFFFFFFFFFFFFFF AND BLOCKHASH SWAP1 POP PUSH0 DUP1 PUSH0 SWAP1 SLOAD SWAP1 PUSH2 0x100 EXP SWAP1 DIV PUSH1 0xFF AND PUSH1 0xFF AND DUP3 DUP5 PUSH1 0x40 MLOAD PUSH1 0x20 ADD PUSH2 0x527 SWAP3 SWAP2 SWAP1 PUSH2 0xC80 JUMP JUMPDEST PUSH1 0x40 MLOAD PUSH1 0x20 DUP2 DUP4 SUB SUB DUP2 MSTORE SWAP1 PUSH1 0x40 MSTORE DUP1 MLOAD SWAP1 PUSH1 0x20 ADD KECCAK256 PUSH0 SHR PUSH2 0x549 SWAP2 SWAP1 PUSH2 0xCE1 JUMP JUMPDEST SWAP1 POP PUSH32 0xBC016DD1CADEAEFCB851AF7A0A93532E0023D536894B730801F7BCFE7065BCC2 CALLER DUP5 DUP4 PUSH1 0x40 MLOAD PUSH2 0x57E SWAP4 SWAP3 SWAP2 SWAP1 PUSH2 0xD2F JUMP JUMPDEST PUSH1 0x40 MLOAD DUP1 SWAP2 SUB SWAP1 LOG1 POP POP POP JUMP JUMPDEST PUSH1 0x1 PUSH1 0x20 MSTORE DUP1 PUSH0 MSTORE PUSH1 0x40 PUSH0 KECCAK256 PUSH0 SWAP2 POP SWAP1 POP DUP1 PUSH0 ADD SLOAD SWAP1 DUP1 PUSH1 0x1 ADD PUSH0 SWAP1 SLOAD SWAP1 PUSH2 0x100 EXP SWAP1 DIV PUSH8 0xFFFFFFFFFFFFFFFF AND SWAP1 DUP1 PUSH1 0x1 ADD PUSH1 0x8 SWAP1 SLOAD SWAP1 PUSH2 0x100 EXP SWAP1 DIV PUSH1 0xFF AND SWAP1 POP DUP4 JUMP JUMPDEST DUP1 PUSH1 0x1 PUSH0 CALLER PUSH20 0xFFFFFFFFFFFFFFFFFFFFFFFFFFFFFFFFFFFFFFFF AND PUSH20 0xFFFFFFFFFFFFFFFFFFFFFFFFFFFFFFFFFFFFFFFF AND DUP2 MSTORE PUSH1 0x20 ADD SWAP1 DUP2 MSTORE PUSH1 0x20 ADD PUSH0 KECCAK256 PUSH0 ADD DUP2 SWAP1 SSTORE POP NUMBER PUSH1 0x1 PUSH0 CALLER PUSH20 0xFFFFFFFFFFFFFFFFFFFFFFFFFFFFFFFFFFFFFFFF AND PUSH20 0xFFFFFFFFFFFFFFFFFFFFFFFFFFFFFFFFFFFFFFFF AND DUP2 MSTORE PUSH1 0x20 ADD SWAP1 DUP2 MSTORE PUSH1 0x20 ADD PUSH0 KECCAK256 PUSH1 0x1 ADD PUSH0 PUSH2 0x100 EXP DUP2 SLOAD DUP2 PUSH8 0xFFFFFFFFFFFFFFFF MUL NOT AND SWAP1 DUP4 PUSH8 0xFFFFFFFFFFFFFFFF AND MUL OR SWAP1 SSTORE POP PUSH0 PUSH1 0x1 PUSH0 CALLER PUSH20 0xFFFFFFFFFFFFFFFFFFFFFFFFFFFFFFFFFFFFFFFF AND PUSH20 0xFFFFFFFFFFFFFFFFFFFFFFFFFFFFFFFFFFFFFFFF AND DUP2 MSTORE PUSH1 0x20 ADD SWAP1 DUP2 MSTORE PUSH1 0x20 ADD PUSH0 KECCAK256 PUSH1 0x1 ADD PUSH1 0x8 PUSH2 0x100 EXP DUP2 SLOAD DUP2 PUSH1 0xFF MUL NOT AND SWAP1 DUP4 ISZERO ISZERO MUL OR SWAP1 SSTORE POP PUSH32 0x3C1A1F8F38335B17F751C6DA4BA7D1865F26B3997535176F5080DE9FAD891603 CALLER PUSH1 0x1 PUSH0 CALLER PUSH20 0xFFFFFFFFFFFFFFFFFFFFFFFFFFFFFFFFFFFFFFFF AND PUSH20 0xFFFFFFFFFFFFFFFFFFFFFFFFFFFFFFFFFFFFFFFF AND DUP2 MSTORE PUSH1 0x20 ADD SWAP1 DUP2 MSTORE PUSH1 0x20 ADD PUSH0 KECCAK256 PUSH0 ADD SLOAD PUSH1 0x1 PUSH0 CALLER PUSH20 0xFFFFFFFFFFFFFFFFFFFFFFFFFFFFFFFFFFFFFFFF AND PUSH20 0xFFFFFFFFFFFFFFFFFFFFFFFFFFFFFFFFFFFFFFFF AND DUP2 MSTORE PUSH1 0x20 ADD SWAP1 DUP2 MSTORE PUSH1 0x20 ADD PUSH0 KECCAK256 PUSH1 0x1 ADD PUSH0 SWAP1 SLOAD SWAP1 PUSH2 0x100 EXP SWAP1 DIV PUSH8 0xFFFFFFFFFFFFFFFF AND PUSH1 0x40 MLOAD PUSH2 0x798 SWAP4 SWAP3 SWAP2 SWAP1 PUSH2 0xD64 JUMP JUMPDEST PUSH1 0x40 MLOAD DUP1 SWAP2 SUB SWAP1 LOG1 POP JUMP JUMPDEST PUSH0 DUP1 REVERT JUMPDEST PUSH0 DUP2 SWAP1 POP SWAP2 SWAP1 POP JUMP JUMPDEST PUSH2 0x7B9 DUP2 PUSH2 0x7A7 JUMP JUMPDEST DUP2 EQ PUSH2 0x7C3 JUMPI PUSH0 DUP1 REVERT JUMPDEST POP JUMP JUMPDEST PUSH0 DUP2 CALLDATALOAD SWAP1 POP PUSH2 0x7D4 DUP2 PUSH2 0x7B0 JUMP JUMPDEST SWAP3 SWAP2 POP POP JUMP JUMPDEST PUSH0 PUSH1 0x20 DUP3 DUP5 SUB SLT ISZERO PUSH2 0x7EF JUMPI PUSH2 0x7EE PUSH2 0x7A3 JUMP JUMPDEST JUMPDEST PUSH0 PUSH2 0x7FC DUP5 DUP3 DUP6 ADD PUSH2 0x7C6 JUMP JUMPDEST SWAP2 POP POP SWAP3 SWAP2 POP POP JUMP JUMPDEST PUSH2 0x80E DUP2 PUSH2 0x7A7 JUMP JUMPDEST DUP3 MSTORE POP POP JUMP JUMPDEST PUSH0 PUSH1 0x20 DUP3 ADD SWAP1 POP PUSH2 0x827 PUSH0 DUP4 ADD DUP5 PUSH2 0x805 JUMP JUMPDEST SWAP3 SWAP2 POP POP JUMP JUMPDEST PUSH0 DUP2 ISZERO ISZERO SWAP1 POP SWAP2 SWAP1 POP JUMP JUMPDEST PUSH2 0x841 DUP2 PUSH2 0x82D JUMP JUMPDEST DUP3 MSTORE POP POP JUMP JUMPDEST PUSH0 PUSH1 0x20 DUP3 ADD SWAP1 POP PUSH2 0x85A PUSH0 DUP4 ADD DUP5 PUSH2 0x838 JUMP JUMPDEST SWAP3 SWAP2 POP POP JUMP JUMPDEST PUSH0 PUSH1 0xFF DUP3 AND SWAP1 POP SWAP2 SWAP1 POP JUMP JUMPDEST PUSH2 0x875 DUP2 PUSH2 0x860 JUMP JUMPDEST DUP3 MSTORE POP POP JUMP JUMPDEST PUSH0 PUSH1 0x20 DUP3 ADD SWAP1 POP PUSH2 0x88E PUSH0 DUP4 ADD DUP5 PUSH2 0x86C JUMP JUMPDEST SWAP3 SWAP2 POP POP JUMP JUMPDEST PUSH0 PUSH20 0xFFFFFFFFFFFFFFFFFFFFFFFFFFFFFFFFFFFFFFFF DUP3 AND SWAP1 POP SWAP2 SWAP1 POP JUMP JUMPDEST PUSH0 PUSH2 0x8BD DUP3 PUSH2 0x894 JUMP JUMPDEST SWAP1 POP SWAP2 SWAP1 POP JUMP JUMPDEST PUSH2 0x8CD DUP2 PUSH2 0x8B3 JUMP JUMPDEST DUP2 EQ PUSH2 0x8D7 JUMPI PUSH0 DUP1 REVERT JUMPDEST POP JUMP JUMPDEST PUSH0 DUP2 CALLDATALOAD SWAP1 POP PUSH2 0x8E8 DUP2 PUSH2 0x8C4 JUMP JUMPDEST SWAP3 SWAP2 POP POP JUMP JUMPDEST PUSH0 PUSH1 0x20 DUP3 DUP5 SUB SLT ISZERO PUSH2 0x903 JUMPI PUSH2 0x902 PUSH2 0x7A3 JUMP JUMPDEST JUMPDEST PUSH0 PUSH2 0x910 DUP5 DUP3 DUP6 ADD PUSH2 0x8DA JUMP JUMPDEST SWAP2 POP POP SWAP3 SWAP2 POP POP JUMP JUMPDEST PUSH0 PUSH8 0xFFFFFFFFFFFFFFFF DUP3 AND SWAP1 POP SWAP2 SWAP1 POP JUMP JUMPDEST PUSH2 0x935 DUP2 PUSH2 0x919 JUMP JUMPDEST DUP3 MSTORE POP POP JUMP JUMPDEST PUSH0 PUSH1 0x60 DUP3 ADD SWAP1 POP PUSH2 0x94E PUSH0 DUP4 ADD DUP7 PUSH2 0x805 JUMP JUMPDEST PUSH2 0x95B PUSH1 0x20 DUP4 ADD DUP6 PUSH2 0x92C JUMP JUMPDEST PUSH2 0x968 PUSH1 0x40 DUP4 ADD DUP5 PUSH2 0x838 JUMP JUMPDEST SWAP5 SWAP4 POP POP POP POP JUMP JUMPDEST PUSH0 DUP2 SWAP1 POP SWAP2 SWAP1 POP JUMP JUMPDEST PUSH2 0x98A PUSH2 0x985 DUP3 PUSH2 0x7A7 JUMP JUMPDEST PUSH2 0x970 JUMP JUMPDEST DUP3 MSTORE POP POP JUMP JUMPDEST PUSH0 PUSH2 0x99B DUP3 DUP5 PUSH2 0x979 JUMP JUMPDEST PUSH1 0x20 DUP3 ADD SWAP2 POP DUP2 SWAP1 POP SWAP3 SWAP2 POP POP JUMP JUMPDEST PUSH0 DUP3 DUP3 MSTORE PUSH1 0x20 DUP3 ADD SWAP1 POP SWAP3 SWAP2 POP POP JUMP JUMPDEST PUSH32 0x436F6D6D697452657665616C3A3A72657665616C3A20416C7265616479207265 PUSH0 DUP3 ADD MSTORE PUSH32 0x7665616C65640000000000000000000000000000000000000000000000000000 PUSH1 0x20 DUP3 ADD MSTORE POP JUMP JUMPDEST PUSH0 PUSH2 0xA14 PUSH1 0x26 DUP4 PUSH2 0x9AA JUMP JUMPDEST SWAP2 POP PUSH2 0xA1F DUP3 PUSH2 0x9BA JUMP JUMPDEST PUSH1 0x40 DUP3 ADD SWAP1 POP SWAP2 SWAP1 POP JUMP JUMPDEST PUSH0 PUSH1 0x20 DUP3 ADD SWAP1 POP DUP2 DUP2 SUB PUSH0 DUP4 ADD MSTORE PUSH2 0xA41 DUP2 PUSH2 0xA08 JUMP JUMPDEST SWAP1 POP SWAP2 SWAP1 POP JUMP JUMPDEST PUSH32 0x436F6D6D697452657665616C3A3A72657665616C3A2052657665616C65642068 PUSH0 DUP3 ADD MSTORE PUSH32 0x61736820646F6573206E6F74206D6174636820636F6D6D697400000000000000 PUSH1 0x20 DUP3 ADD MSTORE POP JUMP JUMPDEST PUSH0 PUSH2 0xAA2 PUSH1 0x39 DUP4 PUSH2 0x9AA JUMP JUMPDEST SWAP2 POP PUSH2 0xAAD DUP3 PUSH2 0xA48 JUMP JUMPDEST PUSH1 0x40 DUP3 ADD SWAP1 POP SWAP2 SWAP1 POP JUMP JUMPDEST PUSH0 PUSH1 0x20 DUP3 ADD SWAP1 POP DUP2 DUP2 SUB PUSH0 DUP4 ADD MSTORE PUSH2 0xACF DUP2 PUSH2 0xA96 JUMP JUMPDEST SWAP1 POP SWAP2 SWAP1 POP JUMP JUMPDEST PUSH32 0x436F6D6D697452657665616C3A3A72657665616C3A2052657665616C20616E64 PUSH0 DUP3 ADD MSTORE PUSH32 0x20636F6D6D69742068617070656E6564206F6E207468652073616D6520626C6F PUSH1 0x20 DUP3 ADD MSTORE PUSH32 0x636B000000000000000000000000000000000000000000000000000000000000 PUSH1 0x40 DUP3 ADD MSTORE POP JUMP JUMPDEST PUSH0 PUSH2 0xB56 PUSH1 0x42 DUP4 PUSH2 0x9AA JUMP JUMPDEST SWAP2 POP PUSH2 0xB61 DUP3 PUSH2 0xAD6 JUMP JUMPDEST PUSH1 0x60 DUP3 ADD SWAP1 POP SWAP2 SWAP1 POP JUMP JUMPDEST PUSH0 PUSH1 0x20 DUP3 ADD SWAP1 POP DUP2 DUP2 SUB PUSH0 DUP4 ADD MSTORE PUSH2 0xB83 DUP2 PUSH2 0xB4A JUMP JUMPDEST SWAP1 POP SWAP2 SWAP1 POP JUMP JUMPDEST PUSH32 0x4E487B7100000000000000000000000000000000000000000000000000000000 PUSH0 MSTORE PUSH1 0x11 PUSH1 0x4 MSTORE PUSH1 0x24 PUSH0 REVERT JUMPDEST PUSH0 PUSH2 0xBC1 DUP3 PUSH2 0x919 JUMP JUMPDEST SWAP2 POP PUSH2 0xBCC DUP4 PUSH2 0x919 JUMP JUMPDEST SWAP3 POP DUP3 DUP3 ADD SWAP1 POP PUSH8 0xFFFFFFFFFFFFFFFF DUP2 GT ISZERO PUSH2 0xBEC JUMPI PUSH2 0xBEB PUSH2 0xB8A JUMP JUMPDEST JUMPDEST SWAP3 SWAP2 POP POP JUMP JUMPDEST PUSH32 0x436F6D6D697452657665616C3A3A72657665616C3A2052657665616C65642074 PUSH0 DUP3 ADD MSTORE PUSH32 0x6F6F206C61746500000000000000000000000000000000000000000000000000 PUSH1 0x20 DUP3 ADD MSTORE POP JUMP JUMPDEST PUSH0 PUSH2 0xC4C PUSH1 0x27 DUP4 PUSH2 0x9AA JUMP JUMPDEST SWAP2 POP PUSH2 0xC57 DUP3 PUSH2 0xBF2 JUMP JUMPDEST PUSH1 0x40 DUP3 ADD SWAP1 POP SWAP2 SWAP1 POP JUMP JUMPDEST PUSH0 PUSH1 0x20 DUP3 ADD SWAP1 POP DUP2 DUP2 SUB PUSH0 DUP4 ADD MSTORE PUSH2 0xC79 DUP2 PUSH2 0xC40 JUMP JUMPDEST SWAP1 POP SWAP2 SWAP1 POP JUMP JUMPDEST PUSH0 PUSH2 0xC8B DUP3 DUP6 PUSH2 0x979 JUMP JUMPDEST PUSH1 0x20 DUP3 ADD SWAP2 POP PUSH2 0xC9B DUP3 DUP5 PUSH2 0x979 JUMP JUMPDEST PUSH1 0x20 DUP3 ADD SWAP2 POP DUP2 SWAP1 POP SWAP4 SWAP3 POP POP POP JUMP JUMPDEST PUSH0 DUP2 SWAP1 POP SWAP2 SWAP1 POP JUMP JUMPDEST PUSH32 0x4E487B7100000000000000000000000000000000000000000000000000000000 PUSH0 MSTORE PUSH1 0x12 PUSH1 0x4 MSTORE PUSH1 0x24 PUSH0 REVERT JUMPDEST PUSH0 PUSH2 0xCEB DUP3 PUSH2 0xCAB JUMP JUMPDEST SWAP2 POP PUSH2 0xCF6 DUP4 PUSH2 0xCAB JUMP JUMPDEST SWAP3 POP DUP3 PUSH2 0xD06 JUMPI PUSH2 0xD05 PUSH2 0xCB4 JUMP JUMPDEST JUMPDEST DUP3 DUP3 MOD SWAP1 POP SWAP3 SWAP2 POP POP JUMP JUMPDEST PUSH2 0xD1A DUP2 PUSH2 0x8B3 JUMP JUMPDEST DUP3 MSTORE POP POP JUMP JUMPDEST PUSH2 0xD29 DUP2 PUSH2 0xCAB JUMP JUMPDEST DUP3 MSTORE POP POP JUMP JUMPDEST PUSH0 PUSH1 0x60 DUP3 ADD SWAP1 POP PUSH2 0xD42 PUSH0 DUP4 ADD DUP7 PUSH2 0xD11 JUMP JUMPDEST PUSH2 0xD4F PUSH1 0x20 DUP4 ADD DUP6 PUSH2 0x805 JUMP JUMPDEST PUSH2 0xD5C PUSH1 0x40 DUP4 ADD DUP5 PUSH2 0xD20 JUMP JUMPDEST SWAP5 SWAP4 POP POP POP POP JUMP JUMPDEST PUSH0 PUSH1 0x60 DUP3 ADD SWAP1 POP PUSH2 0xD77 PUSH0 DUP4 ADD DUP7 PUSH2 0xD11 JUMP JUMPDEST PUSH2 0xD84 PUSH1 0x20 DUP4 ADD DUP6 PUSH2 0x805 JUMP JUMPDEST PUSH2 0xD91 PUSH1 0x40 DUP4 ADD DUP5 PUSH2 0x92C JUMP JUMPDEST SWAP5 SWAP4 POP POP POP POP JUMP INVALID LOG2 PUSH5 0x6970667358 0x22 SLT KECCAK256 REVERT 0xD2 0x2C SLOAD 0xC0 CALLER PUSH18 0x8CC8A7C05D7E199F7C5E11D8F70A7D529AF3 SWAP1 0x2E 0xEB SHL SWAP3 SWAP12 DIV PUSH5 0x736F6C6343 STOP ADDMOD BYTE STOP CALLER LOG2 PUSH5 0x6970667358 0x22 SLT KECCAK256 LOG3 GT 0xF8 0x1E EXTCODESIZE PUSH7 0xDCE1E1F6D473D5 ADDRESS 0xB5 EQ 0xFC PUSH10 0xFA0C9834BE144F2DAEEF 0x1E CALLDATALOAD 0xB1 0xEC PUSH5 0x736F6C6343 STOP ADDMOD BYTE STOP CALLER PUSH1 0x80 PUSH1 0x40 MSTORE CALLVALUE DUP1 ISZERO PUSH1 0xE JUMPI PUSH0 DUP1 REVERT JUMPDEST POP PUSH2 0x215 DUP1 PUSH2 0x1C PUSH0 CODECOPY PUSH0 RETURN INVALID PUSH1 0x80 PUSH1 0x40 MSTORE CALLVALUE DUP1 ISZERO PUSH2 0xF JUMPI PUSH0 DUP1 REVERT JUMPDEST POP PUSH1 0x4 CALLDATASIZE LT PUSH2 0x4A JUMPI PUSH0 CALLDATALOAD PUSH1 0xE0 SHR DUP1 PUSH4 0x78E97925 EQ PUSH2 0x4E JUMPI DUP1 PUSH4 0xA63F7C53 EQ PUSH2 0x6C JUMPI DUP1 PUSH4 0xBC06B8CD EQ PUSH2 0x76 JUMPI DUP1 PUSH4 0xD97C8416 EQ PUSH2 0x94 JUMPI JUMPDEST PUSH0 DUP1 REVERT JUMPDEST PUSH2 0x56 PUSH2 0xB2 JUMP JUMPDEST PUSH1 0x40 MLOAD PUSH2 0x63 SWAP2 SWAP1 PUSH2 0x109 JUMP JUMPDEST PUSH1 0x40 MLOAD DUP1 SWAP2 SUB SWAP1 RETURN JUMPDEST PUSH2 0x74 PUSH2 0xB7 JUMP JUMPDEST STOP JUMPDEST PUSH2 0x7E PUSH2 0xBF JUMP JUMPDEST PUSH1 0x40 MLOAD PUSH2 0x8B SWAP2 SWAP1 PUSH2 0x109 JUMP JUMPDEST PUSH1 0x40 MLOAD DUP1 SWAP2 SUB SWAP1 RETURN JUMPDEST PUSH2 0x9C PUSH2 0xD2 JUMP JUMPDEST PUSH1 0x40 MLOAD PUSH2 0xA9 SWAP2 SWAP1 PUSH2 0x109 JUMP JUMPDEST PUSH1 0x40 MLOAD DUP1 SWAP2 SUB SWAP1 RETURN JUMPDEST PUSH0 SLOAD DUP2 JUMP JUMPDEST TIMESTAMP PUSH0 DUP2 SWAP1 SSTORE POP JUMP JUMPDEST PUSH0 DUP1 SLOAD TIMESTAMP PUSH2 0xCD SWAP2 SWAP1 PUSH2 0x14F JUMP JUMPDEST SWAP1 POP SWAP1 JUMP JUMPDEST PUSH0 PUSH1 0x3C PUSH0 SLOAD TIMESTAMP PUSH2 0xE2 SWAP2 SWAP1 PUSH2 0x14F JUMP JUMPDEST PUSH2 0xEC SWAP2 SWAP1 PUSH2 0x1AF JUMP JUMPDEST SWAP1 POP SWAP1 JUMP JUMPDEST PUSH0 DUP2 SWAP1 POP SWAP2 SWAP1 POP JUMP JUMPDEST PUSH2 0x103 DUP2 PUSH2 0xF1 JUMP JUMPDEST DUP3 MSTORE POP POP JUMP JUMPDEST PUSH0 PUSH1 0x20 DUP3 ADD SWAP1 POP PUSH2 0x11C PUSH0 DUP4 ADD DUP5 PUSH2 0xFA JUMP JUMPDEST SWAP3 SWAP2 POP POP JUMP JUMPDEST PUSH32 0x4E487B7100000000000000000000000000000000000000000000000000000000 PUSH0 MSTORE PUSH1 0x11 PUSH1 0x4 MSTORE PUSH1 0x24 PUSH0 REVERT JUMPDEST PUSH0 PUSH2 0x159 DUP3 PUSH2 0xF1 JUMP JUMPDEST SWAP2 POP PUSH2 0x164 DUP4 PUSH2 0xF1 JUMP JUMPDEST SWAP3 POP DUP3 DUP3 SUB SWAP1 POP DUP2 DUP2 GT ISZERO PUSH2 0x17C JUMPI PUSH2 0x17B PUSH2 0x122 JUMP JUMPDEST JUMPDEST SWAP3 SWAP2 POP POP JUMP JUMPDEST PUSH32 0x4E487B7100000000000000000000000000000000000000000000000000000000 PUSH0 MSTORE PUSH1 0x12 PUSH1 0x4 MSTORE PUSH1 0x24 PUSH0 REVERT JUMPDEST PUSH0 PUSH2 0x1B9 DUP3 PUSH2 0xF1 JUMP JUMPDEST SWAP2 POP PUSH2 0x1C4 DUP4 PUSH2 0xF1 JUMP JUMPDEST SWAP3 POP DUP3 PUSH2 0x1D4 JUMPI PUSH2 0x1D3 PUSH2 0x182 JUMP JUMPDEST JUMPDEST DUP3 DUP3 DIV SWAP1 POP SWAP3 SWAP2 POP POP JUMP INVALID LOG2 PUSH5 0x6970667358 0x22 SLT KECCAK256 MSTORE8 PUSH12 0x7940D5371FAAF75B89B185B4 SLT 0xB3 0xB0 PUSH4 0xB6163F59 SWAP6 GASPRICE 0xCE PUSH20 0xF47887B6DAE64736F6C634300081A0033608060 BLOCKHASH MSTORE PUSH1 0x64 PUSH0 DUP1 PUSH2 0x100 EXP DUP2 SLOAD DUP2 PUSH1 0xFF MUL NOT AND SWAP1 DUP4 PUSH1 0xFF AND MUL OR SWAP1 SSTORE POP CALLVALUE DUP1 ISZERO PUSH1 0x28 JUMPI PUSH0 DUP1 REVERT JUMPDEST POP PUSH2 0xDCF DUP1 PUSH2 0x36 PUSH0 CODECOPY PUSH0 RETURN INVALID PUSH1 0x80 PUSH1 0x40 MSTORE CALLVALUE DUP1 ISZERO PUSH2 0xF JUMPI PUSH0 DUP1 REVERT JUMPDEST POP PUSH1 0x4 CALLDATASIZE LT PUSH2 0x60 JUMPI PUSH0 CALLDATALOAD PUSH1 0xE0 SHR DUP1 PUSH4 0x3CF5040A EQ PUSH2 0x64 JUMPI DUP1 PUSH4 0x54214F69 EQ PUSH2 0x94 JUMPI DUP1 PUSH4 0x6AC5DB19 EQ PUSH2 0xB2 JUMPI DUP1 PUSH4 0x701FD0F1 EQ PUSH2 0xD0 JUMPI DUP1 PUSH4 0x7B43A8E6 EQ PUSH2 0xEC JUMPI DUP1 PUSH4 0xF14FCBC8 EQ PUSH2 0x11E JUMPI JUMPDEST PUSH0 DUP1 REVERT JUMPDEST PUSH2 0x7E PUSH1 0x4 DUP1 CALLDATASIZE SUB DUP2 ADD SWAP1 PUSH2 0x79 SWAP2 SWAP1 PUSH2 0x7DA JUMP JUMPDEST PUSH2 0x13A JUMP JUMPDEST PUSH1 0x40 MLOAD PUSH2 0x8B SWAP2 SWAP1 PUSH2 0x814 JUMP JUMPDEST PUSH1 0x40 MLOAD DUP1 SWAP2 SUB SWAP1 RETURN JUMPDEST PUSH2 0x9C PUSH2 0x169 JUMP JUMPDEST PUSH1 0x40 MLOAD PUSH2 0xA9 SWAP2 SWAP1 PUSH2 0x847 JUMP JUMPDEST PUSH1 0x40 MLOAD DUP1 SWAP2 SUB SWAP1 RETURN JUMPDEST PUSH2 0xBA PUSH2 0x1BD JUMP JUMPDEST PUSH1 0x40 MLOAD PUSH2 0xC7 SWAP2 SWAP1 PUSH2 0x87B JUMP JUMPDEST PUSH1 0x40 MLOAD DUP1 SWAP2 SUB SWAP1 RETURN JUMPDEST PUSH2 0xEA PUSH1 0x4 DUP1 CALLDATASIZE SUB DUP2 ADD SWAP1 PUSH2 0xE5 SWAP2 SWAP1 PUSH2 0x7DA JUMP JUMPDEST PUSH2 0x1CD JUMP JUMPDEST STOP JUMPDEST PUSH2 0x106 PUSH1 0x4 DUP1 CALLDATASIZE SUB DUP2 ADD SWAP1 PUSH2 0x101 SWAP2 SWAP1 PUSH2 0x8EE JUMP JUMPDEST PUSH2 0x58B JUMP JUMPDEST PUSH1 0x40 MLOAD PUSH2 0x115 SWAP4 SWAP3 SWAP2 SWAP1 PUSH2 0x93B JUMP JUMPDEST PUSH1 0x40 MLOAD DUP1 SWAP2 SUB SWAP1 RETURN JUMPDEST PUSH2 0x138 PUSH1 0x4 DUP1 CALLDATASIZE SUB DUP2 ADD SWAP1 PUSH2 0x133 SWAP2 SWAP1 PUSH2 0x7DA JUMP JUMPDEST PUSH2 0x5D1 JUMP JUMPDEST STOP JUMPDEST PUSH0 DUP2 PUSH1 0x40 MLOAD PUSH1 0x20 ADD PUSH2 0x14C SWAP2 SWAP1 PUSH2 0x990 JUMP JUMPDEST PUSH1 0x40 MLOAD PUSH1 0x20 DUP2 DUP4 SUB SUB DUP2 MSTORE SWAP1 PUSH1 0x40 MSTORE DUP1 MLOAD SWAP1 PUSH1 0x20 ADD KECCAK256 SWAP1 POP SWAP2 SWAP1 POP JUMP JUMPDEST PUSH0 PUSH1 0x1 PUSH0 CALLER PUSH20 0xFFFFFFFFFFFFFFFFFFFFFFFFFFFFFFFFFFFFFFFF AND PUSH20 0xFFFFFFFFFFFFFFFFFFFFFFFFFFFFFFFFFFFFFFFF AND DUP2 MSTORE PUSH1 0x20 ADD SWAP1 DUP2 MSTORE PUSH1 0x20 ADD PUSH0 KECCAK256 PUSH1 0x1 ADD PUSH1 0x8 SWAP1 SLOAD SWAP1 PUSH2 0x100 EXP SWAP1 DIV PUSH1 0xFF AND SWAP1 POP SWAP1 JUMP JUMPDEST PUSH0 DUP1 SLOAD SWAP1 PUSH2 0x100 EXP SWAP1 DIV PUSH1 0xFF AND DUP2 JUMP JUMPDEST PUSH0 ISZERO ISZERO PUSH1 0x1 PUSH0 CALLER PUSH20 0xFFFFFFFFFFFFFFFFFFFFFFFFFFFFFFFFFFFFFFFF AND PUSH20 0xFFFFFFFFFFFFFFFFFFFFFFFFFFFFFFFFFFFFFFFF AND DUP2 MSTORE PUSH1 0x20 ADD SWAP1 DUP2 MSTORE PUSH1 0x20 ADD PUSH0 KECCAK256 PUSH1 0x1 ADD PUSH1 0x8 SWAP1 SLOAD SWAP1 PUSH2 0x100 EXP SWAP1 DIV PUSH1 0xFF AND ISZERO ISZERO EQ PUSH2 0x260 JUMPI PUSH1 0x40 MLOAD PUSH32 0x8C379A000000000000000000000000000000000000000000000000000000000 DUP2 MSTORE PUSH1 0x4 ADD PUSH2 0x257 SWAP1 PUSH2 0xA2A JUMP JUMPDEST PUSH1 0x40 MLOAD DUP1 SWAP2 SUB SWAP1 REVERT JUMPDEST PUSH1 0x1 DUP1 PUSH0 CALLER PUSH20 0xFFFFFFFFFFFFFFFFFFFFFFFFFFFFFFFFFFFFFFFF AND PUSH20 0xFFFFFFFFFFFFFFFFFFFFFFFFFFFFFFFFFFFFFFFF AND DUP2 MSTORE PUSH1 0x20 ADD SWAP1 DUP2 MSTORE PUSH1 0x20 ADD PUSH0 KECCAK256 PUSH1 0x1 ADD PUSH1 0x8 PUSH2 0x100 EXP DUP2 SLOAD DUP2 PUSH1 0xFF MUL NOT AND SWAP1 DUP4 ISZERO ISZERO MUL OR SWAP1 SSTORE POP PUSH1 0x1 PUSH0 CALLER PUSH20 0xFFFFFFFFFFFFFFFFFFFFFFFFFFFFFFFFFFFFFFFF AND PUSH20 0xFFFFFFFFFFFFFFFFFFFFFFFFFFFFFFFFFFFFFFFF AND DUP2 MSTORE PUSH1 0x20 ADD SWAP1 DUP2 MSTORE PUSH1 0x20 ADD PUSH0 KECCAK256 PUSH0 ADD SLOAD PUSH2 0x301 DUP3 PUSH2 0x13A JUMP JUMPDEST EQ PUSH2 0x341 JUMPI PUSH1 0x40 MLOAD PUSH32 0x8C379A000000000000000000000000000000000000000000000000000000000 DUP2 MSTORE PUSH1 0x4 ADD PUSH2 0x338 SWAP1 PUSH2 0xAB8 JUMP JUMPDEST PUSH1 0x40 MLOAD DUP1 SWAP2 SUB SWAP1 REVERT JUMPDEST PUSH1 0x1 PUSH0 CALLER PUSH20 0xFFFFFFFFFFFFFFFFFFFFFFFFFFFFFFFFFFFFFFFF AND PUSH20 0xFFFFFFFFFFFFFFFFFFFFFFFFFFFFFFFFFFFFFFFF AND DUP2 MSTORE PUSH1 0x20 ADD SWAP1 DUP2 MSTORE PUSH1 0x20 ADD PUSH0 KECCAK256 PUSH1 0x1 ADD PUSH0 SWAP1 SLOAD SWAP1 PUSH2 0x100 EXP SWAP1 DIV PUSH8 0xFFFFFFFFFFFFFFFF AND PUSH8 0xFFFFFFFFFFFFFFFF AND NUMBER PUSH8 0xFFFFFFFFFFFFFFFF AND GT PUSH2 0x3EA JUMPI PUSH1 0x40 MLOAD PUSH32 0x8C379A000000000000000000000000000000000000000000000000000000000 DUP2 MSTORE PUSH1 0x4 ADD PUSH2 0x3E1 SWAP1 PUSH2 0xB6C JUMP JUMPDEST PUSH1 0x40 MLOAD DUP1 SWAP2 SUB SWAP1 REVERT JUMPDEST PUSH1 0xFA PUSH1 0x1 PUSH0 CALLER PUSH20 0xFFFFFFFFFFFFFFFFFFFFFFFFFFFFFFFFFFFFFFFF AND PUSH20 0xFFFFFFFFFFFFFFFFFFFFFFFFFFFFFFFFFFFFFFFF AND DUP2 MSTORE PUSH1 0x20 ADD SWAP1 DUP2 MSTORE PUSH1 0x20 ADD PUSH0 KECCAK256 PUSH1 0x1 ADD PUSH0 SWAP1 SLOAD SWAP1 PUSH2 0x100 EXP SWAP1 DIV PUSH8 0xFFFFFFFFFFFFFFFF AND PUSH2 0x44A SWAP2 SWAP1 PUSH2 0xBB7 JUMP JUMPDEST PUSH8 0xFFFFFFFFFFFFFFFF AND NUMBER PUSH8 0xFFFFFFFFFFFFFFFF AND GT ISZERO PUSH2 0x4A0 JUMPI PUSH1 0x40 MLOAD PUSH32 0x8C379A000000000000000000000000000000000000000000000000000000000 DUP2 MSTORE PUSH1 0x4 ADD PUSH2 0x497 SWAP1 PUSH2 0xC62 JUMP JUMPDEST PUSH1 0x40 MLOAD DUP1 SWAP2 SUB SWAP1 REVERT JUMPDEST PUSH0 PUSH1 0x1 PUSH0 CALLER PUSH20 0xFFFFFFFFFFFFFFFFFFFFFFFFFFFFFFFFFFFFFFFF AND PUSH20 0xFFFFFFFFFFFFFFFFFFFFFFFFFFFFFFFFFFFFFFFF AND DUP2 MSTORE PUSH1 0x20 ADD SWAP1 DUP2 MSTORE PUSH1 0x20 ADD PUSH0 KECCAK256 PUSH1 0x1 ADD PUSH0 SWAP1 SLOAD SWAP1 PUSH2 0x100 EXP SWAP1 DIV PUSH8 0xFFFFFFFFFFFFFFFF AND PUSH8 0xFFFFFFFFFFFFFFFF AND BLOCKHASH SWAP1 POP PUSH0 DUP1 PUSH0 SWAP1 SLOAD SWAP1 PUSH2 0x100 EXP SWAP1 DIV PUSH1 0xFF AND PUSH1 0xFF AND DUP3 DUP5 PUSH1 0x40 MLOAD PUSH1 0x20 ADD PUSH2 0x527 SWAP3 SWAP2 SWAP1 PUSH2 0xC80 JUMP JUMPDEST PUSH1 0x40 MLOAD PUSH1 0x20 DUP2 DUP4 SUB SUB DUP2 MSTORE SWAP1 PUSH1 0x40 MSTORE DUP1 MLOAD SWAP1 PUSH1 0x20 ADD KECCAK256 PUSH0 SHR PUSH2 0x549 SWAP2 SWAP1 PUSH2 0xCE1 JUMP JUMPDEST SWAP1 POP PUSH32 0xBC016DD1CADEAEFCB851AF7A0A93532E0023D536894B730801F7BCFE7065BCC2 CALLER DUP5 DUP4 PUSH1 0x40 MLOAD PUSH2 0x57E SWAP4 SWAP3 SWAP2 SWAP1 PUSH2 0xD2F JUMP JUMPDEST PUSH1 0x40 MLOAD DUP1 SWAP2 SUB SWAP1 LOG1 POP POP POP JUMP JUMPDEST PUSH1 0x1 PUSH1 0x20 MSTORE DUP1 PUSH0 MSTORE PUSH1 0x40 PUSH0 KECCAK256 PUSH0 SWAP2 POP SWAP1 POP DUP1 PUSH0 ADD SLOAD SWAP1 DUP1 PUSH1 0x1 ADD PUSH0 SWAP1 SLOAD SWAP1 PUSH2 0x100 EXP SWAP1 DIV PUSH8 0xFFFFFFFFFFFFFFFF AND SWAP1 DUP1 PUSH1 0x1 ADD PUSH1 0x8 SWAP1 SLOAD SWAP1 PUSH2 0x100 EXP SWAP1 DIV PUSH1 0xFF AND SWAP1 POP DUP4 JUMP JUMPDEST DUP1 PUSH1 0x1 PUSH0 CALLER PUSH20 0xFFFFFFFFFFFFFFFFFFFFFFFFFFFFFFFFFFFFFFFF AND PUSH20 0xFFFFFFFFFFFFFFFFFFFFFFFFFFFFFFFFFFFFFFFF AND DUP2 MSTORE PUSH1 0x20 ADD SWAP1 DUP2 MSTORE PUSH1 0x20 ADD PUSH0 KECCAK256 PUSH0 ADD DUP2 SWAP1 SSTORE POP NUMBER PUSH1 0x1 PUSH0 CALLER PUSH20 0xFFFFFFFFFFFFFFFFFFFFFFFFFFFFFFFFFFFFFFFF AND PUSH20 0xFFFFFFFFFFFFFFFFFFFFFFFFFFFFFFFFFFFFFFFF AND DUP2 MSTORE PUSH1 0x20 ADD SWAP1 DUP2 MSTORE PUSH1 0x20 ADD PUSH0 KECCAK256 PUSH1 0x1 ADD PUSH0 PUSH2 0x100 EXP DUP2 SLOAD DUP2 PUSH8 0xFFFFFFFFFFFFFFFF MUL NOT AND SWAP1 DUP4 PUSH8 0xFFFFFFFFFFFFFFFF AND MUL OR SWAP1 SSTORE POP PUSH0 PUSH1 0x1 PUSH0 CALLER PUSH20 0xFFFFFFFFFFFFFFFFFFFFFFFFFFFFFFFFFFFFFFFF AND PUSH20 0xFFFFFFFFFFFFFFFFFFFFFFFFFFFFFFFFFFFFFFFF AND DUP2 MSTORE PUSH1 0x20 ADD SWAP1 DUP2 MSTORE PUSH1 0x20 ADD PUSH0 KECCAK256 PUSH1 0x1 ADD PUSH1 0x8 PUSH2 0x100 EXP DUP2 SLOAD DUP2 PUSH1 0xFF MUL NOT AND SWAP1 DUP4 ISZERO ISZERO MUL OR SWAP1 SSTORE POP PUSH32 0x3C1A1F8F38335B17F751C6DA4BA7D1865F26B3997535176F5080DE9FAD891603 CALLER PUSH1 0x1 PUSH0 CALLER PUSH20 0xFFFFFFFFFFFFFFFFFFFFFFFFFFFFFFFFFFFFFFFF AND PUSH20 0xFFFFFFFFFFFFFFFFFFFFFFFFFFFFFFFFFFFFFFFF AND DUP2 MSTORE PUSH1 0x20 ADD SWAP1 DUP2 MSTORE PUSH1 0x20 ADD PUSH0 KECCAK256 PUSH0 ADD SLOAD PUSH1 0x1 PUSH0 CALLER PUSH20 0xFFFFFFFFFFFFFFFFFFFFFFFFFFFFFFFFFFFFFFFF AND PUSH20 0xFFFFFFFFFFFFFFFFFFFFFFFFFFFFFFFFFFFFFFFF AND DUP2 MSTORE PUSH1 0x20 ADD SWAP1 DUP2 MSTORE PUSH1 0x20 ADD PUSH0 KECCAK256 PUSH1 0x1 ADD PUSH0 SWAP1 SLOAD SWAP1 PUSH2 0x100 EXP SWAP1 DIV PUSH8 0xFFFFFFFFFFFFFFFF AND PUSH1 0x40 MLOAD PUSH2 0x798 SWAP4 SWAP3 SWAP2 SWAP1 PUSH2 0xD64 JUMP JUMPDEST PUSH1 0x40 MLOAD DUP1 SWAP2 SUB SWAP1 LOG1 POP JUMP JUMPDEST PUSH0 DUP1 REVERT JUMPDEST PUSH0 DUP2 SWAP1 POP SWAP2 SWAP1 POP JUMP JUMPDEST PUSH2 0x7B9 DUP2 PUSH2 0x7A7 JUMP JUMPDEST DUP2 EQ PUSH2 0x7C3 JUMPI PUSH0 DUP1 REVERT JUMPDEST POP JUMP JUMPDEST PUSH0 DUP2 CALLDATALOAD SWAP1 POP PUSH2 0x7D4 DUP2 PUSH2 0x7B0 JUMP JUMPDEST SWAP3 SWAP2 POP POP JUMP JUMPDEST PUSH0 PUSH1 0x20 DUP3 DUP5 SUB SLT ISZERO PUSH2 0x7EF JUMPI PUSH2 0x7EE PUSH2 0x7A3 JUMP JUMPDEST JUMPDEST PUSH0 PUSH2 0x7FC DUP5 DUP3 DUP6 ADD PUSH2 0x7C6 JUMP JUMPDEST SWAP2 POP POP SWAP3 SWAP2 POP POP JUMP JUMPDEST PUSH2 0x80E DUP2 PUSH2 0x7A7 JUMP JUMPDEST DUP3 MSTORE POP POP JUMP JUMPDEST PUSH0 PUSH1 0x20 DUP3 ADD SWAP1 POP PUSH2 0x827 PUSH0 DUP4 ADD DUP5 PUSH2 0x805 JUMP JUMPDEST SWAP3 SWAP2 POP POP JUMP JUMPDEST PUSH0 DUP2 ISZERO ISZERO SWAP1 POP SWAP2 SWAP1 POP JUMP JUMPDEST PUSH2 0x841 DUP2 PUSH2 0x82D JUMP JUMPDEST DUP3 MSTORE POP POP JUMP JUMPDEST PUSH0 PUSH1 0x20 DUP3 ADD SWAP1 POP PUSH2 0x85A PUSH0 DUP4 ADD DUP5 PUSH2 0x838 JUMP JUMPDEST SWAP3 SWAP2 POP POP JUMP JUMPDEST PUSH0 PUSH1 0xFF DUP3 AND SWAP1 POP SWAP2 SWAP1 POP JUMP JUMPDEST PUSH2 0x875 DUP2 PUSH2 0x860 JUMP JUMPDEST DUP3 MSTORE POP POP JUMP JUMPDEST PUSH0 PUSH1 0x20 DUP3 ADD SWAP1 POP PUSH2 0x88E PUSH0 DUP4 ADD DUP5 PUSH2 0x86C JUMP JUMPDEST SWAP3 SWAP2 POP POP JUMP JUMPDEST PUSH0 PUSH20 0xFFFFFFFFFFFFFFFFFFFFFFFFFFFFFFFFFFFFFFFF DUP3 AND SWAP1 POP SWAP2 SWAP1 POP JUMP JUMPDEST PUSH0 PUSH2 0x8BD DUP3 PUSH2 0x894 JUMP JUMPDEST SWAP1 POP SWAP2 SWAP1 POP JUMP JUMPDEST PUSH2 0x8CD DUP2 PUSH2 0x8B3 JUMP JUMPDEST DUP2 EQ PUSH2 0x8D7 JUMPI PUSH0 DUP1 REVERT JUMPDEST POP JUMP JUMPDEST PUSH0 DUP2 CALLDATALOAD SWAP1 POP PUSH2 0x8E8 DUP2 PUSH2 0x8C4 JUMP JUMPDEST SWAP3 SWAP2 POP POP JUMP JUMPDEST PUSH0 PUSH1 0x20 DUP3 DUP5 SUB SLT ISZERO PUSH2 0x903 JUMPI PUSH2 0x902 PUSH2 0x7A3 JUMP JUMPDEST JUMPDEST PUSH0 PUSH2 0x910 DUP5 DUP3 DUP6 ADD PUSH2 0x8DA JUMP JUMPDEST SWAP2 POP POP SWAP3 SWAP2 POP POP JUMP JUMPDEST PUSH0 PUSH8 0xFFFFFFFFFFFFFFFF DUP3 AND SWAP1 POP SWAP2 SWAP1 POP JUMP JUMPDEST PUSH2 0x935 DUP2 PUSH2 0x919 JUMP JUMPDEST DUP3 MSTORE POP POP JUMP JUMPDEST PUSH0 PUSH1 0x60 DUP3 ADD SWAP1 POP PUSH2 0x94E PUSH0 DUP4 ADD DUP7 PUSH2 0x805 JUMP JUMPDEST PUSH2 0x95B PUSH1 0x20 DUP4 ADD DUP6 PUSH2 0x92C JUMP JUMPDEST PUSH2 0x968 PUSH1 0x40 DUP4 ADD DUP5 PUSH2 0x838 JUMP JUMPDEST SWAP5 SWAP4 POP POP POP POP JUMP JUMPDEST PUSH0 DUP2 SWAP1 POP SWAP2 SWAP1 POP JUMP JUMPDEST PUSH2 0x98A PUSH2 0x985 DUP3 PUSH2 0x7A7 JUMP JUMPDEST PUSH2 0x970 JUMP JUMPDEST DUP3 MSTORE POP POP JUMP JUMPDEST PUSH0 PUSH2 0x99B DUP3 DUP5 PUSH2 0x979 JUMP JUMPDEST PUSH1 0x20 DUP3 ADD SWAP2 POP DUP2 SWAP1 POP SWAP3 SWAP2 POP POP JUMP JUMPDEST PUSH0 DUP3 DUP3 MSTORE PUSH1 0x20 DUP3 ADD SWAP1 POP SWAP3 SWAP2 POP POP JUMP JUMPDEST PUSH32 0x436F6D6D697452657665616C3A3A72657665616C3A20416C7265616479207265 PUSH0 DUP3 ADD MSTORE PUSH32 0x7665616C65640000000000000000000000000000000000000000000000000000 PUSH1 0x20 DUP3 ADD MSTORE POP JUMP JUMPDEST PUSH0 PUSH2 0xA14 PUSH1 0x26 DUP4 PUSH2 0x9AA JUMP JUMPDEST SWAP2 POP PUSH2 0xA1F DUP3 PUSH2 0x9BA JUMP JUMPDEST PUSH1 0x40 DUP3 ADD SWAP1 POP SWAP2 SWAP1 POP JUMP JUMPDEST PUSH0 PUSH1 0x20 DUP3 ADD SWAP1 POP DUP2 DUP2 SUB PUSH0 DUP4 ADD MSTORE PUSH2 0xA41 DUP2 PUSH2 0xA08 JUMP JUMPDEST SWAP1 POP SWAP2 SWAP1 POP JUMP JUMPDEST PUSH32 0x436F6D6D697452657665616C3A3A72657665616C3A2052657665616C65642068 PUSH0 DUP3 ADD MSTORE PUSH32 0x61736820646F6573206E6F74206D6174636820636F6D6D697400000000000000 PUSH1 0x20 DUP3 ADD MSTORE POP JUMP JUMPDEST PUSH0 PUSH2 0xAA2 PUSH1 0x39 DUP4 PUSH2 0x9AA JUMP JUMPDEST SWAP2 POP PUSH2 0xAAD DUP3 PUSH2 0xA48 JUMP JUMPDEST PUSH1 0x40 DUP3 ADD SWAP1 POP SWAP2 SWAP1 POP JUMP JUMPDEST PUSH0 PUSH1 0x20 DUP3 ADD SWAP1 POP DUP2 DUP2 SUB PUSH0 DUP4 ADD MSTORE PUSH2 0xACF DUP2 PUSH2 0xA96 JUMP JUMPDEST SWAP1 POP SWAP2 SWAP1 POP JUMP JUMPDEST PUSH32 0x436F6D6D697452657665616C3A3A72657665616C3A2052657665616C20616E64 PUSH0 DUP3 ADD MSTORE PUSH32 0x20636F6D6D69742068617070656E6564206F6E207468652073616D6520626C6F PUSH1 0x20 DUP3 ADD MSTORE PUSH32 0x636B000000000000000000000000000000000000000000000000000000000000 PUSH1 0x40 DUP3 ADD MSTORE POP JUMP JUMPDEST PUSH0 PUSH2 0xB56 PUSH1 0x42 DUP4 PUSH2 0x9AA JUMP JUMPDEST SWAP2 POP PUSH2 0xB61 DUP3 PUSH2 0xAD6 JUMP JUMPDEST PUSH1 0x60 DUP3 ADD SWAP1 POP SWAP2 SWAP1 POP JUMP JUMPDEST PUSH0 PUSH1 0x20 DUP3 ADD SWAP1 POP DUP2 DUP2 SUB PUSH0 DUP4 ADD MSTORE PUSH2 0xB83 DUP2 PUSH2 0xB4A JUMP JUMPDEST SWAP1 POP SWAP2 SWAP1 POP JUMP JUMPDEST PUSH32 0x4E487B7100000000000000000000000000000000000000000000000000000000 PUSH0 MSTORE PUSH1 0x11 PUSH1 0x4 MSTORE PUSH1 0x24 PUSH0 REVERT JUMPDEST PUSH0 PUSH2 0xBC1 DUP3 PUSH2 0x919 JUMP JUMPDEST SWAP2 POP PUSH2 0xBCC DUP4 PUSH2 0x919 JUMP JUMPDEST SWAP3 POP DUP3 DUP3 ADD SWAP1 POP PUSH8 0xFFFFFFFFFFFFFFFF DUP2 GT ISZERO PUSH2 0xBEC JUMPI PUSH2 0xBEB PUSH2 0xB8A JUMP JUMPDEST JUMPDEST SWAP3 SWAP2 POP POP JUMP JUMPDEST PUSH32 0x436F6D6D697452657665616C3A3A72657665616C3A2052657665616C65642074 PUSH0 DUP3 ADD MSTORE PUSH32 0x6F6F206C61746500000000000000000000000000000000000000000000000000 PUSH1 0x20 DUP3 ADD MSTORE POP JUMP JUMPDEST PUSH0 PUSH2 0xC4C PUSH1 0x27 DUP4 PUSH2 0x9AA JUMP JUMPDEST SWAP2 POP PUSH2 0xC57 DUP3 PUSH2 0xBF2 JUMP JUMPDEST PUSH1 0x40 DUP3 ADD SWAP1 POP SWAP2 SWAP1 POP JUMP JUMPDEST PUSH0 PUSH1 0x20 DUP3 ADD SWAP1 POP DUP2 DUP2 SUB PUSH0 DUP4 ADD MSTORE PUSH2 0xC79 DUP2 PUSH2 0xC40 JUMP JUMPDEST SWAP1 POP SWAP2 SWAP1 POP JUMP JUMPDEST PUSH0 PUSH2 0xC8B DUP3 DUP6 PUSH2 0x979 JUMP JUMPDEST PUSH1 0x20 DUP3 ADD SWAP2 POP PUSH2 0xC9B DUP3 DUP5 PUSH2 0x979 JUMP JUMPDEST PUSH1 0x20 DUP3 ADD SWAP2 POP DUP2 SWAP1 POP SWAP4 SWAP3 POP POP POP JUMP JUMPDEST PUSH0 DUP2 SWAP1 POP SWAP2 SWAP1 POP JUMP JUMPDEST PUSH32 0x4E487B7100000000000000000000000000000000000000000000000000000000 PUSH0 MSTORE PUSH1 0x12 PUSH1 0x4 MSTORE PUSH1 0x24 PUSH0 REVERT JUMPDEST PUSH0 PUSH2 0xCEB DUP3 PUSH2 0xCAB JUMP JUMPDEST SWAP2 POP PUSH2 0xCF6 DUP4 PUSH2 0xCAB JUMP JUMPDEST SWAP3 POP DUP3 PUSH2 0xD06 JUMPI PUSH2 0xD05 PUSH2 0xCB4 JUMP JUMPDEST JUMPDEST DUP3 DUP3 MOD SWAP1 POP SWAP3 SWAP2 POP POP JUMP JUMPDEST PUSH2 0xD1A DUP2 PUSH2 0x8B3 JUMP JUMPDEST DUP3 MSTORE POP POP JUMP JUMPDEST PUSH2 0xD29 DUP2 PUSH2 0xCAB JUMP JUMPDEST DUP3 MSTORE POP POP JUMP JUMPDEST PUSH0 PUSH1 0x60 DUP3 ADD SWAP1 POP PUSH2 0xD42 PUSH0 DUP4 ADD DUP7 PUSH2 0xD11 JUMP JUMPDEST PUSH2 0xD4F PUSH1 0x20 DUP4 ADD DUP6 PUSH2 0x805 JUMP JUMPDEST PUSH2 0xD5C PUSH1 0x40 DUP4 ADD DUP5 PUSH2 0xD20 JUMP JUMPDEST SWAP5 SWAP4 POP POP POP POP JUMP JUMPDEST PUSH0 PUSH1 0x60 DUP3 ADD SWAP1 POP PUSH2 0xD77 PUSH0 DUP4 ADD DUP7 PUSH2 0xD11 JUMP JUMPDEST PUSH2 0xD84 PUSH1 0x20 DUP4 ADD DUP6 PUSH2 0x805 JUMP JUMPDEST PUSH2 0xD91 PUSH1 0x40 DUP4 ADD DUP5 PUSH2 0x92C JUMP JUMPDEST SWAP5 SWAP4 POP POP POP POP JUMP INVALID LOG2 PUSH5 0x6970667358 0x22 SLT KECCAK256 REVERT 0xD2 0x2C SLOAD 0xC0 CALLER PUSH18 0x8CC8A7C05D7E199F7C5E11D8F70A7D529AF3 SWAP1 0x2E 0xEB SHL SWAP3 SWAP12 DIV PUSH5 0x736F6C6343 STOP ADDMOD BYTE STOP CALLER "
				},
				"gasEstimates": {
					"creation": {
						"codeDepositCost": "2752600",
						"executionCost": "infinite",
						"totalCost": "infinite"
					},
					"external": {
						"addPlayer()": "infinite",
						"allowance(address,address)": "infinite",
						"commitReveal0()": "infinite",
						"commitReveal1()": "infinite",
						"input(uint256)": "infinite",
						"inputReveal(uint256)": "infinite",
						"minutesElapsed()": "2514",
						"numInput()": "2449",
						"numPlayer()": "2469",
						"numReveal()": "2514",
						"player_choice(address)": "2869",
						"player_not_played(address)": "2879",
						"player_not_revealed(address)": "2856",
						"players(uint256)": "5054",
						"reward()": "2493",
						"timeUnit()": "infinite",
						"withdrawEarly()": "infinite"
					},
					"internal": {
						"_checkWinnerAndPay()": "infinite",
						"_isWinner(uint256,uint256)": "440",
						"_resetGame()": "infinite"
					}
				},
				"methodIdentifiers": {
					"addPlayer()": "27b5db8a",
					"allowance(address,address)": "dd62ed3e",
					"commitReveal0()": "df870a62",
					"commitReveal1()": "728385fb",
					"input(uint256)": "ce6e1c4e",
					"inputReveal(uint256)": "dea29c54",
					"minutesElapsed()": "77cfb378",
					"numInput()": "086f7815",
					"numPlayer()": "90d5d0c3",
					"numReveal()": "c876e615",
					"player_choice(address)": "a040478d",
					"player_not_played(address)": "190cf745",
					"player_not_revealed(address)": "8ffbc767",
					"players(uint256)": "f71d96cb",
					"reward()": "228cb733",
					"timeUnit()": "3c6a7f9b",
					"withdrawEarly()": "2fc54f73"
				}
			},
			"storageLayout": {
				"storage": [
					{
						"astId": 218,
						"contract": "RPS.sol:RPS",
						"label": "numPlayer",
						"offset": 0,
						"slot": "0",
						"type": "t_uint256"
					},
					{
						"astId": 221,
						"contract": "RPS.sol:RPS",
						"label": "reward",
						"offset": 0,
						"slot": "1",
						"type": "t_uint256"
					},
					{
						"astId": 225,
						"contract": "RPS.sol:RPS",
						"label": "player_choice",
						"offset": 0,
						"slot": "2",
						"type": "t_mapping(t_address,t_uint256)"
					},
					{
						"astId": 229,
						"contract": "RPS.sol:RPS",
						"label": "player_not_played",
						"offset": 0,
						"slot": "3",
						"type": "t_mapping(t_address,t_bool)"
					},
					{
						"astId": 233,
						"contract": "RPS.sol:RPS",
						"label": "player_not_revealed",
						"offset": 0,
						"slot": "4",
						"type": "t_mapping(t_address,t_bool)"
					},
					{
						"astId": 236,
						"contract": "RPS.sol:RPS",
						"label": "players",
						"offset": 0,
						"slot": "5",
						"type": "t_array(t_address)dyn_storage"
					},
					{
						"astId": 239,
						"contract": "RPS.sol:RPS",
						"label": "numInput",
						"offset": 0,
						"slot": "6",
						"type": "t_uint256"
					},
					{
						"astId": 242,
						"contract": "RPS.sol:RPS",
						"label": "numReveal",
						"offset": 0,
						"slot": "7",
						"type": "t_uint256"
					},
					{
						"astId": 249,
						"contract": "RPS.sol:RPS",
						"label": "timeUnit",
						"offset": 0,
						"slot": "8",
						"type": "t_contract(TimeUnit)880"
					},
					{
						"astId": 256,
						"contract": "RPS.sol:RPS",
						"label": "commitReveal0",
						"offset": 0,
						"slot": "9",
						"type": "t_contract(CommitReveal)211"
					},
					{
						"astId": 263,
						"contract": "RPS.sol:RPS",
						"label": "commitReveal1",
						"offset": 0,
						"slot": "10",
						"type": "t_contract(CommitReveal)211"
					},
					{
						"astId": 266,
						"contract": "RPS.sol:RPS",
						"label": "minutesElapsed",
						"offset": 0,
						"slot": "11",
						"type": "t_uint256"
					},
					{
						"astId": 272,
						"contract": "RPS.sol:RPS",
						"label": "allowance",
						"offset": 0,
						"slot": "12",
						"type": "t_mapping(t_address,t_mapping(t_address,t_uint256))"
					}
				],
				"types": {
					"t_address": {
						"encoding": "inplace",
						"label": "address",
						"numberOfBytes": "20"
					},
					"t_array(t_address)dyn_storage": {
						"base": "t_address",
						"encoding": "dynamic_array",
						"label": "address[]",
						"numberOfBytes": "32"
					},
					"t_bool": {
						"encoding": "inplace",
						"label": "bool",
						"numberOfBytes": "1"
					},
					"t_contract(CommitReveal)211": {
						"encoding": "inplace",
						"label": "contract CommitReveal",
						"numberOfBytes": "20"
					},
					"t_contract(TimeUnit)880": {
						"encoding": "inplace",
						"label": "contract TimeUnit",
						"numberOfBytes": "20"
					},
					"t_mapping(t_address,t_bool)": {
						"encoding": "mapping",
						"key": "t_address",
						"label": "mapping(address => bool)",
						"numberOfBytes": "32",
						"value": "t_bool"
					},
					"t_mapping(t_address,t_mapping(t_address,t_uint256))": {
						"encoding": "mapping",
						"key": "t_address",
						"label": "mapping(address => mapping(address => uint256))",
						"numberOfBytes": "32",
						"value": "t_mapping(t_address,t_uint256)"
					},
					"t_mapping(t_address,t_uint256)": {
						"encoding": "mapping",
						"key": "t_address",
						"label": "mapping(address => uint256)",
						"numberOfBytes": "32",
						"value": "t_uint256"
					},
					"t_uint256": {
						"encoding": "inplace",
						"label": "uint256",
						"numberOfBytes": "32"
					}
				}
			},
			"userdoc": {
				"kind": "user",
				"methods": {},
				"version": 1
			}
		}
	}
}